:020000040800F2
:1000000038040020C9000008FB000008FD000008BB
:10001000FF000008010100080301000800000000C3
:1000200000000000000000000000000005010008C2
:100030000701000800000000090100080B0100088A
:100040000D0100080D0100080D0100080D01000858
:100050000D0100080D0100080D0100080D01000848
:100060000D0100080D0100080D0100080D01000838
:100070000D0100080D0100080D0100080D01000828
:100080000D0100080D0100080D0100080D01000818
:100090000D0100080D0100080D0100080D01000808
:1000A0000D0100080D0100080D010008290A0008D3
:1000B0000D0100080348854600F086F80048004717
:1000C000990E000838040020114880F30888114870
:1000D0000168090E104A9142FFD110481049016091
:1000E00010481149016011480F4901600B4810493F
:1000F00001601048804710480047FEE7FEE7FEE732
:10010000FEE7FEE7FEE7FEE7FEE7FEE7FEE70000AC
:1001100038040020040000001F0000001C100240F2
:100120000000000418680040120000001C68004035
:100130000000000089070008B500000830B50B4634
:10014000014600202022012409E00D46D5409D42B1
:1001500005D31D469540491B254695404019154637
:10016000521E002DF1DC30BDF0B51FB40646002054
:1001700082B005464024019100901BE0019922467F
:100180000F46304600F042F8049A059B801A9941C8
:1001900010D310461946224600F028F8361A8F412F
:1001A0000197224601200021009F00F01FF8381817
:1001B0004D4100902046641E0028DFDC019B009822
:1001C0002946324607B0F0BD064C0125064E05E033
:1001D000E36807CC2B430C3C98471034B442F7D368
:1001E000FFF76CFF000F0008200F000810B5202A51
:1001F00004DB0146203A9140002010BD91402023AD
:100200009C1A0346E3401943904010BD10B5202AC4
:1002100004DB0846203AD040002110BD0B46D340F5
:10022000D0402024A21A91400843194610BDFFB5C2
:1002300083B00C46029400200190002726E000269F
:100240001CE0721C039951430846791CFFF776FFA6
:100250000546A54201D9281B00E0601B054602980F
:10026000A84204D90295059806700698077002986E
:10027000002802D10120019002E0761C402EE0D33C
:1002800000BF0198002800D002E07F1C042FD6D3C5
:1002900000BF029807B0F0BDFCB50246002500265D
:1002A00001960020002300240096CE7835072D0FFC
:1002B000CE7810273E40002E01D08E7835430E7840
:1002C000002E27D01468002021E001268640334606
:1002D0000E881E400196019E9E4217D183000F2674
:1002E0009E4000962746009EB7433C462E469E40C1
:1002F0003443CE78282E03D101268640566105E08E
:10030000CE78482E02D1012686401661401C08286E
:10031000DBD314600E88FF2E2CDD5468002026E00D
:10032000064608360127B7403B460E881E40019618
:10033000019E9E421AD183000F269E4000962746BA
:10034000009EB7433C462E469E403443CE78282E2E
:1003500004D1064608360127B7405761CE78482EAB
:1003600004D1064608360127B7401761401C08280B
:10037000D6D35460FCBDF0B5002300244D07EE0E2B
:100380001546B5402B46CD10002D0BD1056A4E0702
:10039000F70E0F26BE40B5430562056A1D432C4685
:1003A00004620AE0456A4E07F70E0F26BE40B543C9
:1003B0004562456A1D432C464462F0BD10B586B0C7
:1003C00004461B2168460175012181750021417594
:1003D00005A800F04BF80121480400F07FF8012146
:1003E000880300F08BF81C216846C1740121890242
:1003F00001820321817404A90920C006FFF74CFF84
:1004000004216846C174C901018204A90920C006FB
:10041000FFF742FF03220921C806FFF7ACFF0322C2
:100420000A210920C006FFF7A6FF02210E4800F0AE
:100430002BFB012202210C4800F040FB009400211C
:10044000684681811821418100210181C1803021CC
:1004500081806946044800F03BFB0121024800F01E
:1004600015FB06B010BD0000003801400021827865
:10047000002A27D0184A03231B02D21803789B10A6
:100480009B00D15802789207D30EFF229A400B4668
:100490009343194642789207120E03789B07DB0EAE
:1004A0009A4011430C4A03231B02D21803789B1075
:1004B0009B00D1500278D306DB0E01229A40064BF6
:1004C0001A6007E00278D306DB0E01229A40024B45
:1004D00080331A607047000000E100E0002905D079
:1004E000054A52690243044B5A6104E0024A5269C8
:1004F0008243014B5A61704700100240002905D029
:10050000054A92690243044B9A6104E0024A9269E7
:100510008243014B9A61704700100240FEB50446C9
:1005200000250026002001900090002734484068F4
:100530000C2108400546042D02D1324820603BE0E2
:10054000082D32D12E480068800E461C2C480068C9
:10055000072109050840000D401C0190284840680B
:100560006903084000900098002807D1264971438C
:1005700008460199FFF7E2FD20601DE02048406831
:10058000012149040840002807D02049714308464A
:100590000199FFF7D3FD20600EE01A497143084628
:1005A0000199FFF7CBFD206006E00C2D02D1184821
:1005B000206001E01348206011484068F0210840A5
:1005C00005462D091348475D2068F84060600C48D7
:1005D000406807210902084005462D0A0D48475D7D
:1005E0006068F840A06006484068C90008400546B9
:1005F000ED0A0848475D6068F840E060FEBD000015
:100600000010024000127A00001BB70000093D00F4
:10061000409C00002000002010B500F001F810BD43
:100620001CB544480068012108434249086000BFE6
:1006300040480068022108400028F9D03E483F4960
:1006400008603F480068102108433D49086008469B
:100650000068C008C000086038490968481E394968
:10066000FFF76CFD044636480068204334490860B3
:10067000304840682F4948600846406848602F4825
:1006800000683149884207D92A4840680121890217
:1006900008432849486006E026484068012189024D
:1006A00008432449486023484068032109048843DB
:1006B00020494860084600680003000B08606B464C
:1006C00001AA1E4801682148FFF7B1FD19480068DA
:1006D0000003000B1749086069460879800609780D
:1006E0000905084313490968084312490860084688
:1006F00000680121090608430E49086000BF0D4843
:1007000000680121490608400028F8D009484068DF
:100710008008800007494860084640680221084375
:100720000449486000BF034840680C21084008287D
:10073000F9D11CBD0010024000D8B8050C00002003
:100740000020024000366E0100512502001BB70058
:100750000020064948630649486304498863044900
:1007600088630249C8630249C8637047002C01408E
:1007700000040040024800680249C8637047000056
:1007800004000020002C014010B51548006801212C
:100790000843134908600846406812490840104958
:1007A000486008460068104908400D49086008463E
:1007B00000680121890488430949086008464068A7
:1007C0007F21090488430649486008460068000301
:1007D000000B08609F2000048860FFF71DFF10BD1C
:1007E000001002400000FFF0FFFFF6FE30B58BB0B6
:1007F00004460D460121C802FFF780FE012188044E
:10080000FFF76CFE182108A8C17280216846018597
:10081000032108A881720AA91C48FFF73DFD0622A2
:1008200007211A48FFF7A7FD0794681E05900020CE
:1008300008900690002108A8017105A9144800F04D
:10084000B5F86021684681802046E10F0918C90388
:100850000A0C69464A81002088810120C88001A9CC
:100860000B4800F041F80821094800F091F80121F7
:10087000074800F00FF80121054800F027F8012192
:10088000034800F015F80BB030BD0000000400482C
:10089000002C0140002904D0026880231A43026022
:1008A00003E00268014B1A40026070477FFF0000BE
:1008B000002904D0026801231A43026003E00268A1
:1008C000014B1A4002607047FEFF0000002905D06E
:1008D000426C0123DB031A43426403E0426C52047E
:1008E000520C42647047000070B5002400220023BF
:1008F000056A1F4E35400562056AAAB24568ABB26B
:10090000C569ACB21A4D90352C40194DFD352C40BF
:100910000D882C43174D2A400D7A2D062D0C2A43A5
:100920008D782D062D0C2A43134DA84202D0134D6D
:10093000A84217D1124D2A408D7A2D062D0C2A433C
:10094000104D2A400D792D062D0C2A430E4D2B40BB
:100950000E4D2B408D892D052D0C2B43CD892D055A
:100960002D0C2B434360C461CD88C563026270BD0A
:10097000FFFE0000FFFD0000002C014000080140C8
:10098000FFF70000FFFB0000FFEF0000FFDF0000AB
:100990000A460021C36999B2034B19400B46134321
:1009A0001946C16170470000F7FF0000002203688C
:1009B0009AB2164B984209D001239B07984205D062
:1009C000134B984202D0134B984204D1124B1A4059
:1009D0008B8813439AB2114B1A408B8913439AB2F6
:1009E00002608B68C3620B688362084B984208D030
:1009F000084B984205D00A4B984202D0094B9842C6
:100A000001D10B7C0363012343617047002C01403B
:100A100000040040000801408FFF0000FFFC0000C0
:100A2000004401400048014010B502210C4800F08C
:100A30003BF8002812D00221094800F025F80848A8
:100A400000F084F8074908600748016807A000F033
:100A500081F80948416B09A000F07CF810BD000046
:100A6000003801400800002004000020566F6C741C
:100A70003D25780D0A000000002C0140434352310F
:100A80003D25780D0A00000041617047002904D01F
:100A9000826901231A43826103E08269014B1A4093
:100AA00082617047FEFF000002460020D3680B40C1
:100AB000002B01D0012000E000207047002A03D065
:100AC00003690B43036102E003698B4303617047D1
:100AD000F0B587B004460D4600260020069005902C
:100AE00000272746E669FF21D03130468843064675
:100AF000A888E9880843298908430643E661A6696E
:100B000076097601A889698908430643A66101A888
:100B1000FFF704FD0C48874202D10398069001E0DC
:100B20000498069029680698FFF708FB06092968CB
:100B30000698FFF703FB0007000F05902662059853
:100B4000606207B0F0BD0000004400400146486804
:100B5000C0B270470FB410B503A9044B044A029801
:100B600000F018F810BC08BC04B018477D0E00084F
:100B70003000002002E008C8121F08C1002AFAD184
:100B800070477047002001E001C1121F002AFBD10D
:100B900070470000FFB58FB00F460446002606E000
:100BA00025280AD0129A11999047641C761C207847
:100BB0000028F5D1304613B0F0BD00250121A14A2F
:100BC000009500E00543641C23780846203B9840CC
:100BD0001042F7D120782E2815D1042005436078E3
:100BE000641C2A280AD101CF641C00900BE00099F4
:100BF0000A22514330394018641C00902078014685
:100C000030390929F3D920786C280ED004DC4C281F
:100C100013D06A2812D104E074280ED07A280DD19E
:100C20000BE001204005054307E00121090562783A
:100C30000D43824201D16D18641C641C20788646E5
:100C400069284AD008DC0028B4D058286DD0632821
:100C500010D0642808D140E070286BD0732812D0DF
:100C6000752860D0782860D0129A70461199904704
:100C7000761CE5E03878694608720020487202A8C0
:100C80000190012003E0386801900020C0433F1D1F
:100C900069070CD5002500E06D1C00998D420FDA24
:100CA0008542F9DB0199495D0029F5D108E000256D
:100CB00000E06D1C8542FCDB0199495D0029F8D1FB
:100CC000761907E0019801990078491C0191129A60
:100CD000119990476D1EF5D2B2E00A2002900021D2
:100CE0006802400F039102280CD001CFC11784463F
:100CF00000290DDA6246084652420021814194469D
:100D00002D2008E0FF1DFF08FF0003CF8446EFE71A
:100D1000280504D52B206A46107401203CE0E80722
:100D20003AD02020F7E70A2000E0102000210391AC
:100D3000029007E0102002900021042005430820C3
:100D4000039100906802400F022810D001CF0021CB
:100D5000844600200D9028071FD5704670280CD0BF
:100D6000029A1020039B42401A430CD015E0FF1D4D
:100D7000FF08FF0003CF8446EBE740206A4610746B
:100D800001200D900CE06046084306D030206A46F2
:100D900010747046507402200D907046582804D08C
:100DA00029A001900DA80E900DE02CA0F9E7604657
:100DB000039B029AFFF7D8F9019B84469B5C0E9A2D
:100DC000521E0E92137060460843F0D10E9805A98A
:100DD000081A20300190680701D5009801E0012031
:100DE00000900199884203DD01460198081A00E04D
:100DF00000200025009006E004A8129A405D119999
:100E000090476D1C761C0D988542F5DB04E0129A24
:100E1000302011999047761C0099481E00900029B7
:100E2000F5DC08E00E980E990078491C0E91129A94
:100E300011999047761C0199481E01900029F1DC18
:100E4000641CB4E6092801003031323334353637BA
:100E50003839616263646566000000003031323306
:100E600034353637383941424344454600000000A6
:100E700000BF0146401E0029FBD1704700BF054A54
:100E80009268D207D20F002AF9D0C2B2014B1A6081
:100E90007047000000380140E1204002FFF78EFA61
:100EA0000F2189016420FFF7A1FCFFF751FC1E20F0
:100EB0000F49C8631AE00F48FFF7DAFF0E480068D1
:100EC0000E490968884204DD0C480068401C0B4943
:100ED00008600948006809490968884204DA074837
:100EE0000068401E05490860FFF744FCE3E7000086
:100EF000002C014050C30000080000200400002026
:100F0000200F00080000002034000000740B0008CF
:100F1000540F00083400002004040000840B000873
:100F2000000000000F0000000F00000000D8B8050E
:100F30000000000000000000010203040607080989
:100F4000000000000102030401020304060708096F
:040F5000000000009D
:04000005080000B53A
:00000001FF
