:020000040800F2
:1000000028040020A5010008AD010008AF01000888
:10001000B1010008B3010008B501000800000000AC
:10002000000000000000000000000000B701000810
:10003000B901000800000000BB010008BD01000874
:10004000BF010008BF010008BF010008BF01000890
:10005000BF010008BF010008BF010008BF01000880
:10006000BF010008BF010008BF010008BF01000870
:10007000BF010008BF010008BF010008BF01000860
:10008000BF010008BF010008BF010008BF01000850
:1000900000000000BF01000800000000BF010008D0
:1000A000BF010008BF010008BF010008BF01000830
:1000B000BF010008BF010008BF010008BF01000820
:1000C00000000000BF01000800000000BF010008A0
:1000D000BF010008BF010008BF010008BF01000800
:1000E000BF010008BF010008BF010008BF010008F0
:1000F000BF010008BF010008BF010008BF010008E0
:1001000000000000BF010008BF010008BF01000897
:10011000BF010008BF010008BF010008BF010008BF
:10012000BF010008BF010008BF010008BF010008AF
:10013000BF010008BF01000800000000000000002F
:10014000BF0100080000000000000000BF0100081F
:10015000000000000000000000000000BF010008D7
:10016000000000000000000000000000000000008F
:10017000000000000000000000000000000000007F
:100180000000000000000000BF010008BF010008DF
:10019000DFF80CD000F02EF800480047010E0008F0
:1001A000280400200648804706480047FEE7FEE78F
:1001B000FEE7FEE7FEE7FEE7FEE7FEE7FEE7FEE717
:1001C000DD0700089101000830B50B46014600200C
:1001D0002022012409E021FA02F59D4205D303FA09
:1001E00002F5491B04FA02F52844151EA2F101028A
:1001F000F1DC30BD064C074D06E0E06840F001033D
:1002000094E8070098471034AC42F6D3FFF7C4FFD8
:10021000480E0008680E00082DE9F0430546164612
:100220001F4608464FF0000C002423E0002319E08D
:1002300003F1010805FB08F804F10109B8FBF9F224
:100240008A4202D9A2EB010801E0A1EB0208424672
:10025000904202D9104633703C7010B94FF0010C37
:1002600002E05B1C402BE3D300BFBCF1000F00D0C9
:1002700002E0641C042CD9D300BFBDE8F083014622
:1002800000224FF0E0231A61CA005A6100229A61ED
:1002900005221A6100BF4FF0E022106900F0010250
:1002A0001AB100F48032002AF5D04FF0E022126932
:1002B00022F001024FF0E0231A6100229A61704798
:1002C000F0B50246CF7807F00F05CF7807F010079A
:1002D0000FB18F783D431446002016E087063B0E91
:1002E0000F884FF0010C0CFA00FC07EA0C0757B11D
:1002F000D4F800C00F279F402CEA070705FA03FC3B
:1003000047EA0C072760471CF8B20828E6DB141DF3
:100310000F883E12002012E087063B0E012787401F
:10032000374057B1D4F800C00F279F402CEA070789
:1003300005FA03FC47EA0C072760471CF8B20828B7
:10034000EADBCF78282F06D15769B1F800C047EA19
:100350000C07576108E0CF78482F05D11769B1F82D
:1003600000C047EA0C071761F0BD70B54D07EB0EF2
:10037000082902DA00F1200501E000F124052C46ED
:100380000F269E402568B54302FA03F635432560E3
:1003900070BD4FF6FF710180022181700421C17090
:1003A0007047000008B50121084600F051F802220C
:1003B00006210A48FFF7D9FF6846FFF7EAFF402009
:1003C000ADF8000001208DF8020018208DF8030020
:1003D00069460248FFF774FF08BD000000000440B2
:1003E00030B587B004460D46FFF7DCFF012102203F
:1003F00000F03EF80594681E80B2ADF810000020B1
:10040000ADF818008DF8120004A9104800F060FA49
:1004100070208DF800001C20019000208DF808004D
:1004200001208DF801006946084800F01FFA0821F4
:10043000064800F047FA0121044800F001FA0121C2
:10044000024800F008FA07B030BD00000004004088
:1004500029B1064A926A0243044B9A6204E0034AB5
:10046000926A8243014B9A6270470000001002407A
:1004700029B1064A126B0243044B1A6304E0034A93
:10048000126B8243014B1A63704700000010024058
:1004900029B1064AD26A0243044BDA6204E0034AF5
:1004A000D26A8243014BDA627047000000100240BA
:1004B00000B500F02DF804494968C1F30311034A5F
:1004C000515CC84000BD0000001002401400002034
:1004D00000B5FFF7EDFF04494968C1F30221034A63
:1004E000515CC84000BD0000001002401400002014
:1004F00000B5FFF7DDFF04494968C1F3C221034A93
:10050000515CC84000BD00000010024014000020F3
:1005100010B5194C646804F00C04042C06D0082CA7
:1005200006D00C2C23D149F6404022E0134820E0AD
:10053000114CA46C04F0010444B10F4CA46C04F001
:1005400002040CB10E4C02E00C4C00E00B4C2346B4
:10055000094CA46CC4F30644611C074CA46CC4F39E
:100560000224621C03FB01F4B4FBF2F001E0034837
:1005700000BF00BF10BD00000010024000127A0052
:1005800000093D0010B50A48006820F0180008492D
:1005900008600846006840F00100086000BF044899
:1005A000406800F003000228F9D100F003F810BD04
:1005B0000060014000B587B00020039002907C48A5
:1005C000006840F001007A49086000BF7848006880
:1005D00000F002000028F9D07548006840F480302F
:1005E000734908600520FFF74AFE724800687249A7
:1005F000884210D96E48006B40F080506C49086307
:100600006E48006820F440406C4908600846006865
:1006100040F44040086010E06548006800F4003095
:100620000290029800B109E00398401C03900398DF
:10063000B0F5485F01D307B000BDEDE700BF5C48EF
:10064000006800F4003010B900200290F3E70120A8
:1006500002900520FFF713FE594856490860594893
:10066000006840F01000574908600846006820F014
:10067000070008604F480068401E5349B0FBF1F086
:10068000069050480068069901F0070108434D495B
:1006900008604748406843F6F07188434449486021
:1006A0000846406840F0900048600846406848604E
:1006B000404800684549884206D93D48406840F4B2
:1006C000A0603B4948600AE03A48006840498842D7
:1006D00005D93748406840F48060354948606B462A
:1006E00001AA344801683B48FFF796FD3048806C0A
:1006F00020F003002E4988640846806C40F0010019
:1007000088649DF8000000F0070004909DF8040044
:1007100000F07F0005900846006B40F080500863B1
:100720000846806C2C4908402149886405980004DB
:10073000049940EA01201E49896C08431C498864D9
:100740000846006840F08070086000E000BF18486C
:10075000006800F000700028F8D01548406820F0CC
:100760000300134948600846406840F002004860B2
:1007700000E000BF0E48406800F00C000828F8D1E7
:100780000120FFF77CFD0A48406820F0100008496E
:1007900048600120FFF773FD0548406820F08000A5
:1007A000034948600120FFF76AFD00BF43E70000EE
:1007B000001002400000002000D8B8050070004082
:1007C000000E27070020024000366E0100A24A04F6
:1007D0000051250200127A00FFF880FF10B514487E
:1007E000006840F00100124908600846406811495D
:1007F00008400F494860084600680F4908400C4906
:1008000008600846006820F48020086008464068B8
:1008100020F443004860084600680849084004493D
:1008200008604FF41F008860FFF7ACFE10BD0000A9
:10083000001002400CC0FFF8FFFFF6FEFFFF8F0024
:1008400021B1026842F08002026003E0026822F0F7
:1008500080020260704721B1026842F0010202602A
:1008600003E0026822F0010202607047826922F010
:1008700070020B781A4382610A7A4B781A43036A32
:1008800023F003031A4302624A6842630B4A904210
:1008900002D00B4A90420FD14A7A8B781A43036AEE
:1008A00023F00C031A4302624A898B891A43436876
:1008B00023F440731A43426070470000002C01404B
:1008C00000340140826922F008020A4382617047C5
:1008D000026822F440720B891A430260154A904262
:1008E0000ED0B0F1804F0BD0134A904208D0134A7B
:1008F000904205D0124A904202D0124A904205D14D
:10090000026822F070028B781A430260094A904212
:1009100002D00C4A904205D1026B22F0FF028B7A82
:100920001A4302634A68C2620A88826201224261F3
:1009300070470000002C0140000400400008004007
:10094000000C00400034014008B501210846FFF7C3
:100950007FFD072209211248FFF707FD07220A2120
:100960000F48FFF702FD6846FFF713FD4FF40070D4
:10097000ADF8000001208DF802001C208DF8030066
:1009800069460748FFF79CFC4FF48060ADF8000013
:1009900048208DF8030069460148FFF791FC08BD27
:1009A0000000044008B501210220FFF751FD072295
:1009B0000A211248FFF7D9FC07220B210F48FFF745
:1009C000D4FC6846FFF7E5FC4FF48060ADF800000A
:1009D00001208DF802001C208DF8030069460748AD
:1009E000FFF76EFC4FF40060ADF8000048208DF872
:1009F000030069460148FFF763FC08BD000404409A
:100A000008B501210420FFF723FD08220A2112481E
:100A1000FFF7ABFC08220B210F48FFF7A6FC684646
:100A2000FFF7B7FC4FF48060ADF8000001208DF8AF
:100A300002001C208DF8030069460748FFF740FCC0
:100A40004FF40060ADF8000048208DF803006946BF
:100A50000148FFF735FC08BD00080440826922F018
:100A600001020A438261704702469068084008B15B
:100A7000012070470020FCE770B504460D460026B3
:100A8000E06920F0300029790843E061E06920F056
:100A90004400A9790843E061E06920F00300297A65
:100AA0000843E061A06920F0180069890843A0614B
:100AB000A06920F00400297B0843A0610A48844211
:100AC00003D1FFF715FD064602E0FFF701FD0646DC
:100AD0002868B6FBF0F0000920622868B6FBF0F049
:100AE00000F00F00606270BD00380140CAB20260C1
:100AF00070474FF4E13101603021017100218171B3
:100B00000172182141810021017370471FB504460D
:100B1000FFF71AFF01211020FFF7BAFC6846FFF724
:100B2000E8FF009430208DF8040000208DF80600C6
:100B30008DF808008DF80C001820ADF80A00694601
:100B40000348FFF799FF01210148FFF787FF1FBD09
:100B5000003801401FB50446FFF724FF0121880437
:100B6000FFF786FC6846FFF7C4FF009430208DF83D
:100B7000040000208DF806008DF808008DF80C00A8
:100B80001820ADF80A0069460348FFF775FF0121F8
:100B90000148FFF763FF1FBD004800401FB5044632
:100BA000FFF72EFF0121C804FFF762FC6846FFF73C
:100BB000A0FF009430208DF8040000208DF806007E
:100BC0008DF808008DF80C001820ADF80A00694671
:100BD0000348FFF751FF01210148FFF73FFF1FBD09
:100BE000004C00400FB4054B10B503A9044A02980D
:100BF00000F018F810BC5DF814FB0000DD0D0008D3
:100C00002400002002E008C8121F08C1002AFAD1FF
:100C100070477047002001E001C1121F002AFBD17C
:100C2000704700002DE9FF4F8BB09A460F460546EE
:100C3000002606E025280BD052460D9990476D1CE2
:100C4000761C28780028F5D10FB03046BDE8F08F2B
:100C50000024A0460122604900E0044315F8013F4A
:100C6000203B02FA03F00842F7D128782E2817D14A
:100C700015F8010F44F004042A280ED06FF02F025B
:100C80002878A0F1300109290AD808EB880102EB85
:100C9000410100EB01086D1CF2E757F8048B6D1C55
:100CA000287869283ED006DC0028CDD063280BD0F8
:100CB000642804D136E0732810D075284BD05246F2
:100CC0000D999047761C85E017F8040B8DF800000D
:100CD00000208DF80100E946012003E057F8049B4D
:100CE0004FF0FF3061074FF0000401D40AE0641CAC
:100CF00044450DDA8442FADB19F804100029F6D1D4
:100D000006E0641C8442FCDB19F804100029F8D1C9
:100D1000264404E019F8010B52460D999047641ED1
:100D2000F8D257E001CF4FF00A0B002802DA404218
:100D30002D2102E0210504D52B218DF8241001215D
:100D400003E0E10705D02021F7E70DF12009089124
:100D50000CE00021F9E701CF4FF00A0BF9E7594603
:100D6000FFF732FA01F1300209F8012D0028F6D11F
:100D7000ADEB090000F1200B600701D44FF0010832
:100D8000D84502DDA8EB0B0000E0002080460024DF
:100D900006E009A85246005D0D999047641C761C38
:100DA00008988442F5DB04E0302052460D999047C4
:100DB000761CB8F10001A8F10108F5DC05E019F88E
:100DC000010B52460D999047761CBBF10001ABF127
:100DD000010BF4DC6D1C34E70928010070B50446F2
:100DE0000D46E1B20548FFF781FE00BF0821034828
:100DF000FFF73AFE0028F9D0204670BD00380140C8
:100E00004FF4E130FFF782FE4FF4E130FFF7A2FE2E
:100E10004FF4E130FFF7C2FE4FF461716420FFF739
:100E2000DFFA14210348FFF761FE03A0FFF7DAFEA3
:100E300000BFFEE7004C004055534152545F496EDD
:100E40006974200D0A000000680E000800000020F0
:100E500028000000040C0008900E00082800002064
:100E600000040000140C0008000E2707000000001A
:100E7000000000000102030406070809000000004A
:100E80000102030401020304060708090000000030
:04000005080001915D
:00000001FF
