:020000040800F2
:10000000A8100020A5010008AD010008AF010008FC
:10001000B1010008B3010008B501000800000000AC
:10002000000000000000000000000000B701000810
:10003000B901000800000000BB010008BD01000874
:10004000BF010008BF010008BF010008BF01000890
:10005000BF010008BF010008BF010008BF01000880
:10006000BF010008BF010008BF010008BF01000870
:10007000BF010008BF010008BF010008BF01000860
:10008000BF010008BF010008BF010008BF01000850
:1000900000000000BF01000800000000BF010008D0
:1000A000BF010008BF010008BF010008BF01000830
:1000B000BF010008BF010008BF010008BF01000820
:1000C00000000000BF01000800000000BF010008A0
:1000D000BF010008BF010008BF010008BF01000800
:1000E000BF010008BF010008BF010008BF010008F0
:1000F000BF010008BF010008BF010008BF010008E0
:1001000000000000BF010008BF010008BF01000897
:10011000BF010008BF010008BF010008BF010008BF
:10012000BF010008BF010008BF010008BF010008AF
:10013000BF010008BF01000800000000000000002F
:10014000BF0100080000000000000000BF0100081F
:10015000000000000000000000000000BF010008D7
:10016000000000000000000000000000000000008F
:10017000000000000000000000000000000000007F
:100180000000000000000000BF010008BF010008DF
:10019000DFF80CD000F0E2FA00480047D51F000855
:1001A000A81000200648804706480047FEE7FEE703
:1001B000FEE7FEE7FEE7FEE7FEE7FEE7FEE7FEE717
:1001C000FD110008910100082DE9FE4F804681EAEB
:1001D0000300C00F0C46009021F0004123F00045C1
:1001E000B8EB0200A94105D24046214690461C4684
:1001F0000B46024623F00040104347D0270DC7F3BB
:100200000A00C3F30A510290401A019040286BDAA9
:10021000C3F3130040F4801B0098924620B10023E2
:10022000D2EB030A63EB0B0B01985946C0F1400275
:10023000504600F09DF906460D4650465946019A33
:1002400000F0B5F910EB08006141002487EA115273
:1002500084EAE7731A4340D0009A62B3019A012AF4
:100260004FEA075215DC001B61EB02014FF0004220
:1002700002EA0752CDE90042001C41F580113246E6
:100280002B4600F0B5F903B0BDE8F08F404621469B
:10029000F9E7001B61EB0201001C41F58013001817
:1002A0005B412018A2F5001747EB030140EAD57027
:1002B000B6196D4111E06D084FEA360645EAC07582
:1002C0004FEA0752001B61EB0201001C41F580114F
:1002D00049084FEA30000019514132462B4603B01D
:1002E000BDE8F04F00F075B90098012240000023EE
:1002F000D0EB020263EBE073009821464FEAE07412
:10030000B8EB000061EB0401E9E783F000435BE731
:1003100081F0004158E72DE9FE4F81EA030404F023
:10032000004421F0004100944FF0000B23F0004303
:1003300050EA01045ED052EA03045BD0C3F30A54CE
:10034000C1F30A552C44A4F2F3340194A0FB0254E7
:10035000C1F3130141F48011C3F3130343F4801379
:1003600001FB024400FB034E840A970A44EA8154CD
:1003700047EA8357A4FB076802958D0A05FB0785AA
:100380004FEA932C04FB0C542705029D4FEA0658B4
:1003900047EA1637B5EB08056EEB070C870E920E91
:1003A00047EA811742EA8312A7FB0201B6EB0B0171
:1003B00064EB00042B0D43EA0C335E1844EB1C5035
:1003C000DA465146E7FB0201C5F313044FEA0B334B
:1003D00043EA14534FEA0432019C43EA0603A4F1B2
:1003E0000C040294009CCDE900B400F001F903B0C4
:1003F000BDE8F08F00200146F9E72DE9F04D81EAD4
:10040000030404F0004B21F0004514464FF0000AAD
:1004100023F0004150EA050220D054EA01021DD029
:10042000C5F30A570246C5F31303C1F31300C1F322
:100430000A5640F4801543F48013A7EB0608101BFE
:10044000D64608F2FD3873EB050002D308F1010827
:1004500001E092185B41B8F1000F03DA0020014679
:10046000BDE8F08D00204FF48011064684460EE072
:10047000171B73EB050705D3121B63EB050306433C
:100480004CEA010C49084FEA300092185B4150EAEF
:100490000107EDD152EA030012D082EA040083EA98
:1004A0000501084305D0101BAB4106D201220023F1
:1004B00006E000224FF0004302E06FF0010253100B
:1004C0001AEB06004CEB085110EB0A0041EB0B0154
:1004D000BDE8F04D00F07DB80EB5C10F80EAE070C8
:1004E0000844CA07002140F233438DE80E000A4653
:1004F0000B4600F07DF803B000BD0EB540F233416D
:1005000002910021CDE900110A460B4600F070F877
:1005100003B000BD30B5041E71F1000404DB4FF0E0
:100520000044404264EB0101141E73F1000405DB3A
:100530001C464FF00043524263EB0403994208BF4C
:10054000904230BD30B50B460146002020220124E8
:1005500009E021FA02F59D4205D303FA02F5491B91
:1005600004FA02F52844151EA2F10102F1DC30BDA7
:10057000202A04DB203A00FA02F100207047914063
:10058000C2F1200320FA03F3194390407047202A58
:1005900004DB203A21FA02F00021704721FA02F32D
:1005A000D040C2F120029140084319467047202AEA
:1005B00006DBCB17203A41FA02F043EAE07306E08B
:1005C00041FA02F3D040C2F120029140084319469B
:1005D000704710B5141E73F1000408DA401C41F195
:1005E000000192185B411A4301D120F0010010BDB7
:1005F0002DE9F04D92469B4611B1B1FA81F202E02D
:10060000B0FA80F220329046FFF7B2FF04460F4660
:1006100040EA0A0041EA0B0153465A46084313D008
:10062000114653EA010019D0C8F140025046FFF7C5
:10063000AEFF05460E46504659464246FFF798FF24
:10064000084305D0012004E020463946BDE8F08D7E
:100650000020054346EAE0762C4337430A986305B9
:10066000E40AA0EB08000022FD0A44EA47540A30DD
:1006700002D500200146E9E7010510196941DDE9CD
:10068000084500196941BDE8F04DA2E770B521F0B9
:10069000004303430CD0C1F30A550024D5EB0405F5
:1006A00064EB0403D617AD1AB34102DB0020014608
:1006B00070BD201841EB025170BD2DE9F04D0023B3
:1006C0001A461B1A8A4103DB00200146BDE8F08D63
:1006D000C1F30A52C1F3130141F480154FF0000B2E
:1006E000D10702D100186D41521E0027044640F286
:1006F000FF11384601EB620A3E4680460246002062
:100700004FF48011FFF743FFC2197141BB1846EB4C
:100710000100B4EB030C75EB000C04D3E41A65EB99
:10072000000517460E46241908F101006D41804668
:100730003428E3DDF91946EB0600091BA84103D272
:100740004FF0FF32134601E0002213461BEB070077
:1007500046EB0A51BDE8F04DFFF73BBF064C074D95
:1007600006E0E06840F0010394E807009847103481
:10077000AC42F6D3FFF710FD90330008B033000809
:1007800070B5C1F30A5201F000450024C1F3130112
:1007900040F2FF3341F480119A4201DA002070BD2B
:1007A00040F233439A42A2F2334203DC5242FFF753
:1007B000EEFE00E090402C43F1D0404270BD70B599
:1007C0008C1810F8015B15F0070301D110F8013BFC
:1007D0002A1106D110F8012B03E010F8016B01F883
:1007E000016B5B1EF9D12B0705D40023521E0DD4DB
:1007F00001F8013BFAE710F8013BCB1A921C03E029
:1008000013F8015B01F8015B521EF9D5A142D8D360
:10081000002070BD2DE9F043054616461F460846E8
:100820004FF0000C002423E0002319E003F101083D
:1008300005FB08F804F10109B8FBF9F28A4202D974
:10084000A2EB010801E0A1EB02084246904202D966
:10085000104633703C7010B94FF0010C02E05B1C85
:10086000402BE3D300BFBCF1000F00D002E0641CBA
:10087000042CD9D300BFBDE8F083014600224FF01D
:10088000E0231A61CA005A6100229A6105221A61A6
:1008900000BF4FF0E022106900F001021AB100F42D
:1008A0008032002AF5D04FF0E022126922F00102D6
:1008B0004FF0E0231A6100229A6170472DE9F04F52
:1008C00095B09C49487FFFF718FE04469A4A9B4B17
:1008D000FFF721FDCDE90C019649087FFFF70DFEDA
:1008E0000446974A974BFFF716FDCDE90801914959
:1008F000C87EFFF702FE0446934A944BFFF70BFDB8
:10090000CDE904018B49887EFFF7F7FD0646904A42
:10091000904BFFF700FD04460D468649487EFFF7E1
:10092000ECFD82468C4A8D4BFFF7F5FC06460F46E0
:100930008049C97D7F4A927D02EB820201EB420031
:10094000FFF7CAFD804632463B46FFF73DFC224694
:100950002B46CDE90001FFF737FCCDE90201DDE9C7
:100960000423FFF731FCCDE90601DDE90823FFF799
:100970002BFCCDE90A01DDE90C23FFF725FC002261
:10098000774BCDE90E01FFF738FDCDE9120169493A
:100990004A7D097D01EB810102EB4100FFF79CFDDF
:1009A000CDE91001DDE91223FFF70EFC6D4A03C209
:1009B000604991F82B00FFF7A0FD04465E4A5F4BAB
:1009C000FFF7A9FCCDE90C015A4991F82A00FFF77D
:1009D00094FD04465A4A5B4BFFF79DFCCDE90801A4
:1009E000544991F82900FFF788FD0446564A574BB1
:1009F000FFF791FC82468B464E4991F82800FFF79D
:100A00007CFD0446524A534BFFF785FC80468946DD
:100A1000484991F82700FFF770FD06464E4A4F4BB4
:100A2000FFF779FCCDE90001424991F82510414AD0
:100A300092F8242002EB820201EB4200FFF74CFD0A
:100A40000446DDE90023FFF7BFFB42464B46CDE9F4
:100A50000201FFF7B9FB52465B46CDE90401FFF7FF
:100A6000B3FBCDE90601DDE90823FFF7ADFBCDE9D6
:100A70000A01DDE90C23FFF7A7FB0022384BCDE983
:100A80000E01FFF7BAFCCDE912012A4991F82110B5
:100A900064225143274A92F8222002EB820201EBA2
:100AA0004202244991F823105018FFF715FDCDE9B3
:100AB0001001DDE91223FFF787FB2B4A03C2002157
:100AC0002A4A116051604FF0010A29E028498968DB
:100AD000274A1268891AA1EB0A01481EFFF7FCFC9D
:100AE000804642460B460020224901F099FA06460C
:100AF0000F461F49096851440E4A505CFFF7FDFC40
:100B000032463B46CDE91201FFF705FC0446174883
:100B10000CC82046FFF758FB144A03C20AF1010A29
:100B20001348806812490968401A5045CEDC15B058
:100B3000BDE8F08FA80B0020F168E388B5F8E43E2B
:100B40002D431CEBE2361A3FFCA9F1D24D62503F17
:100B50007B14AE47E17A843F9A9999999999B93F64
:100B600000004E4030000020280000203800002007
:100B7000980C0020000024402DE9F0410546002695
:100B800000270120454908604548046881E0454840
:100B900050F82400285C24287AD1424850F82400D8
:100BA000001D285C4D2873D13E4850F82400401D9C
:100BB000285C43286CD167E03A4850F82400374A53
:100BC00012681044295C38A000F020FD354850F828
:100BD0002400324909680844285C303833492F4AD8
:100BE000126888542F4850F824002C49096808449A
:100BF000285C242802D1642028490860294850F83C
:100C00002400264909680844285C2C2800D1761C59
:100C1000244850F82400214909680844285C2E28FB
:100C200000D17F1C082E0CD11E4850F824001B490F
:100C300009680844285C2C2803D1184800681C491E
:100C40000860092E0CD1174850F824001349096890
:100C50000844285C2C2803D11048006814494860D7
:100C6000052F0CD10F4850F824000C49096808449E
:100C7000285C2E2803D1094800680D498860074880
:100C80000068401C0549086004480068642893DB3C
:100C9000641E002C3FF77BAFBDE8F0814C000020C4
:100CA00048000020200C002025630000A80B002035
:100CB000980C0020F0B50246CF7807F00F05CF78EA
:100CC00007F010070FB18F783D431446002016E05F
:100CD00087063B0E0F884FF0010C0CFA00FC07EA68
:100CE0000C0757B1D4F800C00F279F402CEA070724
:100CF00005FA03FC47EA0C072760471CF8B20828EE
:100D0000E6DB141D0F883E12002012E087063B0E22
:100D100001278740374057B1D4F800C00F279F40C4
:100D20002CEA070705FA03FC47EA0C072760471C73
:100D3000F8B20828EADBCF78282F06D15769B1F836
:100D400000C047EA0C07576108E0CF78482F05D16B
:100D50001769B1F800C047EA0C071761F0BD70B51C
:100D60004D07EB0E082902DA00F1200501E000F141
:100D700024052C460F269E402568B54302FA03F64B
:100D80003543256070BD4FF6FF71018002218170EF
:100D90000421C1707047000001F0CCF80648FFF74D
:100DA000EBFEFFF78BFD054805490CC803C902F0AF
:100DB00035F900BFFEE70000A80300203000002046
:100DC0002800002008B50121084600F051F8022251
:100DD00006210A48FFF7C3FF6846FFF7D4FF40200B
:100DE000ADF8000001208DF8020018208DF80300F6
:100DF00069460248FFF75EFF08BD0000000004409E
:100E000030B587B004460D46FFF7DCFF0121022014
:100E100000F03EF80594681E80B2ADF81000002086
:100E2000ADF818008DF8120004A9104800F060FA1F
:100E300070208DF800001C20019000208DF8080023
:100E400001208DF801006946084800F01FFA0821CA
:100E5000064800F047FA0121044800F001FA012198
:100E6000024800F008FA07B030BD0000000400405E
:100E700029B1064A926A0243044B9A6204E0034A8B
:100E8000926A8243014B9A62704700000010024050
:100E900029B1064A126B0243044B1A6304E0034A69
:100EA000126B8243014B1A6370470000001002402E
:100EB00029B1064AD26A0243044BDA6204E0034ACB
:100EC000D26A8243014BDA62704700000010024090
:100ED00000B500F02DF804494968C1F30311034A35
:100EE000515CC84000BD0000001002408C0300208F
:100EF00000B5FFF7EDFF04494968C1F30221034A39
:100F0000515CC84000BD0000001002408C0300206E
:100F100000B5FFF7DDFF04494968C1F3C221034A68
:100F2000515CC84000BD0000001002408C0300204E
:100F300010B5194C646804F00C04042C06D0082C7D
:100F400006D00C2C23D149F6404022E0134820E083
:100F5000114CA46C04F0010444B10F4CA46C04F0D7
:100F600002040CB10E4C02E00C4C00E00B4C23468A
:100F7000094CA46CC4F30644611C074CA46CC4F374
:100F80000224621C03FB01F4B4FBF2F001E003480D
:100F900000BF00BF10BD00000010024000127A0028
:100FA00000093D0010B50A48006820F01800084903
:100FB00008600846006840F00100086000BF04486F
:100FC000406800F003000228F9D100F003F810BDDA
:100FD0000060014000B587B00020039002907C487B
:100FE000006840F001007A49086000BF7848006856
:100FF00000F002000028F9D07548006840F4803005
:10100000734908600520FFF738FC72480068724990
:10101000884210D96E48006B40F080506C490863DC
:101020006E48006820F440406C490860084600683B
:1010300040F44040086010E06548006800F400306B
:101040000290029800B109E00398401C03900398B5
:10105000B0F5485F01D307B000BDEDE700BF5C48C5
:10106000006800F4003010B900200290F3E701207E
:1010700002900520FFF701FC59485649086059487D
:10108000006840F01000574908600846006820F0EA
:10109000070008604F480068401E5349B0FBF1F05C
:1010A000069050480068069901F0070108434D4931
:1010B00008604748406843F6F071884344494860F7
:1010C0000846406840F09000486008464068486024
:1010D000404800684549884206D93D48406840F488
:1010E000A0603B4948600AE03A48006840498842AD
:1010F00005D93748406840F48060354948606B4600
:1011000001AA344801683B48FFF784FB3048806CF3
:1011100020F003002E4988640846806C40F00100EE
:1011200088649DF8000000F0070004909DF804001A
:1011300000F07F0005900846006B40F08050086387
:101140000846806C2C4908402149886405980004B1
:10115000049940EA01201E49896C08431C498864AF
:101160000846006840F08070086000E000BF184842
:10117000006800F000700028F8D01548406820F0A2
:101180000300134948600846406840F00200486088
:1011900000E000BF0E48406800F00C000828F8D1BD
:1011A0000120FFF76AFB0A48406820F01000084958
:1011B00048600120FFF761FB0548406820F080008F
:1011C000034948600120FFF758FB00BF43E70000D8
:1011D000001002407803002000D8B80500700040DD
:1011E000000E27070020024000366E0100A24A04CC
:1011F0000051250200127A00FFF880FF10B5144854
:10120000006840F001001249086008464068114932
:1012100008400F494860084600680F4908400C49DB
:1012200008600846006820F480200860084640688E
:1012300020F4430048600846006808490840044913
:1012400008604FF41F008860FFF7ACFE10BD00007F
:10125000001002400CC0FFF8FFFFF6FEFFFF8F00FA
:1012600021B1026842F08002026003E0026822F0CD
:1012700080020260704721B1026842F00102026000
:1012800003E0026822F0010202607047826922F0E6
:1012900070020B781A4382610A7A4B781A43036A08
:1012A00023F003031A4302624A6842630B4A9042E6
:1012B00002D00B4A90420FD14A7A8B781A43036AC4
:1012C00023F00C031A4302624A898B891A4343684C
:1012D00023F440731A43426070470000002C014021
:1012E00000340140826922F008020A43826170479B
:1012F000026822F440720B891A430260154A904238
:101300000ED0B0F1804F0BD0134A904208D0134A50
:10131000904205D0124A904202D0124A904205D122
:10132000026822F070028B781A430260094A9042E8
:1013300002D00C4A904205D1026B22F0FF028B7A58
:101340001A4302634A68C2620A88826201224261C9
:1013500070470000002C01400004004000080040DD
:10136000000C00400034014008B501210846FFF799
:101370007FFD072209211248FFF7F1FC07220A210D
:101380000F48FFF7ECFC6846FFF7FDFC4FF40070D8
:10139000ADF8000001208DF802001C208DF803003C
:1013A00069460748FFF786FC4FF48060ADF80000FF
:1013B00048208DF8030069460148FFF77BFC08BD13
:1013C0000000044008B501210220FFF751FD07226B
:1013D0000A211248FFF7C3FC07220B210F48FFF731
:1013E000BEFC6846FFF7CFFC4FF48060ADF800000C
:1013F00001208DF802001C208DF803006946074883
:10140000FFF758FC4FF40060ADF8000048208DF85D
:10141000030069460148FFF74DFC08BD0004044085
:1014200008B501210420FFF723FD08220A211248F4
:10143000FFF795FC08220B210F48FFF790FC684648
:10144000FFF7A1FC4FF48060ADF8000001208DF89B
:1014500002001C208DF8030069460748FFF72AFCAC
:101460004FF40060ADF8000048208DF80300694695
:101470000148FFF71FFC08BD00080440826922F004
:1014800001020A438261704702469068084008B131
:10149000012070470020FCE770B504460D46002689
:1014A000E06920F0300029790843E061E06920F02C
:1014B0004400A9790843E061E06920F00300297A3B
:1014C0000843E061A06920F0180069890843A06121
:1014D000A06920F00400297B0843A0610A488442E7
:1014E00003D1FFF715FD064602E0FFF701FD0646B2
:1014F0002868B6FBF0F0000920622868B6FBF0F01F
:1015000000F00F00606270BD00380140014648687D
:10151000C0B27047CAB2026070474FF4E131016057
:101520003021017100218171017218214181002156
:10153000017370471FB50446FFF716FF0121102005
:10154000FFF7B6FC6846FFF7E8FF009430208DF8FF
:10155000040000208DF806008DF808008DF80C00BE
:101560001820ADF80A0069460348FFF795FF0121EE
:101570000148FFF783FF1FBD003801401FB5044637
:10158000FFF720FF01218804FFF782FC6846FFF780
:10159000C4FF009430208DF8040000208DF8060070
:1015A0008DF808008DF80C001820ADF80A00694687
:1015B0000348FFF771FF01210148FFF75FFF1FBDDF
:1015C000004800401FB50446FFF72AFF0121C80468
:1015D000FFF75EFC6846FFF7A0FF009430208DF80F
:1015E000040000208DF806008DF808008DF80C002E
:1015F0001820ADF80A0069460348FFF74DFF0121A6
:101600000148FFF73BFF1FBD004C00400FB4054BE6
:1016100010B503A9044A029800F062FB10BC5DF803
:1016200014FB0000B11F00089C030020490050EA91
:10163000C12018BF04204A0D18BF40F0010040F23D
:10164000FF72B2EB515F08BF40F00200012808BFF3
:10165000052070472DE9F74F144694B00021C4E9E6
:1016600002111599079121F00045C9498D4206DC08
:101670001599C4E9000117B00020BDE8F08FC549F5
:10168000DFF814A3A9423CDD0799C44E0029C44FDA
:10169000C44A1599534619DDFEF737FE554506D065
:1016A000C14AC24BFEF731FEC4E900010AE04FF027
:1016B000D352BE4BFEF729FE32463B46FEF725FECF
:1016C000C4E9000117B00120BDE8F08FFEF77CFDF2
:1016D000554506D0B44AB54BFEF776FDC4E9000186
:1016E0000AE04FF0D352B14BFEF76EFD32463B4657
:1016F000FEF76AFDC4E9000117B04FF0FF30BDE806
:10170000F08FAB49A942159978DB21F0004183465F
:101710008846A84AA84BFEF7FEFD0022A74BFEF71D
:1017200053FDFFF72DF80990FEF7D6FE06460F464B
:101730009C4A5346FEF7EFFD43465A46FEF7E8FD46
:1017400080468A46984A994B30463946FEF7E3FD73
:101750002A0D01250B9242465346FEF7D9FD032D73
:10176000C4E9000139D00B98C1F30A51401A05EBC6
:1017700045111139814230DA9148C346784400EB73
:101780000510CDF80CA00C90D0E900233046394666
:10179000FEF7C1FD02460B46049106905846039998
:1017A000FEF7B3FD80468A4602460B46584603992B
:1017B000FEF7ABFD049B069AFEF7A7FD83460C9847
:1017C00003913946D0E902233046FEF7A4FD5A467C
:1017D000039BFEF79AFD6D1CBDE707980028A2BF8A
:1017E000099817B0BDE8F08F616881F00041616031
:1017F000099817B04042BDE8F08FFFE7844615987E
:10180000C1F31301C0F30A50A0F2F5304FEA60189B
:1018100000F01F06C6F120001390002006900790EC
:1018200041F4801E05206D4676B1664A08EB000142
:101830007A4452F8213002EB8101B3404A6813998F
:1018400022FA01F1194305E05F4908EB00027944EF
:1018500051F82210A1FB0E27A1FB0C131A449A4247
:1018600034BF0123002303EB070A05EB8003D3E910
:1018700001B70F448F4234BF0121002193448B44B0
:1018800011B1934502D903E0934501D2012100E053
:101890000021C3E901B7514445F82010011EA0F111
:1018A0000100C1DC0298059F00F10050800F1290EA
:1018B0000298DDE903568000FEF70EFE83462846B7
:1018C0000D91FEF71AFE6FF01D02FEF7DFFECDE967
:1018D0000E013046FEF711FE6FF03D02FEF7D6FE18
:1018E00080468A463846FEF708FE6FF05D02FEF736
:1018F000CDFE0746424653461191FEF765FCDDE9F1
:101900000E23FEF761FC5A460D9BFEF75DFC002599
:101910000E465A4628460D9BFEF7F7FCDDE90E23DE
:10192000FEF7F3FC42465346FEF7EFFC3A46119BA6
:10193000FEF7EEFCDFF898A0244A5346FEF7EBFCD6
:1019400007468846234A244B31462846FEF7E3FCE7
:101950003A464346FEF738FC074688464FF0A84211
:10196000534631462846FEF7D6FC3A464346FEF734
:101970002BFC159A12F0004F04D0129A81F000410E
:1019800052421292C4E90001129817B0BDE8F08FDC
:10199000FB21E93F7CD90240FB21F93F7370032E04
:1019A0008A19A33B000040543163621A61B4D03DF0
:1019B000FB21394183C8C96D305FE43F0000E03F3F
:1019C000201B00009C1A00007E1A0000182D4454B1
:1019D000FB21F93D3326A611460B113C2DE9FF4DA5
:1019E00021F0004807460C46B8F1795F08DAFEF7A7
:1019F000C7FE002801BF0020324904B0BDE8F08DC9
:101A00003A46234610461946FEF785FC054602462F
:101A10002D480E460B460621784400F05DF82A4614
:101A20003346FEF778FCDDE9022382468B463846D2
:101A30002146FEF770FC04460F4652465B46284698
:101A40003146FEF768FC22463B46FEF75EFC074641
:101A50008A464FF0FF3228463146FEF717FE1B4AF2
:101A600090450ADA3A465346FEF74FFC04B000228E
:101A7000BDE8F04D134BFEF74BBC154A4245A8BFDD
:101A8000A8F500154FF00004B8BF124D22462B46B2
:101A9000FEF73BFC0646884622462B4600200949B5
:101AA000FEF733FC04460D463A465346304641465F
:101AB000FEF72BFC04B022462B46BDE8F04DFEF7A6
:101AC00027BC00000000F03F4C1800003333D33F28
:101AD0000000E93F0000D23F2DE9F0414F1E00EB2E
:101AE000C7010446D1E9000115461E4637F006023B
:101AF0000DD02A463346FEF70EFC7F1E04EBC703CB
:101B0000D3E90023FEF760FB37F00602F1D1022F84
:101B100025D0042F13D0062F18BFBDE8F0812A4628
:101B20003346FEF7F8FBD4E90A23FEF74DFB2A46BD
:101B30003346FEF7F0FBD4E90823FEF745FB2A46BF
:101B40003346FEF7E8FBD4E90623FEF73DFB2A46C1
:101B50003346FEF7E0FBD4E90423FEF735FB2A46C3
:101B60003346FEF7D8FBD4E90223FEF72DFB2A46C5
:101B70003346FEF7D0FBD4E90023BDE8F041FEF781
:101B800023BB00002DE9FF4D054621F0004084B045
:101B90000C46B0F1795F0BDA2846FFF747FD0428C1
:101BA00008BF00F07FF8284608B02146BDE8F08D58
:101BB0002A460B461046FEF7AEFB06460F462A465F
:101BC0002346FEF7A8FB804626488A4632463B4617
:101BD00005217844FFF780FF83461098029160B397
:101BE000214A224B40465146FEF795FBCDE90001C4
:101BF0005A4640465146029BFEF78DFB8246884678
:101C0000DDE906014FF0FF32FEF740FD5246434644
:101C1000FEF77BFB32463B46FEF77DFBDDE9062304
:101C2000FEF773FBDDE90023FEF76FFB08B02A46E1
:101C30002346BDE8F04DFEF76BBB0B465A463046D7
:101C40003946FEF768FB084A084BFEF7BDFA4246E4
:101C50005346FEF760FB08B02A462346BDE8F04D28
:101C6000FEF7B2BA92170000495555555555C5BFF4
:101C70000022134610460149FEF7BFBB0000F03FAB
:101C80000122FEF703BDFEF79FBA0022134610465D
:101C90001146FEF7B2BB40F2013200204FF0E041A6
:101CA000FEF7F4BC024A00201107FEF7EFBC00006B
:101CB00001FDFFFF02E008C8121F08C1002AFAD187
:101CC00070477047002001E001C1121F002AFBD1BC
:101CD000704700000149086070470000A003002021
:101CE0002DE9FF4F8BB09A460F460546002606E0C9
:101CF00025280BD052460D9990476D1C761C2878EC
:101D00000028F5D10FB03046BDE8F08F0024A04682
:101D10000122604900E0044315F8013F203B02FA2C
:101D200003F00842F7D128782E2817D115F8010FB3
:101D300044F004042A280ED06FF02F022878A0F176
:101D4000300109290AD808EB880102EB410100EBB8
:101D500001086D1CF2E757F8048B6D1C2878692880
:101D60003ED006DC0028CDD063280BD0642804D1F7
:101D700036E0732810D075284BD052460D99904705
:101D8000761C85E017F8040B8DF8000000208DF814
:101D90000100E946012003E057F8049B4FF0FF30B3
:101DA00061074FF0000401D40AE0641C44450DDAD9
:101DB0008442FADB19F804100029F6D106E0641C0D
:101DC0008442FCDB19F804100029F8D1264404E011
:101DD00019F8010B52460D999047641EF8D257E04E
:101DE00001CF4FF00A0B002802DA40422D2102E019
:101DF000210504D52B218DF82410012103E0E107F2
:101E000005D02021F7E70DF1200908910CE0002111
:101E1000F9E701CF4FF00A0BF9E75946FEF792FBBD
:101E200001F1300209F8012D0028F6D1ADEB0900CF
:101E300000F1200B600701D44FF00108D84502DD06
:101E4000A8EB0B0000E000208046002406E009A873
:101E50005246005D0D999047641C761C0898844298
:101E6000F5DB04E0302052460D999047761CB8F11E
:101E70000001A8F10108F5DC05E019F8010B524654
:101E80000D999047761CBBF10001ABF1010BF4DC1E
:101E90006D1C34E70928010000B5244B21F00042F5
:101EA00087B09A42DCBF0022134629DD204B9A42BC
:101EB00008D140B94FF00100FFF70CFFFFF7E5FE36
:101EC00007B000BD03DBFFF7DBFE07B000BD02AAD1
:101ED000FFF7C0FB10F0030104BF0DF1080C9CE8F4
:101EE0000F000DD0012001290ED0022914D00DF1D0
:101EF000080C00909CE80F00FFF744FE07B000BDFF
:101F0000FFF76CFD07B000BD0DF1080C00909CE8D8
:101F10000F00FFF737FE05E00DF1080C9CE80F00FD
:101F2000FFF75CFD07B081F0004100BDFB21E93FF8
:101F30000000F07F10B501201949086000BF0221A0
:101F40001848FFF7A1FA0128F9D11648FFF7DEFA81
:101F50002428F4D100241EE000BF02211148FFF71D
:101F600093FA0128F9D10F48FFF7D0FA0E49085526
:101F70000846005D24280DD140F21450844209DA4D
:101F80000A480749096840F8214005480068401C94
:101F900003490860641CB4F5006FDDDB10BD000070
:101FA0004800002000480040A8030020200C00202A
:101FB00070B504460D46E1B20548FFF7ABFA00BF25
:101FC00008210348FFF760FA0028F9D0204670BDC9
:101FD000003801404FF4E130FFF7ACFA4FF4E13044
:101FE000FFF7CCFA4FF4E130FFF7ECFA4FF46171F0
:101FF0006420FEF705FF20210448FFF78BFA04A0B8
:10200000FFF704FB01E0FEF7C7FEFCE7004C0040D1
:1020100055534152545F496E6974200D0A00000007
:102020002DE9F04D1D460C4698B0174621F00041B1
:1020300023F00043002814BF4FF0010C4FF0000CB8
:102040000CEB440CFE4A0CEB02064FEA620C6645B0
:102050002BD33E0018BF012606EB45061644F94A6D
:10206000964222D3F84A53EA070C02D0944205D193
:1020700048B918B000201146BDE8F08D002808BF0F
:102080004FF0000C01D04FF0010C0CEB440212F5A4
:10209000001F0AD8002F14BF4FF0010C4FF0000CA6
:1020A0000CEB450212F5001F07D918B03A462B4633
:1020B0002146BDE8F04DFFF7E6BD0022DFF88CA316
:1020C000002CB8BF534526DADFF884C36345A8BFA8
:1020D000022220DADFF870C39C451CDCDFF874C3F1
:1020E0000CEB235CBCF1140F08DDCCF1340627FAAD
:1020F00006FC0CFA06F6BE420DD108E05FB9CCF141
:10210000140623FA06FC0CFA06F69E4203D10CF0E4
:102110000102C2F1020251EA000C19D1002D17DAB6
:10212000002C18BF022A01D0012A07D00220FFF795
:10213000D1FD18B0BDE8F04DFFF79ABD0220FFF7C2
:10214000C9FDFFF795FD18B081F00041BDE8F08DA5
:10215000B7F1000C6CD1534525D104F1804212F542
:10216000801201BF00280020B74918B008BFBDE8A1
:10217000F08DB548884207DC002DA1BF6046294696
:1021800018B0BDE8F08D07E0281E05DA80F00041A8
:1021900018B06046BDE8F08DAF497944D1E900013F
:1021A00018B0BDE8F08DDFF8A0C2634525D1002D41
:1021B0001FDA19B1514512D1D8B909E0002840F011
:1021C000EC82A24A214618B062F31E01BDE8F08DF0
:1021D0000020214618B060F31E01BDE8F08D08DA3A
:1021E00018B02346BDE8F04D024600206146FEF7D8
:1021F00004B918B02146BDE8F08D514518DAB5F1A3
:10220000804F0DD0A5F1005CBCF1FF5C10D1B4F1A2
:10221000000C0DDB18B06146BDE8F04D00F03CBC91
:10222000234618B00246BDE8F04D1946FEF773B8D4
:10223000060024F0004C3BD1D9B1514533D1002CDC
:1022400006DD002DA1BF0020514618B0BDE8F08D7D
:10225000002C01DD002D1BDB002C13DA002D11DB1F
:10226000012A4FF0000014BF78497C4918B0BDE83E
:10227000F08D022A18BF002C0AD0012A08D1002CA8
:1022800006DA0AE0002CB8BF002D11DA012A04D0CA
:10229000002018B00146BDE8F08D18B000204FF0C6
:1022A0000041BDE8F08DA1F14050B0F17F601AD03F
:1022B000012000EBE47050EA020421D0624C521E6F
:1022C0004FF0000B104304BF4FF0000B644C654807
:1022D00083427CDD644A654893421FDD884217DBF8
:1022E000002D25DB37E0002C00DA4AB1022A0CBFB2
:1022F00001204FF0FF3018B0BDE8F04DFEF7ECB80C
:102300000120FFF7E7FC18B0BDE8F04DFFF7BDBCBA
:102310004D4A8A4202DC002D0ADC1CE0814202DACE
:10232000002D18DA04E0484B994220DD002D12DD23
:102330000220FFF7CFFCFFF7AEFC05460E46002259
:10234000534658462146FDF7E6FF18B066F31E01D6
:102350002846BDE8F08D0220FFF7BCFCFFF7A2FC89
:102360000A46214618B062F31E01BDE8F08D002236
:1023700030466146FDF7C9FF80460E466FF0010208
:10238000FEF784F94FF05532394BFDF7C1FF424655
:102390003346FDF7C0FF0022364BFDF7B9FF8246FA
:1023A00042463346049110461946FDF7B4FF5246A3
:1023B000049BFDF7B0FF8A4600904FF0C0422E4BC1
:1023C00040463146FDF7A7FF2C4A2B4B00E027E0A3
:1023D000CDE9060151460098FDF79DFF8246019127
:1023E000274A284B40463146FDF795FF5246019B50
:1023F000FDF78BFF82460B4602460591DDE906019B
:10240000FDF7E2FEDDE90623002688463046FDF7AB
:102410007CFF5246059BFDF77BFF024600F07EB92C
:102420000020B1F5801F07DA352230466146FEF7FD
:102430002DF906466FF0340000EB215024E0000037
:10244000FFFF1F00FFFF0F000000F03F0000F07FC4
:102450000000404301FCFFFFFA1000000000F0FF05
:102460000000F0BF0000E0410000F043FFFFEF3F3D
:102470005555D53F0000E03F4715F73FFE822B65DD
:1024800044DF5DF80BAE543EA0F2FF300190C1F383
:10249000130040F07F6141F040510291FE498842B3
:1024A000D8BF002004DDFD498142C8BF012001DD05
:1024B0000D9008E000200D900198401C01900298BA
:1024C000A0F5801002900299F54878440B910D997F
:1024D00000EBC100D0E900230F9330460A920B991C
:1024E000FDF713FFCDE90601DDE90A2130460F9B18
:1024F000FDF76AFE02460B460020EA49FDF77DFF24
:10250000059102460B460090DDE90601FDF703FF49
:102510001490E5488A464FF0000878440299006814
:1025200012904FF0005040EA61010D980F9B01EBB3
:10253000804000F5002109910A9A1298FDF7E5FE06
:1025400032460B9BFDF7E4FE42465346FDF7E3FEA1
:102550000646029140465146099B129AFDF7DBFE62
:10256000DDE90623FDF7D4FE3246029BFDF7CDFEE2
:10257000059B009AFDF7CFFE0091149A04905346F4
:1025800010461946FDF7C7FE06460246C7480B46E9
:10259000029106217844FFF79FFACDE90510029BCE
:1025A000324610461946FDF7B6FEDDE90532FDF765
:1025B000B2FE05910646534640461946149AFDF769
:1025C00003FE009B049AFDF7A6FE3246059BFDF72D
:1025D000FBFDCDE905104246534610461946FDF76E
:1025E0009AFE0022B24B02910A90FDF7EDFDDDE963
:1025F0000532FDF7E9FD0E464246AD4B4046FDF77C
:1026000084FE029B0A9AFDF780FEDDE90532FDF7A4
:102610007FFE424602910A90334610465146FDF72E
:102620007AFECDE906015346149A02990A98FDF7FD
:1026300072FE8A4602903346424600990498FDF79E
:102640006AFE5346029AFDF7BFFD82460B460246DC
:102650000591DDE90601FDF7B7FDDDE90623002060
:1026600088460646FDF751FE5246059BFDF750FE93
:10267000824609914FF060428E4B30464146FDF74D
:102680004AFE049006918C4A8A4B50460999FDF700
:1026900042FE82460291894A894B30464146FDF707
:1026A0003AFE5246029BFDF78FFD864B7B440D9A06
:1026B00003EBC203D3E90023FDF786FD0E900791DB
:1026C0000198FDF709FF0591DDE9061382460E9A90
:1026D0000498FDF779FD7C4A7A440D9B02EBC30315
:1026E000D3E9002300930292FDF76EFD5246059B4D
:1026F000FDF76AFD0026884652463046059BFDF7E9
:1027000004FE009B029AFDF700FE069B049AFDF76B
:10271000FCFD079B0E9AFDF7FBFD024600200B46D1
:10272000029038462946FDF7F6FD824601912B4678
:1027300038461946029AFDF7E8FD32464346FDF752
:10274000EAFD5246019BFDF73FFD07468A463246A9
:10275000434629460298FDF7DEFD05460E463A46F9
:102760005346FDF731FD594A8846914221DBA8EBDB
:10277000020353EA000210D12A463346FDF7C5FD95
:10278000CDE90401524A534B38465146FDF71CFD32
:10279000DDE90423FDF7BEFE21D20220FFF79AFAFD
:1027A000FFF779FA0A46214618B062F31E01BDE828
:1027B000F08D494B28F000429A4210D3474A08EB6B
:1027C000020353EA00027FF4C6AD2A463346FDF702
:1027D0009CFD3A465346FDF79DFE7FF6BCAD0022B8
:1027E000019228F000403E493E4A01EB20518242CE
:1027F00023DA481C4FF4801121FA00F040443A4A91
:10280000C0F30A517A44394BA1F2FF31CB4020EAA0
:102810000303C0F3130040F48010C1F11401C84059
:1028200012680190B8F1000FBCBF404201902846E9
:102830003146FDF76AFD05460E462A4633463846C0
:102840005146FDF7C1FC4FF000084246284B404678
:102850000591FDF760FDCDE90601264A264B40466D
:102860000599FDF758FD009102902A4633464046EF
:102870000599FDF74AFD3A465346FDF749FD1F4AC3
:102880001F4BFDF748FD009B029AFDF79DFC074694
:10289000884602460B4635E08E9803007AB60B0058
:1028A000120D00000000F03F7A0D0000780C0000CF
:1028B0000000084009C7EE3FFD033ADCF5015B1458
:1028C000E02F3EBE500B0000140B000000009040B3
:1028D000FE822B654715973C00CC904000346F3F3B
:1028E00001FCFFFF0000E03F900A0000FFFF0F0027
:1028F000432EE63F396CA80C615C20BEEF39FAFE2E
:10290000422EE63FDDE90601FDF75EFCDDE9062328
:1029100005460E46FDF7F9FC3A464346FDF7F8FC3E
:102920000F462A463346009010461946FDF7F3FC41
:10293000824602462E4888460B4605217844FFF71A
:10294000CBF852464346FDF7E6FC2A463346FDF7F0
:10295000DFFC80468A463B4628463146009AFDF712
:10296000DAFC3B46009AFDF72FFC0691009000220E
:102970004FF0804340465146FDF7C7FC0F460C9090
:102980004246534628463146FDF7C5FC3B460C9A65
:10299000FDF733FD069B009AFDF7B7FC2A46334648
:1029A000FDF7B3FC0022134BFDF7B2FC054601987E
:1029B0000E4601EB00510815002810DC2846314670
:1029C000019AFDF763FEFEF731FE042808BFFFF70A
:1029D00069F928463146019AFDF758FE05460B462F
:1029E00018B02A4658462146BDE8F04DFDF793BC85
:1029F000000900000000F03F00B5254B21F0004227
:102A000087B09A4203DC0022134600922BE0214B50
:102A10009A4208D140B94FF00100FFF75BF9FFF788
:102A200034F907B000BD03DBFFF72AF907B000BD9A
:102A300002AAFEF70FFE10F003014FF001000DD0C7
:102A4000012914D002291AD00DF1080C9CE80F00BE
:102A5000FEF7C4FF07B081F0004100BD0DF1080C86
:102A600000909CE80F00FFF78DF807B000BD0DF156
:102A7000080C9CE80F00FEF7B1FF07B000BD0DF198
:102A8000080C00909CE80F00FFF77CF8E2E70000DC
:102A9000FB21E93F0000F07F2DE9F04106460F469B
:102AA000FDF70BFE041E0D4618BF0120284320F041
:102AB0000040C0F17F6000F1E040C00F0ED0301C3C
:102AC00018BF0120384320F00040C0F17F6000F1C2
:102AD000E040C00F04BF0120FFF7FCF82046294664
:102AE000BDE8F0812DE9F04F91B004460D46164641
:102AF0001F4625F00040CDE90A4020460B99FFF71C
:102B0000CBFF8246934A944BFDF705FC914A934BC9
:102B1000CDE90E0120462946FDF7FDFB82463246EF
:102B20003B46FDF7F8FB32463B46CDE90A018948B2
:102B30008949FDF7F0FB824632463B46FDF7EBFB49
:102B400032463B46CDE9060100208549FDF7E3FB0F
:102B500000224FF08043CDE9020120462946FDF7CF
:102B6000DAFB824600227F4BFDF72EFBCDE9000108
:102B7000DDE90223FDF728FBCDE90401DDE90623A9
:102B8000FDF722FBCDE90801DDE90A23FDF71CFB77
:102B9000CDE90C01DDE90E23FDF716FB80468946E1
:102BA00000224FF0804320462946FDF7B4FB8246C1
:102BB0006D480CC85046FDF7AEFBCDE90201FFF7AA
:102BC0001BFF0022694BCDE90401FDF7A4FB0022A5
:102BD000674BCDE9080120462946FDF79CFB82465C
:102BE00061480CC85046FDF796FBCDE90201FFF79E
:102BF00003FF00225D4BCDE90401FDF78CFBCDE91D
:102C00000601DDE90823FDF7DFFA00224FF08043DB
:102C1000CDE90A01FDF77FFB0022514BCDE90C0104
:102C2000FDF7EBFB42464B46CDE90E01FDF7CCFA32
:102C30008046894600224A4B30463946FDF7DDFB87
:102C4000824649480CC85046FDF765FBCDE90201B4
:102C5000FFF7D2FE0022474BCDE90401FDF75BFBF5
:102C6000CDE9080140480CC830463946FDF753FB12
:102C7000CDE90401FFF7C0FE824600223B4BFDF781
:102C80004AFBCDE90601DDE90823FDF79DFA0022A4
:102C90004FF08043CDE90A01FDF73DFB0022304BA8
:102CA000CDE90C01FDF7A9FB42464B46CDE90E01EB
:102CB000FDF78AFA804689462B480CC830463946CB
:102CC000FDF729FB824600222B4BFDF796FBCDE951
:102CD0000201FFF791FE0022284BCDE90401FDF728
:102CE0001AFB0022264BCDE9080130463946FDF794
:102CF00084FB82461C480CC85046FDF70CFBCDE90E
:102D00000201FFF779FE00221E4BCDE90401FDF719
:102D100002FBCDE90601DDE90823FDF755FA0022A3
:102D20004FF08043CDE90A01FDF7F5FA00220C4B84
:102D3000CDE90C01FDF761FB42464B46CDE90E01A2
:102D4000FDF742FA804689464046494611B0BDE843
:102D5000F08F00009A9999999999C93F9999B93F2B
:102D600000000840000059C0080000200000344066
:102D7000000018400000444000003E400000744045
:102D800000002840000064402DE9F04F8FB0044659
:102D90000D469046994625F00040CDE90840204672
:102DA0000999FFF779FE8246914A924BFDF7B3FAF3
:102DB0008F4A904BCDE90C0120462946FDF7ABFA2E
:102DC000824642464B46FDF7A6FA894A894BCDE931
:102DD000080120462946FDF79EFA824622462B46E8
:102DE000FDF799FA42464B46CDE9040100204FF029
:102DF0008041FDF790FA82468B4600227E4B2046AA
:102E00002946FDF7E1F952465B46CDE90001FDF7A1
:102E1000DBF9CDE90201DDE90423FDF7D5F9CDE9C0
:102E20000601DDE90823FDF7CFF9CDE90A01DDE967
:102E30000C23FDF7C9F906460F4600224FF08043E8
:102E400020462946FDF767FACDE900016B480CC81A
:102E50000098FDF760FA8246FFF7CEFD0022684B2E
:102E6000CDE90201FDF757FA0022664BCDE90601D4
:102E700020462946FDF74FFA824660480CC8504666
:102E8000FDF749FACDE90001FFF7B6FD00225C4BE2
:102E9000CDE90201FDF73FFACDE90401DDE90623A2
:102EA000FDF792F900224FF08043CDE90801FDF7CC
:102EB00032FA0022544BCDE90A01FDF79EFA324660
:102EC0003B46CDE90C01FDF77FF906460F4600228F
:102ED0004D4B20462946FDF790FA824647480CC8DC
:102EE0005046FDF718FACDE90001FFF785FD0022F5
:102EF000464BCDE90201FDF70EFACDE906013F4848
:102F00000CC820462946FDF706FACDE90201FFF775
:102F100073FD824600223A4BFDF7FDF9CDE904012D
:102F2000DDE90623FDF750F900224FF08043CDE99B
:102F30000801FDF7F0F90022334BCDE90A01FDF756
:102F40005CFA32463B46CDE90C01FDF73DF90646F9
:102F50000F4600222E4B20462946FDF74EFACDE9BA
:102F6000000126480CC80098FDF7D5F9CDE902010B
:102F7000FFF742FD824600221F4BFDF7CCF90022ED
:102F8000244BCDE9060120462946FDF736FA824654
:102F90001A480CC85046FDF7BEF9CDE90001FFF70D
:102FA0002BFD00221C4BCDE90201FDF7B4F9CDE960
:102FB0000401DDE90623FDF707F900224FF0804305
:102FC000CDE90801FDF7A7F900220F4BCDE90A0171
:102FD000FDF713FA32463B46CDE90C01FDF7F4F854
:102FE00006460F46304639460FB0BDE8F08F000068
:102FF0009A9999999999B93F00C0724008000020A8
:103000000000344000001840000008400000444028
:1030100000003E400000284000C062402DE9F04F13
:1030200093B006460F4614461D460022634B2046C9
:103030002946FDF76AF90022614BCDE90A013046C5
:103040003946FDF762F9CDE90801DDE90A23FFF70A
:1030500049FD82468B460022584B20462946FDF703
:1030600054F90022564BCDE90A0130463946FDF7A6
:103070004CF9CDE90801DDE90A23FFF785FECDE92A
:10308000100100224F4B20462946FDF7B6F9CDE945
:103090000A014D480CC80A98FDF73DF9CDE90E012B
:1030A000DDE90E01FFF7A8FC8046894642464B4603
:1030B000464903C9FDF72FF942464B46CDE90801C1
:1030C000FDF729F90022424BCDE90A01FDF720F96D
:1030D0008046894640464946FFF7DEFCCDE90C01B3
:1030E00040464946DDE90C23FDF715F9CDE9040119
:1030F00036480CC800203649FDF707F9CDE9000134
:1031000034480CC80098FDF706F9CDE90201DDE965
:103110000423FDF772F9CDE906012B480CC8069887
:10312000FDF7F9F80022274BCDE90A015046594630
:10313000FDF7F1F8CDE90801DDE90A23FDF75DF9B6
:1031400082468B46DDE90E01FEF7A6FECDE90401BD
:103150002049DDE90C2303C9FDF74FF9CDE9020150
:10316000DDE90423FDF7D7F8CDE9060116480CC8C0
:103170000698FDF7D0F80022124BCDE90A01DDE9EF
:103180001001FDF7C8F8CDE90801DDE90A23FDF7D4
:1031900034F9CDE9100152465B4620462946FDF739
:1031A00013F80D4A03C230463946DDE91023FDF716
:1031B0000BF80A4A03C213B0BDE8F08F008041400B
:1031C00000405A400080664008000020180000209F
:1031D0000000F03F100000203000002028000020F8
:1031E000000000000000F03F000000000000F83F79
:1031F00000000000000000000000004003B8E23FB3
:10320000000000000000000006D0CF43EBFD4C3E64
:10321000033333333333E33FFFAB6FDBB66DDB3F59
:103220004D268F515555D53F01411DA96074D13FA1
:1032300065DBC9934A86CD3FEF4E454A287ECA3F9B
:103240003E5555555555C53F93BDBE166CC166BF1D
:103250002CDE25AF6A56113FF16BD2C541BDBBBE16
:10326000D0A4BE726937663E4C5555555555A53F9D
:103270007751C1166CC156BF9015CB19A001FA3E0B
:10328000AD529C804F7E92BEC4B1B4BD9EEE213E35
:10329000D43888BEE9FAA8BD000000000000000094
:1032A00000004054FB21F93F3163621A61B4D03D04
:1032B0000000601A61B4D03D7370032E8A19A33BDD
:1032C0000000002E8A19A33BC14920259A837B392F
:1032D00000000000000000006E83F9A22915444E92
:1032E000D15727FCC0DD34F5999562DB4190433C12
:1032F000AB6351FE61C5BBDE3A6E24B7E0D24D42EE
:10330000EA2E49061C92D1091CEB1DFE3EA729B1ED
:10331000F53582E88444BB2E26709CE9417E5FB47B
:1033200039D69139F43953838B5F849C3B28F9BD9E
:10333000FF97F81F0F9805DE8B112FEF1F6D0A5AAC
:10334000CF7E366DB709CB27663F464F2DEA5F9E8D
:10335000C7BA27757BF1E5EBF739073DEA92528A48
:10336000B15FFB6B085D8D1FA6F810111111813F35
:10337000D561C119A0012ABF7DFEB157E31DC73E2B
:10338000EB9C2B8AE6E55ABE7CD5CF5A3AD9E53D6F
:10339000B033000800000020A4030000BE070008AE
:1033A00054350008A4030020040D0000C41C0008CC
:1033B00030115E04C777102E4A40182D4454FB216B
:1033C0000940000E3840C15458410BEF80AF8F6A5E
:1033D0007B3F6811BB61DBA2CC1A5C407D772B4B35
:1033E000744E4140101ECC7C073F71101E3F74414B
:1033F0007DCB101EFC34EECD6F101EBCC96FD1C941
:10340000101EB0CBF09F6E101EB84082E2C7101E97
:1034100033DE567A6D101E30D978B0C5101E4B3A87
:10342000CAC16C101EAE484C50C3102D64963D09A5
:10343000109E200A664CC1101E1B81785DBF102DA6
:103440001B82E332501E228C9FC6BD102D0D6C9541
:1034500060801E171230BABC101EE1085229761087
:103460001E8E76DCF0BB101E9D499BAA7B102D1D85
:103470001D5723101E598AE42B81101E1E37FC6E27
:10348000BA101EAF05BD3786102D9B58E02B102EAD
:103490003048FAB48A502C467A51309EF99E9108F1
:1034A0008D601E5E30B8E68E102D9E5F94A0902E2B
:1034B00087C3D2C08FC01D62F19BC2101EC2C1DE85
:1034C000C490102DB9A81611E01EFDBFEAC89110D6
:1034D0001EB29DEFA7C6101EA374E95F92101E34A2
:1034E00048C153C8102DAA656B7D201E40C23060B4
:1034F000C9102D0AD6389B601E39D1AE42CA101EA3
:1035000048A46DFC89101EC26C020CCB101E9ECE0E
:1035100015A584102D32C687D9101E247D5A457FEB
:10352000101E44317903CC101E85ED27637C102DCD
:10353000C70F9546101EE65DF580791001FF016208
:10354000840E2707680901020304060708090CA96D
:043550001041000026
:04000005080001915D
:00000001FF
