:020000040800F2
:1000000018040020C9000008FB000008FD000008DB
:10001000FF000008010100080301000800000000C3
:1000200000000000000000000000000005010008C2
:100030000701000800000000090100080B0100088A
:100040000D0100080D0100080D0100080D01000858
:100050000D0100080D0100080D0100080D01000848
:100060000D0100080D0100080D0100080D01000838
:100070000D0100080D0100080D0100080D01000828
:100080000D0100080D0100080D0100080D01000818
:100090000D0100080D0100080D0100080D01000808
:1000A0000D0100080D0100080D0100080D010008F8
:1000B0000D0100080348854600F056F80048004747
:1000C000B303000818040020114880F30888114881
:1000D0000168090E104A9142FFD110481049016091
:1000E00010481149016011480F4901600B4810493F
:1000F00001601048804710480047FEE7FEE7FEE732
:10010000FEE7FEE7FEE7FEE7FEE7FEE7FEE70000AC
:1001100018040020040000001F0000001C10024012
:100120000000000418680040120000001C68004035
:100130000000000031030008B500000830B50B4690
:10014000014600202022012409E00D46D5409D42B1
:1001500005D31D469540491B254695404019154637
:10016000521E002DF1DC30BD064C0125064E05E087
:10017000E36807CC2B430C3C98471034B442F7D3C8
:10018000FFF79CFFB8030008D8030008FFB583B051
:100190000C46029400200190002726E000261CE077
:1001A000721C039951430846791CFFF7C7FF0546A7
:1001B000A54201D9281B00E0601B05460298A84211
:1001C00004D90295059806700698077002980028D1
:1001D00002D10120019002E0761C402EE0D300BF46
:1001E0000198002800D002E07F1C042FD6D300BF66
:1001F000029807B0F0BD10B500F002F810BD000085
:100200001CB544480068012108434249086000BF0A
:1002100040480068022108400028F9D03E483F4984
:1002200008603F480068102108433D4908600846BF
:100230000068C008C000086038490968481E39498C
:10024000FFF77CFF044636480068204334490860C5
:10025000304840682F4948600846406848602F4849
:1002600000683149884207D92A484068012189023B
:1002700008432849486006E0264840680121890271
:1002800008432449486023484068032109048843FF
:1002900020494860084600680003000B08606B4670
:1002A00001AA1E4801682148FFF770FF194800683D
:1002B0000003000B17490860694608798006097831
:1002C00009050843134909680843124908600846AC
:1002D00000680121090608430E49086000BF0D4867
:1002E00000680121490608400028F8D00948406804
:1002F000800880000749486008464068022108439A
:100300000449486000BF034840680C2108400828A1
:10031000F9D11CBD0010024000D8B8050000002033
:100320000020024000366E0100512502001BB7007C
:1003300010B51548006801210843134908600846B4
:100340004068124908401049486008460068104952
:1003500008400D4908600846006801218904884367
:1003600009490860084640687F2109048843064916
:100370004860084600680003000B08609F200004E6
:100380008860FFF738FF10BD001002400000FFF04A
:10039000FFFFF6FE02E008C8121F08C1002AFAD1CA
:1003A00070477047002001E001C1121F002AFBD1F5
:1003B0007047002070470000D803000800000020AC
:1003C0001400000094030008EC030008140000204F
:1003D00004040000A403000800D8B80500000000D1
:0C03E000000000000102030406070809E9
:04000005080000B53A
:00000001FF
