:020000040800F2
:1000000040040020C9000008FB000008FD000008B3
:10001000FF000008010100080301000800000000C3
:1000200000000000000000000000000005010008C2
:100030000701000800000000090100080B0100088A
:100040000D0100080D0100080D0100080D01000858
:100050000D0100080D0100080D0100080D01000848
:100060000D0100080D0100080D0100080D01000838
:100070000D0100080D0100080D0100080D01000828
:100080000D0100080D0100080D0100080D01000818
:100090000D0100080D0100080D0100080D01000808
:1000A0000D0100080D0100080D010008A115000850
:1000B0000D0100080348854600F088FB0048004712
:1000C000CD1F000840040020114880F30888114823
:1000D0000168090E104A9142FFD110481049016091
:1000E00010481149016011480F4901600B4810493F
:1000F00001601048804710480047FEE7FEE7FEE732
:10010000FEE7FEE7FEE7FEE7FEE7FEE7FEE70000AC
:1001100040040020040000001F0000001C100240EA
:100120000000000418680040120000001C68004035
:10013000000000007D100008B500000830B50B4637
:10014000014600202022012409E00D46D5409D42B1
:1001500005D31D469540491B254695404019154637
:10016000521E002DF1DC30BDF8B502464A40D40FD6
:1001700042004B0052085B089A4202D202460846EF
:1001800011464A0023D0C30D4A00DDB2120EAD1A4B
:10019000202D35DA49020126490AF6058A19002C74
:1001A00000D0524220214F1B1146B9402A4110185D
:1001B000C20D9A4221D0002C17D0012D08DCDA059F
:1001C000801AD20F8019D207DBB200F0FFF8F8BD19
:1001D000DA05801A012340001B06C01880185A4215
:1001E0008018CA0F1043490007E04908C2071143AD
:1001F000DA05801A80194008801800F0DFF8F8BD91
:1002000061000122511A001BF7E70122D207514079
:10021000AAE70122D2075040A6E7024670B54A403D
:10022000D30FDB0740002DD04A002AD0010E140E58
:10023000000212020919400A520A8418E501044614
:100240005443000A120A2E045043A4194219200CE8
:10025000C543AA18120C0125AD03521C52191204F1
:100260007F39240400D0521C104301D44000491EA1
:10027000C2B20C06C0092018401C4008802A02D0D7
:1002800003E0002070BD40084000002900DA002093
:10029000184370BD70B502464A40D50F40004A0071
:1002A000ED0740085208002814D0002A12D0C40DCF
:1002B000D30D41020120C0055202490A520AE41A34
:1002C000091812187D34914201D3641C00E04900E2
:1002D000002C01DA002070BD0023914201D3891A5D
:1002E0000343400849000028F7D100290AD0914271
:1002F00002D10121C90705E0914201D2012101E0AB
:100300000121C943E005C018401900F057F870BD3D
:1003100010B500229623114600F058F810BDC20F08
:10032000D207400040080BD0C10D0723DB01C918DC
:1003300040020905400A1143C208400711437047B3
:1003400000200146704700000122D207002800DB90
:10035000101A002900DB511A88427047F0B51FB40B
:100360000646002082B005464024019100901BE023
:10037000019922460F46304600F04AFA049A059B3E
:10038000801A994110D310461946224600F030FADF
:10039000361A8F410197224601200021009F00F06C
:1003A00027FA38184D4100902046641E0028DFDCF3
:1003B000019B00982946324607B0F0BD002904DAB7
:1003C000401C490001D140084000704770B400242F
:1003D000050C05D11024000402D1002921D01124DC
:1003E000050E01D100020834050F01D10001241DC2
:1003F000850F01D18000A41C002801DB4000641C93
:10040000002908D020252E1B0D46F540A14000D024
:1004100001212943084301061B1B000ADB1D02D5ED
:10042000002070BC7047DB05181880180029F8DA26
:10043000401C4900F5D170BC4008400070470000E6
:10044000F0B507460846584087B0C00F04904800F2
:100450000E46590040084908BC1A884105D2384662
:1004600031461E4617460B460246580040081043C8
:100470004CD0300D039040055900400D490D0590BA
:10048000401A0290402872DA18030121000B090576
:100490000843019004980092002805D00199524227
:1004A0000020884100920190029840210A1A019987
:1004B000009800F09DF905460C466B4607CB00F00E
:1004C000B8F9C0197141039A0E0D0023D717564091
:1004D0001A467A40164344D0049A002A2DD0029A34
:1004E000012A039A15DC1205C01A9141012636052E
:1004F000001C7141D20F059ED20700930192029613
:100500002A46234600F0B5F907B0F0BD384631461B
:10051000FAE71605224A0F46B218C01AB741012160
:100520000905001C4F4100187F41114618187941F8
:10053000E20F10436D19644113E0E2076D081543A3
:100540006408C2071443039A01261205C01A914198
:100550003605001C7141CE07400830434908C018D9
:1005600051412A46234600F077F9CDE7FFE704988A
:1005700001224000C117121A00238B410498314612
:10058000C417381AA141EEE730B40124E4076340F0
:1005900030BC55E730B40124E407614030BC4FE77C
:1005A0000000E0FFF0B51FB488B00B990998002453
:1005B00048400999C00F490049080991C0070B99A3
:1005C0000090490049080B9109990898A6460843EC
:1005D0001CD00B990A98084318D0099801244000B0
:1005E000420D4800410D099824050003000B2043EB
:1005F00009900B980003000B20430B9050181C49E6
:100600004018002201901446104605E000200146E3
:100610000DB0F0BD032801DA034600E003239C4639
:10062000C11A0AAE0AE05F0008ADED5B4F00F75B50
:100630007D430027AA187C41491C5B1E6145F2DD01
:10064000410004AB5A522104120C0A43240C401CF2
:100650000828DFDB01980290009970460191009014
:10066000059B049A0799069800F003F9D0E700006B
:100670000DFCFFFFF0B50C465C4085B0E40FE407CD
:1006800003944C0000266408590094464908024629
:100690000296224321D062460A431ED06200570DC3
:1006A0004A000E032303550D012402462C4924055C
:1006B000781B1B0B360B40182343264361460090E2
:1006C0001C46501AB44103D30098401C009002E02D
:1006D000921800985B41002803DA0020014605B01B
:1006E000F0BD0020012109050746864611E0644659
:1006F0001D46141BB54106D36546521BB3417446D3
:1007000007430C43A646CD074008490828439218E2
:100710005B4105460D43EAD11046184313D06046AD
:10072000194650407140084306D06046101AB34144
:1007300006D20122002306E000220123DB0702E0AB
:100740000122D2435310009874460105381C6141C0
:10075000029C039D0019694100F07EF8BFE700008C
:10076000FD0300004A0009030123090B1B0519437F
:100770000A4B10B5520D9A4202DA0020014610BD14
:10078000064B34339A4203DC9A1A00F041F810BD4C
:10079000034BD21800F02CF810BD0000FF0300003E
:1007A000CDFBFFFF10B5002904DB0124E407404224
:1007B0008C412146002B04DB1C460123DB075242FF
:1007C000A341994200D1904210BD0000064C012582
:1007D000064E05E0E36807CC2B430C3C98471034E9
:1007E000B442F7D3FFF76AFC6820000888200008AD
:1007F00010B5202A04DB0146203A9140002010BDAC
:10080000914020239C1A0346E3401943904010BDB9
:1008100010B5202A04DB0846203AD040002110BD44
:100820000B46D340D0402024A21A914008431946D9
:1008300010BD10B5202A06DBCB170846203A104120
:10084000C1170B4306E00B461341D0402024A21AE7
:1008500091400843194610BD10B5002B08DA00245A
:10086000401C614192185B411A4301D1400840008D
:1008700010BDF0B51FB482B005460C0003D0084689
:1008800000F01AFF02E000F017FF2030024600904F
:1008900021462846FFF7ACFF049B059A04460F4605
:1008A00018431143084314D0184610431BD0009836
:1008B00040210A1A18460599FFF7AAFF05460E4679
:1008C000009A05990498FFF793FF084305D001208B
:1008D00004E02046394607B0F0BD0020C1170543AB
:1008E0000E432C43374300990E986305401A79054F
:1008F000E40A00220C43FD0A0A3002D5002001461A
:10090000E9E70105101969410C9C0D9D0019694129
:10091000FFF7A2FFDFE742690A43426170470029FF
:1009200004D0426801231A43426003E0426852083F
:10093000520042607047014648680722D2011040C9
:10094000C009002802D1086880B2704748680722B1
:10095000D2011040C009012803D10868C003000C6F
:10096000F3E748680722D2011040C009022803D1EA
:1009700008688003000CE8E748680722D2011040AD
:10098000C009032803D108684003000CDDE748686C
:100990000722D2011040C009042803D108680003CF
:1009A000000CD2E7086880B2CFE702460020536906
:1009B0000B40002B01D0012000E000207047000018
:1009C00010B5024600205068C00BC0030C684B688D
:1009D0002343184350609068044B18400C694B69DE
:1009E00023438C6823431843906010BD800000FFB0
:1009F00070B51446002242680F26B6021546B5436C
:100A00002A469D022A434260202905DAC56801264C
:100A10008E403543C5600CE0FF2904D1C568054E02
:100A20003543C56005E0FA2903D1C5682D0C2D04B6
:100A3000C56070BDFFCF0000002905D08268FF238C
:100A400001331A43826004E08268FF2301339A4332
:100A50008260704700B587B00121480400F0B2F908
:100A60000121480200F0CEF900216846C17601213B
:100A700001830321817606A90920C00600F04FF802
:100A8000002000904020019000010290002005907D
:100A900069460748FFF794FF01210548FFF73FFF2C
:100AA0000723012200210248FFF7A2FF07B000BD83
:100AB00000240140FFB583B00C4602940020019051
:100AC000002726E000261CE0721C039951430846CB
:100AD000791CFFF733FB0546A54201D9281B00E02E
:100AE000601B05460298A84204D902950598067035
:100AF000069807700298002802D10120019002E0B8
:100B0000761C402EE0D300BF0198002800D002E000
:100B10007F1C042FD6D300BF029807B0F0BDFCB5F0
:100B2000024600250026019600200023002400969E
:100B3000CE7835072D0FCE7810273E40002E01D0FD
:100B40008E7835430E78002E27D01468002021E0DF
:100B50000126864033460E881E400196019E9E4225
:100B600017D183000F269E4000962746009EB7436C
:100B70003C462E469E403443CE78282E03D1012693
:100B80008640566105E0CE78482E02D10126864087
:100B90001661401C0828DBD314600E88FF2E2CDD64
:100BA0005468002026E0064608360127B7403B4639
:100BB0000E881E400196019E9E421AD183000F2688
:100BC0009E4000962746009EB7433C462E469E40D8
:100BD0003443CE78282E04D1064608360127B74084
:100BE0005761CE78482E04D1064608360127B74013
:100BF0001761401C0828D6D35460FCBDF0B5002313
:100C000000244D07EE0E1546B5402B46CD10002DA5
:100C10000BD1056A4E07F70E0F26BE40B54305629D
:100C2000056A1D432C4604620AE0456A4E07F70E2A
:100C30000F26BE40B5434562456A1D432C464462BB
:100C4000F0BD000070B5002401211348FFF7F4FE49
:100C500000BF01211048FFF7A8FE0028F9D00121AC
:100C60000D48FFF758FE0C48FFF765FE0646FFF7F4
:100C70004FFB05462146FFF777FA04468B21C9054D
:100C80002046FFF707FB06460449FFF7C6FA05466C
:100C90000349FFF7C2FA70BD002401400000A040E4
:100CA0000000C84110B586B004461B216846017596
:100CB000012181750021417505A800F04BF8012143
:100CC000480400F07FF80121880300F09BF8182108
:100CD0006846C1740121490201820321817404A97B
:100CE0000920C006FFF71BFF04216846C1740902F2
:100CF000018204A90920C006FFF711FF0122092182
:100D0000C806FFF77BFF01220A210920C006FFF772
:100D100075FF02210E4800F059FC012202210C4807
:100D200000F06EFC00940021684681811821418109
:100D300000210181C180302181806946044800F092
:100D400069FC0121024800F043FC06B010BD000020
:100D50000038014000218278002A27D0184A032356
:100D60001B02D21803789B109B00D158027892077F
:100D7000D30EFF229A400B469343194642789207BE
:100D8000120E03789B07DB0E9A4011430C4A032393
:100D90001B02D21803789B109B00D1500278D30617
:100DA000DB0E01229A40064B1A6007E00278D30658
:100DB000DB0E01229A40024B80331A60704700001C
:100DC00000E100E0002905D0054A52690243044BC6
:100DD0005A6104E0024A52698243014B5A617047EA
:100DE00000100240002905D0054AD2690243044B95
:100DF000DA6104E0024AD2698243014BDA6170474A
:100E000000100240002905D0054A92690243044BB4
:100E10009A6104E0024A92698243014B9A617047E9
:100E200000100240FEB50446002500260020019077
:100E300000900027344840680C2108400546042DE6
:100E400002D1324820603BE0082D32D12E480068A4
:100E5000800E461C2C480068072109050840000D3B
:100E6000401C0190284840686903084000900098A1
:100E7000002807D12649714308460199FFF75EF91A
:100E800020601DE0204840680121490408400028F6
:100E900007D02049714308460199FFF74FF92060B8
:100EA0000EE01A49714308460199FFF747F920609F
:100EB00006E00C2D02D11848206001E013482060A4
:100EC00011484068F021084005462D091348475D48
:100ED0002068F84060600C4840680721090208401B
:100EE00005462D0A0D48475D6068F840A060064839
:100EF0004068C90008400546ED0A0848475D60683B
:100F0000F840E060FEBD00000010024000127A00D0
:100F1000001BB70000093D00409C00002800002095
:100F200010B500F001F810BD1CB54448006801215F
:100F300008434249086000BF404800680221084059
:100F40000028F9D03E483F4908603F48006810211A
:100F500008433D49086008460068C008C0000860B2
:100F600038490968481E3949FFF7E8F80446364809
:100F70000068204334490860304840682F49486081
:100F80000846406848602F4800683149884207D9C0
:100F90002A4840680121890208432849486006E040
:100FA00026484068012189020843244948602348B3
:100FB00040680321090488432049486008460068C6
:100FC0000003000B08606B4601AA1E480168214817
:100FD000FFF770FD194800680003000B174908600F
:100FE00069460879800609780905084313490968A4
:100FF00008431249086008460068012109060843B1
:101000000E49086000BF0D480068012149060840EC
:101010000028F8D0094840688008800007494860E7
:1010200008464068022108430449486000BF03485D
:1010300040680C2108400828F9D11CBD001002406E
:1010400000D8B805140000200020024000366E01D0
:1010500000512502001BB7000020064948630649DD
:10106000486304498863044988630249C8630249A4
:10107000C8637047002C01400004004010B51548BB
:101080000068012108431349086008464068124976
:1010900008401049486008460068104908400D495A
:1010A00008600846006801218904884309490860EE
:1010B000084640687F21090488430649486008467D
:1010C00000680003000B08609F2000048860FFF7A1
:1010D00027FF10BD001002400000FFF0FFFFF6FEEA
:1010E00030B58BB004460D460121C802FFF78AFED9
:1010F00001218804FFF766FE182108A8C172E021CB
:1011000068460185032108A881720AA92748FFF7CC
:1011100006FD062205212548FFF770FD062211462F
:101120002248FFF76BFD062207212048FFF766FDE6
:101130000794681E059000200890069005A91C4899
:1011400000F0F0F96021684681802046E10F09181F
:10115000C9030A0C69464A81002088810120C880A1
:1011600001A9134800F0B8F80821114800F000F96F
:1011700001A90F4800F00AF908210D4800F062F9B2
:1011800001A90B4800F06CF90821094800F0BCF9EE
:101190000121074800F076F80121054800F08EF89B
:1011A0000121034800F07CF80BB030BD000400487A
:1011B000002C014030B58BB004460D4601210220C1
:1011C000FFF710FE0121C804FFF7FCFD182108A855
:1011D000C172FF21C13168460185032108A88172CF
:1011E0000AA92648FFF79BFC012206212348FFF7A6
:1011F00005FD012207212148FFF700FD01220821FA
:101200001E48FFF7FBFC0794681E0590002008901D
:10121000069005A91A4800F085F96021684681808A
:101220002046E10F0918C9030A0C69464A810020CB
:1012300088810120C88001A9114800F04DF80821DB
:101240000F4800F095F801A90D4800F09FF808211B
:101250000B4800F0F7F801A9094800F001F908214E
:10126000074800F051F90121054800F00BF8012171
:10127000034800F015F80BB030BD0000000800482E
:1012800000040040002904D0026880231A43026051
:1012900003E00268014B1A40026070477FFF0000C4
:1012A000002904D0026801231A43026003E00268A7
:1012B000014B1A4002607047FEFF0000002905D074
:1012C000426C0123DB031A43426403E0426C520484
:1012D000520C42647047000070B5002400220023C5
:1012E000056A1D4E35400562056AAAB24568ABB273
:1012F0008569ACB2184D6F3D2C40B51E2C400D8851
:101300002C43751E2A400D892A434D882A43134DCC
:10131000A84208D0124DA84205D0124DA84202D0D2
:10132000114DA84212D10C4DED1F2A404D892A4380
:10133000094DED1E2A408D882A43074DFF3D2B4065
:101340000A4D2B408D892B43CD892B43436084610B
:10135000CD884563026270BDFEFF0000002C014095
:10136000004401400048014000080140FFFD00002A
:101370000A460021836999B2034B19400B46134377
:101380001946816170470000F7FF000070B5002426
:1013900000220023056A244E35400562056AAAB280
:1013A0004568ABB28569ACB2204D2C40204D2C4035
:1013B0000D782D062D0C2C431B4D103D2A400D8918
:1013C0002D052D0C2A434D882D052D0C2A43194D32
:1013D000A84202D0184DA8421FD1184D2B408D892C
:1013E000AD042D0C2B43134DA84202D0124DA84240
:1013F00013D10D4D703D2A404D892D052D0C2A43EA
:10140000094D303D2A408D882D052D0C2A430C4D69
:101410002B40CD89AD042D0C2B4343608461CD88D6
:101420008563026270BD0000EFFF0000FF8F0000C7
:10143000FFFC0000002C014000080140FFFB000001
:10144000FFF700000A460021836999B2034B194057
:1014500013061B0C1943816170470000FFF7000061
:1014600070B5002400220023056A1F4E3540056236
:10147000056AAAB24568ABB2C569ACB21A4D9035DF
:101480002C40194DFD352C400D882C43174D2A401A
:101490000D7A2D062D0C2A438D782D062D0C2A430E
:1014A000134DA84202D0134DA84217D1124D2A4025
:1014B0008D7A2D062D0C2A43104D2A400D792D06CC
:1014C0002D0C2A430E4D2B400E4D2B408D892D05A2
:1014D0002D0C2B43CD892D052D0C2B434360C4616E
:1014E000CD88C563026270BDFFFE0000FFFD0000F5
:1014F000002C014000080140FFF70000FFFB000046
:10150000FFEF0000FFDF00000A460021C36999B227
:10151000034B19400B4613431946C1617047000045
:10152000F7FF0000002203689AB2164B984209D0D8
:1015300001239B07984205D0134B984202D0134BCE
:10154000984204D1124B1A408B8813439AB2114B24
:101550001A408B8913439AB202608B68C3620B688E
:101560008362084B984208D0084B984205D00A4B3A
:10157000984202D0094B984201D10B7C03630123AE
:1015800043617047002C0140000400400008014006
:101590008FFF0000FFFC00000044014000480140B4
:1015A00010B50221074800F021F8002808D00221D8
:1015B000044800F00BF8034800F06AF8024908609C
:1015C00010BD0000003801400C0000204161704750
:1015D000002904D0826901231A43826103E08269F1
:1015E000014B1A4082617047FEFF00000246002056
:1015F000D3680B40002B01D0012000E00020704791
:10160000002A03D003690B43036102E003698B43A3
:1016100003617047F0B587B004460D4600260020F0
:101620000690059000272746E669FF21D031304615
:1016300088430646A888E988084329890843064361
:10164000E661A66976097601A88969890843064397
:10165000A66101A8FFF7E6FB0C48874202D1039878
:10166000069001E00498069029680698FEF766FD4A
:10167000060929680698FEF761FD0007000F05902E
:1016800026620598606207B0F0BD0000004400408B
:1016900001464868C0B270470FB410B503A9044BA7
:1016A000044A029800F0E8F810BC08BC04B01847DF
:1016B000B11F0008380000202021020C01D01021A9
:1016C0001046020A01D010460839020901D010461E
:1016D000091F820801D01046891E420801D0881EC9
:1016E0007047081A704702E008C8121F08C1002A94
:1016F000FAD170477047002001E001C1121F002A93
:10170000FBD17047F0B51FB486B00998089A030D55
:101710000021024314D05148514A1818504305146F
:101720001198012810981AD0281A401C00264D4FF5
:101730004D49009601910490002812DA444211E0CC
:101740001198012449A3012801D11098C14306989A
:10175000119A84600360C26041600BB0F0BD4042EA
:10176000E4E70446210500203F4A001C5141039153
:10177000029012E0E00707D032463B4601990098FC
:10178000FEF710FF0191009032463B461046194685
:10179000FEF708FF06460F466410002CEAD10498B5
:1017A000039B0028029A0999089806DAFEF7FAFEC8
:1017B000019B009AFEF7F6FE05E0FEF75BFF019B3A
:1017C000009AFEF757FF04460E460022284BFEF70C
:1017D000E9FF03D80020C043014607E00022254B63
:1017E00020463146FEF72CFEFEF7BCFF102409E030
:1017F000002C0ADB0A220023FEF7B0FD079B3032E3
:101800001A55641E02460A43F2D11122641C079B3A
:10181000121B1C19119B012B03D0012308430ED16D
:101820000AE0084304D0112010900020119077E7BF
:101830001098151A6D1E0BE01098824202DD0023ED
:101840006D1C03E0824201DA00236D1E002BEED0F6
:10185000069811998260C16030C07EE701FCFFFFED
:10186000104D0000000014400000F03F3000000068
:101870000000F0430000E03FFFB597B006460025AA
:1018800018E2252877D100242746FD49049400E07A
:101890000443761C32780120203A90400842F7D168
:1018A00030782A280ED002223078014630390929B2
:1018B00016D804990A235943303940181443761C2A
:1018C0000490F1E7189802C804911890002904DAEE
:1018D0000120400304434842049002200443761C44
:1018E00030782E2814D1042004437078761C2A28DE
:1018F00009D11898761C80C8189009E00A214F4336
:10190000303FC719761C3078014630390929F5D99E
:1019100030786C2810D006DC4C281AD068280ED0FD
:101920006A2817D104E0742813D07A2812D110E065
:101930000120400504430CE00121090501E00321D9
:1019400009050C437178814203D101200005241858
:10195000761C761C3078119066280BD013DC582842
:101960007DD009DC00287BD04528F6D04628F4D06D
:1019700047281AD1A5E118E0632835D0642870D033
:10198000652812D19DE170286CD008DC6728F1D061
:1019900069287BD06E280DD06F2806D1BAE0732855
:1019A0002ED0752871D0782859D01A9A1999904755
:1019B0006D1C7EE16002400F022809D003280DD083
:1019C0000428189801680DD00D60001D189070E172
:1019D0001898EA1701680D604A60F6E718980168E0
:1019E0000D80F2E70D70F0E718986A4601781172E1
:1019F000001D18900020507202A80090012005E000
:101A0000189802C8189000200091C04361070DD5B6
:101A1000002101E00199491C0191B94212DA814289
:101A2000F8DB009A515C0029F4D10BE0002101E0C1
:101A30000199491C01918142FADB019A0099895C64
:101A40000029F5D1019904981A9B471A2146384676
:101A5000199A00F097FA0199401945180BE04FE0E8
:101A60002CE113E04EE0009800990078491C0091A9
:101A70001A9A199990470198401E0190401CF2D182
:101A8000214638461A9B199A10E137E00A200021B6
:101A9000009001916002410F022907D0189A01CAF3
:101AA0001892C2179446032908D00AE01898C01D5E
:101AB000C108C90005C91891944607E000B2C217D1
:101AC0009446042902D140B2C1178C4600226146D7
:101AD000944506DA0A460021404291418C462D2168
:101AE00002E0210504D52B216A461173012103E090
:101AF000E10701D02021F7E7029155E00A200AE032
:101B0000102008E0102000900021042004430191DF
:101B1000082703E008200021019100906002410F96
:101B2000022907D0189A01CA189200229446032964
:101B300008D008E01898C01DC108C90005C918914F
:101B4000944603E080B2042900D1C0B20021029182
:101B5000210729D51199702906D0009A1021019BDF
:101B60004A401A4305D00EE040216A461173012114
:101B700008E06146014306D030216A46117311998D
:101B8000517302210291009A0821019B4A401A4395
:101B90000AD16146014301D1610705D530216A466A
:101BA000117301217F1E02911199582904D035A18A
:101BB0000E910DA90D910DE037A1F9E76146019B4A
:101BC000009AFEF7CBFB0E9B8C469B5C0D9A521E37
:101BD0000D92137061460143F0D10D9805A9081AC2
:101BE00020300190600703D501200004844300E009
:101BF00001270198874201DD381A00E00020019991
:101C000000904118029809180498401A0490E003C3
:101C100006D421461A9B199A049800F0B3F9451985
:101C2000002706E003A81A9AC05D199990476D1C19
:101C30007F1C02988742F5DBE0030CD521461A9BF6
:101C4000199A049800F09EF9451904E01A9A302078
:101C5000199990476D1C0099481E00900029F5DCE9
:101C600008E00D980D990078491C0D911A9A199960
:101C700090476D1C0199481E01900029F1DC63E139
:101C80000928010030313233343536373839616252
:101C90006364656600000000303132333435363716
:101CA00038394142434445460000000000F05AF9EB
:101CB0004519761C3078002800D0E2E528461BB094
:101CC000F0BD600700D406271898C01DC108C900E0
:101CD00048680A680831C30FDB071891190001D062
:101CE0009CA108E0210501D59BA104E0E10701D0FA
:101CF0009AA100E09AA1430011985B081091652811
:101D00000CD006DC452809D046281DD0472841D1F3
:101D100041E0662818D067283CD13CE00021112F13
:101D200001DB112000E0781C0191009008A911A8A6
:101D3000FFF7E8FC139905910021119A15927F1C79
:101D400012980197009150E00120C00703900120F4
:101D5000019008A9009711A8FFF7D4FC139A1499D1
:101D600005920022119B009212981593059A0192F8
:101D7000002901D0104602E0791C40180190381A61
:101D800001D5019804E04042401E0090781C01906B
:101D9000C01B029043E0012F00DA01270021112F20
:101DA00001DD112000E038460191009008A911A83A
:101DB000FFF7A8FC13990591119A0021129815922A
:101DC0000091019721070CD40599B94201DB0199D3
:101DD00000E00191012904DD159A491E515C30296A
:101DE00006D0B84201DA011D05DA0121029115E0A1
:101DF0000199491EEDE7002805DC00994118009182
:101E00000199091A03E0019A411C914200DD0191F8
:101E10000099401A401C02900120C007039020073F
:101E200006D402990198814202DB0020C04302904F
:101E300000206946C87707AF012103980337C90717
:101E4000884224D0022011902B2012900398002861
:101E50000CDA404203902D20129007E00A210398EB
:101E6000FEF76CF930317F1E039039701199481ECE
:101E700011900029F2DC03980028EFD1791E129806
:101E800008703078202108404530BF1E387006A801
:101E9000C01BC01D039010980078002800D00120BE
:101EA000019941180298C017091803980918049855
:101EB000401A401E0490E00306D421461A9B199A4A
:101EC000049800F05FF8451910980078002803D0B6
:101ED0001A9A199990476D1CE00324D521461A9B44
:101EE000199A049800F04EF845191CE00098002853
:101EF00007DB00990598884203DD1598405C199925
:101F000001E0199930201A9A904700986D1C401CE6
:101F100000900298401E0290002804D11A9A2E20A8
:101F2000199990476D1C0199481E01900029DDDC2C
:101F300005E038781A9A7F1C199990476D1C03990F
:101F4000481E03900029F4DC21461A9B199A049834
:101F5000ACE600002D0000002B0000002000000077
:101F600000000000F8B5044600251E461746880408
:101F700004D405E039462020B0476D1C641EF9D515
:101F80002846F8BDFFB50446002581B01E46C803AB
:101F900001D5302700E02027880404D505E0384625
:101FA0000399B0476D1C641EF9D5284605B0F0BDF5
:101FB00000BF054A9268D207D20F002AF9D0C2B2F8
:101FC000014B1A607047000000380140FEF742FDE7
:101FD0004B21C9016420FFF7EDF84B21C9016420B2
:101FE000FFF77EF8E1204002FEF75CFEFFF734F8D1
:101FF000154800681549486364201549C86321E005
:10200000FEF720FE0646FEF78AF9044622460B46F6
:1020100010A0FFF741FBFEF715FE114904460860CA
:102020001049FEF791F90DD2FFF716F80C48006839
:10203000FEF775F9044622460B4606A0FFF72CFB77
:1020400000BFFEE7DCE7000004000020002C014098
:1020500000040040562D2D2D25660D0A00000000BD
:10206000100000200000A04188200008000000208F
:102070003C000000E6160008C42000083C000020D8
:1020800004040000F6160008000000001E00000016
:102090000F000000000000000000000000D8B8059C
:1020A0000000000000000000010203040607080908
:1020B00000000000010203040102030406070809EE
:0420C000000000001C
:04000005080000B53A
:00000001FF
