:020000040800F2
:1000000038040020C9000008FB000008FD000008BB
:10001000FF000008010100080301000800000000C3
:1000200000000000000000000000000005010008C2
:100030000701000800000000090100080B0100088A
:100040000D0100080D0100080D0100080D01000858
:100050000D0100080D0100080D0100080D01000848
:100060000D0100080D0100080D0100080D01000838
:100070000D0100080D0100080D0100080D01000828
:100080000D0100080D0100080D0100080D01000818
:100090000D0100080D0100080D0100080D01000808
:1000A0000D0100080D0100080D0100085D0C00089D
:1000B0000D0100080348854600F056F80048004747
:1000C000810D000838040020114880F30888114889
:1000D0000168090E104A9142FFD110481049016091
:1000E00010481149016011480F4901600B4810493F
:1000F00001601048804710480047FEE7FEE7FEE732
:10010000FEE7FEE7FEE7FEE7FEE7FEE7FEE70000AC
:1001100038040020040000001F0000001C100240F2
:100120000000000418680040120000001C68004035
:100130000000000039070008B500000830B50B4684
:10014000014600202022012409E00D46D5409D42B1
:1001500005D31D469540491B254695404019154637
:10016000521E002DF1DC30BD064C0125064E05E087
:10017000E36807CC2B430C3C98471034B442F7D3C8
:10018000FFF79CFF280E0008480E0008FFB583B05B
:100190000C46029400200190002726E000261CE077
:1001A000721C039951430846791CFFF7C7FF0546A7
:1001B000A54201D9281B00E0601B05460298A84211
:1001C00004D90295059806700698077002980028D1
:1001D00002D10120019002E0761C402EE0D300BF46
:1001E0000198002800D002E07F1C042FD6D300BF66
:1001F000029807B0F0BD000000B50B480068642805
:1002000001DD00F087FA08480068642803DA064830
:100210000068064908600648006806498863044883
:1002200000680549886300BD0C000020080000201C
:100230000400002000040040002C0140FCB50246F0
:100240000025002601960020002300240096CE7889
:1002500035072D0FCE7810273E40002E01D08E7826
:1002600035430E78002E27D01468002021E00126A7
:10027000864033460E881E400196019E9E4217D14D
:1002800083000F269E4000962746009EB7433C46BB
:100290002E469E403443CE78282E03D10126864038
:1002A000566105E0CE78482E02D1012686401661BF
:1002B000401C0828DBD314600E88FF2E2CDD546808
:1002C000002026E0064608360127B7403B460E8848
:1002D0001E400196019E9E421AD183000F269E4029
:1002E00000962746009EB7433C462E469E40344328
:1002F000CE78282E04D1064608360127B74057612C
:10030000CE78482E04D1064608360127B74017613B
:10031000401C0828D6D35460FCBDF0B5002300244F
:100320004D07EE0E1546B5402B46CD10002D0BD1D6
:10033000056A4E07F70E0F26BE40B5430562056AF3
:100340001D432C4604620AE0456A4E07F70E0F264D
:10035000BE40B5434562456A1D432C464462F0BD2C
:1003600010B586B004461B216846017501218175D0
:100370000021417505A800F04BF80121480400F068
:100380007FF80121880300F09BF818216846C174AA
:100390000121490201820321817404A90920C006B8
:1003A000FFF74CFF04216846C1740902018204A9C9
:1003B0000920C006FFF742FF01220921C806FFF706
:1003C000ACFF01220A210920C006FFF7A6FF022187
:1003D0000E4800F059FC012202210C4800F06EFC8E
:1003E000009400216846818118214181002101810A
:1003F000C180302181806946044800F069FC0121F8
:10040000024800F043FC06B010BD00000038014077
:1004100000218278002A27D0184A03231B02D21811
:1004200003789B109B00D15802789207D30EFF22CD
:100430009A400B469343194642789207120E03786E
:100440009B07DB0E9A4011430C4A03231B02D21870
:1004500003789B109B00D1500278D306DB0E01225B
:100460009A40064B1A6007E00278D306DB0E0122A1
:100470009A40024B80331A607047000000E100E0B0
:10048000002905D0054A52690243044B5A6104E031
:10049000024A52698243014B5A6170470010024080
:1004A000002905D0054AD2690243044BDA6104E011
:1004B000024AD2698243014BDA6170470010024060
:1004C000002905D0054A92690243044B9A6104E071
:1004D000024A92698243014B9A61704700100240C0
:1004E000FEB504460025002600200190009000275C
:1004F000344840680C2108400546042D02D132489A
:1005000020603BE0082D32D12E480068800E461C4A
:100510002C480068072109050840000D401C019087
:10052000284840686903084000900098002807D1D7
:100530002649714308460199FFF700FE20601DE03F
:1005400020484068012149040840002807D020497C
:10055000714308460199FFF7F1FD20600EE01A494A
:10056000714308460199FFF7E9FD206006E00C2D74
:1005700002D11848206001E013482060114840680B
:10058000F021084005462D091348475D2068F840D2
:1005900060600C48406807210902084005462D0AA2
:1005A0000D48475D6068F840A06006484068C90093
:1005B00008400546ED0A0848475D6068F840E0607D
:1005C000FEBD00000010024000127A00001BB700C0
:1005D00000093D00409C00002400002010B500F000
:1005E00001F810BD1CB54448006801210843424988
:1005F000086000BF40480068022108400028F9D088
:100600003E483F4908603F480068102108433D4983
:10061000086008460068C008C000086038490968DA
:10062000481E3949FFF78AFD0446364800682043D2
:1006300034490860304840682F494860084640689F
:1006400048602F4800683149884207D92A484068E5
:100650000121890208432849486006E0264840688D
:100660000121890208432449486023484068032146
:100670000904884320494860084600680003000BCD
:1006800008606B4601AA1E4801682148FFF77EFDFD
:10069000194800680003000B17490860694608798B
:1006A0008006097809050843134909680843124977
:1006B0000860084600680121090608430E490860E1
:1006C00000BF0D4800680121490608400028F8D005
:1006D000094840688008800007494860084640682B
:1006E000022108430449486000BF034840680C21C8
:1006F00008400828F9D11CBD0010024000D8B805F8
:10070000100000200020024000366E01005125023A
:10071000001BB700002006494863064948630449A6
:100720008863044988630249C8630249C863704703
:10073000002C01400004004010B51548006801215C
:1007400008431349086008464068124908401049A8
:10075000486008460068104908400D49086008468E
:1007600000680121890488430949086008464068F7
:100770007F21090488430649486008460068000351
:10078000000B08609F2000048860FFF727FF10BD62
:10079000001002400000FFF0FFFFF6FE30B58BB006
:1007A00004460D460121C802FFF78AFE0121880494
:1007B000FFF766FE182108A8C172E021684601858E
:1007C000032108A881720AA92748FFF737FD0622EE
:1007D00005212548FFF7A1FD062211462248FFF713
:1007E0009CFD062207212048FFF797FD0794681E0D
:1007F000059000200890069005A91C4800F0F0F92B
:100800006021684681802046E10F0918C9030A0C5F
:1008100069464A81002088810120C88001A91348C7
:1008200000F0B8F80821114800F000F901A90F48BC
:1008300000F00AF908210D4800F062F901A90B48FF
:1008400000F06CF90821094800F0BCF901210748C3
:1008500000F076F80121054800F08EF801210348E8
:1008600000F07CF80BB030BD00040048002C0140C3
:1008700030B58BB004460D4601210220FFF710FE73
:100880000121C804FFF7FCFD182108A8C172FF214F
:10089000C13168460185032108A881720AA926484A
:1008A000FFF7CCFC012206212348FFF736FD012289
:1008B00007212148FFF731FD012208211E48FFF7DB
:1008C0002CFD0794681E059000200890069005A94D
:1008D0001A4800F085F96021684681802046E10FC2
:1008E0000918C9030A0C69464A8100208881012041
:1008F000C88001A9114800F04DF808210F4800F008
:1009000095F801A90D4800F09FF808210B4800F068
:10091000F7F801A9094800F001F90821074800F09B
:1009200051F90121054800F00BF80121034800F0BE
:1009300015F80BB030BD000000080048000400406E
:10094000002904D0026880231A43026003E0026891
:10095000014B1A40026070477FFF0000002904D05D
:10096000026801231A43026003E00268014B1A4047
:1009700002607047FEFF0000002905D0426C012391
:10098000DB031A43426403E0426C5204520C42649B
:100990007047000070B5002400220023056A1D4E38
:1009A00035400562056AAAB24568ABB28569ACB24A
:1009B000184D6F3D2C40B51E2C400D882C43751EE4
:1009C0002A400D892A434D882A43134DA84208D056
:1009D000124DA84205D0124DA84202D0114DA84296
:1009E00012D10C4DED1F2A404D892A43094DED1EB1
:1009F0002A408D882A43074DFF3D2B400A4D2B404E
:100A00008D892B43CD892B4343608461CD88456319
:100A1000026270BDFEFF0000002C01400044014056
:100A20000048014000080140FFFD00000A46002187
:100A3000836999B2034B19400B46134319468161F0
:100A400070470000F7FF000070B50024002200236B
:100A5000056A244E35400562056AAAB24568ABB204
:100A60008569ACB2204D2C40204D2C400D782D06D0
:100A70002D0C2C431B4D103D2A400D892D052D0CAE
:100A80002A434D882D052D0C2A43194DA84202D02A
:100A9000184DA8421FD1184D2B408D89AD042D0C47
:100AA0002B43134DA84202D0124DA84213D10D4D35
:100AB000703D2A404D892D052D0C2A43094D303DAE
:100AC0002A408D882D052D0C2A430C4D2B40CD89B5
:100AD000AD042D0C2B4343608461CD888563026295
:100AE00070BD0000EFFF0000FF8F0000FFFC000062
:100AF000002C014000080140FFFB0000FFF7000050
:100B00000A460021836999B2034B194013061B0C56
:100B10001943816170470000FFF7000070B50024A1
:100B200000220023056A1F4E35400562056AAAB2FD
:100B30004568ABB2C569ACB21A4D90352C40194D21
:100B4000FD352C400D882C43174D2A400D7A2D067B
:100B50002D0C2A438D782D062D0C2A43134DA842C7
:100B600002D0134DA84217D1124D2A408D7A2D067E
:100B70002D0C2A43104D2A400D792D062D0C2A43A9
:100B80000E4D2B400E4D2B408D892D052D0C2B43EA
:100B9000CD892D052D0C2B434360C461CD88C563E1
:100BA000026270BDFFFE0000FFFD0000002C01404E
:100BB00000080140FFF70000FFFB0000FFEF00000E
:100BC000FFDF00000A460021C36999B2034B1940B8
:100BD0000B4613431946C16170470000F7FF000040
:100BE000002203689AB2164B984209D001239B0752
:100BF000984205D0134B984202D0134B984204D12F
:100C0000124B1A408B8813439AB2114B1A408B89AE
:100C100013439AB202608B68C3620B688362084B0D
:100C2000984208D0084B984205D00A4B984202D00F
:100C3000094B984201D10B7C036301234361704748
:100C4000002C014000040040000801408FFF00001C
:100C5000FFFC0000004401400048014010B50221A3
:100C6000074800F021F8002808D00221044800F0CD
:100C70000BF8034800F06AF80249086010BD000054
:100C8000003801400C00002041617047002904D069
:100C9000826901231A43826103E08269014B1A4091
:100CA00082617047FEFF000002460020D3680B40BF
:100CB000002B01D0012000E000207047002A03D063
:100CC00003690B43036102E003698B4303617047CF
:100CD000F0B587B004460D4600260020069005902A
:100CE00000272746E669FF21D03130468843064673
:100CF000A888E9880843298908430643E661A6696C
:100D000076097601A889698908430643A66101A886
:100D1000FFF7E6FB0C48874202D10398069001E0FA
:100D20000498069029680698FFF708FA06092968CA
:100D30000698FFF703FA0007000F05902662059852
:100D4000606207B0F0BD0000004400400146486802
:100D5000C0B2704702E008C8121F08C1002AFAD1C9
:100D600070477047002001E001C1121F002AFBD12B
:100D7000704700BF0146401E0029FBD170470000AC
:100D8000E1204002FFF7ECFA30216420FFF706FD76
:100D900030216420FFF76CFDFFF7BCFC32201C49BA
:100DA00088631C49886331E01B48FFF7E2FF1B485A
:100DB00000681B49096888420DDD1A480068FF2158
:100DC000F531884207D116480068401C1449086074
:100DD00000201449086011480068114909688842D8
:100DE0000DDA10480068FF21F531884207D10C4820
:100DF0000068401E0A49086000200A490860094846
:100E00000068401C07490860FFF7F6F9CCE70000CE
:100E100000040040002C014088130000080000205E
:100E20000400002000000020480E00080000002000
:100E300034000000540D00087C0E0008340000202F
:100E400004040000640D0008000000000F00000012
:100E50000F0000000000000000D8B80500000000EE
:100E6000000000000102030406070809000000005A
:0C0E700001020304010203040607080944
:04000005080000B53A
:00000001FF
