:020000040800F2
:10000000701A0020A5010008AD010008AF0100082A
:10001000B1010008B3010008B501000800000000AC
:10002000000000000000000000000000B701000810
:10003000B901000800000000BB010008BD01000874
:10004000BF010008BF010008BF010008BF01000890
:10005000BF010008BF010008BF010008BF01000880
:10006000BF010008BF010008BF010008BF01000870
:10007000BF010008BF010008BF010008BF01000860
:10008000BF010008BF010008BF010008BF01000850
:1000900000000000BF01000800000000BF010008D0
:1000A000BF010008BF010008BF010008BF01000830
:1000B000191B0008BF010008BF010008BF010008AC
:1000C00000000000BF01000800000000BF010008A0
:1000D000BF010008BF010008BF010008CD1E0008D5
:1000E000BF010008BF010008BF010008BF010008F0
:1000F000BF010008BF010008BF010008BF010008E0
:1001000000000000BF010008BF010008BF01000897
:10011000BF010008BF010008BF010008BF010008BF
:10012000BF010008BF010008BF010008BF010008AF
:10013000BF010008BF01000800000000000000002F
:10014000BF0100080000000000000000BF0100081F
:10015000000000000000000000000000BF010008D7
:10016000000000000000000000000000000000008F
:10017000000000000000000000000000000000007F
:100180000000000000000000BF010008BF010008DF
:10019000DFF80CD000F0A6FC00480047113800083A
:1001A000701A00200648804706480047FEE7FEE731
:1001B000FEE7FEE7FEE7FEE7FEE7FEE7FEE7FEE717
:1001C000B51A00089101000830B505462A460B46CD
:1001D00012F8010B13F8014B08B1A042F8D01CB182
:1001E000002802D06D1CF1E7284630BDF0B480EA4B
:1001F0000102D40F4200B2EB410F02D20246084680
:1002000011464A0042D0C30DDDB2C1F3C752AD1A48
:10021000202D35DAC1F3160141F4000204B1524237
:10022000C5F1200602FA06F12A411044B3EBD05F73
:1002300023D0C4B1012DA0EBC35009DCF0BC4FF0BA
:10024000004202EAC352DBB200F5000000F03FBBFF
:10025000400000F1807000EBC350A0F1807040EAD4
:10026000D170490009E0490841EAC071A0EBC350D0
:1002700000F50000400800EBC350F0BC00F01EBBCE
:100280006142012202EB4101001BF6E7F0BC70471E
:1002900081F00041AAE780F00040A7E780EA010270
:1002A00010B502F00043400022D04A001FD0010EDA
:1002B00001EB1261C0F35600C2F3560240F4000095
:1002C00042F40002A0FB022000047F39140400D095
:1002D000401C50EA124001D44000491EC2B20C0634
:1002E00004EBD010401C4008802A02D003E000201C
:1002F00010BD20F00100002900DA0020184310BDD5
:1003000030B480EA010202F0004530F0004221F0F2
:10031000004013D090B1C30DD40DC2F31601C0F349
:100320001600E41A41F4000140F400027D349142C9
:1003300001D3641C00E04900002C02DA30BC00202C
:1003400070474FF400000023914201D3891A034300
:1003500040084FEA4101F7D151B1914202D14FF02B
:10036000004105E002D24FF0010101E06FF0010110
:1003700003EBC450284430BC00F0A0BA2DE9FE4F76
:10038000804681EA0300C00F0C46009021F0004136
:1003900023F00045B8EB0200A94105D240462146B2
:1003A00090461C460B46024623F00040104347D0BF
:1003B000270DC7F30A00C3F30A510290401A0190B7
:1003C00040286BDAC3F3130040F4801B0098924678
:1003D00020B10023D2EB030A63EB0B0B01985946C3
:1003E000C0F14002504600F038FA06460D4650462D
:1003F0005946019A00F050FA10EB080061410024C0
:1004000087EA115284EAE7731A4340D0009A62B334
:10041000019A012A4FEA075215DC001B61EB020129
:100420004FF0004202EA0752CDE90042001C41F5BC
:10043000801132462B4600F087FA03B0BDE8F08FFA
:1004400040462146F9E7001B61EB0201001C41F523
:10045000801300185B412018A2F5001747EB030139
:1004600040EAD570B6196D4111E06D084FEA3606C5
:1004700045EAC0754FEA0752001B61EB0201001C00
:1004800041F5801149084FEA3000001951413246C8
:100490002B4603B0BDE8F04F00F047BA00980122A8
:1004A00040000023D0EB020263EBE073009821468A
:1004B0004FEAE074B8EB000061EB0401E9E783F078
:1004C00000435BE781F0004158E72DE9FE4F81EAE8
:1004D000030404F0004421F0004100944FF0000BAD
:1004E00023F0004350EA01045ED052EA03045BD0DB
:1004F000C3F30A54C1F30A552C44A4F2F334019413
:10050000A0FB0254C1F3130141F48011C3F31303A0
:1005100043F4801301FB024400FB034E840A970A54
:1005200044EA815447EA8357A4FB076802958D0A81
:1005300005FB07854FEA932C04FB0C542705029D0D
:100540004FEA065847EA1637B5EB08056EEB070C7D
:10055000870E920E47EA811742EA8312A7FB020137
:10056000B6EB0B0164EB00042B0D43EA0C335E1871
:1005700044EB1C50DA465146E7FB0201C5F3130475
:100580004FEA0B3343EA14534FEA0432019C43EA27
:100590000603A4F10C040294009CCDE900B400F021
:1005A000D3F903B0BDE8F08F00200146F9E72DE94B
:1005B000F04D81EA030404F0004B21F0004514469D
:1005C0004FF0000A23F0004150EA050220D054EA1F
:1005D00001021DD0C5F30A570246C5F31303C1F348
:1005E0001300C1F30A5640F4801543F48013A7EBBF
:1005F0000608101BD64608F2FD3873EB050002D33F
:1006000008F1010801E092185B41B8F1000F03DA2C
:1006100000200146BDE8F08D00204FF48011064611
:1006200084460EE0171B73EB050705D3121B63EB23
:10063000050306434CEA010C49084FEA30009218C2
:100640005B4150EA0107EDD152EA030012D082EA81
:10065000040083EA0501084305D0101BAB4106D214
:100660000122002306E000224FF0004302E06FF079
:10067000010253101AEB06004CEB085110EB0A0074
:1006800041EB0B01BDE8F04D00F04FB9962300227D
:10069000114600F01CB90EB5C10F80EAE0700844A5
:1006A000CA07002140F233438DE80E000A460B468C
:1006B00000F04AF903B000BD0EB540F2334102919B
:1006C0000021CDE900110A460B4600F03DF903B0C8
:1006D00000BD20F00040C10DC0F3160040F4000042
:1006E0007F2901DA00207047962903DCC1F19601C9
:1006F000C840704796398840704770B5C1F30A52B8
:1007000001F000450024C1F3130140F2FF3341F42E
:1007100080119A4201DA002070BD40F233439A42C0
:10072000A2F2334203DC524200F0A6F800E090400F
:100730002C43F1D0404270BDC1F30A5210B5C1F351
:10074000130140F2FF3341F480119A4201DA002094
:1007500010BD40F233439A42A2F2334203DC5242CC
:1007600000F08AF810BD904010BD000030B5041EA6
:1007700071F1000404DB4FF00044404264EB0101DE
:10078000141E73F1000405DB1C464FF00043524277
:1007900063EB04038B4208BF824230BD30B5041EB8
:1007A00071F1000404DB4FF00044404264EB0101AE
:1007B000141E73F1000405DB1C464FF00043524247
:1007C00063EB0403994208BF904230BD30B50B463D
:1007D000014600202022012409E021FA02F59D4271
:1007E00005D303FA02F5491B04FA02F52844151E45
:1007F000A2F10102F1DC30BD2DE9F05F05460020D9
:1008000092469B4688460646814640241BE0284681
:1008100041464746224600F02FF853465A46C01A32
:10082000914110D311461846224600F016F82D1AB1
:1008300067EB01084F4622460120002100F00DF829
:1008400017EB00094E41201EA4F10104DFDC4846ED
:1008500031462A464346BDE8F09F202A04DB203A71
:1008600000FA02F1002070479140C2F1200320FA03
:1008700003F3194390407047202A04DB203A21FA01
:1008800002F00021704721FA02F3D040C2F12002A9
:100890009140084319467047202A06DBCB17203ABF
:1008A00041FA02F043EAE07306E041FA02F3D04075
:1008B000C2F1200291400843194670470029A8BFA1
:1008C0007047401C490008BF20F00100704710B479
:1008D000B0FA80FC00FA0CF050EA010404BF10BC2E
:1008E000704749B1CCF1200421FA04F411FA0CF15B
:1008F00018BF012121430843A3EB0C01CB1D4FEA94
:1009000000614FEA102042BF002010BC704700EB8E
:10091000C35010440029A4BF10BC7047401C4900BC
:1009200008BF20F0010010BC704710B5141E73F111
:10093000000408DA401C41F1000192185B411A439F
:1009400001D120F0010010BD2DE9F04D92469B46EB
:1009500011B1B1FA81F202E0B0FA80F22032904691
:10096000FFF77BFF04460F4640EA0A0041EA0B010D
:1009700053465A46084313D0114653EA010019D092
:10098000C8F140025046FFF777FF05460E46504635
:1009900059464246FFF761FF084305D0012004E0B5
:1009A00020463946BDE8F08D0020054346EAE07652
:1009B0002C4337430A986305E40AA0EB08000022A1
:1009C000FD0A44EA47540A3002D500200146E9E70F
:1009D000010510196941DDE9084500196941BDE8C3
:1009E000F04DA2E770B521F0004303430CD0C1F3F2
:1009F0000A550024D5EB040564EB0403D617AD1AA1
:100A0000B34102DB0020014670BD201841EB0251CA
:100A100070BD2DE9F04D00231A461B1A8A4103DBF5
:100A200000200146BDE8F08DC1F30A52C1F3130165
:100A300041F480154FF0000BD10702D100186D4131
:100A4000521E0027044640F2FF11384601EB620AAD
:100A50003E468046024600204FF48011FFF70CFF0F
:100A6000C2197141BB1846EB0100B4EB030C75EBE6
:100A7000000C04D3E41A65EB000517460E46241952
:100A800008F101006D4180463428E3DDF91946EB99
:100A90000600091BA84103D24FF0FF32134601E0C4
:100AA000002213461BEB070046EB0A51BDE8F04D50
:100AB000FFF73BBFC1F30A52C1F3130140F2FF330A
:100AC00041F480119A4202DA00200146704740F258
:100AD00033439A42A2F2334202DC5242FFF7CCBEC9
:100AE000FFF7BBBE064C074D06E0E06840F001038F
:100AF00094E8070098471034AC42F6D3FFF74CFB5C
:100B0000084400082844000870B58C1810F8015BF0
:100B100015F0070301D110F8013B2A1106D110F896
:100B2000012B03E010F8016B01F8016B5B1EF9D19A
:100B30002B0705D40023521E0DD401F8013BFAE720
:100B400010F8013BCB1A921C03E013F8015B01F88B
:100B5000015B521EF9D5A142D8D3002070BD2DE90A
:100B6000F043054616461F4608464FF0000C002489
:100B700023E0002319E003F1010805FB08F804F164
:100B80000109B8FBF9F28A4202D9A2EB010801E09F
:100B9000A1EB02084246904202D9104633703C70E5
:100BA00010B94FF0010C02E05B1C402BE3D300BFF7
:100BB000BCF1000F00D002E0641C042CD9D300BFAC
:100BC000BDE8F08301B5002106E00648016800BFDA
:100BD000081EA1F10101FBD10098421E00920028DD
:100BE000F3D108BD68000020014600224FF0E02349
:100BF0001A61CA005A6100229A6105221A6100BF77
:100C00004FF0E022106900F001021AB100F48032C6
:100C1000002AF5D04FF0E022126922F001024FF0D5
:100C2000E0231A6100229A61704700002DE9FF5FFE
:100C300086B0DDE91423DDE90601FFF743FC8246B7
:100C40008B46DDE90823DDE91601FFF738FC044691
:100C50000D4600202B49CDE9020101462A482246D3
:100C60002B46CDE900105046594603F04DFA804618
:100C7000894625F00040CDE904400021009122463C
:100C80002B46CDE9011403905046594603F03CFA37
:100C900006460F4600221D4B40464946FFF766FDBB
:100CA00012D20022194B30463946FFF75FFD02D2BF
:100CB0001748C0C020E042464B4600201349FFF7CA
:100CC0005DFB134A03C217E00022104B3046394641
:100CD000FFF74CFD08D232463B4600200D49FFF796
:100CE000EEFB0B4A03C207E042464B4600200A498E
:100CF000FFF744FB064A03C2054903C90AB0BDE831
:100D0000F09F000000005940008052400080564093
:100D1000900000200080764000806640F0B50246DA
:100D2000CF7807F00F05CF7807F010070FB18F7855
:100D30003D431446002016E087063B0E0F884FF017
:100D4000010C0CFA00FC07EA0C0757B1D4F800C0FC
:100D50000F279F402CEA070705FA03FC47EA0C0718
:100D60002760471CF8B20828E6DB141D0F883E12E6
:100D7000002012E087063B0E01278740374057B11D
:100D8000D4F800C00F279F402CEA070705FA03FCA0
:100D900047EA0C072760471CF8B20828EADBCF783F
:100DA000282F06D15769B1F800C047EA0C075761F0
:100DB00008E0CF78482F05D11769B1F800C047EA9D
:100DC0000C071761F0BD70B54D07EB0E082902DA6C
:100DD00000F1200501E000F124052C460F269E407D
:100DE0002568B54302FA03F63543256070BD024617
:100DF0009068084008B1012070470020FCE74FF6DA
:100E0000FF710180022181700421C17070470AB115
:100E1000016100E04161704710B50A49172000F0F8
:100E20001BF80949192000F017F808493D2000F087
:100E300013F80749152000F00FF80649132000F0B9
:100E40000BF810BDF8030020100400202A04002035
:100E5000680400207E04002070B505460C462E462E
:100E600009E02178074801F01FF9217806A001F078
:100E7000ABF9641C761E002EF3DC04A001F0A4F98B
:100E800070BD000000480040256300000D0A00000E
:100E900010B500F0CDF901200A4908600A49086040
:100EA0000A490860682200213C2000F093F92022C2
:100EB00001213C2000F08EF9012202213C2000F0AB
:100EC00089F910BD400000204400002048000020A7
:100ED00010B5032000F020F80C490860072000F04E
:100EE0001BF80B490860052000F016F80949086056
:100EF0000648006840B10846006828B10448006808
:100F000010B102F08BFC10BD00BFFCE70C0000200C
:100F1000100000201400002070B50446E1B23C200F
:100F200000F05CF80546601CC1B23C2000F056F8A9
:100F30000646012202213C2000F04CF906EB052078
:100F400000B270BD10B500224FF480610E48FFF76B
:100F50005EFF0A20FFF736FE0122D1020A48FFF7A2
:100F600056FF012291020848FFF751FF0A20FFF7C0
:100F700029FE00224FF480610348FFF748FF0A2052
:100F8000FFF720FE10BD0000000C044070B50024E7
:100F900000251CE06006040E00224FF480610E481C
:100FA000FFF735FF0A20FFF70DFE012291020A48E4
:100FB000FFF72DFF0A20FFF705FE4FF400610648FA
:100FC000FFF715FF08B144F00104681CC5B2082DF5
:100FD000E0DB204670BD0000000C044070B5044604
:100FE0000D4600F061F808B9002070BD204600F001
:100FF0002DF800F0B9F818B900F082F80020F4E7F5
:10100000284600F023F800F0AFF818B900F078F89F
:101010000020EAE700F048F808B90020E5E7611C85
:10102000C8B200F013F800F09FF818B900F068F8A3
:101030000020DAE7FFF7AAFF0646FFF783FF00F07C
:101040005FF808B90020D0E73046CEE770B5044617
:10105000002523E000224FF480611248FFF7D7FEFD
:101060000A20FFF7AFFD04F0800028B10122D10271
:101070000C48FFF7CCFE05E000224FF40061094860
:10108000FFF7C5FE6006040E012291020548FFF736
:10109000BEFE0A20FFF796FD681CC5B2082DD9DBFD
:1010A00070BD0000000C044010B5012291021348ED
:1010B000FFF7ADFE0122D1021048FFF7A8FE0A207B
:1010C000FFF780FD4FF400610C48FFF790FE08B970
:1010D000002010BD00224FF400610848FFF797FE82
:1010E0000A20FFF76FFD00224FF400610348FFF76D
:1010F0008EFE0A20FFF766FD0120EAE7000C04409F
:1011000010B5012291021748FFF781FE00224FF42B
:1011100000611448FFF77BFE0A20FFF753FD4FF4F0
:1011200000611048FFF763FE08B1002010BD0122E6
:10113000D1020C48FFF76BFE0A20FFF743FD4FF486
:1011400000610848FFF753FE08B90020EEE70122CE
:10115000D1020448FFF75BFE0A20FFF733FD0120B0
:10116000E4E70000000C044010B500224FF4806159
:101170001748FFF74CFE0A20FFF724FD0122D10299
:101180001348FFF744FE012291021148FFF73FFE8A
:101190000A20FFF717FD4FF400610D48FFF727FE07
:1011A00050B100224FF480610948FFF730FE0A2059
:1011B000FFF708FD002010BD00224FF480610448B5
:1011C000FFF725FE0A20FFF7FDFC0120F3E70000F2
:1011D000000C044070B506460C461546FFF764FF48
:1011E00008B9002070BD3046FFF730FFFFF7BCFFA5
:1011F00018B9FFF785FF0020F4E72046FFF726FF28
:10120000FFF7B2FF18B9FFF77BFF0020EAE7284697
:10121000FFF71CFFFFF7A8FF18B9FFF771FF0020C9
:10122000E0E7FFF76DFF08B90020DBE70120D9E711
:1012300008B50121082000F077FA6846FFF7DFFDC6
:101240004FF44060ADF8000001208DF8020014203A
:101250008DF8030069460248FFF760FD08BD0000F5
:10126000000C044010B54FF4E13000F02DFF4FF4B6
:10127000E13000F085FF40F6B831642000F01CFA40
:10128000FFF706FEFFF7C8FD0A21084800F00CFF33
:1012900041F270714FF4FA7000F0F0FC4FF4E1305D
:1012A00000F036FF02A000F08FFF10BD004C0040A0
:1012B000496E69745F537563636573730D0A00004B
:1012C00070470246134610E010782A2805D010789F
:1012D000202802DB10787A2801DDFF207047107883
:1012E0002C2801D1481EC1B2521C0029ECD1D01AC1
:1012F000C0B2F3E72DE9F04F85B00446884681A1DE
:101300004046FEF761FF074601213846FFF7D9FF47
:101310000546FF2D23D0781904A900F004F9824670
:101320009DF810100A2000F0F3F8BAFBF0F642F234
:101330001070B6FBF0F0C1B24E2001556420B6FB30
:10134000F0F06421B0FBF1F201FB12014F200155D6
:101350006420B6FBF0F100FB116150200155032120
:101360003846FFF7AEFF0546FF2D43D0781904A994
:1013700000F0D9F806469DF81000801CC1B20A2082
:1013800000F0C6F8B6FBF0F060659DF81000801C18
:10139000C1B20A2000F0BCF8B6FBF0F100FB116A04
:1013A0005046FFF773F981469DF81000C0F1050023
:1013B000C1B20A2000F0ACF80090FFF767F983464D
:1013C0004946FEF76BFF82465049FEF799FF05211B
:1013D00002900A2000F09CF8616D00FB01FA504673
:1013E000FFF754F901900299FEF700FF0390FFF711
:1013F00070F9606504213846FFF763FF0546FF2D4D
:1014000002D0785D84F8580005213846FFF759FF6F
:101410000546FF2D43D0781904A900F084F806464C
:101420009DF81000801CC1B20A2000F071F8B6FBD4
:10143000F0F0E0659DF81000801CC1B20A2000F0B9
:1014400067F8B6FBF0F100FB116A5046FFF71EF992
:1014500081469DF81000C0F10500C1B20A2000F0DD
:1014600057F80090FFF712F983464946FEF716FF3A
:1014700082462649FEF744FF052102900A2000F02B
:1014800047F8E16D00FB01FA5046FFF7FFF80190C5
:101490000299FEF7ABFE0390FFF71BF9E06506210A
:1014A0003846FFF70EFF0546FF2D02D0785D84F821
:1014B000600009213846FFF704FF0546FF2D1ED0C6
:1014C000781904A900F02FF8064642F21070B6FB16
:1014D000F0F0C1B24D2001556420B6FBF0F064215C
:1014E000B0FBF1F201FB12014C2001556420B6FB68
:1014F000F0F100FB116000F5FA60A4F84A0005B0B5
:10150000BDE8F08F474E524D43000000000070428E
:1015100010B50246012000E050430B1EA1F101046A
:10152000E1B2F9D110BD2DE9F34F81B007463C4639
:1015300000200090834681460026804628E02078DF
:101540002D2802D148F00208641C20782C2802D0F3
:1015500020782A2800D11CE020782E2803D148F0DA
:101560000108641C09E02078392802DC2078302842
:1015700003DA4FF0000900260BE008F0010010B17B
:10158000701CC6B203E009F1010000F0FF09641C01
:10159000D5E700BF08F0020000B17F1C00250EE077
:1015A000A9F10100401BC1B20A20FFF7B1FF795D2C
:1015B0003039009A00FB01200090681CC5B24D45EF
:1015C000EEDB052E00DD05260298067000250EE0F4
:1015D000701E401BC1B20A20FFF79AFF09F10101FA
:1015E0002944795C303900FB01BB681CC5B2B542A7
:1015F000EEDB31460A20FFF78BFF009901FB00BAB2
:1016000008F0020008B1CAF1000A5046BDE8FE8F9A
:1016100010B5C17809B3164A126802F4E0634FF4BA
:10162000E0629A43110A4278C1F104039A40837838
:101630000F240C4123401A4311010E4A047811551E
:10164000027802F01F0301229A4003785B119B008D
:1016500003F1E023C3F8002109E0017801F01F0243
:1016600001219140044A03785B1142F8231010BD18
:101670000CED00E000E400E080E100E008B50121AD
:10168000084600F051F8022206210A48FFF79BFBAA
:101690006846FFF7B4FB4020ADF8000001208DF84C
:1016A000020018208DF8030069460248FFF736FB58
:1016B00008BD00000000044030B587B004460D4668
:1016C000FFF7DCFF0121022000F03EF80594681EC0
:1016D00080B2ADF810000020ADF818008DF81200AF
:1016E00004A9104800F05AFB70208DF80000182063
:1016F000019002208DF8080001208DF80100694654
:10170000084800F019FB0821064800F041FB0121C0
:10171000044800F0E2FA0121024800F0EDFA07B0B7
:1017200030BD00000004004029B1064A926A02431D
:10173000044B9A6204E0034A926A8243014B9A6224
:10174000704700000010024029B1064A126B0243A4
:10175000044B1A6304E0034A126B8243014B1A6381
:10176000704700000010024029B1064AD26A0243C5
:10177000044BDA6204E0034AD26A8243014BDA6224
:10178000704700000010024000B500F02DF8044939
:101790004968C1F30311034A515CC84000BD000011
:1017A00000100240BC04002000B5FFF7EDFF044923
:1017B0004968C1F30221034A515CC84000BD0000E2
:1017C00000100240BC04002000B5FFF7DDFF044913
:1017D0004968C1F3C221034A515CC84000BD000002
:1017E00000100240BC04002010B5194C646804F0DD
:1017F0000C04042C06D0082C06D00C2C23D149F65E
:10180000404022E0134820E0114CA46C04F0010495
:1018100044B10F4CA46C04F002040CB10E4C02E075
:101820000C4C00E00B4C2346094CA46CC4F306445A
:10183000611C074CA46CC4F30224621C03FB01F47A
:10184000B4FBF2F001E0034800BF00BF10BD000090
:101850000010024000127A0000093D0010B50A484D
:10186000006820F01800084908600846006840F049
:101870000100086000BF0448406800F0030002282F
:10188000F9D100F003F810BD0060014000B587B049
:101890000020039002907C48006840F001007A49E3
:1018A000086000BF7848006800F002000028F9D006
:1018B0007548006840F48030734908600520FFF7E0
:1018C00093F9724800687249884210D96E48006BDB
:1018D00040F080506C4908636E48006820F4404036
:1018E0006C4908600846006840F44040086010E019
:1018F0006548006800F400300290029800B109E0E9
:101900000398401C03900398B0F5485F01D307B0DB
:1019100000BDEDE700BF5C48006800F4003010B97E
:1019200000200290F3E7012002900520FFF75CF908
:101930005948564908605948006840F01000574916
:1019400008600846006820F0070008604F480068FB
:10195000401E5349B0FBF1F00690504800680699CC
:1019600001F0070108434D4908604748406843F6C5
:10197000F0718843444948600846406840F0900050
:1019800048600846406848604048006845498842C9
:1019900006D93D48406840F4A0603B4948600AE0F1
:1019A0003A4800684049884205D93748406840F4C1
:1019B0008060354948606B4601AA344801683B485D
:1019C000FFF7CDF83048806C20F003002E49886482
:1019D0000846806C40F0010088649DF8000000F02B
:1019E000070004909DF8040000F07F000590084671
:1019F000006B40F0805008630846806C2C4908401A
:101A00002149886405980004049940EA01201E4990
:101A1000896C08431C4988640846006840F080705F
:101A2000086000E000BF1848006800F0007000285F
:101A3000F8D01548406820F0030013494860084674
:101A4000406840F00200486000E000BF0E48406877
:101A500000F00C000828F8D10120FFF7C5F80A486B
:101A6000406820F01000084948600120FFF7BCF8EA
:101A70000548406820F08000034948600120FFF7D6
:101A8000B3F800BF43E7000000100240A8040020A4
:101A900000D8B80500700040000E27070020024063
:101AA00000366E0100A24A040051250200127A009D
:101AB000FFF880FF10B51448006840F0010012499B
:101AC000086008464068114908400F4948600846C8
:101AD00000680F4908400C4908600846006820F477
:101AE000802008600846406820F4430048600846AB
:101AF000006808490840044908604FF41F008860E6
:101B0000FFF7ACFE10BD0000001002400CC0FFF853
:101B1000FFFFF6FEFFFF8F002DE9FF41012188073F
:101B200000F0F5F800286CD00121880700F0E0F8FB
:101B3000FFF7CEF9344A03C2334834490CC803C90D
:101B4000FEF7BDFC324A03C2304903C9CDE90201A8
:101B50002D4803C8CDE900012D480CC82DA000F088
:101B600033FB0022364B2A4903C9FEF7FFFD07D29B
:101B70000022344B264903C9FEF700FC244A03C265
:101B80000022314B224903C9FEF708FE04D22F4838
:101B90000068401C2D49086000222D4B1C4903C9D8
:101BA000FEF7E4FD04D229480068401C274908607C
:101BB0000022254B164903C9FEF7F9FC0646002210
:101BC000244BFEF782FC04460022234BFEF7D6FB93
:101BD0000F4A03C20E4903C9FEF78FFD202810DC0F
:101BE0000B4903C9FEF789FD10280ADB084903C920
:101BF000FEF7A2FD1949086005480CC818A000F0BE
:101C0000E3FABDE8FF8100005800002090000020AA
:101C1000A0040020D7AACFF2BDC7B6C83A2566A156
:101C2000E30D0AB5B1C7B0B7BDCFF23A25660D0ACC
:101C3000C4BFB1EABDC7B6C83A25660D0A0D0A0091
:101C4000008066C00080764000805640C8000020BA
:101C5000008056C00000204000003840340400409E
:101C6000D7AACFF2BDC7B6C828D5BCBFD5B1C82941
:101C70003A2566250D0A0D0A000000007FB50446CE
:101C80000D4601210846FFF75FFD0294681E80B2F1
:101C9000ADF804000020ADF80C008DF8060001A995
:101CA0004FF0804000F07AF801221146900700F0D2
:101CB00039F81C208DF8000000208DF80100032069
:101CC0008DF8020001208DF803006846FFF7A0FCA4
:101CD0000121880700F010F87FBD21B1026842F0B1
:101CE0008002026003E0026822F080020260704716
:101CF00002698A430261704721B1026842F0010221
:101D0000026003E0026822F00102026070470246AE
:101D10001069084020B1D068084008B10120704720
:101D20000020FCE71AB1C3680B43C36002E0C3683C
:101D30008B43C36070470000826922F070020B7809
:101D40001A4382610A7A4B781A43036A23F0030329
:101D50001A4302624A6842630B4A904202D00B4A1D
:101D600090420FD14A7A8B781A43036A23F00C030E
:101D70001A4302624A898B891A43436823F44073E9
:101D80001A43426070470000002C014000340140BB
:101D9000826922F008020A4382617047026822F4D5
:101DA00040720B891A430260154A90420ED0B0F17E
:101DB000804F0BD0134A904208D0134A904205D06E
:101DC000124A904202D0124A904205D1026822F093
:101DD00070028B781A430260094A904202D00C4A82
:101DE000904205D1026B22F0FF028B7A1A43026304
:101DF0004A68C2620A88826201224261704700001A
:101E0000002C01400004004000080040000C00408D
:101E10000034014008B501210846FFF785FC072280
:101E200009211248FEF7CFFF07220A210F48FEF7CB
:101E3000CAFF6846FEF7E3FF4FF40070ADF80000FC
:101E400001208DF802001C208DF803006946074828
:101E5000FEF764FF4FF48060ADF8000048208DF875
:101E6000030069460148FEF759FF08BD0000044021
:101E700008B501210220FFF757FC07220A2112486A
:101E8000FEF7A1FF07220B210F48FEF79CFF6846D3
:101E9000FEF7B5FF4FF48060ADF8000001208DF82B
:101EA00002001C208DF8030069460748FEF736FF44
:101EB0004FF40060ADF8000048208DF8030069463B
:101EC0000148FEF72BFF08BD000404402DE9F04750
:101ED0004FF40071264800F097F8002845D04FF4E1
:101EE0000071234800F080F800240CE000BF0221BC
:101EF0001F4800F081F80128F9D11D4800F0D0F802
:101F00001C490855641CB4F5806FEFDB19491A4869
:101F1000FFF7F0F91849486DFEF7CEFB06460022A0
:101F2000164BFEF744FB04460D461349C86DFEF7F9
:101F3000C3FB06460022114BFEF739FB80462246C2
:101F40002B4601F0EBFF0E4800680E4909688842F5
:101F500001DA01F005FD0A4800680A49096888426B
:101F600003DD0021084800F09FF8BDE8F08700007D
:101F700000480040D8040020EC150020006AF8401A
:101F8000C8000020CC000020004C004008B5012112
:101F90000420FFF7C9FB08220A211248FEF713FFAD
:101FA00008220B210F48FEF70EFF6846FEF727FFB9
:101FB0004FF48060ADF8000001208DF802001C2075
:101FC0008DF8030069460748FEF7A8FE4FF400604D
:101FD000ADF8000048208DF8030069460148FEF77F
:101FE0009DFE08BD0008044041617047826922F0EF
:101FF00001020A438261704702469068084008B1B6
:10200000012070470020FCE70246D068084008B174
:10201000012070470020FCE71AB103690B430361FC
:1020200002E003698B4303617047000070B504460A
:102030000D460026E06920F0300029790843E06170
:10204000E06920F04400A9790843E061E06920F0EC
:102050000300297A0843E061A06920F0180069892B
:102060000843A061A06920F00400297B0843A06117
:102070000A48844203D1FFF7A7FB064602E0FFF7B8
:1020800093FB06462868B6FBF0F00009206228683A
:10209000B6FBF0F000F00F00606270BD0038014048
:1020A00001464868C0B27047CAB2026070474FF438
:1020B000E13101603021017100218171017218212B
:1020C00041810021017370471FB50446FFF7A2FE4E
:1020D00001211020FFF748FB6846FFF7E8FF009456
:1020E00030208DF8040000208DF806008DF80800DF
:1020F0008DF80C001820ADF80A0069460348FFF778
:1021000095FF01210148FFF771FF1FBD0038014015
:1021100010B586B00446FFF7ABFE01218804FFF737
:1021200013FB02A8FFF7C3FF029430208DF80C00C8
:1021300000208DF80E008DF810008DF81400182086
:10214000ADF8120002A90D48FFF770FF012202212D
:102150000A48FFF761FF27208DF8040001208DF861
:1021600005008DF807008DF8060001A8FFF750FA6A
:1021700001210248FFF73AFF06B010BD00480040B9
:102180001FB50446FFF702FF0121C804FFF7DCFA80
:102190006846FFF78CFF009430208DF80400002083
:1021A0008DF806008DF808008DF80C001820ADF8A9
:1021B0000A0069460348FFF739FF01210148FFF78C
:1021C00015FF1FBD004C00400FB4054B10B503A90F
:1021D000044A029800F016FC10BC5DF814FB0000E5
:1021E000ED370008CC040020490050EAC12018BF98
:1021F00004204A0D18BF40F0010040F2FF72B2EB1C
:10220000515F08BF40F00200012808BF0520704759
:102210002DE9F74F144694B00021C4E90211159935
:10222000079121F00045C9498D4206DC1599C4E9A2
:10223000000117B00020BDE8F08FC549DFF814A3F6
:10224000A9423CDD0799C44E0029C44FC44A1599E0
:10225000534619DDFEF733F9554506D0C14AC24B46
:10226000FEF72DF9C4E900010AE04FF0D352BE4B4E
:10227000FEF725F932463B46FEF721F9C4E9000195
:1022800017B00120BDE8F08FFEF778F8554506D06D
:10229000B44AB54BFEF772F8C4E900010AE04FF00A
:1022A000D352B14BFEF76AF832463B46FEF766F86A
:1022B000C4E9000117B04FF0FF30BDE8F08FAB4923
:1022C000A942159978DB21F0004183468846A84A47
:1022D000A84BFEF7FAF80022A74BFEF74FF8FEF7DF
:1022E0000CFA0990FEF7D7F906460F469C4A53466A
:1022F000FEF7EBF843465A46FEF7E4F880468A4676
:10230000984A994B30463946FEF7DFF82A0D0125E9
:102310000B9242465346FEF7D5F8032DC4E900015F
:1023200039D00B98C1F30A51401A05EB4511113908
:10233000814230DA9148C346784400EB0510CDF86D
:102340000CA00C90D0E9002330463946FEF7BDF8CA
:1023500002460B460491069058460399FEF7AFF8E3
:1023600080468A4602460B4658460399FEF7A7F870
:10237000049B069AFEF7A3F883460C98039139460E
:10238000D0E902233046FEF7A0F85A46039BFEF739
:1023900096F86D1CBDE707980028A2BF099817B0F2
:1023A000BDE8F08F616881F000416160099817B065
:1023B0004042BDE8F08FFFE784461598C1F3130152
:1023C000C0F30A50A0F2F5304FEA601800F01F0683
:1023D000C6F12000139000200690079041F4801E63
:1023E00005206D4676B1664A08EB00017A4452F842
:1023F000213002EB8101B3404A68139922FA01F1BE
:10240000194305E05F4908EB0002794451F82210B6
:10241000A1FB0E27A1FB0C131A449A4234BF0123DF
:10242000002303EB070A05EB8003D3E901B70F4450
:102430008F4234BF0121002193448B4411B1934555
:1024400002D903E0934501D2012100E00021C3E954
:1024500001B7514445F82010011EA0F10100C1DC74
:102460000298059F00F10050800F12900298DDE95C
:1024700003568000FEF70FF9834628460D91FEF7BC
:102480001BF96FF01D02FEF7ADFACDE90E013046E3
:10249000FEF712F96FF03D02FEF7A4FA80468A4675
:1024A0003846FEF709F96FF05D02FEF79BFA074622
:1024B000424653461191FDF761FFDDE90E23FDF71A
:1024C0005DFF5A460D9BFDF759FF00250E465A4603
:1024D00028460D9BFDF7F3FFDDE90E23FDF7EFFF27
:1024E00042465346FDF7EBFF3A46119BFDF7EAFFE4
:1024F000DFF898A0244A5346FDF7E7FF07468846D1
:10250000234A244B31462846FDF7DFFF3A4643462F
:10251000FDF734FF074688464FF0A8425346314640
:102520002846FDF7D2FF3A464346FDF727FF159AA6
:1025300012F0004F04D0129A81F0004152421292E0
:10254000C4E90001129817B0BDE8F08FFB21E93F04
:102550007CD90240FB21F93F7370032E8A19A33BFB
:10256000000040543163621A61B4D03DFB2139410F
:1025700083C8C96D305FE43F0000E03FDC1F00000E
:10258000581F00003A1F0000182D4454FB21F93D4C
:102590003326A611460B113C2DE9FF4D21F00048D2
:1025A00007460C46B8F1795F08DAFEF7A6F800286E
:1025B00001BF0020324904B0BDE8F08D3A46234601
:1025C00010461946FDF781FF054602462D480E4686
:1025D0000B460621784400F05DF82A463346FDF7A5
:1025E00074FFDDE9022382468B4638462146FDF71B
:1025F0006CFF04460F4652465B4628463146FDF7BF
:1026000064FF22463B46FDF75AFF07468A464FF0D5
:10261000FF3228463146FEF7E5F91B4A90450ADAB3
:102620003A465346FDF74BFF04B00022BDE8F04D9B
:10263000134BFDF747BF154A4245A8BFA8F5001543
:102640004FF00004B8BF124D22462B46FDF737FF6E
:102650000646884622462B4600200949FDF72FFFF3
:1026600004460D463A46534630464146FDF727FF9D
:1026700004B022462B46BDE8F04DFDF723BF000015
:102680000000F03F081D00003333D33F0000E93F56
:102690000000D23F2DE9F0414F1E00EBC701044678
:1026A000D1E9000115461E4637F006020DD02A4634
:1026B0003346FDF70AFF7F1E04EBC703D3E900236F
:1026C000FDF75CFE37F00602F1D1022F25D0042F72
:1026D00013D0062F18BFBDE8F0812A463346FDF718
:1026E000F4FED4E90A23FDF749FE2A463346FDF7F6
:1026F000ECFED4E90823FDF741FE2A463346FDF7F8
:10270000E4FED4E90623FDF739FE2A463346FDF7F9
:10271000DCFED4E90423FDF731FE2A463346FDF7FB
:10272000D4FED4E90223FDF729FE2A463346FDF7FD
:10273000CCFED4E90023BDE8F041FDF71FBE000048
:102740002DE9FF4D054621F0004084B00C46B0F164
:10275000795F0BDA2846FFF747FD042808BF00F031
:1027600071F8284608B02146BDE8F08D2A460B4690
:102770001046FDF7AAFE06460F462A462346FDF7F9
:10278000A4FE804626488A4632463B4605217844C8
:10279000FFF780FF83461098029160B3214A224BD5
:1027A00040465146FDF791FECDE900015A464046AC
:1027B0005146029BFDF789FE82468846DDE9060107
:1027C0004FF0FF32FEF70EF952464346FDF777FE13
:1027D00032463B46FDF779FEDDE90623FDF76FFE45
:1027E000DDE90023FDF76BFE08B02A462346BDE86D
:1027F000F04DFDF767BE0B465A4630463946FDF7A9
:1028000064FE084A084BFDF7B9FD42465346FDF702
:102810005CFE08B02A462346BDE8F04DFDF7AEBD8C
:102820004E1C0000495555555555C5BF0122FEF7B0
:10283000D9B8FDF7A3BD0022134610461146FDF797
:10284000B6BE0000024A00201107FEF7CBB8000018
:1028500001FDFFFF02E008C8121F08C1002AFAD1DB
:1028600070477047002001E001C1121F002AFBD110
:10287000704700000149086070470000D004002044
:102880002DE9FF5F82B00021DDE90430020DDDF8A3
:1028900040B0034318D044F61050A2F2FF32424336
:1028A0001514119801281FD0A5EB0B00401C5FEAFE
:1028B000000A4FF000064E4FDFF83891B046504600
:1028C00015D5CAF1000413E0119801244AA3012888
:1028D00001D16FEA0B010298119AC0E90031C0E9F9
:1028E000024206B0BDE8F09FCBF10000DFE70446EE
:1028F0000021404A491842EB0450CDE9001012E093
:10290000E00707D032463B4640464946FDF7DDFD2D
:102910008046894632463B4610461946FDF7D5FDAE
:1029200006460F466410002CEAD1DDE90401DDE91A
:102930000023BAF1000F06DAFDF7C7FD42464B4609
:10294000FDF7C3FD05E0FDF732FE42464B46FDF7BD
:102950002EFE04460E460022284BFDF71FFF03D82B
:102960004FF0FF30014607E00022254B204631465C
:10297000FDF704FDFEF79EF8102409E0002C0ADBA9
:102980000A220023FDF738FF039B30321A55641EDC
:1029900050EA0102F2D1641C039AC4F111031444F9
:1029A000119A012A03D0012208430DD10AE00843FD
:1029B00004D000204FF0110B119072E7A3EB0B0530
:1029C0006D1E0DE05B4504DD4FF0000205F10105D1
:1029D00004E003DA4FF00002A5F10105002AECD073
:1029E00002981199C0E90231C0E9004579E7000079
:1029F000000014400000F03F300000000000F043F1
:102A00000000E03F2DE9FF4F95B09B468946064602
:102A100000250FE2252877D100242746F84A012116
:102A2000059400E0044316F8013F203B01FA03F04F
:102A30001042F7D130782A2811D06FF02F03307868
:102A4000A0F13002092A16D8059A44F0020402EBDC
:102A5000820203EB42021044761C0590EFE759F81E
:102A6000042B0592002A03DA504244F400540590E6
:102A700044F00204761C30782E2816D116F8010F87
:102A800044F004042A280DD06FF02F023078A0F112
:102A90003003092B09D807EB870302EB4303C71860
:102AA000761CF3E759F8047B761C30786C280FD03D
:102AB00006DC4C2817D068280DD06A2814D104E011
:102AC000742810D07A280FD10DE044F400140AE0E5
:102AD00044F4801401E044F440147278824202D13C
:102AE00004F58014761C761C307866280BD013DC35
:102AF000582877D009DC002875D04528F6D046281C
:102B0000F4D047281AD19DE118E0632835D0642815
:102B100079D0652812D195E1702873D008DC672838
:102B2000F1D069286FD06E280DD06F2806D1B5E09E
:102B300073282CD0752875D0782874D05A461799E8
:102B400090476D1C75E1C4F30250022809D0032898
:102B50000DD0D9F8001004280DD00D6009F104093A
:102B600067E1D9F80010EA17C1E90052F6E7D9F891
:102B700000100D80F2E70D70F0E719F8041B8DF8D6
:102B8000001000208DF80100EA46012003E059F80A
:102B900004AB4FF0FF3061074FF0000102D40DE0AD
:102BA00008F101018846B9420FDA8045F8DB1AF8CE
:102BB00008100029F4D108E008F10101884681429B
:102BC000FADB1AF808100029F6D105985B46A0EB4D
:102BD000080721463846179A00F094FA284400EB7B
:102BE000080507E04DE029E10DE01AF8010B5A460F
:102BF00017999047B8F10108F7D25B46214638464D
:102C0000179A13E142E00A220092C4F302524FF0F5
:102C1000000A022A08D059F804CB032A4FEAEC71C3
:102C20000AD00DE029E02AE009F1070121F00702AE
:102C3000F2E802C1914609E00FFA8CFC4FEAEC7110
:102C4000042A03D14FFA8CFC4FEAEC71002907DA11
:102C50000A460021DCF1000C61EB02012D2202E0AA
:102C6000220504D52B228DF80420012203E0E2077F
:102C700001D02022F7E7904659E00A2102E0102215
:102C80000DE010214FF0000A00910BE010224FF0F0
:102C9000000A44F004040827009203E008224FF0E1
:102CA000000A0092C4F30252022A05D059F804CB5C
:102CB0000021032A08D009E009F1070121F00702E9
:102CC000F2E802C1914605E01FFA8CFC042A01D10A
:102CD0000CF0FF0C4FF00008220728D5702806D012
:102CE000009B83F0100353EA0A0305D00EE0402254
:102CF0008DF80420012208E05CEA010206D03022AF
:102D00008DF804208DF8050002229046009B83F088
:102D1000080353EA0A030AD15CEA010201D16207FF
:102D200005D530228DF804204FF001087F1E582869
:102D300004D034A003900EA802900DE036A0F9E76D
:102D400053466046009AFDF757FD84460398825C1F
:102D50000298401E029002705CEA0100F0D10298D5
:102D600006A9081A00F1200A600702D524F480346D
:102D700000E00127574502DDA7EB0A0000E0002034
:102D800000EB0A01009005984144401A0590E003C9
:102D900006D45B462146179A059800F0B3F905441E
:102DA000002706E001A85A46C05D179990476D1CA0
:102DB0007F1C4745F6DBE0030CD55B462146179A9E
:102DC000059800F09FF9054404E030205A46179911
:102DD00090476D1C0099481E00900029F5DC08E022
:102DE000029802995A460078491C02911799904717
:102DF0006D1CBAF10001AAF1010AF1DC65E10000E5
:102E000009280100303132333435363738396162C0
:102E10006364656600000000303132333435363784
:102E200038394142434445460000000000F058F95B
:102E30000544761C307800287FF4ECAD19B02846A4
:102E4000BDE8F08F620700D4062709F1070222F0DF
:102E5000070CFCE80223E14603F000485FEA080C97
:102E600002D00FF2702C0DE05FEA045C02D50FF285
:102E7000682C07E05FEAC47C02D00FF2602C01E00E
:102E8000AFF2700C4FF0FF3823F00043CDF850C084
:102E900065280CD006DC452809D046281DD04728D7
:102EA0003DD13DE0662818D067287ED138E000216A
:102EB000112F01DB112000E0781CCDE9000106A9EB
:102EC0000EA8FFF7DDFCDDE90F010E9A039100214A
:102ED000009207F1010A04914DE04FF00040009785
:102EE000CDE9011006A90EA8FFF7CAFCDDE90F0223
:102EF00003920E9B11990022DDF80CA0009304921E
:102F000011B9791C00EB010AB7EB0A0004D4C0F137
:102F1000FF3007F1010A0490AAEB0700019044E09A
:102F2000012F00DA01270021112F01DD112000E01F
:102F30003846CDE9000106A90EA8FFF7A1FCDDE99E
:102F40000F010E9A0391002104910092BA462107C5
:102F50000CD40399514500DA8A46BAF1010F05DD18
:102F6000009AAAF10101515C302908D0B84202DA76
:102F700010F1040F06DA0121CDE9011015E0AAF1E4
:102F80000101E9E7002805DC049901440491AAEB5A
:102F9000000102E0411C514500DD8A460499401AB7
:102FA000401C01904FF000400290200704D401988B
:102FB000504501DBCDF8048000208DF84F000298C9
:102FC0000DF14F07B0F1004F25D02B200E90029845
:102FD0004FF0020800280CDA404202902D200E909B
:102FE00007E00A210298FDF7F1FB3031029007F863
:102FF000011DB8F10001A8F10108F2DC02980028D7
:10300000EFD1791E0E980870307800F0200040F063
:10301000450007F8020D12A8C01B00F1070814981C
:10302000007800B1012000EB0A01019801EBE0718A
:1030300005984144401A401E0590E00306D45B46C3
:103040002146179A059800F05DF805441498007819
:1030500018B15A46179990476D1CE00324D55B467A
:103060002146179A059800F04DF805441CE0049895
:10307000002807DBDDE90301884203DD0098405C9E
:10308000179901E0179930205A469047049805F1A6
:103090000105401C04900198401E019004D12E208F
:1030A0005A46179990476D1CBAF10001AAF1010A1E
:1030B000DDDC05E017F8010B5A46179990476D1CA7
:1030C000B8F10001A8F10108F4DC5B462146179A2B
:1030D0000598ABE62D0000002B000000200000004A
:1030E0002DE9F041044600251E461746880404D405
:1030F00005E039462020B0476D1C641EF9D52846EE
:10310000BDE8F0812DE9F041044600251E469046B9
:10311000C80301D5302700E02027880404D505E046
:1031200041463846B0476D1C641EF9D52846BDE8B7
:10313000F08100002DE9F04D0546DFF8388221F0DE
:1031400000408D4F82B00C46404520DBA0EB0801CB
:1031500029430BD08949884201DC10D17DB102B0EE
:1031600028462146BDE8F04DFFF760BB002CC7BFE5
:10317000002001468248394602B0BDE8F08D0120AA
:10318000FFF778FB02B0BDE8F04DFFF754BB7D4977
:10319000884244DA7C498142A1BF79487B4902B028
:1031A000BDE8F08D2A46234610461946FDF78DF9F5
:1031B0008346024676480E460B4606217844FFF7C2
:1031C00069FA5A463346FDF780F9074671488A4640
:1031D0005A46334604217844FFF75CFA5A46334690
:1031E000FDF773F900224346FDF7C8F802460B4687
:1031F00038465146FDF7DBF92A462346FDF765F9C7
:10320000654A664BFDF75EF92A462346FDF75AF9F3
:1032100002B05B4ABDE8F04D5C4BFDF753B9002CA2
:103220004FF000024BDA4646434628462146FDF75A
:10323000A5F84FF0FF32FDF7D5FB0446024658488B
:103240000D460B4606217844FFF724FA22462B460A
:10325000FDF73BF9804653488A4622462B46042117
:103260007844FFF717FA22462B46FDF72EF9002285
:103270003346FDF783F806468B462046294600F084
:1032800049FB04460D4632465B4640465146FDF733
:103290008EF922462B46FDF718F93F4A3F4BFDF7C2
:1032A0000EF922462B46FDF769F80122FDF79AFB3D
:1032B00002B03B46BDE8F04D314AFDF703B92D4B56
:1032C00028462146FDF7FEF84FF0FF32FDF78AFB56
:1032D00005460E4600F01EFB00270C4680463A4687
:1032E0000B46FDF74BF882468B463A46234610467E
:1032F0001946FDF7EAF82A463346FDF7E3F8524649
:103300005B46FDF754F9824627488B462A463346EA
:1033100006217844FFF7BEF92A463346FDF7D5F873
:10332000CDE9000121482A46334604217844FFF7BD
:10333000B1F92A463346FDF7C8F800220D4BFDF7D8
:103340001DF802460B46DDE90001FDF730F9424663
:103350002346FDF7BAF852465B46FDF70FF83A46AA
:103360002346FDF70BF802B00122BDE8F04DFDF752
:1033700039BB00000000F03FFB2109400000F07F56
:10338000182D44540000E03F0000603CFB21F93F51
:10339000381000004E100000075C143326A6913C44
:1033A000AE0F0000C40F0000E20E0000F80E000097
:1033B0002DE9F84F04460D4621F000400091734975
:1033C000814211DC7249884201DC06D12CB12046D1
:1033D0002946BDE8F84FFFF729BA6E48002DCCBF4B
:1033E0006D496E49BDE8F88F6D49814211DD6D4927
:1033F0008142D8BF4FF0FF366DDD20462946FEF7EB
:10340000F3FE042808BFFFF71DFA20462946BDE851
:10341000F88F6549654F25F00045814233DD6449E9
:10342000814219DD002632464FF08043204629466E
:10343000FCF7A4FF80468A46012220462946FDF774
:10344000D1FA00223B46FDF73AF842465346FDF7D3
:10345000AEF804460D463EE001260022BA463B4641
:1034600020462946FCF78AFF80460F460022534635
:1034700020462946FDF723F842463B46FDF797F8DC
:1034800004460D4627E04B4981421BDDDFF828A1A9
:1034900002260022534620462946FDF716F8002250
:1034A0003B46FCF76BFF80460F4600225346204602
:1034B0002946FDF704F842463B46FDF778F80446F6
:1034C0000D4608E0032622462B4600203B49FDF727
:1034D0006EF804460D4622462B4610461946FCF768
:1034E000F4FF8B46824602460B46FCF7EEFF07468A
:1034F0000246334888460B4606217844FFF7CAF84F
:1035000052465B46FCF7E1FF82462E488B463A4620
:10351000434605217844FFF7BDF83A464346FCF799
:10352000D4FF02460B46002E504659460CDAFCF7F3
:1035300025FF22462B46FCF7C8FF01B022462B464A
:10354000BDE8F04FFCF7BEBFFCF718FF22462B4644
:10355000FCF7BBFF1C4A7A4402EBC603D3E9002305
:10356000FCF7ADFF22462B46FCF7A9FF174A7A4429
:1035700002EBC603D3E90023FCF7A4FF009A002A5C
:10358000B8BF81F00041BDE8F88F00000000104492
:103590000000F07F182D4454FB21F93FFB21F9BFB7
:1035A0000000DC3F0000203E0000F33F0000F03F41
:1035B0000000E63F008003400000F83F0000F0BF3D
:1035C000B20D0000700D00000E0D0000D60C0000C2
:1035D0002DE9F04D9446CCF1000423F000464CEA6E
:1035E0000404524F46EAD4749A46884621F00042B9
:1035F000BC4206D8454240EA050442EAD474BC42C3
:1036000004D9BDE8F04D6246FFF713B9AAF1405561
:10361000A5F17F6555EA0C040BD0022404EAAA74D4
:10362000434DDFF810E144EAD87452EA000B04D0AD
:103630000CE0BDE8F04DFFF7BBBE002C14BF012C21
:10364000BDE8F08D022C30D0032C32D056EA0C0BA2
:103650000AD0BE4220D1BA4209D126F0804622F0DB
:1036600080423346114617E000291ADB25E0DFF8D7
:10367000C8B0FB44002C04BFDBE90001BDE8F08DBD
:10368000012C02BFDBE9000181F00041BDE8F08DB3
:10369000022C0AD0032C0CD0BA4212D1B8F1000F80
:1036A0000BDA23482549BDE8F08D28462449BDE8BA
:1036B000F08D28467146BDE8F08D1D482149BDE8D2
:1036C000F08D921B12153C2AC4BF19481D490EDC0F
:1036D000BAF1000FBEBF12F13C0F0020014606DB1D
:1036E0006246FCF764FF21F00041FFF761FE002C09
:1036F00008BFBDE8F08D012C04BF81F00041BDE89A
:10370000F08D114A114B022C07D0FCF7D8FE2A4647
:10371000BDE8F04D0A4BFCF7D2BEFCF7D0FE2A46BE
:10372000BDE8F04D064BFCF7CDBE00000000F07F79
:10373000182D4454FB2109C09A0C0000FB21F9BF4D
:10374000FB210940FB21F93F075C143326A6A13C6D
:1037500000B5244B21F0004287B09A42DCBF002222
:10376000134629DD204B9A4208D140B94FF00100A1
:10377000FFF780F8FFF75FF807B000BD03DBFFF746
:1037800055F807B000BD02AAFEF742FD10F0030194
:1037900004BF0DF1080C9CE80F000DD00120012999
:1037A0000ED0022914D00DF1080C00909CE80F00F7
:1037B000FEF7C6FF07B000BDFEF7EEFE07B000BD86
:1037C0000DF1080C00909CE80F00FEF7B9FF05E032
:1037D0000DF1080C9CE80F00FEF7DEFE07B081F04B
:1037E000004100BDFB21E93F0000F07F70B50446B9
:1037F0000D46E1B20548FEF757FC00BF082103481B
:10380000FEF7FAFB0028F9D0204670BD00380140D1
:10381000FDF728FD01E0FDF753FDFCE72DE9FC5F16
:1038200010480068FCF737FF06460F460E48006850
:10383000FCF731FF804632463B46FFF7C9FE04469F
:1038400000220A4BFCF741FE824609480CC850464C
:10385000FCF7ADFE0022054BCDE90001FCF78EFD23
:10386000BDE8FC9F0C000020100000200080664096
:103870006000002000B5254B21F0004287B09A423D
:1038800003DC0022134600922BE0214B9A4208D120
:1038900040B94FF00100FEF7EDFFFEF7CCFF07B097
:1038A00000BD03DBFEF7C2FF07B000BD02AAFEF7B2
:1038B000AFFC10F003014FF001000DD0012914D02E
:1038C00002291AD00DF1080C9CE80F00FEF764FEE7
:1038D00007B081F0004100BD0DF1080C00909CE89C
:1038E0000F00FEF72DFF07B000BD0DF1080C9CE89E
:1038F0000F00FEF751FE07B000BD0DF1080C00905F
:103900009CE80F00FEF71CFFE2E70000FB21E93F07
:103910000000F07F2DE9F04106460F46FDF779F8EB
:10392000041E0D4618BF0120284320F00040C0F1BE
:103930007F6000F1E040C00F0ED0301C18BF0120A6
:10394000384320F00040C0F17F6000F1E040C00F3C
:1039500004BF0120FEF78EFF20462946BDE8F08116
:103960002DE9FF4111481249096800EB0111C0C956
:103970000F49096800EB0110D0E902450C480068C6
:1039800032463B46CDE9004502900AA0FEF71CFCFA
:103990001148CDE90067CDE9024510490CC803C9BB
:1039A000FDF744F90E4A03C2BDE8FF81D8000020AC
:1039B000C8000020C4BFB1EACEBBD6C3D7F8B1EA75
:1039C0003A2825662C2566290D0AC2B7BEB6B5E38E
:1039D0003A25640D0A0D0A00A0000020980000207E
:1039E000900000202DE9F04F91B004460D46164698
:1039F0001F4625F00040CDE90A4020460B99FFF70D
:103A000089FF8246934A944BFCF75FFD914A934BA2
:103A1000CDE90E0120462946FCF757FD8246324685
:103A20003B46FCF752FD32463B46CDE90A01894848
:103A30008949FCF74AFD824632463B46FCF745FD84
:103A400032463B46CDE9060100208549FCF73DFDA5
:103A500000224FF08043CDE9020120462946FCF7C1
:103A600034FD824600227F4BFCF788FCCDE9000143
:103A7000DDE90223FCF782FCCDE90401DDE9062340
:103A8000FCF77CFCCDE90801DDE90A23FCF776FCB4
:103A9000CDE90C01DDE90E23FCF770FC8046894678
:103AA00000224FF0804320462946FCF70EFD824657
:103AB0006D480CC85046FCF708FDCDE90201FFF740
:103AC000D9FE0022694BCDE90401FCF7FEFC00227F
:103AD000674BCDE9080120462946FCF7F6FC8246F3
:103AE00061480CC85046FCF7F0FCCDE90201FFF735
:103AF000C1FE00225D4BCDE90401FCF7E6FCCDE9F7
:103B00000601DDE90823FCF739FC00224FF0804371
:103B1000CDE90A01FCF7D9FC0022514BCDE90C019B
:103B2000FCF745FD42464B46CDE90E01FCF726FC6D
:103B30008046894600224A4B30463946FCF737FD1D
:103B4000824649480CC85046FCF7BFFCCDE902014B
:103B5000FFF790FE0022474BCDE90401FCF7B5FCCE
:103B6000CDE9080140480CC830463946FCF7ADFCA9
:103B7000CDE90401FFF77EFE824600223B4BFCF7B5
:103B8000A4FCCDE90601DDE90823FCF7F7FB0022E0
:103B90004FF08043CDE90A01FCF797FC0022304B3F
:103BA000CDE90C01FCF703FD42464B46CDE90E0181
:103BB000FCF7E4FB804689462B480CC83046394662
:103BC000FCF783FC824600222B4BFCF7F0FCCDE98E
:103BD0000201FFF74FFE0022284BCDE90401FCF75C
:103BE00074FC0022264BCDE9080130463946FCF72B
:103BF000DEFC82461C480CC85046FCF766FCCDE94A
:103C00000201FFF737FE00221E4BCDE90401FCF74D
:103C10005CFCCDE90601DDE90823FCF7AFFB0022DF
:103C20004FF08043CDE90A01FCF74FFC00220C4B1A
:103C3000CDE90C01FCF7BBFC42464B46CDE90E0139
:103C4000FCF79CFB804689464046494611B0BDE8DA
:103C5000F08F00009A9999999999C93F9999B93F1C
:103C600000000840000059C07800002000003440E7
:103C7000000018400000444000003E400000744036
:103C800000002840000064402DE9F04F8FB004464A
:103C90000D469046994625F00040CDE90840204663
:103CA0000999FFF737FE8246914A924BFCF70DFCCB
:103CB0008F4A904BCDE90C0120462946FCF705FCC4
:103CC000824642464B46FCF700FC894A894BCDE9C7
:103CD000080120462946FCF7F8FB824622462B467F
:103CE000FCF7F3FB42464B46CDE9040100204FF0C0
:103CF0008041FCF7EAFB82468B4600227E4B204641
:103D00002946FCF73BFB52465B46CDE90001FCF738
:103D100035FBCDE90201DDE90423FCF72FFBCDE9FA
:103D20000601DDE90823FCF729FBCDE90A01DDE9FD
:103D30000C23FCF723FB06460F4600224FF080437E
:103D400020462946FCF7C1FBCDE900016B480CC8B1
:103D50000098FCF7BAFB8246FFF78CFD0022684B07
:103D6000CDE90201FCF7B1FB0022664BCDE906016B
:103D700020462946FCF7A9FB824660480CC85046FD
:103D8000FCF7A3FBCDE90001FFF774FD00225C4BBB
:103D9000CDE90201FCF799FBCDE90401DDE9062339
:103DA000FCF7ECFA00224FF08043CDE90801FCF764
:103DB0008CFB0022544BCDE90A01FCF7F8FB32469C
:103DC0003B46CDE90C01FCF7D9FA06460F46002226
:103DD0004D4B20462946FCF7EAFB824647480CC873
:103DE0005046FCF772FBCDE90001FFF743FD0022CE
:103DF000464BCDE90201FCF768FBCDE906013F48DF
:103E00000CC820462946FCF760FBCDE90201FFF70C
:103E100031FD824600223A4BFCF757FBCDE9040105
:103E2000DDE90623FCF7AAFA00224FF08043CDE932
:103E30000801FCF74AFB0022334BCDE90A01FCF7ED
:103E4000B6FB32463B46CDE90C01FCF797FA064635
:103E50000F4600222E4B20462946FCF7A8FBCDE951
:103E6000000126480CC80098FCF72FFBCDE90201A1
:103E7000FFF700FD824600221F4BFCF726FB0022C5
:103E8000244BCDE9060120462946FCF790FB8246EB
:103E90001A480CC85046FCF718FBCDE90001FFF7A3
:103EA000E9FC00221C4BCDE90201FCF70EFBCDE939
:103EB0000401DDE90623FCF761FA00224FF080439C
:103EC000CDE90801FCF701FB00220F4BCDE90A0107
:103ED000FCF76DFB32463B46CDE90C01FCF74EFA90
:103EE00006460F46304639460FB0BDE8F08F000059
:103EF0009A9999999999B93F00C072407800002029
:103F00000000344000001840000008400000444019
:103F100000003E400000284000C062402DE9F04F04
:103F200093B006460F4614461D460022684B2046B5
:103F30002946FCF7C4FA0022664BCDE90A01304657
:103F40003946FCF7BCFACDE90801DDE90A23FFF7A1
:103F500049FD82468B4600225D4B20462946FCF7F0
:103F6000AEFA00225B4BCDE90A0130463946FCF738
:103F7000A6FACDE90801DDE90A23FFF785FECDE9C0
:103F800010010022544B20462946FCF710FBCDE9D6
:103F90000A0152480CC80A98FCF797FACDE90E01BD
:103FA000DDE90E01FFF766FC8046894642464B4636
:103FB0004B4903C9FCF789FA42464B46CDE9080153
:103FC000FCF783FA0022474BCDE90A01FCF77AFAA5
:103FD0008046894640464946FFF79CFCCDE90C01E6
:103FE00040464946DDE90C23FCF76FFACDE90401B0
:103FF0003B480CC800203B49FCF761FACDE90001C1
:1040000039480CC80098FCF760FACDE90201DDE9F7
:104010000423FCF7CCFACDE9060130480CC8069819
:10402000FCF753FA00222C4BCDE90A0150465946C1
:10403000FCF74BFACDE90801DDE90A23FCF7B7FAF2
:1040400082468B46DDE90E01FFF782FBCDE90401D4
:104050002549DDE90C2303C9FCF7A9FACDE90201E2
:10406000DDE90423FCF731FACDE906011B480CC851
:104070000698FCF72AFA0022174BCDE90A01DDE980
:104080001001FCF722FACDE90801DDE90A23FCF76B
:104090008EFACDE9100152465B4620462946FCF7D0
:1040A0006DF9124A03C230463946DDE91023FCF7A8
:1040B00065F90F4A03C20D4903C9CDE900010C4857
:1040C0000CC80CA0FEF780F813B0BDE8F08F00001C
:1040D0000080414000405A40008066407800002047
:1040E000880000200000F03F80000020A000002099
:1040F00098000020B5B1C7B0CEBBD6C33A2825661C
:104100002C2566290D0A00002DE9F04F95B00446D4
:104110000D4616461F46DDE920ABDDE91E895246F5
:104120005B4650465946FCF7D0F942464B46CDE92E
:10413000020140464946FCF7C8F9CDE90001DDE936
:104140000223FCF71BF9CDE90401FFF7E3FB32463C
:104150003B46CDE9080130463946FCF7B6F9224620
:104160002B46CDE9020120462946FCF7AEF9CDE900
:104170000001DDE90223FCF701F9CDE90401FFF7B5
:10418000C9FBCDE90601DDE90823FCF79EF952469B
:104190005B46CDE90C0130463946FCF796F94246BC
:1041A0004B46CDE9080120462946FCF78EF9CDE9BA
:1041B0000601DDE90823FCF7E1F8CDE90A01DDE9B4
:1041C0000C23FCF7F4F9CDE90E01FEF7B3FF002252
:1041D000074BCDE91001FCF778F9CDE9120105484C
:1041E0000CC81298FCF7E3F915B0BDE8F08F000099
:1041F0000080664098040020555555555555C53FDB
:104200007D6FEB0312D6D4BF5544880E55C1C93F0C
:104210003B8F68B52882A4BF88B20175E0EF493FA3
:1042200009F7FD0DE13D023F4B2D8A1C273A03C0E3
:10423000C88A599CE52A004059018D1B6C06E6BFCF
:1042400082922EB1C5B8B33F4FBB610567ACDD3F6D
:10425000182D4454FB21E93F9BF681D20B73EF3FAD
:10426000182D4454FB21F93FE2652F227F2B7A3C25
:10427000075C143326A6813CBDCBF07A8807703CDE
:10428000075C143326A6913CC4EB98999999C9BF51
:10429000711623FEC671BCBF6D9A74AFF2B0B3BF86
:1042A0009AFDDE522DDEADBF2F6C6A2C44B4A2BF46
:1042B0000D5555555555D53FFF8300922449C23FB2
:1042C0006E204CC5CD45B73F513DD0A0660DB13FE6
:1042D000EB0D76244B7BA93F11DA22E33AAD903FF8
:1042E0004C5555555555A53F7751C1166CC156BF14
:1042F0009015CB19A001FA3EAD529C804F7E92BE24
:10430000C4B1B4BD9EEE213ED43888BEE9FAA8BD42
:10431000000000000000000000004054FB21F93FB5
:104320003163621A61B4D03D0000601A61B4D03DBF
:104330007370032E8A19A33B0000002E8A19A33B39
:10434000C14920259A837B3900000000000000004D
:104350006E83F9A22915444ED15727FCC0DD34F5F0
:10436000999562DB4190433CAB6351FE61C5BBDE76
:104370003A6E24B7E0D24D42EA2E49061C92D1098A
:104380001CEB1DFE3EA729B1F53582E88444BB2E07
:1043900026709CE9417E5FB439D69139F439538354
:1043A0008B5F849C3B28F9BDFF97F81F0F9805DEB3
:1043B0008B112FEF1F6D0A5ACF7E366DB709CB27B1
:1043C000663F464F2DEA5F9EC7BA27757BF1E5EB46
:1043D000F739073DEA92528AB15FFB6B085D8D1F8A
:1043E000A6F810111111813FD561C119A0012ABF92
:1043F0007DFEB157E31DC73EEB9C2B8AE6E55ABE16
:104400007CD5CF5A3AD9E53D284400080000002069
:10441000D4040000080B000868450008D4040020FC
:104420009C15000064280008011A02450180094A11
:10443000D8124DFB210940580D5E04C777102E4A53
:1044400040182D445418000E3840C15458410BEF09
:1044500080AF8F6A7B3F29AEB20B181627BD6F7CE9
:10446000ED195C4088F546AD304B41402EAEF199D8
:10447000EC101E923B6C2233101E280B5F5FEB107A
:104480001E97900F7A36101E2368CC24EA101EF572
:1044900030B43A39101EA77A32FFE8101E280AF409
:1044A000893C101E306475ABE7101EEB6F09C03FEE
:1044B000101E1956F146E6101ECCEEC9C342101E5E
:1044C0001A8A3BDEE4101ED0436D1B46101E1BBE35
:1044D0008575E3101E69E21DE049101E923CD7F776
:1044E000E1101E43705CC64D101E9947FE60E0103F
:1044F0001ECAA31B61511001FF01FF01725818244D
:1045000050474B433130312C3130302A33323C4329
:10451000523E3C4C463E18C80C32312C352C462CB1
:10452000372A32421A18083234322C302C3104091E
:104530002102CC2A33363EE8093738362C322A336A
:1045400038547D332A324114619009182D4454FBAC
:10455000210940840E2707680901020304060708A1
:08456000090CA9104100000044
:04000005080001915D
:00000001FF
