:020000040800F2
:1000000038040020C9000008FB000008FD000008BB
:10001000FF000008010100080301000800000000C3
:1000200000000000000000000000000005010008C2
:100030000701000800000000090100080B0100088A
:100040000D0100080D0100080D0100080D01000858
:100050000D0100084902000889020008C9020008D1
:100060000D0100080D0100080D0100080D01000838
:100070000D0100080D0100080D0100080D01000828
:100080000D0100080D0100080D0100080D01000818
:100090000D0100080D0100080D0100080D01000808
:1000A0000D0100080D0100080D0100080D010008F8
:1000B0000D0100080348854600F056F80048004747
:1000C000ED0B000838040020114880F3088811481F
:1000D0000168090E104A9142FFD110481049016091
:1000E00010481149016011480F4901600B4810493F
:1000F00001601048804710480047FEE7FEE7FEE732
:10010000FEE7FEE7FEE7FEE7FEE7FEE7FEE70000AC
:1001100038040020040000001F0000001C100240F2
:100120000000000418680040120000001C68004035
:1001300000000000FD060008B500000830B50B46C1
:10014000014600202022012409E00D46D5409D42B1
:1001500005D31D469540491B254695404019154637
:10016000521E002DF1DC30BD064C0125064E05E087
:10017000E36807CC2B430C3C98471034B442F7D3C8
:10018000FFF79CFFA40C0008C40C0008FFB583B067
:100190000C46029400200190002726E000261CE077
:1001A000721C039951430846791CFFF7C7FF0546A7
:1001B000A54201D9281B00E0601B05460298A84211
:1001C00004D90295059806700698077002980028D1
:1001D00002D10120019002E0761C402EE0D300BF46
:1001E0000198002800D002E07F1C042FD6D300BF66
:1001F000029807B0F0BD000000B5C8230A2000F047
:10020000D3FC10E0052000020C4908622020486160
:10021000322000F0E0FC0A480849086220204861CA
:10022000322000F0D8FC18465B1E0028EAD100F00E
:100230005DFA0448006800F0B7FC00BD002C0140E6
:10024000010400000000002010B5022000F05CF85E
:100250000B480068002808D050200A490862202076
:10026000486100200649086008E0052000020549B1
:1002700008622020486101200149086010BD00008B
:100280000C000020002C014010B5082000F03CF8C4
:100290000B480068002808D041200A490862202045
:1002A000486100200649086008E0FF200530054944
:1002B00008622020486101200149086010BD00004B
:1002C00010000020002C014010B5102000F01CF898
:1002D0000A480068002808D009480A490862202016
:1002E000486100200549086007E0142005490862BC
:1002F0002020486101200149086010BD1400002041
:1003000001040000002C01400149486170470000D1
:1003100000040140002121498279002A35D00A4693
:10032000126803689A430B461A600A4652680368CB
:100330009A430B465A60027951180A6803681A43B7
:100340000A60164A926803689A43144B9A601A46E8
:10035000D26803689A43114BDA604279102A0CD1B3
:100360001A46926803681A430C4B9A601A46D26880
:1003700003681A43094BDA600EE0084942795118C4
:100380000A6803681A430A6006E0044902795118B2
:100390000A6803689A430A6070470000000401403D
:1003A000FCB502460025002601960020002300240B
:1003B0000096CE7835072D0FCE7810273E40002EC0
:1003C00001D08E7835430E78002E27D01468002097
:1003D00021E00126864033460E881E400196019E8C
:1003E0009E4217D183000F269E4000962746009E0E
:1003F000B7433C462E469E403443CE78282E03D148
:1004000001268640566105E0CE78482E02D10126AD
:1004100086401661401C0828DBD314600E88FF2E2E
:100420002CDD5468002026E0064608360127B74038
:100430003B460E881E400196019E9E421AD18300C3
:100440000F269E4000962746009EB7433C462E4608
:100450009E403443CE78282E04D106460836012724
:10046000B7405761CE78482E04D10646083601279A
:10047000B7401761401C0828D6D35460FCBDF0B5C6
:10048000002300244D07EE0E1546B5402B46CD1037
:10049000002D0BD1056A4E07F70E0F26BE40B5435F
:1004A0000562056A1D432C4604620AE0456A4E0750
:1004B000F70E0F26BE40B5434562456A1D432C46E4
:1004C0004462F0BD00218278002A27D0184A032315
:1004D0001B02D21803789B109B00D1580278920718
:1004E000D30EFF229A400B46934319464278920757
:1004F000120E03789B07DB0E9A4011430C4A03232C
:100500001B02D21803789B109B00D1500278D306AF
:10051000DB0E01229A40064B1A6007E00278D306F0
:10052000DB0E01229A40024B80331A6070470000B4
:1005300000E100E0002905D0054A52690243044B5E
:100540005A6104E0024A52698243014B5A61704782
:1005500000100240002905D0054A92690243044B6D
:100560009A6104E0024A92698243014B9A617047A2
:100570000010024030B500228B071C0F0F23A34050
:100580001A460B4B8C10A4001B599343084C8D103A
:10059000AD00635123468C10A4001B598C07250F16
:1005A0000446AC402343024C8D10AD00635130BD76
:1005B0000800014010B500F001F810BD1CB544481A
:1005C0000068012108434249086000BF40480068B4
:1005D000022108400028F9D03E483F4908603F48C2
:1005E0000068102108433D49086008460068C008BB
:1005F000C000086038490968481E3949FFF79EFD68
:100600000446364800682043344908603048406852
:100610002F4948600846406848602F4800683149C3
:10062000884207D92A48406801218902084328499D
:10063000486006E0264840680121890208432449B1
:1006400048602348406803210904884320494860E2
:10065000084600680003000B08606B4601AA1E48AC
:1006600001682148FFF792FD194800680003000B5C
:100670001749086069460879800609780905084322
:1006800013490968084312490860084600680121B7
:10069000090608430E49086000BF0D4800680121A3
:1006A000490608400028F8D00948406880088000C2
:1006B00007494860084640680221084304494860E9
:1006C00000BF034840680C2108400828F9D11CBD30
:1006D0000010024000D8B80524000020002002408D
:1006E00000366E0100512502001BB70000200249B0
:1006F0000862202048617047002C014010B5154861
:1007000000680121084313490860084640681249FF
:1007100008401049486008460068104908400D49E3
:100720000860084600680121890488430949086077
:10073000084640687F210904884306494860084606
:1007400000680003000B08609F2000048860FFF72A
:1007500031FF10BD001002400000FFF0FFFFF6FE69
:1007600030B58BB004460D460121C802FFF7F2FEFA
:1007700001218804FFF7DEFE182108A8C172FF21BD
:10078000F93168460185032108A881720AA9354814
:10079000FFF706FE032208213248FFF770FE07220A
:1007A00005213048FFF76BFE062207212D48FFF791
:1007B00066FE072206212B48FFF761FE0622032171
:1007C0002848FFF75CFE062204212648FFF757FE63
:1007D0000794681E059000200890069005A92248FD
:1007E00000F0A4F90121204800F04EF8602168468D
:1007F000818014214181002181810121C18000215A
:100800004182C1810421018101A9174800F068F8E3
:100810000821154800F0B0F801A9134800F0BAF813
:100820000821114800F012F901A90F4800F01CF945
:1008300008210D4800F06CF901210B4800F016F872
:100840000121094800F03CF80121074800F02AF88E
:100850000121054800F041F82021034800F03DF84F
:100860000BB030BD00040048002C0140002904D02A
:10087000026880231A43026003E00268014B1A40B9
:10088000026070477FFF0000002904D04268012306
:100890001A43426003E04268014B1A4042607047CD
:1008A000FEFF0000002904D0026801231A43026001
:1008B00003E00268014B1A4002607047FEFF00002F
:1008C000002905D0426C0123DB031A43426403E094
:1008D000426C5204520C4264704741617047000000
:1008E00070B5002400220023056A1D4E35400562C4
:1008F000056AAAB24568ABB28569ACB2184D6F3DC6
:100900002C40B51E2C400D882C43751E2A400D89A5
:100910002A434D882A43134DA84208D0124DA842BD
:1009200005D0124DA84202D0114DA84212D10C4D53
:10093000ED1F2A404D892A43094DED1E2A408D881E
:100940002A43074DFF3D2B400A4D2B408D892B43F9
:10095000CD892B4343608461CD884563026270BDBD
:10096000FEFF0000002C014000440140004801400F
:1009700000080140FFFD00000A460021836999B28A
:10098000034B19400B461343194681617047000021
:10099000F7FF000070B5002400220023056A244EF2
:1009A00035400562056AAAB24568ABB28569ACB24A
:1009B000204D2C40204D2C400D782D062D0C2C4325
:1009C0001B4D103D2A400D892D052D0C2A434D88C5
:1009D0002D052D0C2A43194DA84202D0184DA842CE
:1009E0001FD1184D2B408D89AD042D0C2B43134D79
:1009F000A84202D0124DA84213D10D4D703D2A409D
:100A00004D892D052D0C2A43094D303D2A408D88F6
:100A10002D052D0C2A430C4D2B40CD89AD042D0CFA
:100A20002B4343608461CD888563026270BD000002
:100A3000EFFF0000FF8F0000FFFC0000002C0140D2
:100A400000080140FFFB0000FFF700000A460021FC
:100A5000836999B2034B194013061B0C194381613A
:100A600070470000FFF7000070B50024002200234B
:100A7000056A1F4E35400562056AAAB24568ABB2E9
:100A8000C569ACB21A4D90352C40194DFD352C403E
:100A90000D882C43174D2A400D7A2D062D0C2A4324
:100AA0008D782D062D0C2A43134DA84202D0134DEC
:100AB000A84217D1124D2A408D7A2D062D0C2A43BB
:100AC000104D2A400D792D062D0C2A430E4D2B403A
:100AD0000E4D2B408D892D052D0C2B43CD892D05D9
:100AE0002D0C2B434360C461CD88C563026270BD89
:100AF000FFFE0000FFFD0000002C01400008014047
:100B0000FFF70000FFFB0000FFEF0000FFDF000029
:100B10000A460021C36999B2034B19400B4613439F
:100B20001946C16170470000F7FF0000002203680A
:100B30009AB2164B984209D001239B07984205D0E0
:100B4000134B984202D0134B984204D1124B1A40D7
:100B50008B8813439AB2114B1A408B8913439AB274
:100B600002608B68C3620B688362084B984208D0AE
:100B7000084B984205D00A4B984202D0094B984244
:100B800001D10B7C0363012343617047002C0140BA
:100B900000040040000801408FFF0000FFFC00003F
:100BA0000044014000480140024948638863C8632B
:100BB00070470000002C014002E008C8121F08C165
:100BC000002AFAD170477047002001E001C1121FCE
:100BD000002AFBD1704704E0002100E0491C642991
:100BE000FCDB0146401E0029F6D1704760216420DD
:100BF000FFF7B6FDFFF700FB7D20C000FFF7EBFF1E
:100C000000F002F800BFFEE71FB501214804FFF71E
:100C100091FC04216846C1731A21818103A909202E
:100C2000C006FFF7BDFB01210846FFF793FC012139
:100C30000020FFF79FFC03210020FFF79BFC04210D
:100C40000020FFF797FC0220019000216846017206
:100C5000082141720121817201A8FFF75BFB082086
:100C6000019001A8FFF756FB1020019001A8FFF7A3
:100C700051FB0521684601700121817002214170FC
:100C8000FFF720FC06216846017002214170FFF742
:100C900019FC07216846017002214170FFF712FC20
:100CA0001FBD0000C40C0008000000203800000038
:100CB000B80B0008FC0C00083800002000040000FD
:100CC000C80B00080E000000010000000600000034
:100CD0000100000001000000010000000000000011
:100CE000000000000000000000D8B805000000006F
:0C0CF000000000000102030406070809D0
:04000005080000B53A
:00000001FF
