:020000040800F2
:10000000C00C0020A5010008AD010008AF010008E8
:10001000B1010008B3010008B501000800000000AC
:10002000000000000000000000000000B701000810
:10003000B901000800000000BB010008BD01000874
:10004000BF010008BF010008BF010008BF01000890
:10005000BF010008BF010008BF010008BF01000880
:10006000BF010008BF010008BF010008BF01000870
:10007000BF0100082D0C0008BF010008BF010008E7
:10008000BF010008BF010008BF010008BF01000850
:1000900000000000BF01000800000000BF010008D0
:1000A000BF010008BF010008BF010008BF01000830
:1000B000291F0008BF010008BF010008BF01000898
:1000C00000000000BF01000800000000BF010008A0
:1000D000BF0100080D200008BF010008BF01000893
:1000E000BF010008BF010008BF010008BF010008F0
:1000F000BF010008BF010008BF010008BF010008E0
:1001000000000000BF010008BF010008BF01000897
:10011000BF010008BF010008BF010008BF010008BF
:10012000BF010008BF010008BF010008BF010008AF
:10013000BF010008BF01000800000000000000002F
:10014000BF0100080000000000000000BF0100081F
:10015000000000000000000000000000BF010008D7
:10016000000000000000000000000000000000008F
:10017000000000000000000000000000000000007F
:100180000000000000000000BF010008BF010008DF
:10019000DFF80CD000F0A6FC00480047BD3900088D
:1001A000C00C00200648804706480047FEE7FEE7EF
:1001B000FEE7FEE7FEE7FEE7FEE7FEE7FEE7FEE717
:1001C000C51E00089101000830B505462A460B46B9
:1001D00012F8010B13F8014B08B1A042F8D01CB182
:1001E000002802D06D1CF1E7284630BDF0B480EA4B
:1001F0000102D40F4200B2EB410F02D20246084680
:1002000011464A0042D0C30DDDB2C1F3C752AD1A48
:10021000202D35DAC1F3160141F4000204B1524237
:10022000C5F1200602FA06F12A411044B3EBD05F73
:1002300023D0C4B1012DA0EBC35009DCF0BC4FF0BA
:10024000004202EAC352DBB200F5000000F03FBBFF
:10025000400000F1807000EBC350A0F1807040EAD4
:10026000D170490009E0490841EAC071A0EBC350D0
:1002700000F50000400800EBC350F0BC00F01EBBCE
:100280006142012202EB4101001BF6E7F0BC70471E
:1002900081F00041AAE780F00040A7E780EA010270
:1002A00010B502F00043400022D04A001FD0010EDA
:1002B00001EB1261C0F35600C2F3560240F4000095
:1002C00042F40002A0FB022000047F39140400D095
:1002D000401C50EA124001D44000491EC2B20C0634
:1002E00004EBD010401C4008802A02D003E000201C
:1002F00010BD20F00100002900DA0020184310BDD5
:1003000030B480EA010202F0004530F0004221F0F2
:10031000004013D090B1C30DD40DC2F31601C0F349
:100320001600E41A41F4000140F400027D349142C9
:1003300001D3641C00E04900002C02DA30BC00202C
:1003400070474FF400000023914201D3891A034300
:1003500040084FEA4101F7D151B1914202D14FF02B
:10036000004105E002D24FF0010101E06FF0010110
:1003700003EBC450284430BC00F0A0BA2DE9FE4F76
:10038000804681EA0300C00F0C46009021F0004136
:1003900023F00045B8EB0200A94105D240462146B2
:1003A00090461C460B46024623F00040104347D0BF
:1003B000270DC7F30A00C3F30A510290401A0190B7
:1003C00040286BDAC3F3130040F4801B0098924678
:1003D00020B10023D2EB030A63EB0B0B01985946C3
:1003E000C0F14002504600F038FA06460D4650462D
:1003F0005946019A00F050FA10EB080061410024C0
:1004000087EA115284EAE7731A4340D0009A62B334
:10041000019A012A4FEA075215DC001B61EB020129
:100420004FF0004202EA0752CDE90042001C41F5BC
:10043000801132462B4600F087FA03B0BDE8F08FFA
:1004400040462146F9E7001B61EB0201001C41F523
:10045000801300185B412018A2F5001747EB030139
:1004600040EAD570B6196D4111E06D084FEA3606C5
:1004700045EAC0754FEA0752001B61EB0201001C00
:1004800041F5801149084FEA3000001951413246C8
:100490002B4603B0BDE8F04F00F047BA00980122A8
:1004A00040000023D0EB020263EBE073009821468A
:1004B0004FEAE074B8EB000061EB0401E9E783F078
:1004C00000435BE781F0004158E72DE9FE4F81EAE8
:1004D000030404F0004421F0004100944FF0000BAD
:1004E00023F0004350EA01045ED052EA03045BD0DB
:1004F000C3F30A54C1F30A552C44A4F2F334019413
:10050000A0FB0254C1F3130141F48011C3F31303A0
:1005100043F4801301FB024400FB034E840A970A54
:1005200044EA815447EA8357A4FB076802958D0A81
:1005300005FB07854FEA932C04FB0C542705029D0D
:100540004FEA065847EA1637B5EB08056EEB070C7D
:10055000870E920E47EA811742EA8312A7FB020137
:10056000B6EB0B0164EB00042B0D43EA0C335E1871
:1005700044EB1C50DA465146E7FB0201C5F3130475
:100580004FEA0B3343EA14534FEA0432019C43EA27
:100590000603A4F10C040294009CCDE900B400F021
:1005A000D3F903B0BDE8F08F00200146F9E72DE94B
:1005B000F04D81EA030404F0004B21F0004514469D
:1005C0004FF0000A23F0004150EA050220D054EA1F
:1005D00001021DD0C5F30A570246C5F31303C1F348
:1005E0001300C1F30A5640F4801543F48013A7EBBF
:1005F0000608101BD64608F2FD3873EB050002D33F
:1006000008F1010801E092185B41B8F1000F03DA2C
:1006100000200146BDE8F08D00204FF48011064611
:1006200084460EE0171B73EB050705D3121B63EB23
:10063000050306434CEA010C49084FEA30009218C2
:100640005B4150EA0107EDD152EA030012D082EA81
:10065000040083EA0501084305D0101BAB4106D214
:100660000122002306E000224FF0004302E06FF079
:10067000010253101AEB06004CEB085110EB0A0074
:1006800041EB0B01BDE8F04D00F04FB9962300227D
:10069000114600F01CB90EB5C10F80EAE0700844A5
:1006A000CA07002140F233438DE80E000A460B468C
:1006B00000F04AF903B000BD0EB540F2334102919B
:1006C0000021CDE900110A460B4600F03DF903B0C8
:1006D00000BD20F00040C10DC0F3160040F4000042
:1006E0007F2901DA00207047962903DCC1F19601C9
:1006F000C840704796398840704770B5C1F30A52B8
:1007000001F000450024C1F3130140F2FF3341F42E
:1007100080119A4201DA002070BD40F233439A42C0
:10072000A2F2334203DC524200F0A6F800E090400F
:100730002C43F1D0404270BDC1F30A5210B5C1F351
:10074000130140F2FF3341F480119A4201DA002094
:1007500010BD40F233439A42A2F2334203DC5242CC
:1007600000F08AF810BD904010BD000030B5041EA6
:1007700071F1000404DB4FF00044404264EB0101DE
:10078000141E73F1000405DB1C464FF00043524277
:1007900063EB04038B4208BF824230BD30B5041EB8
:1007A00071F1000404DB4FF00044404264EB0101AE
:1007B000141E73F1000405DB1C464FF00043524247
:1007C00063EB0403994208BF904230BD30B50B463D
:1007D000014600202022012409E021FA02F59D4271
:1007E00005D303FA02F5491B04FA02F52844151E45
:1007F000A2F10102F1DC30BD2DE9F05F05460020D9
:1008000092469B4688460646814640241BE0284681
:1008100041464746224600F02FF853465A46C01A32
:10082000914110D311461846224600F016F82D1AB1
:1008300067EB01084F4622460120002100F00DF829
:1008400017EB00094E41201EA4F10104DFDC4846ED
:1008500031462A464346BDE8F09F202A04DB203A71
:1008600000FA02F1002070479140C2F1200320FA03
:1008700003F3194390407047202A04DB203A21FA01
:1008800002F00021704721FA02F3D040C2F12002A9
:100890009140084319467047202A06DBCB17203ABF
:1008A00041FA02F043EAE07306E041FA02F3D04075
:1008B000C2F1200291400843194670470029A8BFA1
:1008C0007047401C490008BF20F00100704710B479
:1008D000B0FA80FC00FA0CF050EA010404BF10BC2E
:1008E000704749B1CCF1200421FA04F411FA0CF15B
:1008F00018BF012121430843A3EB0C01CB1D4FEA94
:1009000000614FEA102042BF002010BC704700EB8E
:10091000C35010440029A4BF10BC7047401C4900BC
:1009200008BF20F0010010BC704710B5141E73F111
:10093000000408DA401C41F1000192185B411A439F
:1009400001D120F0010010BD2DE9F04D92469B46EB
:1009500011B1B1FA81F202E0B0FA80F22032904691
:10096000FFF77BFF04460F4640EA0A0041EA0B010D
:1009700053465A46084313D0114653EA010019D092
:10098000C8F140025046FFF777FF05460E46504635
:1009900059464246FFF761FF084305D0012004E0B5
:1009A00020463946BDE8F08D0020054346EAE07652
:1009B0002C4337430A986305E40AA0EB08000022A1
:1009C000FD0A44EA47540A3002D500200146E9E70F
:1009D000010510196941DDE9084500196941BDE8C3
:1009E000F04DA2E770B521F0004303430CD0C1F3F2
:1009F0000A550024D5EB040564EB0403D617AD1AA1
:100A0000B34102DB0020014670BD201841EB0251CA
:100A100070BD2DE9F04D00231A461B1A8A4103DBF5
:100A200000200146BDE8F08DC1F30A52C1F3130165
:100A300041F480154FF0000BD10702D100186D4131
:100A4000521E0027044640F2FF11384601EB620AAD
:100A50003E468046024600204FF48011FFF70CFF0F
:100A6000C2197141BB1846EB0100B4EB030C75EBE6
:100A7000000C04D3E41A65EB000517460E46241952
:100A800008F101006D4180463428E3DDF91946EB99
:100A90000600091BA84103D24FF0FF32134601E0C4
:100AA000002213461BEB070046EB0A51BDE8F04D50
:100AB000FFF73BBFC1F30A52C1F3130140F2FF330A
:100AC00041F480119A4202DA00200146704740F258
:100AD00033439A42A2F2334202DC5242FFF7CCBEC9
:100AE000FFF7BBBE064C074D06E0E06840F001038F
:100AF00094E8070098471034AC42F6D3FFF74CFB5C
:100B0000B8450008D845000870B58C1810F8015B8E
:100B100015F0070301D110F8013B2A1106D110F896
:100B2000012B03E010F8016B01F8016B5B1EF9D19A
:100B30002B0705D40023521E0DD401F8013BFAE720
:100B400010F8013BCB1A921C03E013F8015B01F88B
:100B5000015B521EF9D5A142D8D3002070BD2DE90A
:100B6000F043054616461F4608464FF0000C002489
:100B700023E0002319E003F1010805FB08F804F164
:100B80000109B8FBF9F28A4202D9A2EB010801E09F
:100B9000A1EB02084246904202D9104633703C70E5
:100BA00010B94FF0010C02E05B1C402BE3D300BFF7
:100BB000BCF1000F00D002E0641C042CD9D300BFAC
:100BC000BDE8F08301B5002106E00648016800BFDA
:100BD000081EA1F10101FBD10098421E00920028DD
:100BE000F3D108BD60000020014600224FF0E02351
:100BF0001A61CA005A6100229A6105221A6100BF77
:100C00004FF0E022106900F001021AB100F48032C6
:100C1000002AF5D04FF0E022126922F001024FF0D5
:100C2000E0231A6100229A61704700002DE9F04725
:100C300027A001F09FFB4FF4007000F075F800282A
:100C400043D04FF4007000F05BF80021254800F01D
:100C500065F82549254800F073FC002006E022498C
:100C6000095C11B92421204A1154401CB0F5007FC1
:100C7000F5DB01211B4800F051F81C49486DFFF7D6
:100C80001BFD064600221A4BFFF791FC04460D4659
:100C90001649C86DFFF710FD06460022144BFFF7FA
:100CA00086FC804622462B4603F024FA09E01148D0
:100CB000006811490968884203DD00210F4801F0EE
:100CC000B1FA02F01FFF0028F1D1BDE8F087000063
:100CD000B3C9B9A6BDF8C8EB444D41D6D0B6CF0DC7
:100CE0000A000000300002403806002038080020CA
:100CF000006AF840A8000020AC000020004C004032
:100D0000B0F1805F02D9034908607047024948602A
:100D100000BFFAE70404024000000240026822F02B
:100D200001020A43026070470146B1F1805F07D9B2
:100D300007480068084008B1012070470020FCE720
:100D400004480068084008B10120F6E70020F4E7F5
:100D500000040240000002401AB103680B43036024
:100D600002E003688B430360704710B50A7A8B7DFD
:100D70001A430B7C1A434B7C1A434B8A1A438B8AC7
:100D80001A430B8B1A434B8B1A43036847F6F074D4
:100D9000A3431A430260026822F400428B8B1A4379
:100DA0000260CA6842600A6882604A68C26010BD18
:100DB00070B506480CC800204FF08041FFF785FB56
:100DC00004460D462046294670BD0000000600205E
:100DD0002DE9F05F06460F469046994642464B463F
:100DE00030463946FFF76EFB824601F09DFA044615
:100DF0000D4600220C4B20462946FFF7CFFC0ED2B1
:100E000000220A4B20462946FFF7B0FC07D20022F9
:100E1000064B20462946FFF752FB04460D46204666
:100E20002946BDE8F09F00000080664000807640C3
:100E30002DE9FF5F86B0DDE91423DDE90601FFF748
:100E400041FB04460D46DDE90823DDE91601FFF705
:100E500036FB06460F4625F0004000210291CDE901
:100E60000314059032463B46CDE900402046294612
:100E700003F022FA82468B4627F00040CDE9046059
:100E8000CDE902600020009032463B4601902046AA
:100E9000294603F011FA8046894600221B4B504632
:100EA0005946FFF763FC13D20022184B40464946CF
:100EB000FFF75CFC03D21648C0E9008920E000225D
:100EC000124B50465946FFF759FA114A03C217E030
:100ED00000220E4B40464946FFF748FC08D24246E6
:100EE0004B4600200B49FFF7EAFA094A03C207E024
:100EF00042464B4600200749FFF7E1FA044A03C285
:100F0000034903C90AB0BDE8F09F000000805640C5
:100F10009000002000807640F0B50246CF7807F0C0
:100F20000F05CF7807F010070FB18F783D431446B7
:100F3000002016E087063B0E0F884FF0010C0CFADC
:100F400000FC07EA0C0757B1D4F800C00F279F40F8
:100F50002CEA070705FA03FC47EA0C072760471C41
:100F6000F8B20828E6DB141D0F883E12002012E0BC
:100F700087063B0E01278740374057B1D4F800C0A1
:100F80000F279F402CEA070705FA03FC47EA0C07E6
:100F90002760471CF8B20828EADBCF78282F06D153
:100FA0005769B1F800C047EA0C07576108E0CF78ED
:100FB000482F05D11769B1F800C047EA0C0717613F
:100FC000F0BD70B54D07EB0E082902DA00F12005DF
:100FD00001E000F124052C460F269E402568B5430C
:100FE00002FA03F63543256070BD0246906808405A
:100FF00008B1012070470020FCE74FF6FF71018027
:10100000022181700421C17070470AB1016100E0C2
:101010004161704710B51049092000F02DF80F49C3
:101020000B2000F029F80E490B2000F025F80D499F
:101030000B2000F021F80C490B2000F01DF80B49A3
:101040000B2000F019F80A490B2000F015F80949A7
:101050001C2000F011F810BDA0050020D0030020D6
:10106000FC030020280400205404002080040020F9
:10107000AC0400203005002070B505460C462E4615
:1010800011E000BF0821094801F075F80128F9D1E5
:10109000208881B2054801F0C5F805A0216801F05B
:1010A00069F9241D761E002EEBDC70BD004800405F
:1010B000256300002DE9F041032000F07FF82D4961
:1010C0000860072000F07AF82B490860052000F03E
:1010D00075F82A49086027480068002847D0084664
:1010E0000068002843D02448006800283FD02148E9
:1010F000016823A001F03EF91F48016822A001F019
:1011000039F91E48016822A001F034F91948006835
:10111000214908601848006820490860174800689D
:101120001F4908601C4800681E49096848431E4959
:101130000968401A1D490860184800681C49096878
:1011400048431C490968401A1B4908601748006851
:10115000FFF7A1FA04460D4617480068FFF79BFA0F
:10116000064622462B4602F02FFCBDE8F08100BF68
:10117000FBE700000C0000201000002014000020FD
:10118000783D25640D0A0000793D25640D0A0000B4
:101190007A3D25640D0A00000000002004000020B4
:1011A0000800002040000020340000204C000020F7
:1011B00044000020380000205000002070B5044694
:1011C000E1B23C2000F05CF80546601CC1B23C2056
:1011D00000F056F80646012202213C2000F04CF9AE
:1011E00006EB052000B270BD10B500224FF48061FF
:1011F0000E48FFF70AFF0A20FFF7E4FC0122D102A4
:101200000A48FFF702FF012291020848FFF7FDFE9E
:101210000A20FFF7D7FC00224FF480610348FFF754
:10122000F4FE0A20FFF7CEFC10BD0000000C0440C5
:1012300070B5002400251CE06006040E00224FF467
:1012400080610E48FFF7E1FE0A20FFF7BBFC012298
:1012500091020A48FFF7D9FE0A20FFF7B3FC4FF4CA
:1012600000610648FFF7C1FE08B144F00104681CA4
:10127000C5B2082DE0DB204670BD0000000C044024
:1012800070B504460D4600F061F808B9002070BD45
:10129000204600F02DF800F0B9F818B900F082F8F7
:1012A0000020F4E7284600F023F800F0AFF818B962
:1012B00000F078F80020EAE700F048F808B90020CC
:1012C000E5E7611CC8B200F013F800F09FF818B908
:1012D00000F068F80020DAE7FFF7AAFF0646FFF7FC
:1012E00083FF00F05FF808B90020D0E73046CEE772
:1012F00070B50446002523E000224FF480611248B7
:10130000FFF783FE0A20FFF75DFC04F0800028B1A0
:101310000122D1020C48FFF778FE05E000224FF4CD
:1013200000610948FFF771FE6006040E0122910278
:101330000548FFF76AFE0A20FFF744FC681CC5B2A7
:10134000082DD9DB70BD0000000C044010B501224F
:1013500091021348FFF759FE0122D1021048FFF70E
:1013600054FE0A20FFF72EFC4FF400610C48FFF7F3
:101370003CFE08B9002010BD00224FF4006108486F
:10138000FFF743FE0A20FFF71DFC00224FF4006127
:101390000348FFF73AFE0A20FFF714FC0120EAE7B2
:1013A000000C044010B5012291021748FFF72DFEF2
:1013B00000224FF400611448FFF727FE0A20FFF7D0
:1013C00001FC4FF400611048FFF70FFE08B1002048
:1013D00010BD0122D1020C48FFF717FE0A20FFF7CB
:1013E000F1FB4FF400610848FFF7FFFD08B900204A
:1013F000EEE70122D1020448FFF707FE0A20FFF7BB
:10140000E1FB0120E4E70000000C044010B50022DD
:101410004FF480611748FFF7F8FD0A20FFF7D2FB71
:101420000122D1021348FFF7F0FD01229102114879
:10143000FFF7EBFD0A20FFF7C5FB4FF400610D48F5
:10144000FFF7D3FD50B100224FF480610948FFF748
:10145000DCFD0A20FFF7B6FB002010BD00224FF490
:1014600080610448FFF7D1FD0A20FFF7ABFB0120A4
:10147000F3E70000000C044070B506460C46154624
:10148000FFF764FF08B9002070BD3046FFF730FF5A
:10149000FFF7BCFF18B9FFF785FF0020F4E72046EF
:1014A000FFF726FFFFF7B2FF18B9FFF77BFF002019
:1014B000EAE72846FFF71CFFFFF7A8FF18B9FFF778
:1014C00071FF0020E0E7FFF76DFF08B90020DBE7C0
:1014D0000120D9E770B500221346044903C9FEF77D
:1014E000F4FF04460D462046294670BDF005002055
:1014F00010B54FF4E13000F0A5FE4FF4E13000F0FC
:10150000DDFE00F0A9FDFFF785FD10BD7047024626
:10151000134610E010782A2805D01078202802DB26
:1015200010787A2801DDFF20704710782C2801D12F
:10153000481EC1B2521C0029ECD1D01AC0B2F3E748
:101540002DE9F04F85B004468A469EA15046FEF72D
:101550003BFE814649469CA000F00CFF0121484615
:10156000FFF7D5FF0546FF2D24D009EB050004A9A0
:1015700000F047F907469DF810100A2000F036F9F0
:10158000B7FBF0F642F21070B6FBF0F0C1B24E209D
:1015900001556420B6FBF0F06421B0FBF1F201FBD1
:1015A00012014F2001556420B6FBF0F100FB1161E0
:1015B0005020015503214846FFF7A9FF0546FF2D9E
:1015C00044D009EB050004A900F01BF906469DF87C
:1015D0001000801CC1B20A2000F008F9B6FBF0F040
:1015E00060659DF81000801CC1B20A2000F0FEF872
:1015F000B6FBF0F100FB11673846FFF747F883466A
:101600009DF81000C0F10500C1B20A2000F0EEF80C
:101610000090FFF73BF859460190FEF73FFE8046E9
:101620006C49FEF76DFE074605210A2000F0DEF842
:10163000616D00FB01F84046FFF728F8394602903B
:10164000FEF7D4FD0390FFF744F860650421484697
:10165000FFF75DFF0546FF2D03D019F8050084F85C
:10166000580005214846FFF752FF0546FF2D44D09C
:1016700009EB050004A900F0C4F806469DF8100027
:10168000801CC1B20A2000F0B1F8B6FBF0F0E065B2
:101690009DF81000801CC1B20A2000F0A7F8B6FB2C
:1016A000F0F100FB11673846FEF7F0FF83469DF826
:1016B0001000C0F10500C1B20A2000F097F80090B8
:1016C000FEF7E4FF80465946FEF7E8FD074641492C
:1016D000FEF716FE052102900A2000F087F8E16D62
:1016E00000FB01F73846FEF7D1FF01900299FEF7A3
:1016F0007DFD0390FEF7EDFFE06506214846FFF70C
:1017000006FF0546FF2D03D019F8050084F8600098
:1017100008214846FFF7FBFE0546FF2D09D009EBDF
:10172000050004A900F06DF80746FEF7B4FFC4E910
:101730001E019DF81000012808D10022264BD4E993
:101740001E713846FEF733FFC4E91E019DF81000F4
:10175000022808D10022214BD4E91E713846FEF739
:1017600026FFC4E91E0109214846FFF7D0FE0546C1
:10177000FF2D1FD009EB050004A900F042F8064632
:1017800042F21070B6FBF0F0C1B24D20015564205A
:10179000B6FBF0F06421B0FBF1F201FB12014C202A
:1017A00001556420B6FBF0F100FB116000F5FA6012
:1017B000A4F84A000AA0626DE16D00F0DBFD05B0FF
:1017C000BDE8F08F474E52005031C4DAC8DD3A25EB
:1017D000730D0A00000070420000244000005940D0
:1017E0002825642C2564290D0A00000010B5024646
:1017F000012000E050430B1EA1F10104E1B2F9D138
:1018000010BD2DE9F34F81B007463C460020009003
:10181000834681460026804628E020782D2802D184
:1018200048F00208641C20782C2802D020782A284E
:1018300000D11CE020782E2803D148F00108641C58
:1018400009E02078392802DC2078302803DA4FF0CC
:10185000000900260BE008F0010010B1701CC6B2B0
:1018600003E009F1010000F0FF09641CD5E700BFA7
:1018700008F0020000B17F1C00250EE0A9F1010074
:10188000401BC1B20A20FFF7B1FF795D3039009AE1
:1018900000FB01200090681CC5B24D45EEDB052E13
:1018A00000DD05260298067000250EE0701E401B24
:1018B000C1B20A20FFF79AFF09F101012944795CBE
:1018C000303900FB01BB681CC5B2B542EEDB3146C6
:1018D0000A20FFF78BFF009901FB00BA08F0020015
:1018E00008B1CAF1000A5046BDE8FE8F10B5C178B4
:1018F00009B3164A126802F4E0634FF4E0629A43B7
:10190000110A4278C1F104039A4083780F240C41F4
:1019100023401A4311010E4A04781155027802F04F
:101920001F0301229A4003785B119B0003F1E0231F
:10193000C3F8002109E0017801F01F020121914064
:10194000044A03785B1142F8231010BD0CED00E04F
:1019500000E400E080E100E02DE9FF5F06460F466D
:101960003048C0C0083830490CC803C9FEF706FD2E
:101970002D4A03C200222D4B2B4903C9FEF70EFF4F
:1019800004D200212948284AC2E900100022284B2D
:10199000254903C9FEF7EAFE04D200212448224A61
:1019A000C2E900101F4823490CC803C9FEF787FD90
:1019B000214A03C2FFF7FCF9CDE90201FFF78AFDD6
:1019C0008046894600F044F8824642464B46FEF780
:1019D000D5FCCDE90001DDE90223FEF7CFFC04468A
:1019E0000D4622462B4615A000F0C4FC0D4903C944
:1019F000104A03C20022144B20462946FEF7CEFEB1
:101A000001D20024104D0022104B20462946FEF73B
:101A1000ADFE01D200240D4D2046294604B0BDE89C
:101A2000F09F0000E8050020F0050020000059406C
:101A3000000059C0F80500200006002076616C3DCA
:101A400025660D0A000000000000494000002E40FD
:101A500070B50022044B054903C9FEF736FD044664
:101A60000D462046294670BD00003E40E805002096
:101A700029B1064A926A0243044B9A6204E0034A7F
:101A8000926A8243014B9A62704700000010024044
:101A900029B1064A126B0243044B1A6304E0034A5D
:101AA000126B8243014B1A63704700000010024022
:101AB00029B1064AD26A0243044BDA6204E0034ABF
:101AC000D26A8243014BDA62704700000010024084
:101AD00000B500F02DF804494968C1F30311034A29
:101AE000515CC84000BD0000001002401C060020F0
:101AF00000B5FFF7EDFF04494968C1F30221034A2D
:101B0000515CC84000BD0000001002401C060020CF
:101B100000B5FFF7DDFF04494968C1F3C221034A5C
:101B2000515CC84000BD0000001002401C060020AF
:101B300010B5194C646804F00C04042C06D0082C71
:101B400006D00C2C23D149F6404022E0134820E077
:101B5000114CA46C04F0010444B10F4CA46C04F0CB
:101B600002040CB10E4C02E00C4C00E00B4C23467E
:101B7000094CA46CC4F30644611C074CA46CC4F368
:101B80000224621C03FB01F4B4FBF2F001E0034801
:101B900000BF00BF10BD00000010024000127A001C
:101BA00000093D0010B50A48006820F018000849F7
:101BB00008600846006840F00100086000BF044863
:101BC000406800F003000228F9D100F003F810BDCE
:101BD0000060014000B587B00020039002907C486F
:101BE000006840F001007A49086000BF784800684A
:101BF00000F002000028F9D07548006840F48030F9
:101C0000734908600520FEF7EFFF724800687249CB
:101C1000884210D96E48006B40F080506C490863D0
:101C20006E48006820F440406C490860084600682F
:101C300040F44040086010E06548006800F400305F
:101C40000290029800B109E00398401C03900398A9
:101C5000B0F5485F01D307B000BDEDE700BF5C48B9
:101C6000006800F4003010B900200290F3E7012072
:101C700002900520FEF7B8FF5948564908605948B8
:101C8000006840F01000574908600846006820F0DE
:101C9000070008604F480068401E5349B0FBF1F050
:101CA000069050480068069901F0070108434D4925
:101CB00008604748406843F6F071884344494860EB
:101CC0000846406840F09000486008464068486018
:101CD000404800684549884206D93D48406840F47C
:101CE000A0603B4948600AE03A48006840498842A1
:101CF00005D93748406840F48060354948606B46F4
:101D000001AA344801683B48FEF729FF3048806C3F
:101D100020F003002E4988640846806C40F00100E2
:101D200088649DF8000000F0070004909DF804000E
:101D300000F07F0005900846006B40F0805008637B
:101D40000846806C2C4908402149886405980004A5
:101D5000049940EA01201E49896C08431C498864A3
:101D60000846006840F08070086000E000BF184836
:101D7000006800F000700028F8D01548406820F096
:101D80000300134948600846406840F0020048607C
:101D900000E000BF0E48406800F00C000828F8D1B1
:101DA0000120FEF721FF0A48406820F01000084992
:101DB00048600120FEF718FF0548406820F08000C9
:101DC000034948600120FEF70FFF00BF43E7000012
:101DD000001002400806002000D8B805007000403E
:101DE000000E27070020024000366E0100A24A04C0
:101DF0000051250200127A00FFF880FF7CB50446EE
:101E00000D4620462946FFF7A7FD194A03C20022C6
:101E1000184B174903C9FEF7C1FC04D2002115482D
:101E2000134AC2E900100022134B114903C9FEF7FF
:101E30009DFC03D2002010490D4A03C20C4903C97E
:101E4000FEF77AFC0D4908600846016822462B46D9
:101E50000BA000F08FFA124803C8CDE90001114829
:101E60000CC811A000F086FA104619467CBD00008F
:101E7000E0050020000049400000384034040040E4
:101E80007A68616E6B6F6E6762693D25640D0AB892
:101E9000FCB8C4BDC7B6C83A25660D0A00000000EC
:101EA000D8050020880000206A697A68756E786914
:101EB000616E3D25660D0A6A69616F64753D256630
:101EC0000D0A000010B51448006840F001001249E6
:101ED000086008464068114908400F4948600846B4
:101EE00000680F4908400C4908600846006820F463
:101EF000802008600846406820F443004860084697
:101F0000006808490840044908604FF41F008860D1
:101F1000FFF748FE10BD0000001002400CC0FFF8A3
:101F2000FFFFF6FEFFFF8F007CB50121880700F060
:101F300033F8C8B10121880700F02AF8FFF7BAF892
:101F40000A4A03C2094803C8CDE9000108480CC881
:101F500008A000F00FFA064804490CC803C9FEF7B0
:101F600037FF0446FFF74AFF7CBD0000D80500207C
:101F700088000020C4BFB1EAB7BDCFF23A25660D94
:101F80000AB5B1C7B0B7BDCFF23A25660D0A000059
:101F900002698A430261704702461069084020B115
:101FA000D068084008B1012070470020FCE700001D
:101FB00008B501210846FFF75BFD072209211248F9
:101FC000FEF7FFFF07220A210F48FEF7FAFF6846D7
:101FD000FFF713F84FF40070ADF8000001208DF802
:101FE00002001C208DF8030069460748FEF794FFA5
:101FF0004FF48060ADF8000048208DF8030069467A
:102000000148FEF789FF08BD0000044010B5022119
:102010000D4800F0B8F8B0B102210B4800F09CF870
:10202000094800F0FBF80446642C04DAA1B2074822
:1020300000F0F8F803E00021044800F0F3F821462E
:1020400003A000F097F910BD00380140004C00409B
:1020500025780D0A0000000000B589B0012148056F
:10206000FFF706FD224801902248029000208DF8DB
:102070000C004FF48070049000208DF81400802034
:102080008DF815000020ADF81600ADF818008DF899
:102090001A004FF40050ADF81C000020ADF81E00EF
:1020A0004FF40040ADF8200001A91348FEF75DFE93
:1020B000012202210E48001F00F056F801220221E1
:1020C0000D48FEF749FE0D208DF8000000208DF828
:1020D00001008DF8020001208DF803006846FFF72B
:1020E00005FC01210448FEF719FE09B000BD0000FF
:1020F00004480040380600203000024008B50121A5
:102100000220FFF7B5FC07220A211248FEF759FF0B
:1021100007220B210F48FEF754FF6846FEF76DFFBC
:102120004FF48060ADF8000001208DF802001C2003
:102130008DF8030069460748FEF7EEFE4FF4006095
:10214000ADF8000048208DF8030069460148FEF70D
:10215000E3FE08BD0004044041617047826922F03B
:1021600001020A4382617047836923F0020343EA54
:1021700042038361704702469068084008B101201D
:1021800070470020FCE70246D068084008B10120F3
:1021900070470020FCE71AB103690B43036102E0BA
:1021A00003698B430361704770B504460D460026F2
:1021B000E06920F0300029790843E061E06920F00F
:1021C0004400A9790843E061E06920F00300297A1E
:1021D0000843E061A06920F0180069890843A06104
:1021E000A06920F00400297B0843A0610A488442CA
:1021F00003D1FFF78DFC064602E0FFF779FC0646A7
:102200002868B6FBF0F0000920622868B6FBF0F001
:1022100000F00F00606270BD003801400146486860
:10222000C0B27047CAB2026070474FF4E13101603A
:102230003021017100218171017218214181002139
:102240000173704710B586B00446FFF7B1FE012157
:102250001020FFF72DFC02A8FFF7E7FF02943020C3
:102260008DF80C0000208DF80E008DF810008DF810
:1022700014001820ADF8120002A90F48FFF794FFD0
:1022800001210D48FFF76AFF012202210A48FFF7EA
:1022900082FF25208DF8040003208DF80500012021
:1022A0008DF8070003208DF8060001210248FFF792
:1022B00055FF06B010BD00000038014010B586B0D3
:1022C0000446FFF71BFF01218804FFF7E1FB02A88A
:1022D000FFF7ABFF029430208DF80C0000208DF842
:1022E0000E008DF810008DF814001820ADF81200C3
:1022F00002A90C48FFF758FF012202210948FFF705
:102300004AFF27208DF8040001208DF805008DF884
:1023100007008DF8060001210248FFF71FFF06B0F5
:1023200010BD00000048004070B504460D46002274
:102330000F4B20462946FEF731FA07D200220C4BFC
:1023400020462946FEF7BBF804460D4600221346F8
:1023500020462946FEF70AFA07D20022044B2046FF
:102360002946FEF70BF804460D462046294670BD67
:10237000008076400FB4054B10B503A9044A0298BB
:1023800000F016FC10BC5DF814FB00009939000841
:102390002C060020490050EAC12018BF04204A0D35
:1023A00018BF40F0010040F2FF72B2EB515F08BF6E
:1023B00040F00200012808BF052070472DE9F74FC3
:1023C000144694B00021C4E902111599079121F037
:1023D0000045C9498D4206DC1599C4E9000117B0D2
:1023E0000020BDE8F08FC549DFF814A3A9423CDD09
:1023F0000799C44E0029C44FC44A1599534619DDA4
:10240000FEF75DF8554506D0C14AC24BFEF757F8B6
:10241000C4E900010AE04FF0D352BE4BFEF74FF87B
:1024200032463B46FEF74BF8C4E9000117B00120E5
:10243000BDE8F08FFDF7A2FF554506D0B44AB54B75
:10244000FDF79CFFC4E900010AE04FF0D352B14B05
:10245000FDF794FF32463B46FDF790FFC4E90001CB
:1024600017B04FF0FF30BDE8F08FAB49A942159986
:1024700078DB21F0004183468846A84AA84BFEF746
:1024800024F80022A74BFDF779FFFEF736F90990F3
:10249000FEF701F906460F469C4A5346FEF715F82B
:1024A00043465A46FEF70EF880468A46984A994BAC
:1024B00030463946FEF709F82A0D01250B924246AF
:1024C0005346FDF7FFFF032DC4E9000139D00B98F7
:1024D000C1F30A51401A05EB45111139814230DA36
:1024E0009148C346784400EB0510CDF80CA00C9041
:1024F000D0E9002330463946FDF7E7FF02460B4698
:102500000491069058460399FDF7D9FF80468A4604
:1025100002460B4658460399FDF7D1FF049B069AE5
:10252000FDF7CDFF83460C9803913946D0E902238D
:102530003046FDF7CAFF5A46039BFDF7C0FF6D1CEE
:10254000BDE707980028A2BF099817B0BDE8F08F33
:10255000616881F000416160099817B04042BDE8B0
:10256000F08FFFE784461598C1F31301C0F30A50BA
:10257000A0F2F5304FEA601800F01F06C6F1200007
:10258000139000200690079041F4801E05206D46B0
:1025900076B1664A08EB00017A4452F8213002EB2A
:1025A0008101B3404A68139922FA01F1194305E009
:1025B0005F4908EB0002794451F82210A1FB0E2775
:1025C000A1FB0C131A449A4234BF0123002303EBEE
:1025D000070A05EB8003D3E901B70F448F4234BFEC
:1025E0000121002193448B4411B1934502D903E0AA
:1025F000934501D2012100E00021C3E901B7514414
:1026000045F82010011EA0F10100C1DC0298059FD1
:1026100000F10050800F12900298DDE9035680000F
:10262000FEF739F8834628460D91FEF745F86FF01E
:102630001D02FEF7D7F9CDE90E013046FEF73CF852
:102640006FF03D02FEF7CEF980468A463846FEF727
:1026500033F86FF05D02FEF7C5F907464246534670
:102660001191FDF78BFEDDE90E23FDF787FE5A463B
:102670000D9BFDF783FE00250E465A4628460D9B0E
:10268000FDF71DFFDDE90E23FDF719FF4246534616
:10269000FDF715FF3A46119BFDF714FFDFF898A0F0
:1026A000244A5346FDF711FF07468846234A244B28
:1026B00031462846FDF709FF3A464346FDF75EFEE0
:1026C000074688464FF0A842534631462846FDF754
:1026D000FCFE3A464346FDF751FE159A12F0004FB4
:1026E00004D0129A81F0004152421292C4E90001D2
:1026F000129817B0BDE8F08FFB21E93F7CD902406A
:10270000FB21F93F7370032E8A19A33B000040544C
:102710003163621A61B4D03DFB21394183C8C96D70
:10272000305FE43F0000E03FE01F00005C1F00005E
:102730003E1F0000182D4454FB21F93D3326A611FD
:10274000460B113C2DE9FF4D21F0004807460C4691
:10275000B8F1795F08DAFDF7D0FF002801BF00204B
:10276000324904B0BDE8F08D3A462346104619467A
:10277000FDF7ABFE054602462D480E460B460621E8
:10278000784400F05DF82A463346FDF79EFEDDE909
:10279000022382468B4638462146FDF796FE0446C4
:1027A0000F4652465B4628463146FDF78EFE2246CE
:1027B0003B46FDF784FE07468A464FF0FF32284627
:1027C0003146FEF70FF91B4A90450ADA3A4653465E
:1027D000FDF775FE04B00022BDE8F04D134BFDF788
:1027E00071BE154A4245A8BFA8F500154FF0000478
:1027F000B8BF124D22462B46FDF761FE06468846BD
:1028000022462B4600200949FDF759FE04460D4695
:102810003A46534630464146FDF751FE04B0224643
:102820002B46BDE8F04DFDF74DBE00000000F03F27
:102830000C1D00003333D33F0000E93F0000D23FBE
:102840002DE9F0414F1E00EBC7010446D1E900011C
:1028500015461E4637F006020DD02A463346FDF7D0
:1028600034FE7F1E04EBC703D3E90023FDF786FD8A
:1028700037F00602F1D1022F25D0042F13D0062FF6
:1028800018BFBDE8F0812A463346FDF71EFED4E9A5
:102890000A23FDF773FD2A463346FDF716FED4E9F9
:1028A0000823FDF76BFD2A463346FDF70EFED4E9FB
:1028B0000623FDF763FD2A463346FDF706FED4E9FD
:1028C0000423FDF75BFD2A463346FDF7FEFDD4E900
:1028D0000223FDF753FD2A463346FDF7F6FDD4E902
:1028E0000023BDE8F041FDF749BD00002DE9FF4D93
:1028F000054621F0004084B00C46B0F1795F0BDA58
:102900002846FFF747FD042808BF00F071F8284665
:1029100008B02146BDE8F08D2A460B461046FDF76B
:10292000D4FD06460F462A462346FDF7CEFD8046D7
:1029300026488A4632463B4605217844FFF780FF09
:1029400083461098029160B3214A224B404651467B
:10295000FDF7BBFDCDE900015A4640465146029BBA
:10296000FDF7B3FD82468846DDE906014FF0FF32F0
:10297000FEF738F852464346FDF7A1FD32463B4686
:10298000FDF7A3FDDDE90623FDF799FDDDE9002351
:10299000FDF795FD08B02A462346BDE8F04DFDF74A
:1029A00091BD0B465A4630463946FDF78EFD084A22
:1029B000084BFDF7E3FC42465346FDF786FD08B0A1
:1029C0002A462346BDE8F04DFDF7D8BC521C000056
:1029D000495555555555C5BF0122FEF703B8FDF7BA
:1029E000CDBC0022134610461146FDF7E0BD0000A5
:1029F000024A00201107FDF7F5BF000001FDFFFFAF
:102A000002E008C8121F08C1002AFAD170477047B7
:102A1000002001E001C1121F002AFBD17047000015
:102A20000149086070470000300600202DE9FF5F73
:102A300082B00021DDE90430020DDDF840B003432F
:102A400018D044F61050A2F2FF32424315141198E8
:102A500001281FD0A5EB0B00401C5FEA000A4FF0D5
:102A600000064E4FDFF83891B046504615D5CAF1F2
:102A7000000413E0119801244AA3012801D16FEA50
:102A80000B010298119AC0E90031C0E9024206B078
:102A9000BDE8F09FCBF10000DFE704460021404A8B
:102AA000491842EB0450CDE9001012E0E00707D0CE
:102AB00032463B4640464946FDF707FD804689467B
:102AC00032463B4610461946FDF7FFFC06460F46C8
:102AD0006410002CEAD1DDE90401DDE90023BAF13C
:102AE000000F06DAFDF7F1FC42464B46FDF7EDFC20
:102AF00005E0FDF75CFD42464B46FDF758FD0446F8
:102B00000E460022284BFDF749FE03D84FF0FF3058
:102B1000014607E00022254B20463146FDF72EFCFA
:102B2000FDF7C8FF102409E0002C0ADB0A2200236D
:102B3000FDF762FE039B30321A55641E50EA010213
:102B4000F2D1641C039AC4F111031444119A012AAE
:102B500003D0012208430DD10AE0084304D000202D
:102B60004FF0110B119072E7A3EB0B056D1E0DE0FA
:102B70005B4504DD4FF0000205F1010504E003DAD6
:102B80004FF00002A5F10105002AECD0029811993E
:102B9000C0E90231C0E9004579E7000000001440B7
:102BA0000000F03F300000000000F0430000E03F74
:102BB0002DE9FF4F95B09B468946064600250FE25A
:102BC000252877D100242746F84A0121059400E002
:102BD000044316F8013F203B01FA03F01042F7D1FD
:102BE00030782A2811D06FF02F033078A0F130020E
:102BF000092A16D8059A44F0020402EB820203EB7C
:102C000042021044761C0590EFE759F8042B059218
:102C1000002A03DA504244F40054059044F00204C0
:102C2000761C30782E2816D116F8010F44F00404D3
:102C30002A280DD06FF02F023078A0F13003092B35
:102C400009D807EB870302EB4303C718761CF3E7A9
:102C500059F8047B761C30786C280FD006DC4C28A1
:102C600017D068280DD06A2814D104E0742810D039
:102C70007A280FD10DE044F400140AE044F48014E3
:102C800001E044F440147278824202D104F58014C9
:102C9000761C761C307866280BD013DC582877D049
:102CA00009DC002875D04528F6D04628F4D04728FE
:102CB0001AD19DE118E0632835D0642879D06528C1
:102CC00012D195E1702873D008DC6728F1D069280B
:102CD0006FD06E280DD06F2806D1B5E073282CD0A8
:102CE000752875D0782874D05A46179990476D1C6E
:102CF00075E1C4F30250022809D003280DD0D9F899
:102D0000001004280DD00D6009F1040967E1D9F81D
:102D10000010EA17C1E90052F6E7D9F800100D805B
:102D2000F2E70D70F0E719F8041B8DF80010002091
:102D30008DF80100EA46012003E059F804AB4FF09A
:102D4000FF3061074FF0000102D40DE008F10101EE
:102D50008846B9420FDA8045F8DB1AF808100029D6
:102D6000F4D108E008F1010188468142FADB1AF843
:102D700008100029F6D105985B46A0EB080721460C
:102D80003846179A00F094FA284400EB080507E04B
:102D90004DE029E10DE01AF8010B5A4617999047CA
:102DA000B8F10108F7D25B4621463846179A13E17D
:102DB00042E00A220092C4F302524FF0000A022AB3
:102DC00008D059F804CB032A4FEAEC710AD00DE081
:102DD00029E02AE009F1070121F00702F2E802C127
:102DE000914609E00FFA8CFC4FEAEC71042A03D1FA
:102DF0004FFA8CFC4FEAEC71002907DA0A460021F1
:102E0000DCF1000C61EB02012D2202E0220504D569
:102E10002B228DF80420012203E0E20701D02022BA
:102E2000F7E7904659E00A2102E010220DE0102158
:102E30004FF0000A00910BE010224FF0000A44F01E
:102E400004040827009203E008224FF0000A0092D1
:102E5000C4F30252022A05D059F804CB0021032AF8
:102E600008D009E009F1070121F00702F2E802C1E8
:102E7000914605E01FFA8CFC042A01D10CF0FF0CEE
:102E80004FF00008220728D5702806D0009B83F059
:102E9000100353EA0A0305D00EE040228DF8042007
:102EA000012208E05CEA010206D030228DF80420FD
:102EB0008DF8050002229046009B83F0080353EA38
:102EC0000A030AD15CEA010201D1620705D530226A
:102ED0008DF804204FF001087F1E582804D034A03C
:102EE00003900EA802900DE036A0F9E75346604625
:102EF000009AFDF781FC84460398825C0298401E8C
:102F0000029002705CEA0100F0D1029806A9081A4A
:102F100000F1200A600702D524F4803400E0012784
:102F2000574502DDA7EB0A0000E0002000EB0A0194
:102F3000009005984144401A0590E00306D45B4692
:102F40002146179A059800F0B3F90544002706E0DA
:102F500001A85A46C05D179990476D1C7F1C4745D4
:102F6000F6DBE0030CD55B462146179A059800F086
:102F70009FF9054404E030205A46179990476D1C8C
:102F80000099481E00900029F5DC08E0029802999B
:102F90005A460078491C0291179990476D1CBAF166
:102FA0000001AAF1010AF1DC65E100000928010035
:102FB00030313233343536373839616263646566AF
:102FC0000000000030313233343536373839414271
:102FD000434445460000000000F058F90544761CC3
:102FE000307800287FF4ECAD19B02846BDE8F08FAA
:102FF000620700D4062709F1070222F0070CFCE85B
:103000000223E14603F000485FEA080C02D00FF209
:10301000702C0DE05FEA045C02D50FF2682C07E02B
:103020005FEAC47C02D00FF2602C01E0AFF2700CBA
:103030004FF0FF3823F00043CDF850C065280CD086
:1030400006DC452809D046281DD047283DD13DE063
:10305000662818D067287ED138E00021112F01DBC7
:10306000112000E0781CCDE9000106A90EA8FFF7A9
:10307000DDFCDDE90F010E9A03910021009207F1BA
:10308000010A04914DE04FF000400097CDE9011096
:1030900006A90EA8FFF7CAFCDDE90F0203920E9BFA
:1030A00011990022DDF80CA00093049211B9791C4B
:1030B00000EB010AB7EB0A0004D4C0F1FF3007F1BE
:1030C000010A0490AAEB0700019044E0012F00DA06
:1030D00001270021112F01DD112000E03846CDE944
:1030E000000106A90EA8FFF7A1FCDDE90F010E9A69
:1030F0000391002104910092BA4621070CD4039950
:10310000514500DA8A46BAF1010F05DD009AAAF1AD
:103110000101515C302908D0B84202DA10F1040FE5
:1031200006DA0121CDE9011015E0AAF10101E9E774
:10313000002805DC049901440491AAEB000102E097
:10314000411C514500DD8A460499401A401C0190FB
:103150004FF000400290200704D40198504501DB55
:10316000CDF8048000208DF84F0002980DF14F0734
:10317000B0F1004F25D02B200E9002984FF002089E
:1031800000280CDA404202902D200E9007E00A2120
:103190000298FDF71BFB3031029007F8011DB8F1D2
:1031A0000001A8F10108F2DC02980028EFD1791E95
:1031B0000E980870307800F0200040F0450007F8C5
:1031C000020D12A8C01B00F107081498007800B186
:1031D000012000EB0A01019801EBE07105984144E0
:1031E000401A401E0590E00306D45B462146179A1C
:1031F000059800F05DF805441498007818B15A4617
:10320000179990476D1CE00324D55B462146179A19
:10321000059800F04DF805441CE00498002807DBF1
:10322000DDE90301884203DD0098405C179901E065
:10323000179930205A469047049805F10105401C23
:1032400004900198401E019004D12E205A461799EF
:1032500090476D1CBAF10001AAF1010ADDDC05E01E
:1032600017F8010B5A46179990476D1CB8F10001E9
:10327000A8F10108F4DC5B462146179A0598ABE6F5
:103280002D0000002B000000200000002DE9F0417F
:10329000044600251E461746880404D405E0394636
:1032A0002020B0476D1C641EF9D52846BDE8F0818A
:1032B0002DE9F041044600251E469046C80301D57D
:1032C000302700E02027880404D505E04146384631
:1032D000B0476D1C641EF9D52846BDE8F08100009A
:1032E0002DE9F04D0546DFF8388221F000408D4F82
:1032F00082B00C46404520DBA0EB080129430BD0EF
:103300008949884201DC10D17DB102B028462146AE
:10331000BDE8F04DFFF760BB002CC7BF00200146A1
:103320008248394602B0BDE8F08D0120FFF778FBF6
:1033300002B0BDE8F04DFFF754BB7D49884244DA46
:103340007C498142A1BF79487B4902B0BDE8F08D3C
:103350002A46234610461946FDF7B7F8834602462B
:1033600076480E460B4606217844FFF769FA5A461E
:103370003346FDF7AAF8074671488A465A4633464F
:1033800004217844FFF75CFA5A463346FDF79DF86E
:1033900000224346FCF7F2FF02460B4638465146F0
:1033A000FDF705F92A462346FDF78FF8654A664B77
:1033B000FDF788F82A462346FDF784F802B05B4AF9
:1033C000BDE8F04D5C4BFDF77DB8002C4FF00002DE
:1033D0004BDA4646434628462146FCF7CFFF4FF0DE
:1033E000FF32FDF7FFFA0446024658480D460B46E9
:1033F00006217844FFF724FA22462B46FDF765F8AC
:10340000804653488A4622462B4604217844FFF7DB
:1034100017FA22462B46FDF758F800223346FCF7F0
:10342000ADFF06468B462046294600F045FB044684
:103430000D4632465B4640465146FDF7B8F82246F7
:103440002B46FDF742F83F4A3F4BFDF738F822463E
:103450002B46FCF793FF0122FDF7C4FA02B03B466E
:10346000BDE8F04D314AFDF72DB82D4B28462146D9
:10347000FDF728F84FF0FF32FDF7B4FA05460E4687
:1034800000F01AFB00270C4680463A460B46FCF734
:1034900075FF82468B463A46234610461946FDF78D
:1034A00014F82A463346FDF70DF852465B46FDF701
:1034B0007EF8824627488B462A46334606217844C2
:1034C000FFF7BEF92A463346FCF7FFFFCDE90001BE
:1034D00021482A46334604217844FFF7B1F92A46A9
:1034E0003346FCF7F2FF00220D4BFCF747FF024684
:1034F0000B46DDE90001FDF75AF842462346FCF78A
:10350000E4FF52465B46FCF739FF3A462346FCF798
:1035100035FF02B00122BDE8F04DFDF763BA0000AF
:103520000000F03FFB2109400000F07F182D4454BB
:103530000000E03F0000603CFB21F93F3C10000030
:1035400052100000075C143326A6913CB20F000015
:10355000C80F0000E60E0000FC0E00002DE9F84F39
:1035600004460D4621F0004000917349814211DC70
:103570007249884201DC06D12CB120462946BDE8BB
:10358000F84FFFF729BA6E48002DCCBF6D496E4940
:10359000BDE8F88F6D49814211DD6D498142D8BF88
:1035A0004FF0FF366DDD20462946FEF7F3FE042876
:1035B00008BFFFF71DFA20462946BDE8F88F654988
:1035C000654F25F00045814233DD6449814219DDB4
:1035D000002632464FF0804320462946FCF7CEFEB7
:1035E00080468A46012220462946FDF7FBF9002243
:1035F0003B46FCF764FF42465346FCF7D8FF0446BF
:103600000D463EE001260022BA463B4620462946AA
:10361000FCF7B4FE80460F4600225346204629465A
:10362000FCF74DFF42463B46FCF7C1FF04460D4602
:1036300027E04B4981421BDDDFF828A1022600224A
:10364000534620462946FCF740FF00223B46FCF744
:1036500095FE80460F460022534620462946FCF739
:103660002EFF42463B46FCF7A2FF04460D4608E00B
:10367000032622462B4600203B49FCF798FF0446D0
:103680000D4622462B4610461946FCF71EFF8B4678
:10369000824602460B46FCF718FF074602463348AF
:1036A00088460B4606217844FFF7CAF852465B4627
:1036B000FCF70BFF82462E488B463A4643460521CF
:1036C0007844FFF7BDF83A464346FCF7FEFE024653
:1036D0000B46002E504659460CDAFCF74FFE2246A8
:1036E0002B46FCF7F2FE01B022462B46BDE8F04F18
:1036F000FCF7E8BEFCF742FE22462B46FCF7E5FE4F
:103700001C4A7A4402EBC603D3E90023FCF7D7FE38
:1037100022462B46FCF7D3FE174A7A4402EBC60337
:10372000D3E90023FCF7CEFE009A002AB8BF81F04F
:103730000041BDE8F88F0000000010440000F07F59
:10374000182D4454FB21F93FFB21F9BF0000DC3F59
:103750000000203E0000F33F0000F03F0000E63F85
:10376000008003400000F83F0000F0BFB60D0000ED
:10377000740D0000120D0000DA0C00002DE9F04D70
:103780009446CCF1000423F000464CEA0404524F66
:1037900046EAD4749A46884621F00042BC4206D8D4
:1037A000454240EA050442EAD474BC4204D9BDE86B
:1037B000F04D6246FFF713B9AAF14055A5F17F65B8
:1037C00055EA0C040BD0022404EAAA74434DDFF836
:1037D00010E144EAD87452EA000B04D00CE0BDE8D2
:1037E000F04DFFF7BBBE002C14BF012CBDE8F08DDF
:1037F000022C30D0032C32D056EA0C0B0AD0BE4239
:1038000020D1BA4209D126F0804622F080423346C8
:10381000114617E000291ADB25E0DFF8C8B0FB44A9
:10382000002C04BFDBE90001BDE8F08D012C02BFD4
:10383000DBE9000181F00041BDE8F08D022C0AD0E7
:10384000032C0CD0BA4212D1B8F1000F0BDA234886
:103850002549BDE8F08D28462449BDE8F08D28466D
:103860007146BDE8F08D1D482149BDE8F08D921BE1
:1038700012153C2AC4BF19481D490EDCBAF1000FCD
:10388000BEBF12F13C0F0020014606DB6246FCF78A
:103890008EFE21F00041FFF761FE002C08BFBDE85D
:1038A000F08D012C04BF81F00041BDE8F08D114A7C
:1038B000114B022C07D0FCF702FE2A46BDE8F04D62
:1038C0000A4BFCF7FCBDFCF7FAFD2A46BDE8F04DBB
:1038D000064BFCF7F7BD00000000F07F182D4454A4
:1038E000FB2109C09E0C0000FB21F9BFFB21094010
:1038F000FB21F93F075C143326A6A13C00B5244BFD
:1039000021F0004287B09A42DCBF0022134629DD35
:10391000204B9A4208D140B94FF00100FFF780F8E0
:10392000FFF75FF807B000BD03DBFFF755F807B0FE
:1039300000BD02AAFEF742FD10F0030104BF0DF125
:10394000080C9CE80F000DD0012001290ED002299F
:1039500014D00DF1080C00909CE80F00FEF7C6FF94
:1039600007B000BDFEF7EEFE07B000BD0DF1080C7C
:1039700000909CE80F00FEF7B9FF05E00DF1080C80
:103980009CE80F00FEF7DEFE07B081F0004100BDAD
:10399000FB21E93F0000F07F70B504460D46E1B21F
:1039A0000548FEF73FFC00BF08210348FEF7E3FB94
:1039B0000028F9D0204670BD00380140FDF798FD81
:1039C00001E0FDF7A3FDFCE72DE9FF5F04460D468E
:1039D00016461F4632463B4620462946FFF7CEFE96
:1039E000804600220A4BFCF770FD824609480CC84D
:1039F0005046FCF7DCFD0022054BCDE90001FCF749
:103A0000BDFCCDE90201DDE9020104B0BDE8F09F93
:103A1000008066405800002000B5254B21F0004290
:103A200087B09A4203DC0022134600922BE0214B20
:103A30009A4208D140B94FF00100FEF7F1FFFEF7BE
:103A4000D0FF07B000BD03DBFEF7C6FF07B000BD27
:103A500002AAFEF7B3FC10F003014FF001000DD0F5
:103A6000012914D002291AD00DF1080C9CE80F008E
:103A7000FEF768FE07B081F0004100BD0DF1080CB3
:103A800000909CE80F00FEF731FF07B000BD0DF17C
:103A9000080C9CE80F00FEF755FE07B000BD0DF1C5
:103AA000080C00909CE80F00FEF720FFE2E7000002
:103AB000FB21E93F0000F07F2DE9F04106460F466B
:103AC000FCF7A7FF041E0D4618BF0120284320F075
:103AD0000040C0F17F6000F1E040C00F0ED0301C0C
:103AE00018BF0120384320F00040C0F17F6000F192
:103AF000E040C00F04BF0120FEF792FF2046294698
:103B0000BDE8F0812DE9FF4124482549096800EB13
:103B1000011030C821482249096800EB0110D0E9A2
:103B2000026720488DE8F0001F490CC803C9FDF763
:103B30007FF91E4A03C200221D4B1C4903C9FCF732
:103B40002DFE07D200221A4B184903C9FCF7B7FC17
:103B5000164A03C200221346144903C9FCF706FEA5
:103B600007D20022124B114903C9FCF707FC0F4A88
:103B700003C200220F4B0D4903C9FCF7F7FD0AD21F
:103B800000220D4B094903C9FCF708FE03D20120AE
:103B900004B0BDE8F0810020FAE70000B00000208A
:103BA000A8000020A0000020980000209000002025
:103BB0000080764000E07040008056402DE9F04FD4
:103BC00091B004460D4616461F4625F00040CDE94B
:103BD0000A4020460B99FFF76FFF8246934A944BA9
:103BE000FCF773FC914A934BCDE90E012046294620
:103BF000FCF76BFC824632463B46FCF766FC3246DD
:103C00003B46CDE90A0189488949FCF75EFC8246BA
:103C100032463B46FCF759FC32463B46CDE90601AD
:103C200000208549FCF751FC00224FF08043CDE98C
:103C3000020120462946FCF748FC824600227F4BC1
:103C4000FCF79CFBCDE90001DDE90223FCF796FBC4
:103C5000CDE90401DDE90623FCF790FBCDE908017D
:103C6000DDE90A23FCF78AFBCDE90C01DDE90E232F
:103C7000FCF784FB8046894600224FF080432046B3
:103C80002946FCF722FC82466D480CC85046FCF7DA
:103C90001CFCCDE90201FFF7BFFE0022694BCDE914
:103CA0000401FCF712FC0022674BCDE90801204615
:103CB0002946FCF70AFC824661480CC85046FCF7CE
:103CC00004FCCDE90201FFF7A7FE00225D4BCDE920
:103CD0000401FCF7FAFBCDE90601DDE90823FCF756
:103CE0004DFB00224FF08043CDE90A01FCF7EDFBCC
:103CF0000022514BCDE90C01FCF759FC42464B46E2
:103D0000CDE90E01FCF73AFB8046894600224A4B7A
:103D100030463946FCF74BFC824649480CC85046B1
:103D2000FCF7D3FBCDE90201FFF776FE0022474BFB
:103D3000CDE90401FCF7C9FBCDE9080140480CC8F6
:103D400030463946FCF7C1FBCDE90401FFF764FEBC
:103D5000824600223B4BFCF7B8FBCDE90601DDE9CA
:103D60000823FCF70BFB00224FF08043CDE90A014A
:103D7000FCF7ABFB0022304BCDE90C01FCF717FC44
:103D800042464B46CDE90E01FCF7F8FA80468946DB
:103D90002B480CC830463946FCF797FB8246002278
:103DA0002B4BFCF704FCCDE90201FFF735FE0022A6
:103DB000284BCDE90401FCF788FB0022264BCDE916
:103DC000080130463946FCF7F2FB82461C480CC815
:103DD0005046FCF77AFBCDE90201FFF71DFE0022F9
:103DE0001E4BCDE90401FCF770FBCDE90601DDE9CE
:103DF0000823FCF7C3FA00224FF08043CDE90A0103
:103E0000FCF763FB00220C4BCDE90C01FCF7CFFB68
:103E100042464B46CDE90E01FCF7B0FA8046894692
:103E20004046494611B0BDE8F08F00009A99999933
:103E30009999C93F9999B93F00000840000059C0BD
:103E40007000002000003440000018400000444092
:103E500000003E4000007440000028400000644024
:103E60002DE9F04F8FB004460D469046994625F057
:103E70000040CDE9084020460999FFF71DFE824623
:103E8000914A924BFCF721FB8F4A904BCDE90C01F4
:103E900020462946FCF719FB824642464B46FCF772
:103EA00014FB894A894BCDE9080120462946FCF7D5
:103EB0000CFB824622462B46FCF707FB42464B464C
:103EC000CDE9040100204FF08041FCF7FEFA824664
:103ED0008B4600227E4B20462946FCF74FFA52467D
:103EE0005B46CDE90001FCF749FACDE90201DDE9C5
:103EF0000423FCF743FACDE90601DDE90823FCF7CA
:103F00003DFACDE90A01DDE90C23FCF737FA064654
:103F10000F4600224FF0804320462946FCF7D5FA91
:103F2000CDE900016B480CC80098FCF7CEFA824638
:103F3000FFF772FD0022684BCDE90201FCF7C5FADC
:103F40000022664BCDE9060120462946FCF7BDFA62
:103F5000824660480CC85046FCF7B7FACDE900012C
:103F6000FFF75AFD00225C4BCDE90201FCF7ADFAE8
:103F7000CDE90401DDE90623FCF700FA00224FF049
:103F80008043CDE90801FCF7A0FA0022544BCDE9AB
:103F90000A01FCF70CFB32463B46CDE90C01FCF76D
:103FA000EDF906460F4600224D4B20462946FCF708
:103FB000FEFA824647480CC85046FCF786FACDE91F
:103FC0000001FFF729FD0022464BCDE90201FCF775
:103FD0007CFACDE906013F480CC820462946FCF78B
:103FE00074FACDE90201FFF717FD824600223A4B31
:103FF000FCF76BFACDE90401DDE90623FCF7BEF915
:1040000000224FF08043CDE90801FCF75EFA002260
:10401000334BCDE90A01FCF7CAFA32463B46CDE9FB
:104020000C01FCF7ABF906460F4600222E4B20464A
:104030002946FCF7BCFACDE9000126480CC80098D7
:10404000FCF743FACDE90201FFF7E6FC82460022C5
:104050001F4BFCF73AFA0022244BCDE9060120461B
:104060002946FCF7A4FA82461A480CC85046FCF7C9
:104070002CFACDE90001FFF7CFFC00221C4BCDE963
:104080000201FCF722FACDE90401DDE90623FCF781
:1040900075F900224FF08043CDE90801FCF715FACD
:1040A00000220F4BCDE90A01FCF781FA32463B466C
:1040B000CDE90C01FCF762F906460F463046394659
:1040C0000FB0BDE8F08F00009A9999999999B93F7E
:1040D00000C0724070000020000034400000184012
:1040E000000008400000444000003E40000028401E
:1040F00000C062402DE9F04F93B006460F461446CB
:104100001D460022634B20462946FCF7D8F90022C1
:10411000614BCDE90A0130463946FCF7D0F9CDE9CB
:104120000801DDE90A23FFF749FD82468B4600229C
:10413000584B20462946FCF7C2F90022564BCDE9E0
:104140000A0130463946FCF7BAF9CDE90801DDE944
:104150000A23FFF785FECDE9100100224F4B2046D0
:104160002946FCF724FACDE90A014D480CC80A9803
:10417000FCF7ABF9CDE90E01DDE90E01FFF74CFCD0
:104180008046894642464B46464903C9FCF79DF99D
:1041900042464B46CDE90801FCF797F90022424B15
:1041A000CDE90A01FCF78EF980468946404649462A
:1041B000FFF782FCCDE90C0140464946DDE90C23BE
:1041C000FCF783F9CDE9040136480CC800203649D4
:1041D000FCF775F9CDE9000134480CC80098FCF7EC
:1041E00074F9CDE90201DDE90423FCF7E0F9CDE93A
:1041F00006012B480CC80698FCF767F90022274BEC
:10420000CDE90A0150465946FCF75FF9CDE90801AE
:10421000DDE90A23FCF7CBF982468B46DDE90E0186
:10422000FFF76CFBCDE904012049DDE90C2303C94C
:10423000FCF7BDF9CDE90201DDE90423FCF745F9FE
:10424000CDE9060116480CC80698FCF73EF9002295
:10425000124BCDE90A01DDE91001FCF736F9CDE991
:104260000801DDE90A23FCF7A2F9CDE91001524665
:104270005B4620462946FCF781F80D4A03C23046CA
:104280003946DDE91023FCF779F80A4A03C213B076
:10429000BDE8F08F0080414000405A4000806640F9
:1042A00070000020800000200000F03F7800002017
:1042B000A0000020980000202DE9F04F95B00446A2
:1042C0000D4616461F46DDE920ABDDE91E89524644
:1042D0005B4650465946FCF7F8F842464B46CDE956
:1042E000020140464946FCF7F0F8CDE90001DDE95E
:1042F0000223FCF743F8CDE90401FFF7DDFB32466A
:104300003B46CDE9080130463946FCF7DEF8224647
:104310002B46CDE9020120462946FCF7D6F8CDE927
:104320000001DDE90223FCF729F8CDE90401FFF7DC
:10433000C3FBCDE90601DDE90823FCF7C6F85246C8
:104340005B46CDE90C0130463946FCF7BEF84246E3
:104350004B46CDE9080120462946FCF7B6F8CDE9E1
:104360000601DDE90823FCF709F8CDE90A01DDE9DA
:104370000C23FCF71CF9CDE90E01FEF7B1FF00227A
:10438000074BCDE91001FCF7A0F8CDE91201054873
:104390000CC81298FCF70BF915B0BDE8F08F0000BF
:1043A00000806640C8050020555555555555C53FF8
:1043B0007D6FEB0312D6D4BF5544880E55C1C93F5B
:1043C0003B8F68B52882A4BF88B20175E0EF493FF2
:1043D00009F7FD0DE13D023F4B2D8A1C273A03C032
:1043E000C88A599CE52A004059018D1B6C06E6BF1E
:1043F00082922EB1C5B8B33F4FBB610567ACDD3FBC
:10440000182D4454FB21E93F9BF681D20B73EF3FFB
:10441000182D4454FB21F93FE2652F227F2B7A3C73
:10442000075C143326A6813CBDCBF07A8807703C2C
:10443000075C143326A6913CC4EB98999999C9BF9F
:10444000711623FEC671BCBF6D9A74AFF2B0B3BFD4
:104450009AFDDE522DDEADBF2F6C6A2C44B4A2BF94
:104460000D5555555555D53FFF8300922449C23F00
:104470006E204CC5CD45B73F513DD0A0660DB13F34
:10448000EB0D76244B7BA93F11DA22E33AAD903F46
:104490004C5555555555A53F7751C1166CC156BF62
:1044A0009015CB19A001FA3EAD529C804F7E92BE72
:1044B000C4B1B4BD9EEE213ED43888BEE9FAA8BD91
:1044C000000000000000000000004054FB21F93F04
:1044D0003163621A61B4D03D0000601A61B4D03D0E
:1044E0007370032E8A19A33B0000002E8A19A33B88
:1044F000C14920259A837B3900000000000000009C
:104500006E83F9A22915444ED15727FCC0DD34F53E
:10451000999562DB4190433CAB6351FE61C5BBDEC4
:104520003A6E24B7E0D24D42EA2E49061C92D109D8
:104530001CEB1DFE3EA729B1F53582E88444BB2E55
:1045400026709CE9417E5FB439D69139F4395383A2
:104550008B5F849C3B28F9BDFF97F81F0F9805DE01
:104560008B112FEF1F6D0A5ACF7E366DB709CB27FF
:10457000663F464F2DEA5F9EC7BA27757BF1E5EB94
:10458000F739073DEA92528AB15FFB6B085D8D1FD8
:10459000A6F810111111813FD561C119A0012ABFE0
:1045A0007DFEB157E31DC73EEB9C2B8AE6E55ABE64
:1045B0007CD5CF5A3AD9E53DD84500080000002007
:1045C00034060000080B00083C47000834060020B1
:1045D0008C060000102A0008011A023D0180094AD9
:1045E000D8124DFB210940580D5E04C777102E4AA2
:1045F00040182D445418000E2040C15458410BEF70
:1046000080AF8F6A7B3F298E320B181627BD6F7CD7
:10461000ED195C4088F546AD304B41402EAEF19926
:10462000EC101E923B6C2233101E280B5F5FEB10C8
:104630001E97900F7A36101E2368CC24EA101EF5C0
:1046400030B43A39101EA77A32FFE8101E280AF457
:10465000893C101E306475ABE7101EEB6F09C03F3C
:10466000101E1956F146E6101ECCEEC9C342101EAC
:104670001A8A3BDEE4101ED0436D1B46101E1BBE83
:104680008575E3101E69E21DE049101E923CD7F7C4
:10469000E1101E43705CC64D101E9947FE60E0108D
:1046A0001ECAA31B61511001FF01FF017232F132DA
:1046B000D9320632017203B2F032FA0A1D0F2C729F
:1046C0000232FC0A1D132C720432FE0A1D172C72D2
:1046D00040323A0A1D8F2C7220321A0A1D4F2C725A
:1046E0000729180A1D1D2C720532FF0A21192C29D1
:1046F000146988A92C3242B2149A0A5CF2643260BE
:10470000B2EA9AD0B441F2C832B8DAED709A408C6D
:104710002908324872222808182D4454FB21092305
:1047200001130A154018B17B0E278F680901020397
:0C47300004060708090CA9104100000055
:04000005080001915D
:00000001FF
