:020000040800F2
:1000000028040020C9000008FB000008FD000008CB
:10001000FF000008010100080301000800000000C3
:1000200000000000000000000000000005010008C2
:100030000701000800000000090100080B0100088A
:100040000D0100080D0100080D0100080D01000858
:100050000D0100080D0100080D0100080D01000848
:100060000D0100080D0100080D0100080D01000838
:100070000D0100080D0100080D0100080D01000828
:100080000D0100080D0100080D0100080D01000818
:100090000D0100080D0100080D0100080D01000808
:1000A0000D0100080D0100080D0100080D010008F8
:1000B0000D0100080348854600F0E0FA00480047BB
:1000C0000118000828040020114880F3088811480E
:1000D0000168090E104A9142FFD110481049016091
:1000E00010481149016011480F4901600B4810493F
:1000F00001601048804710480047FEE7FEE7FEE732
:10010000FEE7FEE7FEE7FEE7FEE7FEE7FEE70000AC
:1001100028040020040000001F0000001C10024002
:100120000000000418680040120000001C68004035
:1001300000000000690C0008B500000830B50B464F
:10014000014600202022012409E00D46D5409D42B1
:1001500005D31D469540491B254695404019154637
:10016000521E002DF1DC30BDF0B507460846584060
:1001700087B0C00F049048000E4659004008490857
:10018000BC1A884105D2384631461E4617460B46F2
:1001900002465800400810434CD0300D03904005F3
:1001A0005900400D490D0590401A0290402872DA1E
:1001B00018030121000B09050843019004980092DF
:1001C000002805D0019952420020884100920190F8
:1001D000029840210A1A0199009800F09BF90546FF
:1001E0000C466B4607CB00F0B6F9C0197141039A73
:1001F0000E0D0023D71756401A467A40164344D0B6
:10020000049A002A2DD0029A012A039A15DC1205BD
:10021000C01A914101263605001C7141D20F059E7E
:10022000D2070093019202962A46234600F0B3F9C2
:1002300007B0F0BD38463146FAE71605224A0F46A8
:10024000B218C01AB74101210905001C4F4100181E
:100250007F41114618187941E20F10436D1964412E
:1002600013E0E2076D0815436408C2071443039ABC
:1002700001261205C01A91413605001C7141CE07B6
:10028000400830434908C01851412A46234600F02F
:1002900075F9CDE7FFE7049801224000C117121A53
:1002A00000238B4104983146C417381AA141EEE768
:1002B00030B40124E407634030BC55E730B4012476
:1002C000E407614030BC4FE70000E0FFF0B51FB429
:1002D00088B00B990998002448400999C00F49003B
:1002E00049080991C0070B990090490049080B91F2
:1002F00009990898A64608431CD00B990A98084308
:1003000018D0099801244000420D4800410D099879
:1003100024050003000B204309900B980003000BF9
:1003200020430B9050181C4940180022019014469D
:10033000104605E0002001460DB0F0BD032801DAAB
:10034000034600E003239C46C11A0AAE0AE05F00A0
:1003500008ADED5B4F00F75B7D430027AA187C4199
:10036000491C5B1E6145F2DD410004AB5A52210479
:10037000120C0A43240C401C0828DFDB0198029071
:100380000099704601910090059B049A0799069880
:1003900000F001F9D0E700000DFCFFFFF0B50C46BE
:1003A0005C4085B0E40FE40703944C000026640829
:1003B00059009446490802460296224321D06246DB
:1003C0000A431ED06200570D4A000E032303550D49
:1003D000012402462C492405781B1B0B360B4018C0
:1003E00023432643614600901C46501AB44103D370
:1003F0000098401C009002E0921800985B41002891
:1004000003DA0020014605B0F0BD002001210905F6
:100410000746864611E064461D46141BB54106D3C7
:100420006546521BB341744607430C43A646CD07AD
:1004300040084908284392185B4105460D43EAD11C
:100440001046184313D06046194650407140084387
:1004500006D06046101AB34106D20122002306E0FE
:1004600000220123DB0702E00122D243531000984F
:1004700074460105381C6141029C039D00196941C5
:1004800000F07CF8BFE70000FD03000010B5002974
:1004900004DB0124E40740428C412146002B04DBAD
:1004A0001C460123DB075242A341994200D19042EE
:1004B00010BD0000F0B51FB40646002082B005460E
:1004C0004024019100901BE0019922460F463046DE
:1004D00000F030F8049A059B801A994110D3104619
:1004E0001946224600F016F8361A8F410197224627
:1004F00001200021009F00F00DF838184D410090B8
:100500002046641E0028DFDC019B00982946324605
:1005100007B0F0BD10B5202A04DB0146203A914017
:10052000002010BD914020239C1A0346E34019434C
:10053000904010BD10B5202A04DB0846203AD04078
:10054000002110BD0B46D340D0402024A21A914078
:100550000843194610BD10B5202A06DBCB17084604
:10056000203A1041C1170B4306E00B461341D0401F
:100570002024A21A91400843194610BD10B5002B43
:1005800008DA0024401C614192185B411A4301D1F2
:100590004008400010BDF0B51FB482B005460C0005
:1005A00003D0084600F0A2FC02E000F09FFC2030DF
:1005B0000246009021462846FFF7ACFF049B059AAF
:1005C00004460F4618431143084314D018461043FD
:1005D0001BD0009840210A1A18460599FFF7AAFF78
:1005E00005460E46009A05990498FFF793FF0843C5
:1005F00005D0012004E02046394607B0F0BD0020B8
:10060000C11705430E432C43374300990E986305E9
:10061000401A7905E40A00220C43FD0A0A3002D58B
:1006200000200146E9E70105101969410C9C0D9D68
:1006300000196941FFF7A2FFDFE700004A00090344
:100640000123090B1B0519430A4B10B5520D9A42A1
:1006500002DA0020014610BD064B34339A4203DC17
:100660009A1AFFF767FF10BD034BD218FFF752FF2E
:1006700010BD0000FF030000CDFBFFFF064C01256D
:10068000064E05E0E36807CC2B430C3C984710343A
:10069000B442F7D3FFF712FD2818000848180008E5
:1006A000FFB583B00C46029400200190002726E09D
:1006B00000261CE0721C039951430846791CFFF781
:1006C0003DFD0546A54201D9281B00E0601B0546FB
:1006D0000298A84204D902950598067006980770FA
:1006E0000298002802D10120019002E0761C402EE1
:1006F000E0D300BF0198002800D002E07F1C042F47
:10070000D6D300BF029807B0F0BDFCB50246002565
:10071000002601960020002300240096CE7835079D
:100720002D0FCE7810273E40002E01D08E78354315
:100730000E78002E27D01468002021E00126864084
:1007400033460E881E400196019E9E4217D18300BB
:100750000F269E4000962746009EB7433C462E46F5
:100760009E403443CE78282E03D101268640566120
:1007700005E0CE78482E02D1012686401661401C45
:100780000828DBD314600E88FF2E2CDD546800206F
:1007900026E0064608360127B7403B460E881E4035
:1007A0000196019E9E421AD183000F269E4000961C
:1007B0002746009EB7433C462E469E403443CE78A3
:1007C000282E04D1064608360127B7405761CE7857
:1007D000482E04D1064608360127B7401761401C51
:1007E0000828D6D35460FCBDF0B5002300244D0783
:1007F000EE0E1546B5402B46CD10002D0BD1056AE7
:100800004E07F70E0F26BE40B5430562056A1D432D
:100810002C4604620AE0456A4E07F70E0F26BE40DA
:10082000B5434562456A1D432C464462F0BD002134
:10083000C9430180022181700421C170704700000A
:1008400000B585B00121480400F0D4F801218803E7
:1008500000F0E0F818216846C174012149020182C4
:100860000321817404A90920C006FFF74EFF04216B
:100870006846C1740902018204A90920C006FFF775
:1008800044FF01220921C806FFF7AEFF01220A2119
:100890000920C006FFF7A8FFE120400200900021D8
:1008A000684681811821418100210181C180302168
:1008B00081806946044800F0CBFA0121024800F02B
:1008C000B9FA05B000BD00000038014000B585B0A0
:1008D0000121480400F08EF80121480400F09AF844
:1008E00018216846C174042101820321817404A97E
:1008F0000920C006FFF709FF04216846C1740821DA
:10090000018204A90920C006FFF7FFFE012202218F
:100910000920C006FFF768FF012203210920C00655
:10092000FFF762FFE12040020090002168468181CC
:100930001821418100210181C180302181806946D7
:10094000044800F085FA0121024800F073FA05B06E
:1009500000BD00000044004008B50121880400F0FB
:1009600049F8022208210948FFF73EFF6846FFF7D1
:100970005EFFFF210131684601800321817018214B
:10098000C17069460148FFF7C0FE08BD0004004879
:1009900030B589B004460D46FFF7DEFF0121C802DD
:1009A00000F038F80694681E049000200790059027
:1009B00004A90F4800F000FA602168460180182160
:1009C000C18002210181012141806946084800F06F
:1009D00099F90821064800F0E1F90121044800F0E6
:1009E00075F90121024800F07FF909B030BD00001F
:1009F000002C0140002905D0054A52690243044BEE
:100A00005A6104E0024A52698243014B5A617047BD
:100A100000100240002905D0054A92690243044BA8
:100A20009A6104E0024A92698243014B9A617047DD
:100A300000100240FEB5044600250026002001906B
:100A400000900027344840680C2108400546042DDA
:100A500002D1324820603BE0082D32D12E48006898
:100A6000800E461C2C480068072109050840000D2F
:100A7000401C019028484068690308400090009895
:100A8000002807D12649714308460199FFF756FB14
:100A900020601DE0204840680121490408400028EA
:100AA00007D02049714308460199FFF747FB2060B2
:100AB0000EE01A49714308460199FFF73FFB206099
:100AC00006E00C2D02D11848206001E01348206098
:100AD00011484068F021084005462D091348475D3C
:100AE0002068F84060600C4840680721090208400F
:100AF00005462D0A0D48475D6068F840A06006482D
:100B00004068C90008400546ED0A0848475D60682E
:100B1000F840E060FEBD00000010024000127A00C4
:100B2000001BB70000093D00409C0000140000209D
:100B300010B500F001F810BD1CB544480068012153
:100B400008434249086000BF40480068022108404D
:100B50000028F9D03E483F4908603F48006810210E
:100B600008433D49086008460068C008C0000860A6
:100B700038490968481E3949FFF7E0FA0446364803
:100B80000068204334490860304840682F49486075
:100B90000846406848602F4800683149884207D9B4
:100BA0002A4840680121890208432849486006E034
:100BB00026484068012189020843244948602348A7
:100BC00040680321090488432049486008460068BA
:100BD0000003000B08606B4601AA1E48016821480B
:100BE000FFF75EFD194800680003000B1749086015
:100BF0006946087980060978090508431349096898
:100C000008431249086008460068012109060843A4
:100C10000E49086000BF0D480068012149060840E0
:100C20000028F8D0094840688008800007494860DB
:100C300008464068022108430449486000BF034851
:100C400040680C2108400828F9D11CBD0010024062
:100C500000D8B805000000200020024000366E01D8
:100C600000512502001BB70010B51548006801218E
:100C70000843134908600846406812490840104973
:100C8000486008460068104908400D490860084659
:100C900000680121890488430949086008464068C2
:100CA0007F2109048843064948600846006800031C
:100CB000000B08609F2000048860FFF739FF10BD1B
:100CC000001002400000FFF0FFFFF6FE002904D0F4
:100CD000026880231A43026003E00268014B1A4055
:100CE000026070477FFF0000002904D002680123E2
:100CF0001A43026003E00268014B1A400260704729
:100D0000FEFF000070B5002400220023056A1D4E7E
:100D100035400562056AAAB24568ABB28569ACB2D6
:100D2000184D6F3D2C40B51E2C400D882C43751E70
:100D30002A400D892A434D882A43134DA84208D0E2
:100D4000124DA84205D0124DA84202D0114DA84222
:100D500012D10C4DED1F2A404D892A43094DED1E3D
:100D60002A408D882A43074DFF3D2B400A4D2B40DA
:100D70008D892B43CD892B4343608461CD884563A6
:100D8000026270BDFEFF0000002C014000440140E3
:100D90000048014000080140FFFD00000A46002114
:100DA000836999B2034B19400B461343194681617D
:100DB00070470000F7FF0000002203689AB2164B4C
:100DC000984209D001239B07984205D0134B9842C3
:100DD00002D0134B984204D1124B1A408B88134314
:100DE0009AB2114B1A408B8913439AB202608B68F6
:100DF000C3620B688362084B984208D0084B984244
:100E000005D00A4B984202D0094B984201D10B7C85
:100E10000363012343617047002C0140000400403C
:100E2000000801408FFF0000FFFC0000004401406B
:100E300000480140002904D0826901231A438261DD
:100E400003E08269014B1A4082617047FEFF000097
:100E5000F0B587B004460D460026002006900590A8
:100E600000272746E669FF21D031304688430646F1
:100E7000A888E9880843298908430643E661A669EA
:100E800076097601A889698908430643A66101A805
:100E9000FFF7D0FD0C48874202D10398069001E08D
:100EA0000498069029680698FFF748F9060929680A
:100EB0000698FFF743F90007000F05902662059892
:100EC000606207B0F0BD0000004400400FB410B5F0
:100ED00003A9044B044A029800F0E8F810BC08BCCF
:100EE00004B01847E5170008240000202021020C58
:100EF00001D010211046020A01D01046083902091B
:100F000001D01046091F820801D01046891E4208F0
:100F100001D0881E7047081A704702E008C8121FE7
:100F200008C1002AFAD170477047002001E001C1D2
:100F3000121F002AFBD17047F0B51FB486B0099884
:100F4000089A030D0021024314D05148514A181841
:100F5000504305141198012810981AD0281A401CE3
:100F600000264D4F4D49009601910490002812DA59
:100F7000444211E01198012449A3012801D110989D
:100F8000C1430698119A84600360C26041600BB04F
:100F9000F0BD4042E4E70446210500203F4A001C22
:100FA00051410391029012E0E00707D032463B46E0
:100FB00001990098FFF78AF90191009032463B466B
:100FC00010461946FFF782F906460F466410002CBA
:100FD000EAD10498039B0028029A0999089806DA36
:100FE000FFF774F9019B009AFFF770F905E0FFF72E
:100FF000D5F9019B009AFFF7D1F904460E4600226D
:10100000284BFFF743FA03D80020C043014607E00E
:101010000022254B20463146FFF7A6F8FFF70EFBCE
:10102000102409E0002C0ADB0A220023FFF742FA11
:10103000079B30321A55641E02460A43F2D1112230
:10104000641C079B121B1C19119B012B03D001234D
:1010500008430ED10AE0084304D01120109000206C
:10106000119077E71098151A6D1E0BE010988242C8
:1010700002DD00236D1C03E0824201DA00236D1EB5
:10108000002BEED0069811998260C16030C07EE7D7
:1010900001FCFFFF104D0000000014400000F03F75
:1010A000300000000000F0430000E03FFFB597B0C3
:1010B0000646002518E2252877D100242746FD4959
:1010C000049400E00443761C32780120203A9040DA
:1010D0000842F7D130782A280ED002223078014613
:1010E0003039092916D804990A2359433039401850
:1010F0001443761C0490F1E7189802C804911890E4
:10110000002904DA012040030443484204900220ED
:101110000443761C30782E2814D1042004437078C0
:10112000761C2A2809D11898761C80C8189009E0E6
:101130000A214F43303FC719761C307801463039B9
:101140000929F5D930786C2810D006DC4C281AD043
:1011500068280ED06A2817D104E0742813D07A28A2
:1011600012D110E00120400504430CE001210905E3
:1011700001E0032109050C437178814203D101206C
:1011800000052418761C761C3078119066280BD048
:1011900013DC58287DD009DC00287BD04528F6D008
:1011A0004628F4D047281AD1A5E118E0632835D0A5
:1011B000642870D0652812D19DE170286CD008DCBD
:1011C0006728F1D069287BD06E280DD06F2806D112
:1011D000BAE073282ED0752871D0782859D01A9A81
:1011E000199990476D1C7EE16002400F022809D0DA
:1011F00003280DD00428189801680DD00D60001D3B
:10120000189070E11898EA1701680D604A60F6E7D7
:10121000189801680D80F2E70D70F0E718986A469B
:1012200001781172001D18900020507202A80090E1
:10123000012005E0189802C8189000200091C043D2
:1012400061070DD5002101E00199491C0191B942C6
:1012500012DA8142F8DB009A515C0029F4D10BE0EC
:10126000002101E00199491C01918142FADB019AB8
:101270000099895C0029F5D1019904981A9B471AB5
:1012800021463846199A00F097FA019940194518F5
:101290000BE04FE02CE113E04EE00098009900785D
:1012A000491C00911A9A199990470198401E019083
:1012B000401CF2D1214638461A9B199A10E137E0BA
:1012C0000A200021009001916002410F022907D0FD
:1012D000189A01CA1892C2179446032908D00AE046
:1012E0001898C01DC108C90005C91891944607E0A7
:1012F00000B2C2179446042902D140B2C1178C46ED
:1013000000226146944506DA0A4600214042914196
:101310008C462D2102E0210504D52B216A4611734C
:10132000012103E0E10701D02021F7E7029155E018
:101330000A200AE0102008E010200090002104207C
:1013400004430191082703E0082000210191009047
:101350006002410F022907D0189A01CA1892002290
:101360009446032908D008E01898C01DC108C90098
:1013700005C91891944603E080B2042900D1C0B297
:1013800000210291210729D51199702906D0009AD0
:101390001021019B4A401A4305D00EE040216A46C5
:1013A0001173012108E06146014306D030216A46ED
:1013B00011731199517302210291009A0821019B26
:1013C0004A401A430AD16146014301D1610705D55C
:1013D00030216A46117301217F1E0291119958290B
:1013E00004D035A10E910DA90D910DE037A1F9E7BB
:1013F0006146019B009AFFF75DF80E9B8C469B5C53
:101400000D9A521E0D92137061460143F0D10D9852
:1014100005A9081A20300190600703D501200004B7
:10142000844300E001270198874201DD381A00E07B
:101430000020019900904118029809180498401A58
:101440000490E00306D421461A9B199A049800F0F0
:10145000B3F94519002706E003A81A9AC05D199947
:1014600090476D1C7F1C02988742F5DBE0030CD58A
:1014700021461A9B199A049800F09EF9451904E038
:101480001A9A3020199990476D1C0099481E0090B7
:101490000029F5DC08E00D980D990078491C0D91A4
:1014A0001A9A199990476D1C0199481E01900029BC
:1014B000F1DC63E10928010030313233343536374D
:1014C0003839616263646566000000003031323390
:1014D0003435363738394142434445460000000030
:1014E00000F05AF94519761C3078002800D0E2E562
:1014F00028461BB0F0BD600700D406271898C01D11
:10150000C108C90048680A680831C30FDB07189191
:10151000190001D09CA108E0210501D59BA104E0A0
:10152000E10701D09AA100E09AA1430011985B085D
:10153000109165280CD006DC452809D046281DD01E
:10154000472841D141E0662818D067283CD13CE0CB
:101550000021112F01DB112000E0781C0191009087
:1015600008A911A8FFF7E8FC139905910021119A29
:1015700015927F1C12980197009150E00120C0073E
:1015800003900120019008A9009711A8FFF7D4FC4F
:10159000139A149905920022119B009212981593A8
:1015A000059A0192002901D0104602E0791C4018EA
:1015B0000190381A01D5019804E04042401E009085
:1015C000781C0190C01B029043E0012F00DA012734
:1015D0000021112F01DD112000E03846019100901B
:1015E00008A911A8FFF7A8FC13990591119A0021E9
:1015F000129815920091019721070CD40599B942D0
:1016000001DB019900E00191012904DD159A491ED1
:10161000515C302906D0B84201DA011D05DA0121FA
:10162000029115E00199491EEDE7002805DC0099BB
:10163000411800910199091A03E0019A411C914255
:1016400000DD01910099401A401C02900120C00762
:101650000390200706D402990198814202DB002002
:10166000C043029000206946C87707AF0121039864
:101670000337C907884224D0022011902B201290F2
:10168000039800280CDA404203902D20129007E0C6
:101690000A210398FEF752FD30317F1E0390397006
:1016A0001199481E11900029F2DC03980028EFD10F
:1016B000791E129808703078202108404530BF1EEE
:1016C000387006A8C01BC01D039010980078002831
:1016D00000D00120019941180298C01709180398F9
:1016E00009180498401A401E0490E00306D42146CD
:1016F0001A9B199A049800F05FF845191098007821
:10170000002803D01A9A199990476D1CE00324D53C
:1017100021461A9B199A049800F04EF845191CE0CE
:101720000098002807DB00990598884203DD15988A
:10173000405C199901E0199930201A9A9047009855
:101740006D1C401C00900298401E0290002804D19D
:101750001A9A2E20199990476D1C0199481E0190E4
:101760000029DDDC05E038781A9A7F1C199990472A
:101770006D1C0399481E03900029F4DC21461A9B36
:10178000199A0498ACE600002D0000002B00000020
:101790002000000000000000F8B5044600251E46A9
:1017A0001746880404D405E039462020B0476D1C54
:1017B000641EF9D52846F8BDFFB50446002581B062
:1017C0001E46C80301D5302700E02027880404D531
:1017D00005E038460399B0476D1C641EF9D52846CC
:1017E00005B0F0BD00BF054A9268D207D20F002AAB
:1017F000F9D0C2B2014B1A607047000000380140B6
:10180000FFF71EF8FFF762F8C8216420FFF7C0F861
:1018100002E002A0FFF75AFBFBE700005375636389
:101820006573730D0A0000004818000800000020CE
:10183000280000001A0F0008701800082800002077
:10184000000400002A0F000800D8B80500000000BE
:101850000000000001020304060708090000000060
:101860000102030401020304060708090000000046
:04000005080000B53A
:00000001FF
