:020000040800F2
:10000000F8160020A5010008AD010008AF010008A6
:10001000B1010008B3010008B501000800000000AC
:10002000000000000000000000000000B701000810
:10003000B901000800000000BB010008BD01000874
:10004000BF010008BF010008BF010008BF01000890
:10005000BF010008BF010008BF010008BF01000880
:10006000BF010008BF010008BF010008BF01000870
:10007000BF010008BF010008BF010008BF01000860
:10008000BF010008BF010008BF010008BF01000850
:1000900000000000BF01000800000000BF010008D0
:1000A000BF010008BF010008BF010008BF01000830
:1000B000BF010008BF010008BF010008BF01000820
:1000C00000000000BF01000800000000BF010008A0
:1000D000BF010008BF010008BF010008BF01000800
:1000E000BF010008BF010008BF010008BF010008F0
:1000F000BF010008BF010008BF010008BF010008E0
:1001000000000000BF010008BF010008BF01000897
:10011000BF010008BF010008BF010008BF010008BF
:10012000BF010008BF010008BF010008BF010008AF
:10013000BF010008BF01000800000000000000002F
:10014000BF0100080000000000000000BF0100081F
:10015000000000000000000000000000BF010008D7
:10016000000000000000000000000000000000008F
:10017000000000000000000000000000000000007F
:100180000000000000000000BF010008BF010008DF
:10019000DFF80CD000F062FB00480047612C00083B
:1001A000F81600200648804706480047FEE7FEE7AD
:1001B000FEE7FEE7FEE7FEE7FEE7FEE7FEE7FEE717
:1001C0003115000891010008002800DA404270470C
:1001D0002DE9FE4F804681EA0300C00F0C460090D7
:1001E00021F0004123F00045B8EB0200A94105D2FF
:1001F0004046214690461C460B46024623F00040EE
:10020000104347D0270DC7F30A00C3F30A510290E9
:10021000401A019040286BDAC3F3130040F4801BAE
:100220000098924620B10023D2EB030A63EB0B0B3C
:1002300001985946C0F14002504600F000FA0646C7
:100240000D4650465946019A00F018FA10EB080086
:100250006141002487EA115284EAE7731A4340D0CF
:10026000009A62B3019A012A4FEA075215DC001B7B
:1002700061EB02014FF0004202EA0752CDE9004271
:10028000001C41F5801132462B4600F018FA03B0ED
:10029000BDE8F08F40462146F9E7001B61EB020103
:1002A000001C41F5801300185B412018A2F50017CF
:1002B00047EB030140EAD570B6196D4111E06D08B6
:1002C0004FEA360645EAC0754FEA0752001B61EB5C
:1002D0000201001C41F5801149084FEA3000001965
:1002E000514132462B4603B0BDE8F04F00F0D8B97B
:1002F0000098012240000023D0EB020263EBE07380
:10030000009821464FEAE074B8EB000061EB04016D
:10031000E9E783F000435BE781F0004158E72DE90E
:10032000FE4F81EA030404F0004421F000410094F0
:100330004FF0000B23F0004350EA01045ED052EA74
:1003400003045BD0C3F30A54C1F30A552C44A4F24E
:10035000F3340194A0FB0254C1F3130141F4801162
:10036000C3F3130343F4801301FB024400FB034E69
:10037000840A970A44EA815447EA8357A4FB076832
:1003800002958D0A05FB07854FEA932C04FB0C545C
:100390002705029D4FEA065847EA1637B5EB0805D0
:1003A0006EEB070C870E920E47EA811742EA831222
:1003B000A7FB0201B6EB0B0164EB00042B0D43EA33
:1003C0000C335E1844EB1C50DA465146E7FB020141
:1003D000C5F313044FEA0B3343EA14534FEA0432D4
:1003E000019C43EA0603A4F10C040294009CCDE9AD
:1003F00000B400F064F903B0BDE8F08F00200146BE
:10040000F9E72DE9F04D81EA030404F0004B21F0F7
:10041000004514464FF0000A23F0004150EA05025F
:1004200020D054EA01021DD0C5F30A570246C5F395
:100430001303C1F31300C1F30A5640F4801543F4CB
:100440008013A7EB0608101BD64608F2FD3873EBA5
:10045000050002D308F1010801E092185B41B8F1F0
:10046000000F03DA00200146BDE8F08D00204FF4B4
:100470008011064684460EE0171B73EB050705D373
:10048000121B63EB050306434CEA010C49084FEAD3
:10049000300092185B4150EA0107EDD152EA0300A7
:1004A00012D082EA040083EA0501084305D0101B3C
:1004B000AB4106D20122002306E000224FF00043A8
:1004C00002E06FF0010253101AEB06004CEB0851EA
:1004D00010EB0A0041EB0B01BDE8F04D00F0E0B875
:1004E0000EB5C10F80EAE0700844CA07002140F24F
:1004F00033438DE80E000A460B4600F0E0F803B0E7
:1005000000BD0EB540F2334102910021CDE900114A
:100510000A460B4600F0D3F803B000BDC1F30A52FF
:1005200010B5C1F3130140F2FF3341F480119A4238
:1005300001DA002010BD40F233439A42A2F2334266
:1005400003DC524200F08AF810BD904010BD00005C
:1005500030B5041E71F1000404DB4FF0004440424A
:1005600064EB0101141E73F1000405DB1C464FF01F
:100570000043524263EB04038B4208BF824230BD0A
:1005800030B5041E71F1000404DB4FF0004440421A
:1005900064EB0101141E73F1000405DB1C464FF0EF
:1005A0000043524263EB0403994208BF904230BDBE
:1005B00030B50B46014600202022012409E021FA33
:1005C00002F59D4205D303FA02F5491B04FA02F530
:1005D0002844151EA2F10102F1DC30BD2DE9F05FC7
:1005E0000546002092469B468846064681464024A2
:1005F0001BE0284641464746224600F02FF8534666
:100600005A46C01A914110D311461846224600F0AE
:1006100016F82D1A67EB01084F46224601200021EB
:1006200000F00DF817EB00094E41201EA4F1010463
:10063000DFDC484631462A464346BDE8F09F202A83
:1006400004DB203A00FA02F1002070479140C2F129
:10065000200320FA03F3194390407047202A04DB5B
:10066000203A21FA02F00021704721FA02F3D0402B
:10067000C2F120029140084319467047202A06DB48
:10068000CB17203A41FA02F043EAE07306E041FA60
:1006900002F3D040C2F1200291400843194670474E
:1006A00010B5141E73F1000408DA401C41F100017A
:1006B00092185B411A4301D120F0010010BD2DE9D1
:1006C000F04D92469B4611B1B1FA81F202E0B0FAC8
:1006D00080F220329046FFF7B2FF04460F4640EA10
:1006E0000A0041EA0B0153465A46084313D011460B
:1006F00053EA010019D0C8F140025046FFF7AEFF9F
:1007000005460E46504659464246FFF798FF0843B5
:1007100005D0012004E020463946BDE8F08D0020D8
:10072000054346EAE0762C4337430A986305E40A1A
:10073000A0EB08000022FD0A44EA47540A3002D523
:1007400000200146E9E7010510196941DDE9084586
:1007500000196941BDE8F04DA2E770B521F00043F2
:1007600003430CD0C1F30A550024D5EB040564EB18
:100770000403D617AD1AB34102DB0020014670BD59
:10078000201841EB025170BD2DE9F04D00231A46AF
:100790001B1A8A4103DB00200146BDE8F08DC1F33E
:1007A0000A52C1F3130141F480154FF0000BD10739
:1007B00002D100186D41521E0027044640F2FF117D
:1007C000384601EB620A3E468046024600204FF45E
:1007D0008011FFF743FFC2197141BB1846EB0100BE
:1007E000B4EB030C75EB000C04D3E41A65EB0005C5
:1007F00017460E46241908F101006D418046342841
:10080000E3DDF91946EB0600091BA84103D24FF0BE
:10081000FF32134601E0002213461BEB070046EBB4
:100820000A51BDE8F04DFFF73BBFC1F30A52C1F3D7
:10083000130140F2FF3341F480119A4202DA0020A2
:100840000146704740F233439A42A2F2334202DC3F
:100850005242FFF703BFFFF7F2BE0000064C074D00
:1008600006E0E06840F0010394E807009847103480
:10087000AC42F6D3FFF790FC6038000880380008DF
:1008800070B5C1F30A5201F000450024C1F3130111
:1008900040F2FF3341F480119A4201DA002070BD2A
:1008A00040F233439A42A2F2334203DC5242FFF752
:1008B000D5FE00E090402C43F1D0404270BD70B5B1
:1008C0008C1810F8015B15F0070301D110F8013BFB
:1008D0002A1106D110F8012B03E010F8016B01F882
:1008E000016B5B1EF9D12B0705D40023521E0DD4DA
:1008F00001F8013BFAE710F8013BCB1A921C03E028
:1009000013F8015B01F8015B521EF9D5A142D8D35F
:10091000002070BD2DE9F043054616461F460846E7
:100920004FF0000C002423E0002319E003F101083C
:1009300005FB08F804F10109B8FBF9F28A4202D973
:10094000A2EB010801E0A1EB02084246904202D965
:10095000104633703C7010B94FF0010C02E05B1C84
:10096000402BE3D300BFBCF1000F00D002E0641CB9
:10097000042CD9D300BFBDE8F083014600224FF01C
:10098000E0231A61CA005A6100229A6105221A61A5
:1009900000BF4FF0E022106900F001021AB100F42C
:1009A0008032002AF5D04FF0E022126922F00102D5
:1009B0004FF0E0231A6100229A6170472DE9F04F51
:1009C00095B08049487FFFF79CFD04467E4A7F4BE7
:1009D000FFF7A5FCCDE90C017A49087FFFF791FDEF
:1009E00004467B4A7B4BFFF79AFCCDE90801754929
:1009F000C87EFFF786FD0446774A784BFFF78FFCE9
:100A0000CDE904016F49887EFFF77BFD0646744AF5
:100A1000744BFFF784FCCDE900016A49487EFFF77B
:100A200070FD8046704A714BFFF779FC06460F4611
:100A30006449C97D634A927D02EB820201EB420068
:100A4000FFF74EFD824632463B46FFF7C1FB0446A8
:100A5000DDE90023FFF7BCFBCDE90201DDE904235A
:100A6000FFF7B6FBCDE90601DDE90823FFF7B0FB90
:100A7000CDE90A01DDE90C23FFF7AAFB00225C4B5C
:100A8000CDE90E01FFF7BDFCCDE912014D49497DCD
:100A90004C4A127D02EB820201EB4200FFF720FD7F
:100AA000CDE91001DDE91223FFF792FB514A03C2A1
:100AB000444991F82B00FFF724FD0446424A434B7A
:100AC000FFF72DFCCDE90C013E4991F82A00FFF714
:100AD00018FD04463E4A3F4BFFF721FCCDE90801D3
:100AE000384991F82900FFF70CFD04463A4A3B4B80
:100AF000FFF715FC82468B46324991F82800FFF734
:100B000000FD0446364A374BFFF709FC804689460C
:100B10002C4991F82700FFF7F4FC0646324A334B84
:100B2000FFF7FDFBCDE90001264991F82510254A84
:100B300092F8242002EB820201EB4200FFF7D0FC86
:100B40000446DDE90023FFF743FB42464B46CDE96F
:100B50000201FFF73DFB52465B46CDE90401FFF77A
:100B600037FBCDE90601DDE90823FFF731FBCDE9CD
:100B70000A01DDE90C23FFF72BFB00221C4BCDE91A
:100B80000E01FFF73EFCCDE912010E4991F821104C
:100B9000642251430B4A92F8222002EB820201EBBD
:100BA0004201084A92F823208818FFF799FCCDE902
:100BB0001001DDE91223FFF70BFB0F4A03C215B04A
:100BC000BDE8F08FB80B0020F168E388B5F8E43E8B
:100BD0002D431CEBE2361A3FFCA9F1D24D62503F87
:100BE0007B14AE47E17A843F9A9999999999B93FD4
:100BF00000004E4030000020280000202DE9FF5F5B
:100C000004460D4616461F46224801680068401CEF
:100C1000204A1060204800EB011030C01E481146E9
:100C2000096800EB0110C0E902671046006802285D
:100C300027DD10460068401E174901EB0010C1680F
:100C40008068CDE9020110460068401E124901EBA0
:100C5000001003C8CDE900010F481146096800EBF8
:100C60000110D0E902830C481146096800EB01101D
:100C70004246D0E900A1504600F012F8074A03C2EC
:100C800003E00021054A11605160044903C904B022
:100C9000BDE8F09F58000020200C00203800002004
:100CA0002DE9FF5F86B0DDE91423DDE90601FFF7DA
:100CB00033FB80468946DDE90823DDE91601FFF7AD
:100CC00028FB82468B4642464B463BA000F038FE4E
:100CD00052465B463BA000F033FE40464946FFF7D4
:100CE00073FA0390FFF7FCFBCDE9040100210291A8
:100CF0000391059952465B46CDE9000140464946BD
:100D000002F07EFC04460D4622462B4630A000F041
:100D100017FE50465946FFF757FA0390FFF7E0FBDE
:100D2000CDE90401CDE902010021009152465B4664
:100D300040460191494602F063FC06460F463246A2
:100D40003B4627A000F0FCFD0022294B2046294607
:100D5000FFF7FEFB12D20022254B30463946FFF743
:100D6000F7FB02D2234830C020E022462B46002069
:100D70002149FFF7CEFA1F4A03C217E000221C4B9D
:100D800030463946FFF7E4FB08D232463B460020A6
:100D90001749FFF71DFA174A03C207E022462B4600
:100DA00000201649FFF714FA124A03C2114903C979
:100DB0000AB0BDE8F09F00006C6E67202025660D2C
:100DC0000A0000006C6174202025660D0A000000F6
:100DD0004E5F746172676574202025660D0A0000FD
:100DE000575F746172676574202025660D0A0000E4
:100DF0000080564020000020008076400080664041
:100E00002DE9F041054600260027012045490860EC
:100E10004548046881E0454850F82400285C2428AF
:100E20007AD1424850F82400001D285C4D2873D127
:100E30003E4850F82400401D285C43286CD167E0F0
:100E40003A4850F82400374A12681044295C38A008
:100E500000F076FD354850F824003249096808440E
:100E6000285C303833492F4A126888542F4850F88C
:100E700024002C4909680844285C242802D16420F5
:100E800028490860294850F8240026490968084480
:100E9000285C2C2800D1761C244850F824002149D5
:100EA00009680844285C2E2800D17F1C082E0CD12C
:100EB0001E4850F824001B4909680844285C2C2867
:100EC00003D1184800681C490860092E0CD1174846
:100ED00050F82400134909680844285C2C2803D1E1
:100EE0001048006814494860052F0CD10F4850F88D
:100EF00024000C4909680844285C2E2803D10948BD
:100F000000680D49886007480068401C0549086072
:100F100004480068642893DB641E002C3FF77BAF15
:100F2000BDE8F0814C000020480000207012002035
:100F300025630000B80B0020E8120020F0B502463F
:100F4000CF7807F00F05CF7807F010070FB18F7833
:100F50003D431446002016E087063B0E0F884FF0F5
:100F6000010C0CFA00FC07EA0C0757B1D4F800C0DA
:100F70000F279F402CEA070705FA03FC47EA0C07F6
:100F80002760471CF8B20828E6DB141D0F883E12C4
:100F9000002012E087063B0E01278740374057B1FB
:100FA000D4F800C00F279F402CEA070705FA03FC7E
:100FB00047EA0C072760471CF8B20828EADBCF781D
:100FC000282F06D15769B1F800C047EA0C075761CE
:100FD00008E0CF78482F05D11769B1F800C047EA7B
:100FE0000C071761F0BD70B54D07EB0E082902DA4A
:100FF00000F1200501E000F124052C460F269E405B
:101000002568B54302FA03F63543256070BD4FF6F7
:10101000FF710180022181700421C17070470000BE
:1010200000B589B001F0CCFD1A48FFF7E9FEFFF7E3
:10103000C5FC194819490CC803C902F0FFF9184842
:1010400003C8CDE90601174803C8CDE904011648D5
:1010500003C8CDE90201114903C9CDE900010E48D9
:101060000CC812A000F06CFC01F096FE1C48006851
:101070001C49096888420BDB18201B4908600021C5
:101080001A4800F0E1FB1AA000F05AFC00BFFEE78E
:1010900009B000BDB8030020300000202800002067
:1010A000400000202000002038000020CEB3B6C849
:1010B0003A25660D0ABEADB6C83A25660D0AB3AF2D
:1010C000CFF23A25660D0AC4BFB1EAB7BDCFF23AF6
:1010D00025660D0ABDC7B6C83A25660D0A00000090
:1010E000500000205400002034040040004C004018
:1010F000456E640D0A00000008B50121084600F0A5
:1011000051F8022206210A48FFF76DFF6846FFF7F3
:101110007EFF4020ADF8000001208DF8020018206D
:101120008DF8030069460248FFF708FF08BD00007C
:101130000000044030B587B004460D46FFF7DCFFE1
:101140000121022000F03EF80594681E80B2ADF83F
:1011500010000020ADF818008DF8120004A9104806
:1011600000F060FA70208DF8000018200190022035
:101170008DF8080001208DF801006946084800F04C
:101180001FFA0821064800F047FA0121044800F040
:1011900001FA0121024800F008FA07B030BD000052
:1011A0000004004029B1064A926A0243044B9A6245
:1011B00004E0034A926A8243014B9A62704700003E
:1011C0000010024029B1064A126B0243044B1A6315
:1011D00004E0034A126B8243014B1A63704700001C
:1011E0000010024029B1064AD26A0243044BDA6277
:1011F00004E0034AD26A8243014BDA62704700007E
:101200000010024000B500F02DF804494968C1F310
:101210000311034A515CC84000BD000000100240A9
:101220009C03002000B5FFF7EDFF04494968C1F3B6
:101230000221034A515CC84000BD0000001002407A
:101240009C03002000B5FFF7DDFF04494968C1F3A6
:10125000C221034A515CC84000BD0000001002409A
:101260009C03002010B5194C646804F00C04042C95
:1012700006D0082C06D00C2C23D149F6404022E0A1
:10128000134820E0114CA46C04F0010444B10F4C4D
:10129000A46C04F002040CB10E4C02E00C4C00E013
:1012A0000B4C2346094CA46CC4F30644611C074C48
:1012B000A46CC4F30224621C03FB01F4B4FBF2F03F
:1012C00001E0034800BF00BF10BD00000010024055
:1012D00000127A0000093D0010B50A48006820F0AD
:1012E0001800084908600846006840F001000860DE
:1012F00000BF0448406800F003000228F9D100F064
:1013000003F810BD0060014000B587B000200390D5
:1013100002907C48006840F001007A49086000BFF4
:101320007848006800F002000028F9D0754800688D
:1013300040F48030734908600520FFF71EFB7248B7
:1013400000687249884210D96E48006B40F08050A6
:101350006C4908636E48006820F440406C4908609E
:101360000846006840F44040086010E065480068A6
:1013700000F400300290029800B109E00398401C8C
:1013800003900398B0F5485F01D307B000BDEDE7C7
:1013900000BF5C48006800F4003010B900200290E3
:1013A000F3E7012002900520FFF7E7FA5948564974
:1013B00008605948006840F0100057490860084626
:1013C000006820F0070008604F480068401E53493D
:1013D000B0FBF1F0069050480068069901F0070153
:1013E00008434D4908604748406843F6F071884318
:1013F000444948600846406840F09000486008460C
:1014000040684860404800684549884206D93D48E0
:10141000406840F4A0603B4948600AE03A480068F0
:101420004049884205D93748406840F480603549D2
:1014300048606B4601AA344801683B48FFF76AFAE6
:101440003048806C20F003002E4988640846806C88
:1014500040F0010088649DF8000000F0070004904F
:101460009DF8040000F07F0005900846006B40F0F6
:10147000805008630846806C2C49084021498864E4
:1014800005980004049940EA01201E49896C08432C
:101490001C4988640846006840F08070086000E0DD
:1014A00000BF1848006800F000700028F8D0154808
:1014B000406820F00300134948600846406840F047
:1014C0000200486000E000BF0E48406800F00C00D9
:1014D0000828F8D10120FFF750FA0A48406820F0A8
:1014E0001000084948600120FFF747FA05484068A6
:1014F00020F08000034948600120FFF73EFA00BF5A
:1015000043E70000001002408803002000D8B8051F
:1015100000700040000E27070020024000366E01D8
:1015200000A24A040051250200127A00FFF880FF51
:1015300010B51448006840F00100124908600846E0
:101540004068114908400F494860084600680F4943
:1015500008400C4908600846006820F480200860B4
:101560000846406820F4430048600846006808497F
:101570000840044908604FF41F008860FFF7ACFE84
:1015800010BD0000001002400CC0FFF8FFFFF6FE87
:10159000FFFF8F0021B1026842F08002026003E089
:1015A000026822F080020260704721B1026842F0B6
:1015B0000102026003E0026822F00102026070474B
:1015C000826922F070020B781A4382610A7A4B78A2
:1015D0001A43036A23F003031A4302624A68426310
:1015E0000B4A904202D00B4A90420FD14A7A8B7834
:1015F0001A43036A23F00C031A4302624A898B8957
:101600001A43436823F440731A4342607047000052
:10161000002C014000340140826922F008020A4394
:1016200082617047026822F440720B891A4302609B
:10163000154A90420ED0B0F1804F0BD0134A904221
:1016400008D0134A904205D0124A904202D0124A62
:10165000904205D1026822F070028B781A43026032
:10166000094A904202D00C4A904205D1026B22F006
:10167000FF028B7A1A4302634A68C2620A88826256
:101680000122426170470000002C0140000400402C
:1016900000080040000C00400034014008B5012162
:1016A0000846FFF77FFD072209211248FFF79BFC40
:1016B00007220A210F48FFF796FC6846FFF7A7FCB0
:1016C0004FF40070ADF8000001208DF802001C20DE
:1016D0008DF8030069460748FFF730FC4FF480603F
:1016E000ADF8000048208DF8030069460148FFF777
:1016F00025FC08BD0000044008B501210220FFF7C9
:1017000051FD07220A211248FFF76DFC07220B2129
:101710000F48FFF768FC6846FFF779FC4FF48060DC
:10172000ADF8000001208DF802001C208DF80300A8
:1017300069460748FFF702FC4FF40060ADF800006F
:1017400048208DF8030069460148FFF7F7FB08BD04
:101750000004044008B501210420FFF723FD0822FE
:101760000A211248FFF73FFC08220B210F48FFF720
:101770003AFC6846FFF74BFC4FF48060ADF8000080
:1017800001208DF802001C208DF8030069460748EF
:10179000FFF7D4FB4FF40060ADF8000048208DF84F
:1017A000030069460148FFF7C9FB08BD0008044073
:1017B000826922F001020A43826170470246906802
:1017C000084008B1012070470020FCE770B50446CE
:1017D0000D460026E06920F0300029790843E061D9
:1017E000E06920F04400A9790843E061E06920F055
:1017F0000300297A0843E061A06920F01800698994
:101800000843A061A06920F00400297B0843A0617F
:101810000A48844203D1FFF715FD064602E0FFF7B0
:1018200001FD06462868B6FBF0F000092062286832
:10183000B6FBF0F000F00F00606270BD00380140B0
:1018400001464868C0B27047CAB2026070474FF4A0
:10185000E131016030210171002181710172182193
:1018600041810021017370471FB50446FFF716FF41
:1018700001211020FFF7B6FC6846FFF7E8FF00944F
:1018800030208DF8040000208DF806008DF8080047
:101890008DF80C001820ADF80A0069460348FFF7E0
:1018A00095FF01210148FFF783FF1FBD003801406C
:1018B0001FB50446FFF720FF01218804FFF782FCD3
:1018C0006846FFF7C4FF009430208DF80400002024
:1018D0008DF806008DF808008DF80C001820ADF882
:1018E0000A0069460348FFF771FF01210148FFF72D
:1018F0005FFF1FBD004800401FB50446FFF72AFFE9
:101900000121C804FFF75EFC6846FFF7A0FF0094C2
:1019100030208DF8040000208DF806008DF80800B6
:101920008DF80C001820ADF80A0069460348FFF74F
:101930004DFF01210148FFF73BFF1FBD004C004058
:101940000FB4054B10B503A9044A029800F014FC2B
:1019500010BC5DF814FB00003D2C0008AC03002017
:10196000490050EAC12018BF04204A0D18BF40F0BA
:10197000010040F2FF72B2EB515F08BF40F002007D
:10198000012808BF052070472DE9F74F144694B091
:101990000021C4E902111599079121F00045C949B8
:1019A0008D4206DC1599C4E9000117B00020BDE89E
:1019B000F08FC549DFF814A3A9423CDD0799C44E56
:1019C0000029C44FC44A1599534619DDFEF7A1FCFE
:1019D000554506D0C14AC24BFEF79BFCC4E9000145
:1019E0000AE04FF0D352BE4BFEF793FC32463B4623
:1019F000FEF78FFCC4E9000117B00120BDE8F08FAD
:101A0000FEF7E6FB554506D0B44AB54BFEF7E0FBC2
:101A1000C4E900010AE04FF0D352B14BFEF7D8FB06
:101A200032463B46FEF7D4FBC4E9000117B04FF045
:101A3000FF30BDE8F08FAB49A942159978DB21F062
:101A4000004183468846A84AA84BFEF768FC00225E
:101A5000A74BFEF7BDFBFEF713FF0990FEF740FD15
:101A600006460F469C4A5346FEF759FC43465A46E3
:101A7000FEF752FC80468A46984A994B30463946D2
:101A8000FEF74DFC2A0D01250B9242465346FEF708
:101A900043FC032DC4E9000139D00B98C1F30A516E
:101AA000401A05EB45111139814230DA9148C3469D
:101AB000784400EB0510CDF80CA00C90D0E9002381
:101AC00030463946FEF72BFC02460B460491069041
:101AD00058460399FEF71DFC80468A4602460B468F
:101AE00058460399FEF715FC049B069AFEF711FC75
:101AF00083460C9803913946D0E902233046FEF71D
:101B00000EFC5A46039BFEF704FC6D1CBDE70798CC
:101B10000028A2BF099817B0BDE8F08F616881F076
:101B200000416160099817B04042BDE8F08FFFE7BF
:101B300084461598C1F31301C0F30A50A0F2F530A2
:101B40004FEA601800F01F06C6F120001390002035
:101B50000690079041F4801E05206D4676B1664AD6
:101B600008EB00017A4452F8213002EB8101B340C6
:101B70004A68139922FA01F1194305E05F4908EB1D
:101B80000002794451F82210A1FB0E27A1FB0C138F
:101B90001A449A4234BF0123002303EB070A05EBE2
:101BA0008003D3E901B70F448F4234BF01210021E4
:101BB00093448B4411B1934502D903E0934501D27C
:101BC000012100E00021C3E901B7514445F820108C
:101BD000011EA0F10100C1DC0298059F00F1005038
:101BE000800F12900298DDE903568000FEF778FC22
:101BF000834628460D91FEF784FC6FF01D02FEF728
:101C0000ACFDCDE90E013046FEF77BFC6FF03D02E6
:101C1000FEF7A3FD80468A463846FEF772FC6FF059
:101C20005D02FEF79AFD0746424653461191FEF7C4
:101C3000CFFADDE90E23FEF7CBFA5A460D9BFEF7ED
:101C4000C7FA00250E465A4628460D9BFEF761FB53
:101C5000DDE90E23FEF75DFB42465346FEF759FBD6
:101C60003A46119BFEF758FBDFF898A0244A5346EA
:101C7000FEF755FB07468846234A244B3146284643
:101C8000FEF74DFB3A464346FEF7A2FA0746884662
:101C90004FF0A842534631462846FEF740FB3A46ED
:101CA0004346FEF795FA159A12F0004F04D0129AA7
:101CB00081F0004152421292C4E90001129817B01B
:101CC000BDE8F08FFB21E93F7CD90240FB21F93FC1
:101CD0007370032E8A19A33B000040543163621ACB
:101CE00061B4D03DFB21394183C8C96D305FE43F09
:101CF0000000E03FBC1C0000381C00001A1C000063
:101D0000182D4454FB21F93D3326A611460B113CF6
:101D10002DE9FF4D21F0004807460C46B8F1795FE8
:101D200008DAFEF7ADFD002801BF0020324904B0FB
:101D3000BDE8F08D3A46234610461946FEF7EFFA05
:101D4000054602462D480E460B460621784400F013
:101D50005DF82A463346FEF7E2FADDE902238246C1
:101D60008B4638462146FEF7DAFA04460F465246BD
:101D70005B4628463146FEF7D2FA22463B46FEF73E
:101D8000C8FA07468A464FF0FF3228463146FEF72A
:101D9000E4FC1B4A90450ADA3A465346FEF7B9FA84
:101DA00004B00022BDE8F04D134BFEF7B5BA154A5A
:101DB0004245A8BFA8F500154FF00004B8BF124D6A
:101DC00022462B46FEF7A5FA0646884622462B46B3
:101DD00000200949FEF79DFA04460D463A4653464F
:101DE00030464146FEF795FA04B022462B46BDE840
:101DF000F04DFEF791BA00000000F03FF01900002E
:101E00003333D33F0000E93F0000D23F2DE9F041DA
:101E10004F1E00EBC7010446D1E9000115461E46DE
:101E200037F006020DD02A463346FEF778FA7F1EB9
:101E300004EBC703D3E90023FEF7CAF937F0060223
:101E4000F1D1022F25D0042F13D0062F18BFBDE8E3
:101E5000F0812A463346FEF762FAD4E90A23FEF7F8
:101E6000B7F92A463346FEF75AFAD4E90823FEF7B3
:101E7000AFF92A463346FEF752FAD4E90623FEF7B5
:101E8000A7F92A463346FEF74AFAD4E90423FEF7B7
:101E90009FF92A463346FEF742FAD4E90223FEF7B9
:101EA00097F92A463346FEF73AFAD4E90023BDE80B
:101EB000F041FEF78DB900002DE9FF4D054621F0F8
:101EC000004084B00C46B0F1795F0BDA2846FFF78A
:101ED00047FD042808BF00F06FF8284608B02146E7
:101EE000BDE8F08D2A460B461046FEF718FA064666
:101EF0000F462A462346FEF712FA804626488A46AF
:101F000032463B4605217844FFF780FF8346109810
:101F1000029160B3214A224B40465146FEF7FFF939
:101F2000CDE900015A4640465146029BFEF7F7F9BB
:101F300082468846DDE906014FF0FF32FEF70DFCD0
:101F400052464346FEF7E5F932463B46FEF7E7F9CF
:101F5000DDE90623FEF7DDF9DDE90023FEF7D9F917
:101F600008B02A462346BDE8F04DFEF7D5B90B462A
:101F70005A4630463946FEF7D2F9084A084BFEF772
:101F800027F942465346FEF7CAF908B02A462346C7
:101F9000BDE8F04DFEF71CB92E1900004955555506
:101FA0005555C5BF0122FEF7D8BB00221346104687
:101FB0001146FEF726BA0000024A00201107FEF77C
:101FC000CCBB000001FDFFFF02E008C8121F08C1E2
:101FD000002AFAD170477047002001E001C1121FAA
:101FE000002AFBD1704700000149086070470000DB
:101FF000B00300202DE9FF5F82B00021DDE904304D
:10200000020DDDF840B0034318D044F61050A2F2A0
:10201000FF3242431514119801281FD0A5EB0B0085
:10202000401C5FEA000A4FF000064E4FDFF838917F
:10203000B046504615D5CAF1000413E011980124AA
:102040004AA3012801D16FEA0B010298119AC0E955
:102050000031C0E9024206B0BDE8F09FCBF10000BC
:10206000DFE704460021404A491842EB0450CDE91D
:10207000001012E0E00707D032463B464046494692
:10208000FEF74DF98046894632463B4610461946D2
:10209000FEF745F906460F466410002CEAD1DDE94B
:1020A0000401DDE90023BAF1000F06DAFEF737F983
:1020B00042464B46FEF733F905E0FEF7A2F94246E9
:1020C0004B46FEF79EF904460E460022284BFEF7CB
:1020D00057FA03D84FF0FF30014607E00022254BA6
:1020E00020463146FEF774F8FEF79FFB102409E006
:1020F000002C0ADB0A220023FEF770FA039B303221
:102100001A55641E50EA0102F2D1641C039AC4F10C
:1021100011031444119A012A03D0012208430DD15E
:102120000AE0084304D000204FF0110B119072E731
:10213000A3EB0B056D1E0DE05B4504DD4FF00002C7
:1021400005F1010504E003DA4FF00002A5F10105F5
:10215000002AECD002981199C0E90231C0E900458B
:1021600079E70000000014400000F03F300000005C
:102170000000F0430000E03F2DE9FF4F95B09B4683
:102180008946064600250FE2252877D100242746F8
:10219000F84A0121059400E0044316F8013F203B72
:1021A00001FA03F01042F7D130782A2811D06FF0ED
:1021B0002F033078A0F13002092A16D8059A44F08E
:1021C000020402EB820203EB42021044761C0590EB
:1021D000EFE759F8042B0592002A03DA504244F441
:1021E0000054059044F00204761C30782E2816D155
:1021F00016F8010F44F004042A280DD06FF02F02C6
:102200003078A0F13003092B09D807EB870302EBE4
:102210004303C718761CF3E759F8047B761C307823
:102220006C280FD006DC4C2817D068280DD06A28FF
:1022300014D104E0742810D07A280FD10DE044F4B2
:1022400000140AE044F4801401E044F4401472786D
:10225000824202D104F58014761C761C3078662800
:102260000BD013DC582877D009DC002875D045281E
:10227000F6D04628F4D047281AD19DE118E063280B
:1022800035D0642879D0652812D195E1702873D0B3
:1022900008DC6728F1D069286FD06E280DD06F2830
:1022A00006D1B5E073282CD0752875D0782874D065
:1022B0005A46179990476D1C75E1C4F302500228E5
:1022C00009D003280DD0D9F8001004280DD00D60D6
:1022D00009F1040967E1D9F80010EA17C1E90052D1
:1022E000F6E7D9F800100D80F2E70D70F0E719F865
:1022F000041B8DF8001000208DF80100EA46012033
:1023000003E059F804AB4FF0FF3061074FF00001D4
:1023100002D40DE008F101018846B9420FDA804588
:10232000F8DB1AF808100029F4D108E008F10101DF
:1023300088468142FADB1AF808100029F6D1059880
:102340005B46A0EB080721463846179A00F094FA3E
:10235000284400EB080507E04DE029E10DE01AF8FC
:10236000010B5A4617999047B8F10108F7D25B461E
:1023700021463846179A13E142E00A220092C4F33C
:1023800002524FF0000A022A08D059F804CB032A5F
:102390004FEAEC710AD00DE029E02AE009F10701CB
:1023A00021F00702F2E802C1914609E00FFA8CFC25
:1023B0004FEAEC71042A03D14FFA8CFC4FEAEC711E
:1023C000002907DA0A460021DCF1000C61EB02016A
:1023D0002D2202E0220504D52B228DF804200122B3
:1023E00003E0E20701D02022F7E7904659E00A21F6
:1023F00002E010220DE010214FF0000A00910BE0E6
:1024000010224FF0000A44F004040827009203E071
:1024100008224FF0000A0092C4F30252022A05D0AB
:1024200059F804CB0021032A08D009E009F107017B
:1024300021F00702F2E802C1914605E01FFA8CFC88
:10244000042A01D10CF0FF0C4FF00008220728D518
:10245000702806D0009B83F0100353EA0A0305D0CE
:102460000EE040228DF80420012208E05CEA01021F
:1024700006D030228DF804208DF805000222904607
:10248000009B83F0080353EA0A030AD15CEA0102C5
:1024900001D1620705D530228DF804204FF00108E4
:1024A0007F1E582804D034A003900EA802900DE09F
:1024B00036A0F9E753466046009AFEF78FF8844647
:1024C0000398825C0298401E029002705CEA010050
:1024D000F0D1029806A9081A00F1200A600702D577
:1024E00024F4803400E00127574502DDA7EB0A0001
:1024F00000E0002000EB0A01009005984144401ADA
:102500000590E00306D45B462146179A059800F033
:10251000B3F90544002706E001A85A46C05D1799A3
:1025200090476D1C7F1C4745F6DBE0030CD55B46EE
:102530002146179A059800F09FF9054404E03020E1
:102540005A46179990476D1C0099481E0090002923
:10255000F5DC08E0029802995A460078491C02917D
:10256000179990476D1CBAF10001AAF1010AF1DC3C
:1025700065E1000009280100303132333435363747
:1025800038396162636465660000000030313233BF
:10259000343536373839414243444546000000005F
:1025A00000F058F90544761C307800287FF4ECAD33
:1025B00019B02846BDE8F08F620700D4062709F15C
:1025C000070222F0070CFCE80223E14603F0004872
:1025D0005FEA080C02D00FF2702C0DE05FEA045C99
:1025E00002D50FF2682C07E05FEAC47C02D00FF23C
:1025F000602C01E0AFF2700C4FF0FF3823F0004385
:10260000CDF850C065280CD006DC452809D04628F6
:102610001DD047283DD13DE0662818D067287ED1DF
:1026200038E00021112F01DB112000E0781CCDE9FA
:10263000000106A90EA8FFF7DDFCDDE90F010E9AE7
:1026400003910021009207F1010A04914DE04FF03F
:1026500000400097CDE9011006A90EA8FFF7CAFCBB
:10266000DDE90F0203920E9B11990022DDF80CA008
:102670000093049211B9791C00EB010AB7EB0A0030
:1026800004D4C0F1FF3007F1010A0490AAEB07005F
:10269000019044E0012F00DA01270021112F01DD14
:1026A000112000E03846CDE9000106A90EA8FFF789
:1026B000A1FCDDE90F010E9A039100210491009223
:1026C000BA4621070CD40399514500DA8A46BAF17B
:1026D000010F05DD009AAAF10101515C302908D0F3
:1026E000B84202DA10F1040F06DA0121CDE9011037
:1026F00015E0AAF10101E9E7002805DC049901448D
:102700000491AAEB000102E0411C514500DD8A461C
:102710000499401A401C01904FF00040029020079D
:1027200004D40198504501DBCDF8048000208DF8D9
:102730004F0002980DF14F07B0F1004F25D02B202C
:102740000E9002984FF0020800280CDA40420290E6
:102750002D200E9007E00A210298FDF729FF303165
:10276000029007F8011DB8F10001A8F10108F2DCA0
:1027700002980028EFD1791E0E980870307800F08A
:10278000200040F0450007F8020D12A8C01B00F120
:1027900007081498007800B1012000EB0A010198A5
:1027A00001EBE07105984144401A401E0590E0039A
:1027B00006D45B462146179A059800F05DF805445B
:1027C0001498007818B15A46179990476D1CE00389
:1027D00024D55B462146179A059800F04DF805442C
:1027E0001CE00498002807DBDDE90301884203DDD3
:1027F0000098405C179901E0179930205A4690479D
:10280000049805F10105401C04900198401E0190B8
:1028100004D12E205A46179990476D1CBAF1000139
:10282000AAF1010ADDDC05E017F8010B5A461799F9
:1028300090476D1CB8F10001A8F10108F4DC5B467B
:102840002146179A0598ABE62D0000002B000000EA
:10285000200000002DE9F041044600251E461746E1
:10286000880404D405E039462020B0476D1C641E5E
:10287000F9D52846BDE8F0812DE9F0410446002550
:102880001E469046C80301D5302700E02027880463
:1028900004D505E041463846B0476D1C641EF9D5A5
:1028A0002846BDE8F08100002DE9F04D0546DFF82F
:1028B000388221F000408D4F82B00C46404520DB2D
:1028C000A0EB080129430BD08949884201DC10D1D3
:1028D0007DB102B028462146BDE8F04DFFF762BB4E
:1028E000002CC7BF002001468248394602B0BDE82F
:1028F000F08D0120FFF778FB02B0BDE8F04DFFF747
:1029000054BB7D49884244DA7C498142A1BF794861
:102910007B4902B0BDE8F08D2A4623461046194691
:10292000FDF7FDFC8346024676480E460B4606211F
:102930007844FFF76BFA5A463346FDF7F0FC07463A
:1029400071488A465A46334604217844FFF75EFAB6
:102950005A463346FDF7E3FC00224346FDF738FCB8
:1029600002460B4638465146FDF74BFD2A462346A4
:10297000FDF7D5FC654A664BFDF7CEFC2A4623469B
:10298000FDF7CAFC02B05B4ABDE8F04D5C4BFDF7B9
:10299000C3BC002C4FF000024BDA464643462846A3
:1029A0002146FDF715FC4FF0FF32FDF7D6FE044639
:1029B000024658480D460B4606217844FFF726FA92
:1029C00022462B46FDF7ABFC804653488A462246FA
:1029D0002B4604217844FFF719FA22462B46FDF7CF
:1029E0009EFC00223346FDF7F3FB06468B4620464D
:1029F000294600F0ABF904460D4632465B46404698
:102A00005146FDF7FEFC22462B46FDF788FC3F4A67
:102A10003F4BFDF77EFC22462B46FDF7D9FB0122FA
:102A2000FDF79BFE02B03B46BDE8F04D314AFDF795
:102A300073BC2D4B28462146FDF76EFC4FF0FF324C
:102A4000FDF78BFE05460E4600F080F900270C4688
:102A500080463A460B46FDF7BBFB82468B463A461C
:102A6000234610461946FDF75AFC2A463346FDF721
:102A700053FC52465B46FDF7C4FC824627488B4612
:102A80002A46334606217844FFF7C0F92A463346E2
:102A9000FDF745FCCDE9000121482A4633460421D3
:102AA0007844FFF7B3F92A463346FDF738FC002295
:102AB0000D4BFDF78DFB02460B46DDE90001FDF7EE
:102AC000A0FC42462346FDF72AFC52465B46FDF732
:102AD0007FFB3A462346FDF77BFB02B00122BDE8AF
:102AE000F04DFDF73ABE00000000F03FFB21094029
:102AF0000000F07F182D44540000E03F0000603CCF
:102B0000FB21F93FBC0D0000D20D0000075C14331F
:102B100026A6913C320D0000480D0000660C000016
:102B20007C0C000000B5244B21F0004287B09A4293
:102B3000DCBF0022134629DD204B9A4208D140B960
:102B40004FF00100FFF750FAFFF72FFA07B000BD72
:102B500003DBFFF727FA07B000BD02AAFEF714FF58
:102B600010F0030104BF0DF1080C9CE80F000DD01C
:102B7000012001290ED0022914D00DF1080C00907B
:102B80009CE80F00FFF798F907B000BDFFF7C0F809
:102B900007B000BD0DF1080C00909CE80F00FFF796
:102BA0008BF905E00DF1080C9CE80F00FFF7B0F879
:102BB00007B081F0004100BDFB21E93F0000F07F3C
:102BC00010B501201949086000BF02211848FEF71E
:102BD000F5FD0128F9D11648FEF732FE2428F4D17C
:102BE00000241EE000BF02211148FEF7E7FD012886
:102BF000F9D10F48FEF724FE0E4908550846005D3E
:102C000024280DD140F21450844209DA0A480749B9
:102C1000096840F8214005480068401C03490860E5
:102C2000641CB4F5006FDDDB10BD0000480000201F
:102C300000480040B80300207012002070B5044620
:102C40000D46E1B20548FEF7FFFD00BF082103482D
:102C5000FEF7B4FD0028F9D0204670BD00380140D1
:102C60004FF4E130FEF700FE4FF4E130FEF720FEB6
:102C70004FF4E130FEF740FE40F6B8316420FEF735
:102C800059FA14210448FEF7DFFD04A0FEF758FEB0
:102C900001E0FEF7C5F9FCE7004C0040496E69749D
:102CA0005F537563636573730D0A000000B5254BB0
:102CB00021F0004287B09A4203DC002213460092C2
:102CC0002BE0214B9A4208D140B94FF00100FFF7A9
:102CD0008BF9FFF76AF907B000BD03DBFFF762F974
:102CE00007B000BD02AAFEF74FFE10F003014FF03F
:102CF00001000DD0012914D002291AD00DF1080CC1
:102D00009CE80F00FFF704F807B081F0004100BD18
:102D10000DF1080C00909CE80F00FFF7CDF807B00C
:102D200000BD0DF1080C9CE80F00FEF7F1FF07B0A5
:102D300000BD0DF1080C00909CE80F00FFF7BCF8F7
:102D4000E2E70000FB21E93F0000F07F2DE9F041C0
:102D500006460F46FDF718FD041E0D4618BF01205C
:102D6000284320F00040C0F17F6000F1E040C00F38
:102D70000ED0301C18BF0120384320F00040C0F1B5
:102D80007F6000F1E040C00F04BF0120FFF72CF985
:102D900020462946BDE8F0812DE9FF5F43484449BC
:102DA000096800EB011030C840484149096800EB50
:102DB0000111D1E902673E4801683EA0FEF7C0FD5F
:102DC0003F480CC820462946FDF7A3FA04460D46A5
:102DD0003C480CC830463946FDF79BFA06460F467C
:102DE00038488DE8F00036490CC803C9FDF758FF94
:102DF000354A03C232463B4620462946FDF7FEFED1
:102E0000324A03C2314830490CC803C9FDF781FA80
:102E10002F4A03C200222F4B2D4903C9FDF798FB0F
:102E200007D200222C4B2A4903C9FDF7D1F9284AC1
:102E300003C20022294B264903C9FDF7A1FB08D292
:102E40001B480068401C1A490860012004B0BDE816
:102E5000F09F0022224B1E4903C9FDF779FB06D2E1
:102E600013480068401C124908600120EEE7002268
:102E70001A4B174903C9FDF7C4FA80460022194BC3
:102E8000FDF74DFA82460022174BFDF7A1F9104AD3
:102E900003C20F4903C9FDF741FB144908600C4800
:102EA0000CC813A0FEF74CFD0020CFE76000002007
:102EB00050000020C2B7BEB6B5E33A25640D0A0043
:102EC00028000020300000202000002038000020D2
:102ED00040000020008066C00080764000805640A0
:102EE000008056C0000020400000384034040040FC
:102EF000BDC7B6C820D5BCBFD5B1C83A25660D0A36
:102F0000000000002DE9F04F91B004460D46164632
:102F10001F4625F00040CDE90A4020460B99FFF7F7
:102F200015FF8246934A944BFDF7F9F9914A934B6A
:102F3000CDE90E0120462946FDF7F1F982463246D9
:102F40003B46FDF7ECF932463B46CDE90A0189489C
:102F50008949FDF7E4F9824632463B46FDF7DFF941
:102F600032463B46CDE9060100208549FDF7D7F9F9
:102F700000224FF08043CDE9020120462946FDF7AB
:102F8000CEF9824600227F4BFDF722F9CDE9000100
:102F9000DDE90223FDF71CF9CDE90401DDE9062393
:102FA000FDF716F9CDE90801DDE90A23FDF710F96F
:102FB000CDE90C01DDE90E23FDF70AF980468946CB
:102FC00000224FF0804320462946FDF7A8F98246AB
:102FD0006D480CC85046FDF7A2F9CDE90201FFF794
:102FE00065FE0022694BCDE90401FDF798F9002246
:102FF000674BCDE9080120462946FDF790F9824646
:1030000061480CC85046FDF78AF9CDE90201FFF787
:103010004DFE00225D4BCDE90401FDF780F9CDE9BD
:103020000601DDE90823FDF7D3F800224FF08043C5
:10303000CDE90A01FDF773F90022514BCDE90C01EE
:10304000FDF7DFF942464B46CDE90E01FDF7C0F82A
:103050008046894600224A4B30463946FDF7D1F971
:10306000824649480CC85046FDF759F9CDE902019E
:10307000FFF71CFE0022474BCDE90401FDF74FF995
:10308000CDE9080140480CC830463946FDF747F9FC
:10309000CDE90401FFF70AFE824600223B4BFDF713
:1030A0003EF9CDE90601DDE90823FDF791F800229C
:1030B0004FF08043CDE90A01FDF731F90022304B92
:1030C000CDE90C01FDF79DF942464B46CDE90E01D5
:1030D000FDF77EF8804689462B480CC830463946B5
:1030E000FDF71DF9824600222B4BFDF78AF9CDE949
:1030F0000201FFF7DBFD0022284BCDE90401FDF7BB
:103100000EF90022264BCDE9080130463946FDF77D
:1031100078F982461C480CC85046FDF700F9CDE905
:103120000201FFF7C3FD00221E4BCDE90401FDF7AC
:10313000F6F8CDE90601DDE90823FDF749F800229C
:103140004FF08043CDE90A01FDF7E9F800220C4B6E
:10315000CDE90C01FDF755F942464B46CDE90E018C
:10316000FDF736F8804689464046494611B0BDE82D
:10317000F08F00009A9999999999C93F9999B93F07
:1031800000000840000059C0080000200000344042
:10319000000018400000444000003E400000744021
:1031A00000002840000064402DE9F04F8FB0044635
:1031B0000D469046994625F00040CDE9084020464E
:1031C0000999FFF7C3FD8246914A924BFDF7A7F894
:1031D0008F4A904BCDE90C0120462946FDF79FF818
:1031E000824642464B46FDF79AF8894A894BCDE91B
:1031F000080120462946FDF792F8824622462B46D2
:10320000FDF78DF842464B46CDE9040100204FF012
:103210008041FDF784F882468B4600227E4B204693
:103220002946FCF7D5FF52465B46CDE90001FCF785
:10323000CFFFCDE90201DDE90423FCF7C9FFCDE9A9
:103240000601DDE90823FCF7C3FFCDE90A01DDE94A
:103250000C23FCF7BDFF06460F4600224FF08043CB
:1032600020462946FDF75BF8CDE900016B480CC804
:103270000098FDF754F88246FFF718FD0022684BCE
:10328000CDE90201FDF74BF80022664BCDE90601BE
:1032900020462946FDF743F8824660480CC8504650
:1032A000FDF73DF8CDE90001FFF700FD00225C4B82
:1032B000CDE90201FDF733F8CDE90401DDE906238C
:1032C000FCF786FF00224FF08043CDE90801FDF7AF
:1032D00026F80022544BCDE90A01FDF792F8324658
:1032E0003B46CDE90C01FCF773FF06460F46002272
:1032F0004D4B20462946FDF784F8824647480CC8C6
:103300005046FDF70CF8CDE90001FFF7CFFC002295
:10331000464BCDE90201FDF702F8CDE906013F4831
:103320000CC820462946FCF7FAFFCDE90201FFF759
:10333000BDFC824600223A4BFCF7F1FFCDE90401C7
:10334000DDE90623FCF744FF00224FF08043CDE97E
:103350000801FCF7E4FF0022334BCDE90A01FDF739
:1033600050F832463B46CDE90C01FCF731FF0646EA
:103370000F4600222E4B20462946FDF742F8CDE9A4
:10338000000126480CC80098FCF7C9FFCDE90201EE
:10339000FFF78CFC824600221F4BFCF7C0FF002287
:1033A000244BCDE9060120462946FDF72AF882463E
:1033B0001A480CC85046FCF7B2FFCDE90001FFF7F0
:1033C00075FC00221C4BCDE90201FCF7A8FFCDE9FA
:1033D0000401DDE90623FCF7FBFE00224FF08043E9
:1033E000CDE90801FCF79BFF00220F4BCDE90A0154
:1033F000FDF707F832463B46CDE90C01FCF7E8FE45
:1034000006460F46304639460FB0BDE8F08F000043
:103410009A9999999999B93F00C072400800002083
:103420000000344000001840000008400000444004
:1034300000003E400000284000C062402DE9F04FEF
:1034400093B006460F4614461D460022634B2046A5
:103450002946FCF75EFF0022614BCDE90A013046A8
:103460003946FCF756FFCDE90801DDE90A23FFF7ED
:1034700049FD82468B460022584B20462946FCF7E0
:1034800048FF0022564BCDE90A0130463946FCF789
:1034900040FFCDE90801DDE90A23FFF785FECDE90C
:1034A000100100224F4B20462946FCF7AAFFCDE928
:1034B0000A014D480CC80A98FCF731FFCDE90E010E
:1034C000DDE90E01FFF7F2FB8046894642464B4696
:1034D000464903C9FCF723FF42464B46CDE90801A4
:1034E000FCF71DFF0022424BCDE90A01FCF714FF57
:1034F0008046894640464946FFF728FCCDE90C0145
:1035000040464946DDE90C23FCF709FFCDE90401FB
:1035100036480CC800203649FCF7FBFECDE9000117
:1035200034480CC80098FCF7FAFECDE90201DDE949
:103530000423FCF766FFCDE906012B480CC806986A
:10354000FCF7EDFE0022274BCDE90A015046594613
:10355000FCF7E5FECDE90801DDE90A23FCF751FFA0
:1035600082468B46DDE90E01FFF7DCFACDE9040166
:103570002049DDE90C2303C9FCF743FFCDE9020133
:10358000DDE90423FCF7CBFECDE9060116480CC8A3
:103590000698FCF7C4FE0022124BCDE90A01DDE9D2
:1035A0001001FCF7BCFECDE90801DDE90A23FCF7B8
:1035B00028FFCDE9100152465B4620462946FCF71C
:1035C00007FE0D4A03C230463946DDE91023FCF7F9
:1035D000FFFD0A4A03C213B0BDE8F08F00804140EE
:1035E00000405A400080664008000020180000207B
:1035F0000000F03F100000203000002028000020D4
:103600002DE9F04F95B004460D4616461F46DDE9FC
:1036100020ABDDE91E8952465B4650465946FCF711
:103620007EFE42464B46CDE9020140464946FCF744
:1036300076FECDE90001DDE90223FCF7C9FDCDE905
:103640000401FFF783FB32463B46CDE908013046D3
:103650003946FCF764FE22462B46CDE9020120469E
:103660002946FCF75CFECDE90001DDE90223FCF709
:10367000AFFDCDE90401FFF769FBCDE90601DDE906
:103680000823FCF74CFE52465B46CDE90C01304660
:103690003946FCF744FE42464B46CDE90801204638
:1036A0002946FCF73CFECDE90601DDE90823FCF7DD
:1036B0008FFDCDE90A01DDE90C23FCF7A2FECDE97F
:1036C0000E01FFF7F1F80022074BCDE91001FCF7DE
:1036D00026FECDE9120105480CC81298FCF791FEB0
:1036E00015B0BDE8F08F0000008066408003002028
:1036F000555555555555C53F7D6FEB0312D6D4BF73
:103700005544880E55C1C93F3B8F68B52882A4BF78
:1037100088B20175E0EF493F09F7FD0DE13D023F39
:103720004B2D8A1C273A03C0C88A599CE52A0040C1
:1037300059018D1B6C06E6BF82922EB1C5B8B33F0E
:103740004C5555555555A53F7751C1166CC156BFBF
:103750009015CB19A001FA3EAD529C804F7E92BECF
:10376000C4B1B4BD9EEE213ED43888BEE9FAA8BDEE
:1037700000004054FB21F93F3163621A61B4D03D2F
:103780000000601A61B4D03D7370032E8A19A33B08
:103790000000002E8A19A33BC14920259A837B395A
:1037A00000000000000000006E83F9A22915444EBD
:1037B000D15727FCC0DD34F5999562DB4190433C3D
:1037C000AB6351FE61C5BBDE3A6E24B7E0D24D4219
:1037D000EA2E49061C92D1091CEB1DFE3EA729B119
:1037E000F53582E88444BB2E26709CE9417E5FB4A7
:1037F00039D69139F43953838B5F849C3B28F9BDCA
:10380000FF97F81F0F9805DE8B112FEF1F6D0A5AD7
:10381000CF7E366DB709CB27663F464F2DEA5F9EB8
:10382000C7BA27757BF1E5EBF739073DEA92528A73
:10383000B15FFB6B085D8D1FA6F810111111813F60
:10384000D561C119A0012ABF7DFEB157E31DC73E56
:10385000EB9C2B8AE6E55ABE7CD5CF5A3AD9E53D9A
:103860008038000800000020B4030000BE080008F3
:103870008C390008B403002044130000D81F00084E
:1038800030115E04C777102E4A40182D4454FB2196
:103890000940000E3040C15458410BEF80AF8F6A91
:1038A0007B3F3201B20E181666F37A2878195C4015
:1038B0006B0C3A21744B4140153388307A101E9CB2
:1038C000FD606472101EBECC66C47B101EEB430FFD
:1038D000636F101EE414FCBA7C101E3F6247256D16
:1038E000101EBADB16E17D101E8EA8F5236A101E8D
:1038F00081ED60C47E101EE30B491C68101EE26B54
:1039000095817F101E96E270076610111D325B4F85
:1039100080101E1A16619263101E3807191281104A
:103920001EC3F806B260102E32983B0A82901DD357
:103930001A7B5D101E70CE0C0B83101ED17E7B098E
:103940005B101EFE957C8984102E5008F4F45730CD
:103950001D06101D86101E570ADC1555102DDC8B18
:1039600081D8102EB2EC30C3527001FF01FF01412B
:103970001009182D4454FB210940840E27076809BB
:0C39800001020304060708090CA910410D
:04000005080001915D
:00000001FF
