:020000040800F2
:10000000F00E0020A5010008AD010008AF010008B6
:10001000B1010008B3010008B501000800000000AC
:10002000000000000000000000000000B701000810
:10003000B901000800000000BB010008BD01000874
:10004000BF010008BF010008BF010008BF01000890
:10005000BF010008BF010008BF010008BF01000880
:10006000BF010008BF010008BF010008BF01000870
:10007000BF010008350A0008BF010008BF010008E1
:10008000BF010008BF010008BF010008BF01000850
:1000900000000000BF01000800000000BF010008D0
:1000A000BF010008BF010008BF010008BF01000830
:1000B000CD1E0008BF010008BF010008BF010008F5
:1000C00000000000BF01000800000000BF010008A0
:1000D000BF01000815210008BF010008BF0100088A
:1000E000BF010008BF010008BF010008BF010008F0
:1000F000BF010008BF010008BF010008BF010008E0
:1001000000000000BF010008BF010008BF01000897
:10011000BF010008BF010008BF010008BF010008BF
:10012000BF010008BF010008BF010008BF010008AF
:10013000BF010008BF01000800000000000000002F
:10014000BF0100080000000000000000BF0100081F
:10015000000000000000000000000000BF010008D7
:10016000000000000000000000000000000000008F
:10017000000000000000000000000000000000007F
:100180000000000000000000BF010008BF010008DF
:10019000DFF80CD000F08EFB00480047553B00080C
:1001A000F00E00200648804706480047FEE7FEE7BD
:1001B000FEE7FEE7FEE7FEE7FEE7FEE7FEE7FEE717
:1001C000691E00089101000830B505462A460B4615
:1001D00012F8010B13F8014B08B1A042F8D01CB182
:1001E000002802D06D1CF1E7284630BD2DE9FE4FF6
:1001F000804681EA0300C00F0C46009021F00041C8
:1002000023F00045B8EB0200A94105D24046214643
:1002100090461C460B46024623F00040104347D050
:10022000270DC7F30A00C3F30A510290401A019048
:1002300040286BDAC3F3130040F4801B0098924609
:1002400020B10023D2EB030A63EB0B0B0198594654
:10025000C0F14002504600F01EFA06460D465046D8
:100260005946019A00F036FA10EB0800614100246B
:1002700087EA115284EAE7731A4340D0009A62B3C6
:10028000019A012A4FEA075215DC001B61EB0201BB
:100290004FF0004202EA0752CDE90042001C41F54E
:1002A000801132462B4600F036FA03B0BDE8F08FDD
:1002B00040462146F9E7001B61EB0201001C41F5B5
:1002C000801300185B412018A2F5001747EB0301CB
:1002D00040EAD570B6196D4111E06D084FEA360657
:1002E00045EAC0754FEA0752001B61EB0201001C92
:1002F00041F5801149084FEA30000019514132465A
:100300002B4603B0BDE8F04F00F0F6B9009801228B
:1003100040000023D0EB020263EBE073009821461B
:100320004FEAE074B8EB000061EB0401E9E783F009
:1003300000435BE781F0004158E72DE9FE4F81EA79
:10034000030404F0004421F0004100944FF0000B3E
:1003500023F0004350EA01045ED052EA03045BD06C
:10036000C3F30A54C1F30A552C44A4F2F3340194A4
:10037000A0FB0254C1F3130141F48011C3F3130332
:1003800043F4801301FB024400FB034E840A970AE6
:1003900044EA815447EA8357A4FB076802958D0A13
:1003A00005FB07854FEA932C04FB0C542705029D9F
:1003B0004FEA065847EA1637B5EB08056EEB070C0F
:1003C000870E920E47EA811742EA8312A7FB0201C9
:1003D000B6EB0B0164EB00042B0D43EA0C335E1803
:1003E00044EB1C50DA465146E7FB0201C5F3130407
:1003F0004FEA0B3343EA14534FEA0432019C43EAB9
:100400000603A4F10C040294009CCDE900B400F0B2
:1004100082F903B0BDE8F08F00200146F9E72DE92D
:10042000F04D81EA030404F0004B21F0004514462E
:100430004FF0000A23F0004150EA050220D054EAB0
:1004400001021DD0C5F30A570246C5F31303C1F3D9
:100450001300C1F30A5640F4801543F48013A7EB50
:100460000608101BD64608F2FD3873EB050002D3D0
:1004700008F1010801E092185B41B8F1000F03DABE
:1004800000200146BDE8F08D00204FF480110646A3
:1004900084460EE0171B73EB050705D3121B63EBB5
:1004A000050306434CEA010C49084FEA3000921854
:1004B0005B4150EA0107EDD152EA030012D082EA13
:1004C000040083EA0501084305D0101BAB4106D2A6
:1004D0000122002306E000224FF0004302E06FF00B
:1004E000010253101AEB06004CEB085110EB0A0006
:1004F00041EB0B01BDE8F04D00F0FEB80EB5C10FA9
:1005000080EAE0700844CA07002140F233438DE8D6
:100510000E000A460B4600F0FEF803B000BD0EB513
:1005200040F2334102910021CDE900110A460B4609
:1005300000F0F1F803B000BD70B5C1F30A5201F04C
:1005400000450024C1F3130140F2FF3341F4801150
:100550009A4201DA002070BD40F233439A42A2F27F
:10056000334203DC524200F0A5F800E090402C43F7
:10057000F1D0404270BDC1F30A5210B5C1F313016E
:1005800040F2FF3341F480119A4201DA002010BD9D
:1005900040F233439A42A2F2334203DC524200F06B
:1005A00089F810BD904010BD30B5041E71F10004F3
:1005B00004DB4FF00044404264EB0101141E73F170
:1005C000000405DB1C464FF00043524263EB04037A
:1005D0008B4208BF824230BD30B5041E71F1000469
:1005E00004DB4FF00044404264EB0101141E73F140
:1005F000000405DB1C464FF00043524263EB04034A
:10060000994208BF904230BD30B50B4601460020EC
:100610002022012409E021FA02F59D4205D303FAC4
:1006200002F5491B04FA02F52844151EA2F1010245
:10063000F1DC30BD2DE9F05F0546002092469B4677
:1006400088460646814640241BE0284641464746E8
:10065000224600F02FF853465A46C01A914110D353
:1006600011461846224600F016F82D1A67EB0108CD
:100670004F4622460120002100F00DF817EB00093B
:100680004E41201EA4F10104DFDC484631462A46D3
:100690004346BDE8F09F202A04DB203A00FA02F12D
:1006A000002070479140C2F1200320FA03F3194360
:1006B00090407047202A04DB203A21FA02F0002102
:1006C000704721FA02F3D040C2F120029140084362
:1006D00019467047202A06DBCB17203A41FA02F070
:1006E00043EAE07306E041FA02F3D040C2F120028F
:1006F000914008431946704710B5141E73F1000469
:1007000008DA401C41F1000192185B411A4301D103
:1007100020F0010010BD2DE9F04D92469B4611B12D
:10072000B1FA81F202E0B0FA80F220329046FFF78F
:10073000B2FF04460F4640EA0A0041EA0B01534665
:100740005A46084313D0114653EA010019D0C8F1A4
:1007500040025046FFF7AEFF05460E46504659464A
:100760004246FFF798FF084305D0012004E02046E9
:100770003946BDE8F08D0020054346EAE0762C437B
:1007800037430A986305E40AA0EB08000022FD0A3B
:1007900044EA47540A3002D500200146E9E7010542
:1007A00010196941DDE9084500196941BDE8F04DBE
:1007B000A2E770B521F0004303430CD0C1F30A5502
:1007C0000024D5EB040564EB0403D617AD1AB3413E
:1007D00002DB0020014670BD201841EB025170BDC4
:1007E0002DE9F04D00231A461B1A8A4103DB002035
:1007F0000146BDE8F08DC1F30A52C1F3130141F483
:1008000080154FF0000BD10702D100186D41521E28
:100810000027044640F2FF11384601EB620A3E46CB
:100820008046024600204FF48011FFF743FFC219B3
:100830007141BB1846EB0100B4EB030C75EB000CE7
:1008400004D3E41A65EB000517460E46241908F197
:1008500001006D4180463428E3DDF91946EB0600BE
:10086000091BA84103D24FF0FF32134601E00022DA
:1008700013461BEB070046EB0A51BDE8F04DFFF7AE
:100880003BBFC1F30A52C1F3130140F2FF3341F4FD
:1008900080119A4202DA00200146704740F2334349
:1008A0009A42A2F2334202DC5242FFF703BFFFF743
:1008B000F2BE0000064C074D06E0E06840F0010380
:1008C00094E8070098471034AC42F6D3FFF764FC75
:1008D000A8470008C847000870B58C1810F8015BDD
:1008E00015F0070301D110F8013B2A1106D110F8C9
:1008F000012B03E010F8016B01F8016B5B1EF9D1CD
:100900002B0705D40023521E0DD401F8013BFAE752
:1009100010F8013BCB1A921C03E013F8015B01F8BD
:10092000015B521EF9D5A142D8D3002070BD2DE93C
:10093000F043054616461F4608464FF0000C0024BB
:1009400023E0002319E003F1010805FB08F804F196
:100950000109B8FBF9F28A4202D9A2EB010801E0D1
:10096000A1EB02084246904202D9104633703C7017
:1009700010B94FF0010C02E05B1C402BE3D300BF29
:10098000BCF1000F00D002E0641C042CD9D300BFDE
:10099000BDE8F08310B501229103084800F021FA68
:1009A00000224FF48051054800F01BFA00224FF45A
:1009B0000051024800F015FA10BD0000001004407C
:1009C00064200149086070476000002001B50021E3
:1009D00006E00648016800BF081EA1F10101FBD135
:1009E0000098421E00920028F3D108BD600000204C
:1009F000014600224FF0E0231A61CA005A6100222A
:100A00009A6105221A6100BF4FF0E022106900F0E0
:100A100001021AB100F48032002AF5D04FF0E02232
:100A2000126922F001024FF0E0231A6100229A615C
:100A3000704700002DE9F0414FF4007000F064F8B9
:100A400000283BD04FF4007000F04AF800211C4809
:100A500000F054F8002006E01A49095C11B923217E
:100A6000184A1154401CB0F5007FF5DB15491648B3
:100A700000F01EFD0121124800F040F81248D0E9B4
:100A800016432246D0E91A61304603F02BFC0022BF
:100A90000E4B0F4903C9FFF79FFD0DD203F0FEF87F
:100AA0000C4800680C490968884207DD00210B48A2
:100AB00001F06EFC00BFFEE701F062F8BDE8F081D6
:100AC0003000024058060020580A0020000049402B
:100AD000A8000020B8000020BC000020004C00400E
:100AE000B0F1805F02D9034908607047024948604D
:100AF00000BFFAE70404024000000240026822F04E
:100B000001020A43026070470146B1F1805F07D9D4
:100B100007480068084008B1012070470020FCE742
:100B200004480068084008B10120F6E70020F4E717
:100B300000040240000002401AB103680B43036046
:100B400002E003688B430360704710B50A7A8B7D1F
:100B50001A430B7C1A434B7C1A434B8A1A438B8AE9
:100B60001A430B8B1A434B8B1A43036847F6F074F6
:100B7000A3431A430260026822F400428B8B1A439B
:100B80000260CA6842600A6882604A68C26010BD3A
:100B900070B506480CC800204FF08041FFF7CDFB30
:100BA00004460D462046294670BD00002006002060
:100BB0002DE9F05F06460F469046994642464B4661
:100BC00030463946FFF7B6FB824601F079FC044611
:100BD0000D4600220C4B20462946FFF7FDFC0ED2A5
:100BE00000220A4B20462946FFF7DEFC07D20022EE
:100BF000064B20462946FFF79AFB04460D46204641
:100C00002946BDE8F09F00000080664000807640E5
:100C10002DE9FF5F88B0DDE91623DDE90801FFF764
:100C200089FB04460D46DDE90A23DDE91801FFF7DB
:100C30007EFB06460F4625F0004000210291CDE9DB
:100C40000314059032463B46CDE900402046294634
:100C500003F02AFCCDE9060127F00040CDE904604D
:100C60000021009132463B46CDE901160390204613
:100C7000294603F019FC82468B4600221A4BDDE917
:100C80000601FFF791FC12D20022174B504659463D
:100C9000FFF78AFC02D2D046D94620E00022124B50
:100CA000DDE90601FFF7A2FA8046894617E0002237
:100CB0000D4B50465946FFF777FC08D252465B462B
:100CC00000200A49FFF733FB8046894607E0524679
:100CD0005B4600200549FFF72AFB804689464046CF
:100CE00049460CB0BDE8F09F008056400080764039
:100CF000F0B50246CF7807F00F05CF7807F0100760
:100D00000FB18F783D431446002016E087063B0E56
:100D10000F884FF0010C0CFA00FC07EA0C0757B1E2
:100D2000D4F800C00F279F402CEA070705FA03FC00
:100D300047EA0C072760471CF8B20828E6DB141DB9
:100D40000F883E12002012E087063B0E01278740E5
:100D5000374057B1D4F800C00F279F402CEA07074F
:100D600005FA03FC47EA0C072760471CF8B208287D
:100D7000EADBCF78282F06D15769B1F800C047EADF
:100D80000C07576108E0CF78482F05D11769B1F8F3
:100D900000C047EA0C071761F0BD70B54D07EB0EB8
:100DA000082902DA00F1200501E000F124052C46B3
:100DB0000F269E402568B54302FA03F635432560A9
:100DC00070BD02469068084008B1012070470020BD
:100DD000FCE74FF6FF710180022181700421C17090
:100DE00070470AB1016100E04161704710B50E49DA
:100DF0000B2000F027F80D490B2000F023F80C49D8
:100E00000B2000F01FF80B490B2000F01BF80A49DB
:100E10000B2000F017F809490B2000F013F80849DF
:100E20001C2000F00FF810BDE8030020140400207F
:100E3000400400206C04002098040020C40400201A
:100E40004805002070B505460C462E460DE000BF53
:100E50000821074801F045FA0128F9D1208881B21C
:100E6000034801F095FA241D761E002EEFDC70BDBC
:100E70000048004010B5012211030848FFF7B1FFF8
:100E800000224FF400510548FFF7ABFF00224FF45A
:100E900080410248FFF7A5FF10BD0000001004408C
:100EA00010B500F00FFA01200A4908600A490860ED
:100EB0000A490860FC2200213C2000F0D5F9E0221C
:100EC00001213C2000F0D0F9012202213C2000F059
:100ED000CBF910BD40000020440000204800002055
:100EE0002DE9F041032000F061F824490860072053
:100EF00000F05CF822490860052000F057F821490D
:100F000008601E480068B0B30846006898B31C48E3
:100F1000006880B3194800681B49086018480068D9
:100F20001A4908601748006819490860164800689F
:100F300018490968484318490968401A1749086060
:100F40001248006816490968484316490968401A5A
:100F50001549086011480068FFF7D0FA04460D46AD
:100F600011480068FFF7CAFA064622462B4602F0EF
:100F7000F7FDBDE8F081FFE700BFFAE70C000020B5
:100F800010000020140000200000002004000020B9
:100F90000800002040000020340000204C00002009
:100FA00044000020380000205000002070B50446A6
:100FB000E1B23C2000F05CF80546601CC1B23C2068
:100FC00000F056F80646012202213C2000F04CF9C0
:100FD00006EB052000B270BD10B500224FF4806111
:100FE0000E48FFF7FEFE0A20FFF7F0FC0122D102B7
:100FF0000A48FFF7F6FE012291020848FFF7F1FECA
:101000000A20FFF7E3FC00224FF480610348FFF75A
:10101000E8FE0A20FFF7DAFC10BD0000000C0440D7
:1010200070B5002400251CE06006040E00224FF479
:1010300080610E48FFF7D5FE0A20FFF7C7FC0122AA
:1010400091020A48FFF7CDFE0A20FFF7BFFC4FF4DC
:1010500000610648FFF7B5FE08B144F00104681CC2
:10106000C5B2082DE0DB204670BD0000000C044036
:1010700070B504460D4600F061F808B9002070BD57
:10108000204600F02DF800F0B9F818B900F082F809
:101090000020F4E7284600F023F800F0AFF818B974
:1010A00000F078F80020EAE700F048F808B90020DE
:1010B000E5E7611CC8B200F013F800F09FF818B91A
:1010C00000F068F80020DAE7FFF7AAFF0646FFF70E
:1010D00083FF00F05FF808B90020D0E73046CEE784
:1010E00070B50446002523E000224FF480611248C9
:1010F000FFF777FE0A20FFF769FC04F0800028B1B3
:101100000122D1020C48FFF76CFE05E000224FF4EB
:1011100000610948FFF765FE6006040E0122910296
:101120000548FFF75EFE0A20FFF750FC681CC5B2B9
:10113000082DD9DB70BD0000000C044010B5012261
:1011400091021348FFF74DFE0122D1021048FFF72C
:1011500048FE0A20FFF73AFC4FF400610C48FFF705
:1011600030FE08B9002010BD00224FF4006108488D
:10117000FFF737FE0A20FFF729FC00224FF4006139
:101180000348FFF72EFE0A20FFF720FC0120EAE7C4
:10119000000C044010B5012291021748FFF721FE10
:1011A00000224FF400611448FFF71BFE0A20FFF7EE
:1011B0000DFC4FF400611048FFF703FE08B100205A
:1011C00010BD0122D1020C48FFF70BFE0A20FFF7E9
:1011D000FDFB4FF400610848FFF7F3FD08B900205C
:1011E000EEE70122D1020448FFF7FBFD0A20FFF7DA
:1011F000EDFB0120E4E70000000C044010B50022E4
:101200004FF480611748FFF7ECFD0A20FFF7DEFB83
:101210000122D1021348FFF7E4FD01229102114897
:10122000FFF7DFFD0A20FFF7D1FB4FF400610D4807
:10123000FFF7C7FD50B100224FF480610948FFF766
:10124000D0FD0A20FFF7C2FB002010BD00224FF4A2
:1012500080610448FFF7C5FD0A20FFF7B7FB0120B6
:10126000F3E70000000C044070B506460C46154636
:10127000FFF764FF08B9002070BD3046FFF730FF6C
:10128000FFF7BCFF18B9FFF785FF0020F4E7204601
:10129000FFF726FFFFF7B2FF18B9FFF77BFF00202B
:1012A000EAE72846FFF71CFFFFF7A8FF18B9FFF78A
:1012B00071FF0020E0E7FFF76DFF08B90020DBE7D2
:1012C0000120D9E708B50121082000F0BFFB6846DE
:1012D000FFF77FFD4FF44060ADF8000001208DF86E
:1012E000020014208DF8030069460248FFF700FD54
:1012F00008BD0000000C044070B5002213460449EC
:1013000003C9FFF71AF804460D462046294670BD6A
:101310001006002010B54FF4E13001F049F84FF409
:10132000E13001F0ABF84FF4C671642000F042FBED
:101330004FF4E13001F07EF8FFF742FB00F010FFC0
:10134000FFF754FD00F024F8FFF7AAFDFFF7C8FDF2
:10135000084A03C21021084801F01AF841F27071DE
:10136000642000F0CFFD05A001F0D0F8202007494F
:10137000086010BD90000020004C0040496E697468
:101380005F537563636573730D0A0000342C01406D
:1013900008B50121102000F059FB6846FFF719FD40
:1013A0004FF4E040ADF8000001208DF8020010205D
:1013B0008DF8030069461548FFF79AFC01210420C7
:1013C00000F044FB6846FFF704FD0F20ADF8000075
:1013D00001208DF8020004208DF8030069460C48B6
:1013E000FFF786FC00224FF400510848FFF7F9FC94
:1013F00000224FF480510548FFF7F3FC00224FF420
:1014000080410248FFF7EDFC08BD000000100440D9
:10141000000804401CB501210C48FFF7D2FC98B924
:10142000FFF7B8FA00BF01210848FFF7CAFC0028FF
:10143000F9D000F0A5FB064803C8CDE90001054836
:101440000CC805A001F062F81CBD000000080440B3
:10145000A8000020B000002025662C25662C0D0A6F
:101460000000000010B5FFF7D5FF02A001F04EF814
:1014700010BD0000546573740D0A00000246134647
:1014800010E010782A2805D01078202802DB107888
:101490007A2801DDFF20704710782C2801D1481EE2
:1014A000C1B2521C0029ECD1D01AC0B2F3E700003F
:1014B0002DE9F0478AB004468A4691A15046FEF7CE
:1014C00083FE814601214846FFF7D8FF0546FF2DE0
:1014D00024D009EB050008A900F029F907469DF87A
:1014E00020100A2000F018F9B7FBF0F642F2107055
:1014F000B6FBF0F0C1B24E2001556420B6FBF0F00F
:101500006421B0FBF1F201FB12014F200155642070
:10151000B6FBF0F100FB1161502001550321484654
:10152000FFF7ACFF0546FF2D39D009EB050008A9F0
:1015300000F0FDF806469DF82000801CC1B20A208C
:1015400000F0EAF8B6FBF0F73846FEF7E8FFC4E92A
:10155000160100226C4BD4E916713846FEF7EDFEF9
:10156000CDE902013046FEF7DAFF07460022674B5D
:10157000FEF755FFCDE90001DDE90223FEF7D7FEB6
:101580000022634BCDE90401FEF749FFCDE90601D6
:10159000D4E916733A46FEF729FEC4E91601042180
:1015A0004846FFF76BFF0546FF2D03D019F80500ED
:1015B00084F8600005214846FFF760FF0546FF2DCF
:1015C00039D009EB050008A900F0B1F806469DF8EE
:1015D0002000801CC1B20A2000F09EF8B6FBF0F794
:1015E0003846FEF79CFFC4E91A010022464BD4E9B5
:1015F0001A713846FEF7A1FECDE902013046FEF72A
:101600008EFF07460022414BFEF709FFCDE900019E
:10161000DDE90223FEF78BFE00223D4BCDE90401FC
:10162000FEF7FDFECDE90601D4E91A733A46FEF74E
:10163000DDFDC4E91A0106214846FFF71FFF0546F4
:10164000FF2D03D019F8050084F8700008214846E2
:10165000FFF714FF0546FF2D09D009EB050008A987
:1016600000F065F80746FEF749FFC4E922019DF83E
:10167000200001280AD154F8887F0022254B3846E3
:101680006168FEF7CCFEC4E90001883C9DF82000AB
:1016900002280AD154F8887F00221B4B3846616823
:1016A000FEF7BDFEC4E90001883C09214846FFF76A
:1016B000E5FE0546FF2D1FD009EB050008A900F047
:1016C00036F8064642F21070B6FBF0F0C1B24D207B
:1016D00001556420B6FBF0F06421B0FBF1F201FB90
:1016E00012014C2001556420B6FBF0F100FB1160A3
:1016F00000F5FA60A4F84A000AB0BDE8F0870000DF
:10170000474E524D4300000000005940006AF84027
:1017100000004E400000244010B50246012000E0C9
:1017200050430B1EA1F10104E1B2F9D110BD2DE926
:10173000F34F81B007463C46002000908346814627
:101740000026804628E020782D2802D148F00208A3
:10175000641C20782C2802D020782A2800D11CE094
:1017600020782E2803D148F00108641C09E0207875
:10177000392802DC2078302803DA4FF000090026EF
:101780000BE008F0010010B1701CC6B203E009F1D3
:10179000010000F0FF09641CD5E700BF08F002005B
:1017A00000B17F1C00250EE0A9F10100401BC1B271
:1017B0000A20FFF7B1FF795D3039009A00FB012064
:1017C0000090681CC5B24D45EEDB052E00DD0526F8
:1017D0000298067000250EE0701E401BC1B20A2060
:1017E000FFF79AFF09F101012944795C303900FBC8
:1017F00001BB681CC5B2B542EEDB31460A20FFF7DB
:101800008BFF009901FB00BA08F0020008B1CAF191
:10181000000A5046BDE8FE8F10B5C17809B3164ADC
:10182000126802F4E0634FF4E0629A43110A4278CE
:10183000C1F104039A4083780F240C4123401A43DA
:1018400011010E4A04781155027802F01F0301229B
:101850009A4003785B119B0003F1E023C3F8002159
:1018600009E0017801F01F0201219140044A037848
:101870005B1142F8231010BD0CED00E000E400E025
:1018800080E100E002490143024A11607047000014
:101890000000FA050CED00E02DE9FF5F06460F465B
:1018A0002D48C0C008382D490CC803C9FEF79EFC5E
:1018B0002A4A03C200222A4B284903C9FEF78CFE9C
:1018C00004D200212648254AC2E900100022254BF7
:1018D000224903C9FEF768FE04D2002121481F4AAD
:1018E000C2E900101C4820490CC803C9FEF71FFDBF
:1018F0001E4A03C2FFF74CF9CDE90201FFF7FCFCD9
:101900008046894600F092F8824642464B46FEF7F2
:101910006DFCCDE90001DDE90223FEF767FC04461A
:101920000D460D4903C9104A03C20022104B204640
:101930002946FEF751FE01D200240D4D00220D4B29
:1019400020462946FEF730FE01D20024094D2046EC
:10195000294604B0BDE8F09F0806002010060020CC
:1019600000005940000059C0180600202006002041
:101970000000494000002E4008B50121084600F053
:1019800065F8012208210A48FFF707FA6846FFF7C1
:1019900020FA4FF48070ADF8000001208DF80200AD
:1019A00018208DF8030069460148FFF7A1F908BD2A
:1019B0000000044030B587B004460D46FFF7DCFF59
:1019C0000121084600F062F80594681E80B2ADF867
:1019D00010000020ADF818008DF8120004A912487C
:1019E00000F02EFB70208DF80000202001900220D6
:1019F0008DF8080001208DF8010069460A4800F0C2
:101A0000EDFA0821084800F015FB0121064800F016
:101A1000ABFA0121044800F0B6FA0121024800F0B7
:101A2000BDFA07B030BD0000002C014070B50022A7
:101A3000044B054903C9FEF780FC04460D462046C9
:101A4000294670BD00003E400806002029B1064A24
:101A5000926A0243044B9A6204E0034A926A824308
:101A6000014B9A62704700000010024029B1064AFB
:101A7000126B0243044B1A6304E0034A126B824365
:101A8000014B1A63704700000010024029B1064A5A
:101A9000D26A0243044BDA6204E0034AD26A824308
:101AA000014BDA62704700000010024000B500F000
:101AB0002DF804494968C1F30311034A515CC84039
:101AC00000BD0000001002403C06002000B5FFF7FA
:101AD000EDFF04494968C1F30221034A515CC84043
:101AE00000BD0000001002403C06002000B5FFF7DA
:101AF000DDFF04494968C1F3C221034A515CC84073
:101B000000BD0000001002403C06002010B5194C3A
:101B1000646804F00C04042C06D0082C06D00C2CAD
:101B200023D149F6404022E0134820E0114CA46C38
:101B300004F0010444B10F4CA46C04F002040CB195
:101B40000E4C02E00C4C00E00B4C2346094CA46CFC
:101B5000C4F30644611C074CA46CC4F30224621C49
:101B600003FB01F4B4FBF2F001E0034800BF00BF47
:101B700010BD00000010024000127A0000093D0074
:101B800010B5012251030848FFF72BF900224FF44A
:101B900080510548FFF725F900224FF480410248A3
:101BA000FFF71FF910BD00000010044010B50A48EF
:101BB000006820F01800084908600846006840F0F6
:101BC0000100086000BF0448406800F003000228DC
:101BD000F9D100F003F810BD0060014000B587B0F6
:101BE0000020039002907C48006840F001007A4990
:101BF000086000BF7848006800F002000028F9D0B3
:101C00007548006840F48030734908600520FEF78D
:101C1000EFFE724800687249884210D96E48006B26
:101C200040F080506C4908636E48006820F44040E2
:101C30006C4908600846006840F44040086010E0C5
:101C40006548006800F400300290029800B109E095
:101C50000398401C03900398B0F5485F01D307B088
:101C600000BDEDE700BF5C48006800F4003010B92B
:101C700000200290F3E7012002900520FEF7B8FE55
:101C80005948564908605948006840F010005749C3
:101C900008600846006820F0070008604F480068A8
:101CA000401E5349B0FBF1F0069050480068069979
:101CB00001F0070108434D4908604748406843F672
:101CC000F0718843444948600846406840F09000FD
:101CD0004860084640684860404800684549884276
:101CE00006D93D48406840F4A0603B4948600AE09E
:101CF0003A4800684049884205D93748406840F46E
:101D00008060354948606B4601AA344801683B4809
:101D1000FEF70DFE3048806C20F003002E498864E9
:101D20000846806C40F0010088649DF8000000F0D7
:101D3000070004909DF8040000F07F00059008461D
:101D4000006B40F0805008630846806C2C490840C6
:101D50002149886405980004049940EA01201E493D
:101D6000896C08431C4988640846006840F080700C
:101D7000086000E000BF1848006800F0007000280C
:101D8000F8D01548406820F0030013494860084621
:101D9000406840F00200486000E000BF0E48406824
:101DA00000F00C000828F8D10120FEF721FE0A48B7
:101DB000406820F01000084948600120FEF718FE36
:101DC0000548406820F08000034948600120FEF784
:101DD0000FFE00BF43E7000000100240280600206D
:101DE00000D8B80500700040000E27070020024010
:101DF00000366E0100A24A040051250200127A004A
:101E0000FFF880FF70B504460D4620462946FFF7CF
:101E100043FD114A03C20022104B0F4903C9FEF7CC
:101E2000DBFB04D200210D480B4AC2E9001000225E
:101E30000B4B094903C9FEF7B7FB04D20021084840
:101E4000054AC2E90010044903C9FEF794FB05499D
:101E500008601046194670BDF80500200000494092
:101E600000003840342C014010B51448006840F0A0
:101E700001001249086008464068114908400F49AE
:101E80004860084600680F4908400C490860084649
:101E9000006820F4802008600846406820F4430071
:101EA00048600846006808490840044908604FF443
:101EB0001F008860FFF77AFE10BD0000001002408E
:101EC0000CC0FFF8FFFFF6FEFFFF8F0070B5012189
:101ED000880700F06EF880B10121880700F04FF804
:101EE000FEF7FEFF054A03C2054804490CC803C9B2
:101EF000FEF75EFE0446FFF785FF70BDF00500208B
:101F0000900000207FB504460D4601210846FFF7EA
:101F1000ADFD0294681E80B2ADF804000020ADF85B
:101F20000C008DF8060001A94FF0804000F088F801
:101F300001221146900700F047F84FF4C060FFF708
:101F4000A1FC1C208DF8000003208DF801008DF805
:101F5000020001208DF803006846FFF75DFC0121B7
:101F6000880700F010F87FBD21B1026842F08002BE
:101F7000026003E0026822F080020260704702699A
:101F80008A430261704721B1026842F00102026097
:101F900003E0026822F001020260704721B1426C46
:101FA00042F40042426403E0426C22F40042426484
:101FB000704702461069084020B1D068084008B157
:101FC000012070470020FCE71AB1C3680B43C360CF
:101FD00002E0C3688B43C36070470000826922F04F
:101FE00070020B781A4382610A7A4B781A43036AAB
:101FF00023F003031A4302624A6842630B4A904289
:1020000002D00B4A90420FD14A7A8B781A43036A66
:1020100023F00C031A4302624A898B891A434368EE
:1020200023F440731A43426070470000002C0140C3
:1020300000340140826922F008020A43826170473D
:10204000026822F440720B891A430260154A9042DA
:102050000ED0B0F1804F0BD0134A904208D0134AF3
:10206000904205D0124A904202D0124A904205D1C5
:10207000026822F070028B781A430260094A90428B
:1020800002D00C4A904205D1026B22F0FF028B7AFB
:102090001A4302634A68C2620A888262012242616C
:1020A00070470000002C0140000400400008004080
:1020B000000C00400034014008B501210846FFF73C
:1020C000C5FC072209211248FEF767FE07220A21F4
:1020D0000F48FEF762FE6846FEF77BFE4FF4007085
:1020E000ADF8000001208DF802001C208DF80300DF
:1020F00069460748FEF7FCFD4FF48060ADF800002C
:1021000048208DF8030069460148FEF7F1FD08BD3F
:102110000000044010B502210D4800F0EAF8B0B10B
:1021200002210B4800F0CEF8094800F02DF90446D2
:1021300003E0A1B2074800F02BF90221054800F0A6
:10214000D0F80028F5D0214603A000F0DFF910BD3B
:1021500000380140004C004025780D0A00000000C6
:1021600000B589B001214805FFF770FC24480190B3
:102170002448029000208DF80C004FF40070049069
:1021800000208DF8140080208DF815000020ADF897
:102190001600ADF818008DF81A004FF40050ADF895
:1021A0001C000020ADF81E004FF40040ADF82000E8
:1021B00001A91548FEF7C9FC012202211048001FA1
:1021C00000F088F8012202210F48FEF7B5FC4FF419
:1021D000C060FFF757FB0D208DF8000000208DF840
:1021E00001008DF8020001208DF803006846FFF71A
:1021F00013FB01210448FEF781FC09B000BD00007B
:1022000004480040580600203000024008B5012173
:102210000220FFF71BFC07220A211248FEF7BDFD32
:1022200007220B210F48FEF7B8FD6846FEF7D1FDE7
:102230004FF48060ADF8000001208DF802001C20F2
:102240008DF8030069460748FEF752FD4FF4006021
:10225000ADF8000048208DF8030069460148FEF7FC
:1022600047FD08BD0004044008B501210420FFF724
:10227000EDFB08220A211248FEF78FFD08220B21F0
:102280000F48FEF78AFD6846FEF7A3FD4FF4806015
:10229000ADF8000001208DF8020018208DF8030031
:1022A00069460748FEF724FD4FF40060ADF80000D2
:1022B00028208DF8030069460148FEF719FD08BD86
:1022C0000008044041617047826922F001020A431C
:1022D00082617047836923F0020343EA420383610A
:1022E000704702469068084008B1012070470020FE
:1022F000FCE70246D068084008B101207047002082
:10230000FCE71AB103690B43036102E003698B43E5
:102310000361704770B504460D460026E06920F061
:10232000300029790843E061E06920F04400A97990
:102330000843E061E06920F00300297A0843E06186
:10234000A06920F0180069890843A061A06920F005
:102350000400297B0843A0610A48844203D1FFF7A7
:10236000C5FB064602E0FFF7B1FB06462868B6FB50
:10237000F0F0000920622868B6FBF0F000F00F00D2
:10238000606270BD0038014001464868C0B27047C5
:10239000CAB2026070474FF4E1310160302101712F
:1023A0000021817101721821418100210173704760
:1023B00010B586B00446FFF77FFE01211020FFF71D
:1023C00065FB02A8FFF7E7FF029430208DF80C00B0
:1023D00000208DF80E008DF810008DF814001820E4
:1023E000ADF8120002A91248FFF794FF012110482E
:1023F000FFF76AFF012202210D48FFF782FF4FF429
:10240000C060FFF73FFA25208DF8040002208DF808
:10241000050001208DF8070000208DF8060001A8B6
:10242000FFF7FAF901210248FFF74EFF06B010BD91
:10243000003801401FB50446FFF7E8FE012188047B
:10244000FFF714FB6846FFF7A6FF009430208DF8D5
:10245000040000208DF806008DF808008DF80C00AF
:102460001820ADF80A0069460348FFF753FF012121
:102470000148FFF729FF1FBD004800401FB5044673
:10248000FFF7F2FE0121C804FFF7F0FA00943020B4
:102490008DF8040000208DF806008DF808008DF8F6
:1024A0000C001820ADF80A0069460448FFF732FF17
:1024B00001210248FFF708FF1FBD0000004C00404B
:1024C00070B504460D4600220F4B20462946FEF704
:1024D00083F807D200220C4B20462946FDF727FF40
:1024E00004460D460022134620462946FEF75CF8B6
:1024F00007D20022044B20462946FDF777FE04460A
:102500000D462046294670BD008076400FB4054B2D
:1025100010B503A9044A029800F016FC10BC5DF83F
:1025200014FB0000313B00084C060020490050EA33
:10253000C12018BF04204A0D18BF40F0010040F22E
:10254000FF72B2EB515F08BF40F00200012808BFE4
:10255000052070472DE9F74F144694B00021C4E9D7
:1025600002111599079121F00045C9498D4206DCF9
:102570001599C4E9000117B00020BDE8F08FC549E6
:10258000DFF814A3A9423CDD0799C44E0029C44FCB
:10259000C44A1599534619DDFDF7C9FE554506D0C5
:1025A000C14AC24BFDF7C3FEC4E900010AE04FF087
:1025B000D352BE4BFDF7BBFE32463B46FDF7B7FE9E
:1025C000C4E9000117B00120BDE8F08FFDF70EFE51
:1025D000554506D0B44AB54BFDF708FEC4E90001E5
:1025E0000AE04FF0D352B14BFDF700FE32463B46B6
:1025F000FDF7FCFDC4E9000117B04FF0FF30BDE866
:10260000F08FAB49A942159978DB21F00041834650
:102610008846A84AA84BFDF790FE0022A74BFDF77D
:10262000E5FDFDF789FF0990FDF768FF06460F46B7
:102630009C4A5346FDF781FE43465A46FDF77AFE13
:1026400080468A46984A994B30463946FDF775FED2
:102650002A0D01250B9242465346FDF76BFE032DD2
:10266000C4E9000139D00B98C1F30A51401A05EBB7
:1026700045111139814230DA9148C346784400EB64
:102680000510CDF80CA00C90D0E900233046394657
:10269000FDF753FE02460B460491069058460399F7
:1026A000FDF745FE80468A4602460B46584603998A
:1026B000FDF73DFE049B069AFDF739FE83460C9814
:1026C00003913946D0E902233046FDF736FE5A46DB
:1026D000039BFDF72CFE6D1CBDE707980028A2BFE9
:1026E000099817B0BDE8F08F616881F00041616022
:1026F000099817B04042BDE8F08FFFE7844615986F
:10270000C1F31301C0F30A50A0F2F5304FEA60188C
:1027100000F01F06C6F120001390002006900790DD
:1027200041F4801E05206D4676B1664A08EB000133
:102730007A4452F8213002EB8101B3404A68139980
:1027400022FA01F1194305E05F4908EB00027944E0
:1027500051F82210A1FB0E27A1FB0C131A449A4238
:1027600034BF0123002303EB070A05EB8003D3E901
:1027700001B70F448F4234BF0121002193448B44A1
:1027800011B1934502D903E0934501D2012100E044
:102790000021C3E901B7514445F82010011EA0F102
:1027A0000100C1DC0298059F00F10050800F1290DB
:1027B0000298DDE903568000FDF7A0FE8346284617
:1027C0000D91FDF7ACFE6FF01D02FDF7F2FFCDE9B4
:1027D0000E013046FDF7A3FE6FF03D02FDF7E9FF65
:1027E00080468A463846FDF79AFE6FF05D02FDF797
:1027F000E0FF0746424653461191FDF7F7FCDDE93D
:102800000E23FDF7F3FC5A460D9BFDF7EFFC002568
:102810000E465A4628460D9BFDF789FDDDE90E233D
:10282000FDF785FD42465346FDF781FD3A46119B73
:10283000FDF780FDDFF898A0244A5346FDF77DFDA3
:1028400007468846234A244B31462846FDF775FD46
:102850003A464346FDF7CAFC074688464FF0A84271
:10286000534631462846FDF768FD3A464346FDF794
:10287000BDFC159A12F0004F04D0129A81F000416D
:1028800052421292C4E90001129817B0BDE8F08FCD
:10289000FB21E93F7CD90240FB21F93F7370032EF5
:1028A0008A19A33B000040543163621A61B4D03DE1
:1028B000FB21394183C8C96D305FE43F0000E03F30
:1028C00038200000B41F0000961F0000182D44544B
:1028D000FB21F93D3326A611460B113C2DE9FF4D96
:1028E00021F0004807460C46B8F1795F08DAFDF799
:1028F00023FE002801BF0020324904B0BDE8F08D5E
:102900003A46234610461946FDF717FD054602468E
:102910002D480E460B460621784400F05DF82A4605
:102920003346FDF70AFDDDE9022382468B46384631
:102930002146FDF702FD04460F4652465B462846F7
:102940003146FDF7FAFC22463B46FDF7F0FC074610
:102950008A464FF0FF3228463146FDF72AFF1B4AD0
:1029600090450ADA3A465346FDF7E1FC04B00022EE
:10297000BDE8F04D134BFDF7DDBC154A4245A8BF3D
:10298000A8F500154FF00004B8BF124D22462B46A3
:10299000FDF7CDFC0646884622462B460020094915
:1029A000FDF7C5FC04460D463A46534630464146BF
:1029B000FDF7BDFC04B022462B46BDE8F04DFDF707
:1029C000B9BC00000000F03F641D00003333D33F6A
:1029D0000000E93F0000D23F2DE9F0414F1E00EB1F
:1029E000C7010446D1E9000115461E4637F006022C
:1029F0000DD02A463346FDF7A0FC7F1E04EBC7032B
:102A0000D3E90023FDF7F2FB37F00602F1D1022FE4
:102A100025D0042F13D0062F18BFBDE8F0812A4619
:102A20003346FDF78AFCD4E90A23FDF7DFFB2A468B
:102A30003346FDF782FCD4E90823FDF7D7FB2A468D
:102A40003346FDF77AFCD4E90623FDF7CFFB2A468F
:102A50003346FDF772FCD4E90423FDF7C7FB2A4691
:102A60003346FDF76AFCD4E90223FDF7BFFB2A4693
:102A70003346FDF762FCD4E90023BDE8F041FDF7E1
:102A8000B5BB00002DE9FF4D054621F0004084B0A4
:102A90000C46B0F1795F0BDA2846FFF747FD0428B2
:102AA00008BF00F071F8284608B02146BDE8F08D57
:102AB0002A460B461046FDF740FC06460F462A46BE
:102AC0002346FDF73AFC804626488A4632463B4676
:102AD00005217844FFF780FF83461098029160B388
:102AE000214A224B40465146FDF727FCCDE9000123
:102AF0005A4640465146029BFDF71FFC82468846D7
:102B0000DDE906014FF0FF32FDF753FE5246434622
:102B1000FDF70DFC32463B46FDF70FFCDDE90623D1
:102B2000FDF705FCDDE90023FDF701FC08B02A46AE
:102B30002346BDE8F04DFDF7FDBB0B465A46304637
:102B40003946FDF7FAFB084A084BFDF74FFB4246B2
:102B50005346FDF7F2FB08B02A462346BDE8F04D88
:102B6000FDF744BBAA1C0000495555555555C5BF36
:102B70000122FDF71EBEFDF739BB002213461046A9
:102B80001146FDF74CBC0000024A00201107FDF77A
:102B900010BE000001FDFFFF02E008C8121F08C1BF
:102BA000002AFAD170477047002001E001C1121FCE
:102BB000002AFBD1704700000149086070470000FF
:102BC000500600202DE9FF5F82B00021DDE90430CE
:102BD000020DDDF840B0034318D044F61050A2F2C5
:102BE000FF3242431514119801281FD0A5EB0B00AA
:102BF000401C5FEA000A4FF000064E4FDFF83891A4
:102C0000B046504615D5CAF1000413E011980124CE
:102C10004AA3012801D16FEA0B010298119AC0E979
:102C20000031C0E9024206B0BDE8F09FCBF10000E0
:102C3000DFE704460021404A491842EB0450CDE941
:102C4000001012E0E00707D032463B4640464946B6
:102C5000FDF773FB8046894632463B4610461946CF
:102C6000FDF76BFB06460F466410002CEAD1DDE948
:102C70000401DDE90023BAF1000F06DAFDF75DFB80
:102C800042464B46FDF759FB05E0FDF7C8FB4246BF
:102C90004B46FDF7C4FB04460E460022284BFDF7C9
:102CA0009BFC03D84FF0FF30014607E00022254B84
:102CB00020463146FDF79AFAFDF7E3FD102409E0BE
:102CC000002C0ADB0A220023FDF7B4FC039B303200
:102CD0001A55641E50EA0102F2D1641C039AC4F131
:102CE00011031444119A012A03D0012208430DD183
:102CF0000AE0084304D000204FF0110B119072E756
:102D0000A3EB0B056D1E0DE05B4504DD4FF00002EB
:102D100005F1010504E003DA4FF00002A5F1010519
:102D2000002AECD002981199C0E90231C0E90045AF
:102D300079E70000000014400000F03F3000000080
:102D40000000F0430000E03F2DE9FF4F95B09B46A7
:102D50008946064600250FE2252877D1002427461C
:102D6000F84A0121059400E0044316F8013F203B96
:102D700001FA03F01042F7D130782A2811D06FF011
:102D80002F033078A0F13002092A16D8059A44F0B2
:102D9000020402EB820203EB42021044761C05900F
:102DA000EFE759F8042B0592002A03DA504244F465
:102DB0000054059044F00204761C30782E2816D179
:102DC00016F8010F44F004042A280DD06FF02F02EA
:102DD0003078A0F13003092B09D807EB870302EB09
:102DE0004303C718761CF3E759F8047B761C307848
:102DF0006C280FD006DC4C2817D068280DD06A2824
:102E000014D104E0742810D07A280FD10DE044F4D6
:102E100000140AE044F4801401E044F44014727891
:102E2000824202D104F58014761C761C3078662824
:102E30000BD013DC582877D009DC002875D0452842
:102E4000F6D04628F4D047281AD19DE118E063282F
:102E500035D0642879D0652812D195E1702873D0D7
:102E600008DC6728F1D069286FD06E280DD06F2854
:102E700006D1B5E073282CD0752875D0782874D089
:102E80005A46179990476D1C75E1C4F30250022809
:102E900009D003280DD0D9F8001004280DD00D60FA
:102EA00009F1040967E1D9F80010EA17C1E90052F5
:102EB000F6E7D9F800100D80F2E70D70F0E719F889
:102EC000041B8DF8001000208DF80100EA46012057
:102ED00003E059F804AB4FF0FF3061074FF00001F9
:102EE00002D40DE008F101018846B9420FDA8045AD
:102EF000F8DB1AF808100029F4D108E008F1010104
:102F000088468142FADB1AF808100029F6D10598A4
:102F10005B46A0EB080721463846179A00F094FA62
:102F2000284400EB080507E04DE029E10DE01AF820
:102F3000010B5A4617999047B8F10108F7D25B4642
:102F400021463846179A13E142E00A220092C4F360
:102F500002524FF0000A022A08D059F804CB032A83
:102F60004FEAEC710AD00DE029E02AE009F10701EF
:102F700021F00702F2E802C1914609E00FFA8CFC49
:102F80004FEAEC71042A03D14FFA8CFC4FEAEC7142
:102F9000002907DA0A460021DCF1000C61EB02018E
:102FA0002D2202E0220504D52B228DF804200122D7
:102FB00003E0E20701D02022F7E7904659E00A211A
:102FC00002E010220DE010214FF0000A00910BE00A
:102FD00010224FF0000A44F004040827009203E096
:102FE00008224FF0000A0092C4F30252022A05D0D0
:102FF00059F804CB0021032A08D009E009F10701A0
:1030000021F00702F2E802C1914605E01FFA8CFCAC
:10301000042A01D10CF0FF0C4FF00008220728D53C
:10302000702806D0009B83F0100353EA0A0305D0F2
:103030000EE040228DF80420012208E05CEA010243
:1030400006D030228DF804208DF80500022290462B
:10305000009B83F0080353EA0A030AD15CEA0102E9
:1030600001D1620705D530228DF804204FF0010808
:103070007F1E582804D034A003900EA802900DE0C3
:1030800036A0F9E753466046009AFDF7D3FA844626
:103090000398825C0298401E029002705CEA010074
:1030A000F0D1029806A9081A00F1200A600702D59B
:1030B00024F4803400E00127574502DDA7EB0A0025
:1030C00000E0002000EB0A01009005984144401AFE
:1030D0000590E00306D45B462146179A059800F058
:1030E000B3F90544002706E001A85A46C05D1799C8
:1030F00090476D1C7F1C4745F6DBE0030CD55B4613
:103100002146179A059800F09FF9054404E0302005
:103110005A46179990476D1C0099481E0090002947
:10312000F5DC08E0029802995A460078491C0291A1
:10313000179990476D1CBAF10001AAF1010AF1DC60
:1031400065E100000928010030313233343536376B
:1031500038396162636465660000000030313233E3
:103160003435363738394142434445460000000083
:1031700000F058F90544761C307800287FF4ECAD57
:1031800019B02846BDE8F08F620700D4062709F180
:10319000070222F0070CFCE80223E14603F0004896
:1031A0005FEA080C02D00FF2702C0DE05FEA045CBD
:1031B00002D50FF2682C07E05FEAC47C02D00FF260
:1031C000602C01E0AFF2700C4FF0FF3823F00043A9
:1031D000CDF850C065280CD006DC452809D046281B
:1031E0001DD047283DD13DE0662818D067287ED104
:1031F00038E00021112F01DB112000E0781CCDE91F
:10320000000106A90EA8FFF7DDFCDDE90F010E9A0B
:1032100003910021009207F1010A04914DE04FF063
:1032200000400097CDE9011006A90EA8FFF7CAFCDF
:10323000DDE90F0203920E9B11990022DDF80CA02C
:103240000093049211B9791C00EB010AB7EB0A0054
:1032500004D4C0F1FF3007F1010A0490AAEB070083
:10326000019044E0012F00DA01270021112F01DD38
:10327000112000E03846CDE9000106A90EA8FFF7AD
:10328000A1FCDDE90F010E9A039100210491009247
:10329000BA4621070CD40399514500DA8A46BAF19F
:1032A000010F05DD009AAAF10101515C302908D017
:1032B000B84202DA10F1040F06DA0121CDE901105B
:1032C00015E0AAF10101E9E7002805DC04990144B1
:1032D0000491AAEB000102E0411C514500DD8A4641
:1032E0000499401A401C01904FF0004002902007C2
:1032F00004D40198504501DBCDF8048000208DF8FE
:103300004F0002980DF14F07B0F1004F25D02B2050
:103310000E9002984FF0020800280CDA404202900A
:103320002D200E9007E00A210298FDF76DF930314B
:10333000029007F8011DB8F10001A8F10108F2DCC4
:1033400002980028EFD1791E0E980870307800F0AE
:10335000200040F0450007F8020D12A8C01B00F144
:1033600007081498007800B1012000EB0A010198C9
:1033700001EBE07105984144401A401E0590E003BE
:1033800006D45B462146179A059800F05DF805447F
:103390001498007818B15A46179990476D1CE003AD
:1033A00024D55B462146179A059800F04DF8054450
:1033B0001CE00498002807DBDDE90301884203DDF7
:1033C0000098405C179901E0179930205A469047C1
:1033D000049805F10105401C04900198401E0190DD
:1033E00004D12E205A46179990476D1CBAF100015E
:1033F000AAF1010ADDDC05E017F8010B5A4617991E
:1034000090476D1CB8F10001A8F10108F4DC5B469F
:103410002146179A0598ABE62D0000002B0000000E
:10342000200000002DE9F041044600251E46174605
:10343000880404D405E039462020B0476D1C641E82
:10344000F9D52846BDE8F0812DE9F0410446002574
:103450001E469046C80301D5302700E02027880487
:1034600004D505E041463846B0476D1C641EF9D5C9
:103470002846BDE8F08100002DE9F04D0546DFF853
:10348000388221F000408D4F82B00C46404520DB51
:10349000A0EB080129430BD08949884201DC10D1F7
:1034A0007DB102B028462146BDE8F04DFFF760BB74
:1034B000002CC7BF002001468248394602B0BDE853
:1034C000F08D0120FFF778FB02B0BDE8F04DFFF76B
:1034D00054BB7D49884244DA7C498142A1BF794886
:1034E0007B4902B0BDE8F08D2A46234610461946B6
:1034F000FCF723FF8346024676480E460B4606211C
:103500007844FFF769FA5A463346FCF716FF074638
:1035100071488A465A46334604217844FFF75CFADC
:103520005A463346FCF709FF00224346FCF75EFE8D
:1035300002460B4638465146FCF771FF2A462346A1
:10354000FCF7FBFE654A664BFCF7F4FE2A46234671
:10355000FCF7F0FE02B05B4ABDE8F04D5C4BFCF7B7
:10356000E9BE002C4FF000024BDA4646434628469F
:103570002146FCF73BFE4FF0FF32FDF71AF90446F7
:10358000024658480D460B4606217844FFF724FAB8
:1035900022462B46FCF7D1FE804653488A462246F7
:1035A0002B4604217844FFF717FA22462B46FCF7F6
:1035B000C4FE00223346FCF719FE06468B46204621
:1035C000294600F045FB04460D4632465B46404620
:1035D0005146FCF724FF22462B46FCF7AEFE3F4A3D
:1035E0003F4BFCF7A4FE22462B46FCF7FFFD0122D1
:1035F000FDF7DFF802B03B46BDE8F04D314AFCF77D
:1036000099BE2D4B28462146FCF794FE4FF0FF3221
:10361000FDF7CFF805460E4600F01AFB00270C46D2
:1036200080463A460B46FCF7E1FD82468B463A4619
:10363000234610461946FCF780FE2A463346FCF71F
:1036400079FE52465B46FCF7EAFE824627488B46E7
:103650002A46334606217844FFF7BEF92A46334608
:10366000FCF76BFECDE9000121482A4633460421D0
:103670007844FFF7B1F92A463346FCF75EFE002294
:103680000D4BFCF7B3FD02460B46DDE90001FCF7EC
:10369000C6FE42462346FCF750FE52465B46FCF708
:1036A000A5FD3A462346FCF7A1FD02B00122BDE884
:1036B000F04DFDF77EB800000000F03FFB2109400F
:1036C0000000F07F182D44540000E03F0000603CF3
:1036D000FB21F93F94100000AA100000075C14338E
:1036E00026A6913C0A100000201000003E0F0000AA
:1036F000540F00002DE9F84F04460D4621F000401C
:1037000000917349814211DC7249884201DC06D183
:103710002CB120462946BDE8F84FFFF729BA6E487C
:10372000002DCCBF6D496E49BDE8F88F6D498142CF
:1037300011DD6D498142D8BF4FF0FF366DDD204667
:103740002946FEF7F3FE042808BFFFF71DFA2046BE
:103750002946BDE8F88F6549654F25F0004581424F
:1037600033DD6449814219DD002632464FF0804343
:1037700020462946FCF73AFD80468A46012220462B
:103780002946FDF716F800223B46FCF7D0FD4246DD
:103790005346FCF744FE04460D463EE00126002257
:1037A000BA463B4620462946FCF720FD80460F4698
:1037B0000022534620462946FCF7B9FD42463B46C7
:1037C000FCF72DFE04460D4627E04B4981421BDDE8
:1037D000DFF828A102260022534620462946FCF79E
:1037E000ACFD00223B46FCF701FD80460F4600225F
:1037F000534620462946FCF79AFD42463B46FCF7D5
:103800000EFE04460D4608E0032622462B46002005
:103810003B49FCF704FE04460D4622462B46104663
:103820001946FCF78AFD8B46824602460B46FCF79A
:1038300084FD07460246334888460B4606217844F5
:10384000FFF7CAF852465B46FCF777FD82462E48E2
:103850008B463A46434605217844FFF7BDF83A4681
:103860004346FCF76AFD02460B46002E5046594679
:103870000CDAFCF7BBFC22462B46FCF75EFD01B0E0
:1038800022462B46BDE8F04FFCF754BDFCF7AEFCDA
:1038900022462B46FCF751FD1C4A7A4402EBC60334
:1038A000D3E90023FCF743FD22462B46FCF73FFDFE
:1038B000174A7A4402EBC603D3E90023FCF73AFD2A
:1038C000009A002AB8BF81F00041BDE8F88F0000DF
:1038D000000010440000F07F182D4454FB21F93FF4
:1038E000FB21F9BF0000DC3F0000203E0000F33F59
:1038F0000000F03F0000E63F008003400000F83F7A
:103900000000F0BF0E0E0000CC0D00006A0D00009C
:10391000320D00002DE9F04D9446CCF1000423F067
:1039200000464CEA0404524F46EAD4749A4688464C
:1039300021F00042BC4206D8454240EA050442EA72
:10394000D474BC4204D9BDE8F04D6246FFF713B908
:10395000AAF14055A5F17F6555EA0C040BD002246D
:1039600004EAAA74434DDFF810E144EAD87452EA3D
:10397000000B04D00CE0BDE8F04DFFF7BBBE002CFF
:1039800014BF012CBDE8F08D022C30D0032C32D0B6
:1039900056EA0C0B0AD0BE4220D1BA4209D126F019
:1039A000804622F080423346114617E000291ADB98
:1039B00025E0DFF8C8B0FB44002C04BFDBE90001C0
:1039C000BDE8F08D012C02BFDBE9000181F0004170
:1039D000BDE8F08D022C0AD0032C0CD0BA4212D1D3
:1039E000B8F1000F0BDA23482549BDE8F08D2846D1
:1039F0002449BDE8F08D28467146BDE8F08D1D488C
:103A00002149BDE8F08D921B12153C2AC4BF19480C
:103A10001D490EDCBAF1000FBEBF12F13C0F0020B1
:103A2000014606DB6246FCF7FAFC21F00041FFF795
:103A300061FE002C08BFBDE8F08D012C04BF81F0B1
:103A40000041BDE8F08D114A114B022C07D0FCF764
:103A50006EFC2A46BDE8F04D0A4BFCF768BCFCF74B
:103A600066FC2A46BDE8F04D064BFCF763BC00003F
:103A70000000F07F182D4454FB2109C0F60C000013
:103A8000FB21F9BFFB210940FB21F93F075C1433FF
:103A900026A6A13C00B5244B21F0004287B09A42F3
:103AA000DCBF0022134629DD204B9A4208D140B9E1
:103AB0004FF00100FFF780F8FFF75FF807B000BD97
:103AC00003DBFFF755F807B000BD02AAFEF742FD81
:103AD00010F0030104BF0DF1080C9CE80F000DD09D
:103AE000012001290ED0022914D00DF1080C0090FC
:103AF0009CE80F00FEF7C6FF07B000BDFEF7EEFE24
:103B000007B000BD0DF1080C00909CE80F00FEF717
:103B1000B9FF05E00DF1080C9CE80F00FEF7DEFE92
:103B200007B081F0004100BDFB21E93F0000F07FBC
:103B300070B504460D46E1B20548FEF729FC00BF0A
:103B400008210348FEF7CDFB0028F9D0204670BDC0
:103B500000380140FDF7DEFB01E0FDF783FCFCE7E8
:103B60002DE9FF5F04460D4616461F4632463B468A
:103B700020462946FFF7CEFE804600220A4BFCF77E
:103B8000DCFB824609480CC85046FCF748FC002282
:103B9000054BCDE90001FCF729FBCDE90201DDE988
:103BA000020104B0BDE8F09F00806640580000208C
:103BB00000B5254B21F0004287B09A4203DC002279
:103BC000134600922BE0214B9A4208D140B94FF0A6
:103BD0000100FEF7F1FFFEF7D0FF07B000BD03DBE9
:103BE000FEF7C6FF07B000BD02AAFEF7B3FC10F057
:103BF00003014FF001000DD0012914D002291AD081
:103C00000DF1080C9CE80F00FEF768FE07B081F08C
:103C1000004100BD0DF1080C00909CE80F00FEF77C
:103C200031FF07B000BD0DF1080C9CE80F00FEF756
:103C300055FE07B000BD0DF1080C00909CE80F0088
:103C4000FEF720FFE2E70000FB21E93F0000F07FE4
:103C50002DE9F04106460F46FCF7C2FD041E0D4655
:103C600018BF0120284320F00040C0F17F6000F120
:103C7000E040C00F0ED0301C18BF0120384320F0A8
:103C80000040C0F17F6000F1E040C00F04BF0120A0
:103C9000FEF792FF20462946BDE8F0812DE9FF5F3F
:103CA00035483649096800EB0110D0E902893248ED
:103CB0003249096800EB0110D0E900AB30488DE8CB
:103CC000000F30490CC803C9FCF7A2FF0446FEF7F9
:103CD000F7FB2D4A03C2FDF7CDF82C480068401CC5
:103CE0002A49086008460068142842DD2848D0E9BF
:103CF00000633246244903C9FCF719FB0446FEF76A
:103D0000DFFB244A03C20022234B224903C9FCF7EC
:103D100063FC0FD2FDF7E4F8064600221F4BFCF7C8
:103D200006FB04461B480CC82046FCF75FFA1C4AF9
:103D300003C209E0FDF7D4F8044616480CC8204633
:103D4000FCF754FA164A03C20022164B114903C964
:103D5000FCF742FC0DD20022134B0E4903C9FCF7BD
:103D600023FC06D205480068401C04490860FCF7A3
:103D700011FEBDE8FF9F0000C8000020B800002031
:103D8000B0000020A8000020A0000020C0000020FB
:103D9000E00A002098000020008066400080764005
:103DA0009000002000004E4000C072402DE9F04F0E
:103DB00091B004460D4616461F4625F00040CDE959
:103DC0000A4020460B99FFF743FF8246934A944BE3
:103DD000FCF7B3FA914A934BCDE90E0120462946F0
:103DE000FCF7ABFA824632463B46FCF7A6FA32466F
:103DF0003B46CDE90A0189488949FCF79EFA82468B
:103E000032463B46FCF799FA32463B46CDE906017D
:103E100000208549FCF791FA00224FF08043CDE95C
:103E2000020120462946FCF788FA824600227F4B91
:103E3000FCF7DCF9CDE90001DDE90223FCF7D6F956
:103E4000CDE90401DDE90623FCF7D0F9CDE908014D
:103E5000DDE90A23FCF7CAF9CDE90C01DDE90E23FF
:103E6000FCF7C4F98046894600224FF08043204683
:103E70002946FCF762FA82466D480CC85046FCF7AA
:103E80005CFACDE90201FFF793FE0022694BCDE910
:103E90000401FCF752FA0022674BCDE908012046E5
:103EA0002946FCF74AFA824661480CC85046FCF79E
:103EB00044FACDE90201FFF77BFE00225D4BCDE91C
:103EC0000401FCF73AFACDE90601DDE90823FCF725
:103ED0008DF900224FF08043CDE90A01FCF72DFA5D
:103EE0000022514BCDE90C01FCF799FA42464B46B2
:103EF000CDE90E01FCF77AF98046894600224A4B4B
:103F000030463946FCF78BFA824649480CC8504681
:103F1000FCF713FACDE90201FFF74AFE0022474BF6
:103F2000CDE90401FCF709FACDE9080140480CC8C5
:103F300030463946FCF701FACDE90401FFF738FEB7
:103F4000824600223B4BFCF7F8F9CDE90601DDE99A
:103F50000823FCF74BF900224FF08043CDE90A011A
:103F6000FCF7EBF90022304BCDE90C01FCF757FAD6
:103F700042464B46CDE90E01FCF738F980468946AA
:103F80002B480CC830463946FCF7D7F98246002248
:103F90002B4BFCF744FACDE90201FFF709FE0022A2
:103FA000284BCDE90401FCF7C8F90022264BCDE9E6
:103FB000080130463946FCF732FA82461C480CC8E4
:103FC0005046FCF7BAF9CDE90201FFF7F1FD0022F6
:103FD0001E4BCDE90401FCF7B0F9CDE90601DDE99E
:103FE0000823FCF703F900224FF08043CDE90A01D2
:103FF000FCF7A3F900220C4BCDE90C01FCF70FFAFA
:1040000042464B46CDE90E01FCF7F0F88046894662
:104010004046494611B0BDE8F08F00009A99999941
:104020009999C93F9999B93F00000840000059C0CB
:1040300070000020000034400000184000004440A0
:1040400000003E4000007440000028400000644032
:104050002DE9F04F8FB004460D469046994625F065
:104060000040CDE9084020460999FFF7F1FD82465E
:10407000914A924BFCF761F98F4A904BCDE90C01C4
:1040800020462946FCF759F9824642464B46FCF742
:1040900054F9894A894BCDE9080120462946FCF7A5
:1040A0004CF9824622462B46FCF747F942464B46DE
:1040B000CDE9040100204FF08041FCF73EF9824633
:1040C0008B4600227E4B20462946FCF78FF852464D
:1040D0005B46CDE90001FCF789F8CDE90201DDE995
:1040E0000423FCF783F8CDE90601DDE90823FCF79A
:1040F0007DF8CDE90A01DDE90C23FCF777F80646E7
:104100000F4600224FF0804320462946FCF715F960
:10411000CDE900016B480CC80098FCF70EF9824607
:10412000FFF746FD0022684BCDE90201FCF705F9D7
:104130000022664BCDE9060120462946FCF7FDF832
:10414000824660480CC85046FCF7F7F8CDE90001FC
:10415000FFF72EFD00225C4BCDE90201FCF7EDF8E4
:10416000CDE90401DDE90623FCF740F800224FF019
:104170008043CDE90801FCF7E0F80022544BCDE97B
:104180000A01FCF74CF932463B46CDE90C01FCF73D
:104190002DF806460F4600224D4B20462946FCF7D7
:1041A0003EF9824647480CC85046FCF7C6F8CDE9B0
:1041B0000001FFF7FDFC0022464BCDE90201FCF7B0
:1041C000BCF8CDE906013F480CC820462946FCF75B
:1041D000B4F8CDE90201FFF7EBFC824600223A4B2E
:1041E000FCF7ABF8CDE90401DDE90623FBF7FEFFA0
:1041F00000224FF08043CDE90801FCF79EF8002231
:10420000334BCDE90A01FCF70AF932463B46CDE9CA
:104210000C01FBF7EBFF06460F4600222E4B204613
:104220002946FCF7FCF8CDE9000126480CC80098A7
:10423000FCF783F8CDE90201FFF7BAFC82460022C1
:104240001F4BFCF77AF80022244BCDE906012046EB
:104250002946FCF7E4F882461A480CC85046FCF799
:104260006CF8CDE90001FFF7A3FC00221C4BCDE95F
:104270000201FCF762F8CDE90401DDE90623FBF752
:10428000B5FF00224FF08043CDE90801FCF755F857
:1042900000220F4BCDE90A01FCF7C1F832463B463C
:1042A000CDE90C01FBF7A2FF06460F463046394622
:1042B0000FB0BDE8F08F00009A9999999999B93F8C
:1042C00000C0724070000020000034400000184020
:1042D000000008400000444000003E40000028402C
:1042E00000C062402DE9F04F93B006460F461446D9
:1042F0001D460022634B20462946FCF718F8002291
:10430000614BCDE90A0130463946FCF710F8CDE99A
:104310000801DDE90A23FFF749FD82468B460022AA
:10432000584B20462946FCF702F80022564BCDE9AF
:104330000A0130463946FBF7FAFFCDE90801DDE90D
:104340000A23FFF785FECDE9100100224F4B2046DE
:104350002946FCF764F8CDE90A014D480CC80A98D3
:10436000FBF7EBFFCDE90E01DDE90E01FFF720FCC5
:104370008046894642464B46464903C9FBF7DDFF66
:1043800042464B46CDE90801FBF7D7FF0022424BDE
:10439000CDE90A01FBF7CEFF8046894640464946F3
:1043A000FFF756FCCDE90C0140464946DDE90C23F8
:1043B000FBF7C3FFCDE9040136480CC8002036499D
:1043C000FBF7B5FFCDE9000134480CC80098FBF7B6
:1043D000B4FFCDE90201DDE90423FCF720F8CDE9C3
:1043E00006012B480CC80698FBF7A7FF0022274BB5
:1043F000CDE90A0150465946FBF79FFFCDE9080178
:10440000DDE90A23FCF70BF882468B46DDE90E0155
:10441000FFF740FBCDE904012049DDE90C2303C986
:10442000FBF7FDFFCDE90201DDE90423FBF785FF82
:10443000CDE9060116480CC80698FBF77EFF00225E
:10444000124BCDE90A01DDE91001FBF776FFCDE95A
:104450000801DDE90A23FBF7E2FFCDE9100152462E
:104460005B4620462946FBF7C1FE0D4A03C2304693
:104470003946DDE91023FBF7B9FE0A4A03C213B03F
:10448000BDE8F08F0080414000405A400080664007
:1044900070000020800000200000F03F7800002025
:1044A000B0000020A80000202DE9F04F95B0044690
:1044B0000D4616461F46DDE920ABDDE91E89524652
:1044C0005B4650465946FBF738FF42464B46CDE91E
:1044D000020140464946FBF730FFCDE90001DDE926
:1044E0000223FBF783FECDE90401FFF7B1FB32465F
:1044F0003B46CDE9080130463946FBF71EFF224610
:104500002B46CDE9020120462946FBF716FFCDE9EF
:104510000001DDE90223FBF769FECDE90401FFF7A5
:1045200097FBCDE90601DDE90823FBF706FF5246BC
:104530005B46CDE90C0130463946FBF7FEFE4246AC
:104540004B46CDE9080120462946FBF7F6FECDE9AA
:104550000601DDE90823FBF749FECDE90A01DDE9A3
:104560000C23FBF75CFFCDE90E01FEF785FF00226F
:10457000074BCDE91001FBF7E0FECDE9120105483C
:104580000CC81298FBF74BFF15B0BDE8F08F000088
:1045900000806640E0050020555555555555C53FEE
:1045A0007D6FEB0312D6D4BF5544880E55C1C93F69
:1045B0003B8F68B52882A4BF88B20175E0EF493F00
:1045C00009F7FD0DE13D023F4B2D8A1C273A03C040
:1045D000C88A599CE52A004059018D1B6C06E6BF2C
:1045E00082922EB1C5B8B33F4FBB610567ACDD3FCA
:1045F000182D4454FB21E93F9BF681D20B73EF3F0A
:10460000182D4454FB21F93FE2652F227F2B7A3C81
:10461000075C143326A6813CBDCBF07A8807703C3A
:10462000075C143326A6913CC4EB98999999C9BFAD
:10463000711623FEC671BCBF6D9A74AFF2B0B3BFE2
:104640009AFDDE522DDEADBF2F6C6A2C44B4A2BFA2
:104650000D5555555555D53FFF8300922449C23F0E
:104660006E204CC5CD45B73F513DD0A0660DB13F42
:10467000EB0D76244B7BA93F11DA22E33AAD903F54
:104680004C5555555555A53F7751C1166CC156BF70
:104690009015CB19A001FA3EAD529C804F7E92BE80
:1046A000C4B1B4BD9EEE213ED43888BEE9FAA8BD9F
:1046B000000000000000000000004054FB21F93F12
:1046C0003163621A61B4D03D0000601A61B4D03D1C
:1046D0007370032E8A19A33B0000002E8A19A33B96
:1046E000C14920259A837B390000000000000000AA
:1046F0006E83F9A22915444ED15727FCC0DD34F54D
:10470000999562DB4190433CAB6351FE61C5BBDED2
:104710003A6E24B7E0D24D42EA2E49061C92D109E6
:104720001CEB1DFE3EA729B1F53582E88444BB2E63
:1047300026709CE9417E5FB439D69139F4395383B0
:104740008B5F849C3B28F9BDFF97F81F0F9805DE0F
:104750008B112FEF1F6D0A5ACF7E366DB709CB270D
:10476000663F464F2DEA5F9EC7BA27757BF1E5EBA2
:10477000F739073DEA92528AB15FFB6B085D8D1FE6
:10478000A6F810111111813FD561C119A0012ABFEE
:104790007DFEB157E31DC73EEB9C2B8AE6E55ABE72
:1047A0007CD5CF5A3AD9E53DC84700080000002023
:1047B00054060000D80800080849000854060020E4
:1047C0009C080000A82B0008011A023D0180094A3C
:1047D000D8124DFB210940580D5E04C777102E4AB0
:1047E00040182D445418781540C15458410BEF809F
:1047F000AF8F6A7B3F8D976E1223EAB8300124B2E7
:104800000718162F698CD6514B414001C3F2E7DBE4
:10481000195C40B96C74CE4F101E07CE1951DA10D6
:104820001EEA245B5D4E101EF69672BED8101E1A4C
:10483000DD41EC4C101EFDA19927D7101EF73AA9B7
:104840002F4B101EF8FE06EDD5102EC32D1F494923
:10485000101D325184D4101E5E9CF86A47101EFF52
:104860003D78EDD2101E2A8F6E8445101EEE06D1C3
:104870005AD11001FF01FF01A232F132D9320632C2
:10488000017203B2F032FA0A1D0F2C720232FC0AD6
:104890001D132C720432FE0A1D172C7240323A0A84
:1048A0001D8F2C7220321A0A1D4F2C720729180AEC
:1048B0001D1D2C720532FF0A21192C29146988A9A3
:1048C0002C3242B2149A0A5CF2643260B2EA9AD094
:1048D000B441F2C832B8DAED709A408C29083248F7
:1048E00072222808182D4454FB21092301136B4020
:1048F000403801217B0E279768090102030406074F
:0849000008090CA91041000098
:04000005080001915D
:00000001FF
